{"contracts/PredictionMarket.sol":{"PredictionMarket":{"abi":[{"inputs":[{"internalType":"address","name":"router","type":"address"}],"stateMutability":"nonpayable","type":"constructor"},{"inputs":[],"name":"EmptyArgs","type":"error"},{"inputs":[],"name":"EmptySource","type":"error"},{"inputs":[],"name":"NoInlineSecrets","type":"error"},{"inputs":[],"name":"OnlyRouterCanFulfill","type":"error"},{"anonymous":false,"inputs":[{"indexed":true,"internalType":"uint256","name":"marketId","type":"uint256"},{"indexed":true,"internalType":"address","name":"user","type":"address"},{"indexed":false,"internalType":"uint256","name":"amount","type":"uint256"},{"indexed":false,"internalType":"bool","name":"side","type":"bool"}],"name":"BetPlaced","type":"event"},{"anonymous":false,"inputs":[{"indexed":false,"internalType":"uint256","name":"amount","type":"uint256"}],"name":"LiquidityReserveFunded","type":"event"},{"anonymous":false,"inputs":[{"indexed":false,"internalType":"uint256","name":"amount","type":"uint256"}],"name":"LiquidityReserveWithdrawn","type":"event"},{"anonymous":false,"inputs":[{"indexed":true,"internalType":"uint256","name":"marketId","type":"uint256"},{"indexed":false,"internalType":"uint256","name":"refundedLiquidity","type":"uint256"}],"name":"MarketCanceled","type":"event"},{"anonymous":false,"inputs":[{"indexed":true,"internalType":"uint256","name":"marketId","type":"uint256"},{"indexed":false,"internalType":"string","name":"question","type":"string"},{"indexed":false,"internalType":"uint256","name":"startTime","type":"uint256"},{"indexed":false,"internalType":"uint256","name":"endTime","type":"uint256"},{"indexed":false,"internalType":"uint256","name":"minBet","type":"uint256"},{"indexed":false,"internalType":"uint256","name":"maxBet","type":"uint256"},{"indexed":true,"internalType":"address","name":"creator","type":"address"}],"name":"MarketCreated","type":"event"},{"anonymous":false,"inputs":[{"indexed":true,"internalType":"uint256","name":"marketId","type":"uint256"},{"indexed":false,"internalType":"bool","name":"outcome","type":"bool"}],"name":"MarketResolved","type":"event"},{"anonymous":false,"inputs":[{"indexed":true,"internalType":"bytes32","name":"requestId","type":"bytes32"},{"indexed":false,"internalType":"bool","name":"outcome","type":"bool"}],"name":"OracleFulfilled","type":"event"},{"anonymous":false,"inputs":[{"indexed":true,"internalType":"address","name":"previousOwner","type":"address"},{"indexed":true,"internalType":"address","name":"newOwner","type":"address"}],"name":"OwnershipTransferred","type":"event"},{"anonymous":false,"inputs":[{"indexed":false,"internalType":"uint256","name":"amount","type":"uint256"}],"name":"PlatformFeesWithdrawn","type":"event"},{"anonymous":false,"inputs":[{"indexed":true,"internalType":"bytes32","name":"id","type":"bytes32"}],"name":"RequestFulfilled","type":"event"},{"anonymous":false,"inputs":[{"indexed":true,"internalType":"bytes32","name":"id","type":"bytes32"}],"name":"RequestSent","type":"event"},{"anonymous":false,"inputs":[{"indexed":true,"internalType":"uint256","name":"marketId","type":"uint256"},{"indexed":false,"internalType":"bytes32","name":"requestId","type":"bytes32"}],"name":"ResolutionRequested","type":"event"},{"anonymous":false,"inputs":[{"indexed":true,"internalType":"uint256","name":"marketId","type":"uint256"},{"indexed":true,"internalType":"address","name":"user","type":"address"},{"indexed":false,"internalType":"uint256","name":"amount","type":"uint256"}],"name":"RewardClaimed","type":"event"},{"anonymous":false,"inputs":[{"indexed":true,"internalType":"uint256","name":"marketId","type":"uint256"},{"indexed":true,"internalType":"address","name":"user","type":"address"}],"name":"RewardClaimedFor","type":"event"},{"inputs":[],"name":"MARKET_LIQUIDITY","outputs":[{"internalType":"uint256","name":"","type":"uint256"}],"stateMutability":"view","type":"function"},{"inputs":[],"name":"PLATFORM_FEE_BPS","outputs":[{"internalType":"uint256","name":"","type":"uint256"}],"stateMutability":"view","type":"function"},{"inputs":[{"internalType":"uint256","name":"marketId","type":"uint256"},{"internalType":"address[]","name":"users","type":"address[]"}],"name":"batchClaimFor","outputs":[],"stateMutability":"nonpayable","type":"function"},{"inputs":[{"internalType":"uint256","name":"","type":"uint256"},{"internalType":"address","name":"","type":"address"}],"name":"bets","outputs":[{"internalType":"uint256","name":"amount","type":"uint256"},{"internalType":"bool","name":"claimed","type":"bool"},{"internalType":"bool","name":"side","type":"bool"}],"stateMutability":"view","type":"function"},{"inputs":[{"internalType":"uint256","name":"marketId","type":"uint256"}],"name":"cancelMarket","outputs":[],"stateMutability":"nonpayable","type":"function"},{"inputs":[{"internalType":"uint256","name":"marketId","type":"uint256"},{"internalType":"address","name":"user","type":"address"}],"name":"claimFor","outputs":[],"stateMutability":"nonpayable","type":"function"},{"inputs":[{"internalType":"uint256","name":"marketId","type":"uint256"}],"name":"claimReward","outputs":[],"stateMutability":"nonpayable","type":"function"},{"inputs":[{"internalType":"string","name":"question","type":"string"},{"internalType":"uint256","name":"startTime","type":"uint256"},{"internalType":"uint256","name":"endTime","type":"uint256"},{"internalType":"uint256","name":"minBet","type":"uint256"},{"internalType":"uint256","name":"maxBet","type":"uint256"}],"name":"createMarket","outputs":[],"stateMutability":"nonpayable","type":"function"},{"inputs":[],"name":"donId","outputs":[{"internalType":"bytes32","name":"","type":"bytes32"}],"stateMutability":"view","type":"function"},{"inputs":[],"name":"emergencyWithdraw","outputs":[],"stateMutability":"nonpayable","type":"function"},{"inputs":[],"name":"fundLiquidityReserve","outputs":[],"stateMutability":"payable","type":"function"},{"inputs":[],"name":"gasLimit","outputs":[{"internalType":"uint32","name":"","type":"uint32"}],"stateMutability":"view","type":"function"},{"inputs":[{"internalType":"uint256","name":"marketId","type":"uint256"}],"name":"getMarket","outputs":[{"components":[{"internalType":"uint256","name":"id","type":"uint256"},{"internalType":"uint256","name":"startTime","type":"uint256"},{"internalType":"uint256","name":"endTime","type":"uint256"},{"internalType":"uint256","name":"minBet","type":"uint256"},{"internalType":"uint256","name":"maxBet","type":"uint256"},{"internalType":"uint256","name":"yesPool","type":"uint256"},{"internalType":"uint256","name":"noPool","type":"uint256"},{"internalType":"address","name":"creator","type":"address"},{"internalType":"string","name":"question","type":"string"},{"internalType":"bool","name":"resolved","type":"bool"},{"internalType":"bool","name":"outcome","type":"bool"},{"internalType":"bool","name":"exists","type":"bool"}],"internalType":"struct PredictionMarket.Market","name":"","type":"tuple"}],"stateMutability":"view","type":"function"},{"inputs":[],"name":"getMarketCount","outputs":[{"internalType":"uint256","name":"","type":"uint256"}],"stateMutability":"view","type":"function"},{"inputs":[{"internalType":"uint256","name":"marketId","type":"uint256"}],"name":"getMarketVolume","outputs":[{"internalType":"uint256","name":"","type":"uint256"}],"stateMutability":"view","type":"function"},{"inputs":[{"internalType":"uint256","name":"marketId","type":"uint256"}],"name":"getOdds","outputs":[{"internalType":"uint256","name":"yesOdds","type":"uint256"},{"internalType":"uint256","name":"noOdds","type":"uint256"}],"stateMutability":"view","type":"function"},{"inputs":[],"name":"getPlatformProfit","outputs":[{"internalType":"uint256","name":"","type":"uint256"}],"stateMutability":"view","type":"function"},{"inputs":[],"name":"getPlatformStats","outputs":[{"internalType":"uint256","name":"lifetimeFees","type":"uint256"},{"internalType":"uint256","name":"withdrawnFees","type":"uint256"},{"internalType":"uint256","name":"withdrawableFees","type":"uint256"},{"internalType":"uint256","name":"liquidityReserve","type":"uint256"},{"internalType":"uint256","name":"contractBalance","type":"uint256"}],"stateMutability":"view","type":"function"},{"inputs":[{"internalType":"uint256","name":"marketId","type":"uint256"},{"internalType":"address","name":"user","type":"address"}],"name":"getUserBet","outputs":[{"components":[{"internalType":"uint256","name":"amount","type":"uint256"},{"internalType":"bool","name":"claimed","type":"bool"},{"internalType":"bool","name":"side","type":"bool"}],"internalType":"struct PredictionMarket.Bet","name":"","type":"tuple"}],"stateMutability":"view","type":"function"},{"inputs":[],"name":"getWithdrawableFees","outputs":[{"internalType":"uint256","name":"","type":"uint256"}],"stateMutability":"view","type":"function"},{"inputs":[{"internalType":"bytes32","name":"requestId","type":"bytes32"},{"internalType":"bytes","name":"response","type":"bytes"},{"internalType":"bytes","name":"err","type":"bytes"}],"name":"handleOracleFulfillment","outputs":[],"stateMutability":"nonpayable","type":"function"},{"inputs":[{"internalType":"uint256","name":"","type":"uint256"},{"internalType":"address","name":"","type":"address"}],"name":"hasBet","outputs":[{"internalType":"bool","name":"","type":"bool"}],"stateMutability":"view","type":"function"},{"inputs":[{"internalType":"uint256","name":"marketId","type":"uint256"},{"internalType":"address","name":"user","type":"address"}],"name":"hasUserBet","outputs":[{"internalType":"bool","name":"","type":"bool"}],"stateMutability":"view","type":"function"},{"inputs":[],"name":"lifetimeFeesCollected","outputs":[{"internalType":"uint256","name":"","type":"uint256"}],"stateMutability":"view","type":"function"},{"inputs":[],"name":"lifetimeFeesWithdrawn","outputs":[{"internalType":"uint256","name":"","type":"uint256"}],"stateMutability":"view","type":"function"},{"inputs":[{"internalType":"uint256","name":"","type":"uint256"}],"name":"markets","outputs":[{"internalType":"uint256","name":"id","type":"uint256"},{"internalType":"uint256","name":"startTime","type":"uint256"},{"internalType":"uint256","name":"endTime","type":"uint256"},{"internalType":"uint256","name":"minBet","type":"uint256"},{"internalType":"uint256","name":"maxBet","type":"uint256"},{"internalType":"uint256","name":"yesPool","type":"uint256"},{"internalType":"uint256","name":"noPool","type":"uint256"},{"internalType":"address","name":"creator","type":"address"},{"internalType":"string","name":"question","type":"string"},{"internalType":"bool","name":"resolved","type":"bool"},{"internalType":"bool","name":"outcome","type":"bool"},{"internalType":"bool","name":"exists","type":"bool"}],"stateMutability":"view","type":"function"},{"inputs":[],"name":"oracle","outputs":[{"internalType":"address","name":"","type":"address"}],"stateMutability":"view","type":"function"},{"inputs":[],"name":"owner","outputs":[{"internalType":"address","name":"","type":"address"}],"stateMutability":"view","type":"function"},{"inputs":[{"internalType":"uint256","name":"marketId","type":"uint256"},{"internalType":"bool","name":"side","type":"bool"}],"name":"placeBet","outputs":[],"stateMutability":"payable","type":"function"},{"inputs":[],"name":"platformLiquidityReserve","outputs":[{"internalType":"uint256","name":"","type":"uint256"}],"stateMutability":"view","type":"function"},{"inputs":[],"name":"renounceOwnership","outputs":[],"stateMutability":"nonpayable","type":"function"},{"inputs":[{"internalType":"uint256","name":"marketId","type":"uint256"},{"internalType":"string","name":"source","type":"string"},{"internalType":"string[]","name":"args","type":"string[]"}],"name":"requestMarketResolution","outputs":[],"stateMutability":"nonpayable","type":"function"},{"inputs":[{"internalType":"bytes32","name":"","type":"bytes32"}],"name":"requestToMarket","outputs":[{"internalType":"uint256","name":"","type":"uint256"}],"stateMutability":"view","type":"function"},{"inputs":[{"internalType":"uint256","name":"","type":"uint256"}],"name":"resolutionRequested","outputs":[{"internalType":"bool","name":"","type":"bool"}],"stateMutability":"view","type":"function"},{"inputs":[{"internalType":"uint256","name":"marketId","type":"uint256"},{"internalType":"bool","name":"outcome","type":"bool"}],"name":"resolveMarket","outputs":[],"stateMutability":"nonpayable","type":"function"},{"inputs":[{"internalType":"bytes32","name":"_donId","type":"bytes32"},{"internalType":"uint64","name":"_subscriptionId","type":"uint64"},{"internalType":"uint32","name":"_gasLimit","type":"uint32"}],"name":"setChainlinkConfig","outputs":[],"stateMutability":"nonpayable","type":"function"},{"inputs":[{"internalType":"address","name":"_oracle","type":"address"}],"name":"setOracle","outputs":[],"stateMutability":"nonpayable","type":"function"},{"inputs":[],"name":"subscriptionId","outputs":[{"internalType":"uint64","name":"","type":"uint64"}],"stateMutability":"view","type":"function"},{"inputs":[],"name":"totalCollectedFees","outputs":[{"internalType":"uint256","name":"","type":"uint256"}],"stateMutability":"view","type":"function"},{"inputs":[{"internalType":"address","name":"newOwner","type":"address"}],"name":"transferOwnership","outputs":[],"stateMutability":"nonpayable","type":"function"},{"inputs":[{"internalType":"uint256","name":"amount","type":"uint256"}],"name":"withdrawLiquidityReserve","outputs":[],"stateMutability":"nonpayable","type":"function"},{"inputs":[],"name":"withdrawPlatformFees","outputs":[],"stateMutability":"nonpayable","type":"function"},{"stateMutability":"payable","type":"receive"}],"evm":{"bytecode":{"linkReferences":{},"object":"60a06040526009805463ffffffff60401b19166a0493e000000000000000001790553480156200002e57600080fd5b5060405162003f8138038062003f818339810160408190526200005191620000c7565b6001600160a01b03811660805260016000556200006e3362000075565b50620000f9565b600180546001600160a01b038381166001600160a01b0319831681179093556040519116919082907f8be0079c531659141344cd1fd0a4f28419497f9722a3daafe3b4186f6b6457e090600090a35050565b600060208284031215620000da57600080fd5b81516001600160a01b0381168114620000f257600080fd5b9392505050565b608051613e656200011c600039600081816108d80152612dbb0152613e656000f3fe6080604052600436106102555760003560e01c80638dbe7b9d11610139578063c3b0c7c5116100b6578063eb44fdd31161007a578063eb44fdd3146107b4578063f134ad0a146107e1578063f2fde38b146107f7578063f644b3bb14610817578063f68016b71461087f578063fd69f3c2146108b857600080fd5b8063c3b0c7c514610739578063d0b7830b14610755578063d7785bdb1461076a578063db2e21bc1461077f578063de9b9c5f1461079457600080fd5b8063a95f028a116100fd578063a95f028a146105d7578063ae062acd146105f7578063ae169a5014610632578063b1283e7714610652578063c03fb87c1461068a57600080fd5b80638dbe7b9d14610562578063936c95251461057857806396bd072c146105985780639db491e2146105ae5780639ed9c74d146105c457600080fd5b80634369c6c4116101d25780637adbf973116101965780637adbf973146104975780637c16cd9e146104b75780637dc0d1d0146104d757806383d430cd1461050f5780638443b233146105245780638da5cb5b1461054457600080fd5b80634369c6c414610400578063539aa77f1461042d57806357bde4461461044257806359ea143714610462578063715018a61461048257600080fd5b80631ebba654116102195780631ebba654146103545780633381525a1461035c5780633a3c7b311461037c5780633ad62988146103bc5780633eb6e623146103dc57600080fd5b806309c1ba2e146102615780630ca761751461029e57806310ee3f00146102c0578063126c4166146102e0578063136d88831461031557600080fd5b3661025c57005b600080fd5b34801561026d57600080fd5b50600954610281906001600160401b031681565b6040516001600160401b0390911681526020015b60405180910390f35b3480156102aa57600080fd5b506102be6102b93660046134b7565b6108cd565b005b3480156102cc57600080fd5b506102be6102db36600461353f565b610951565b3480156102ec57600080fd5b506103006102fb36600461356b565b610a11565b60408051928352602083019190915201610295565b34801561032157600080fd5b5060055460065460035460045460408051948552602085019390935291830152606082015247608082015260a001610295565b6102be610af9565b34801561036857600080fd5b506102be61037736600461356b565b610b9d565b34801561038857600080fd5b506103ac61039736600461356b565b600b6020526000908152604090205460ff1681565b6040519015158152602001610295565b3480156103c857600080fd5b506102be6103d73660046135cc565b610d39565b3480156103e857600080fd5b506103f260055481565b604051908152602001610295565b34801561040c57600080fd5b506103f261041b36600461356b565b600a6020526000908152604090205481565b34801561043957600080fd5b506103f2609681565b34801561044e57600080fd5b506102be61045d36600461363b565b611140565b34801561046e57600080fd5b506102be61047d3660046136af565b6112e8565b34801561048e57600080fd5b506102be611615565b3480156104a357600080fd5b506102be6104b2366004613728565b611629565b3480156104c357600080fd5b506102be6104d236600461356b565b61169a565b3480156104e357600080fd5b506007546104f7906001600160a01b031681565b6040516001600160a01b039091168152602001610295565b34801561051b57600080fd5b506103f26117cc565b34801561053057600080fd5b506103ac61053f36600461353f565b6117e3565b34801561055057600080fd5b506001546001600160a01b03166104f7565b34801561056e57600080fd5b506103f260085481565b34801561058457600080fd5b506102be610593366004613743565b611810565b3480156105a457600080fd5b506103f260035481565b3480156105ba57600080fd5b506103f260045481565b6102be6105d236600461363b565b611858565b3480156105e357600080fd5b506103f26105f236600461356b565b611bae565b34801561060357600080fd5b506103ac61061236600461353f565b600e60209081526000928352604080842090915290825290205460ff1681565b34801561063e57600080fd5b506102be61064d36600461356b565b611c70565b34801561065e57600080fd5b5061067261066d36600461356b565b611cf0565b6040516102959c9b9a999897969594939291906137e0565b34801561069657600080fd5b506107136106a536600461353f565b604080516060808201835260008083526020808401829052928401819052948552600d82528285206001600160a01b039490941685529281529281902081519283018252805483526001015460ff808216151594840194909452610100900490921615159181019190915290565b604080518251815260208084015115159082015291810151151590820152606001610295565b34801561074557600080fd5b506103f2676f05b59d3b20000081565b34801561076157600080fd5b506102be611deb565b34801561077657600080fd5b506003546103f2565b34801561078b57600080fd5b506102be611f2b565b3480156107a057600080fd5b506102be6107af366004613857565b61201e565b3480156107c057600080fd5b506107d46107cf36600461356b565b612301565b60405161029591906138a2565b3480156107ed57600080fd5b506103f260065481565b34801561080357600080fd5b506102be610812366004613728565b6124b7565b34801561082357600080fd5b5061086261083236600461353f565b600d6020908152600092835260408084209091529082529020805460019091015460ff8082169161010090041683565b604080519384529115156020840152151590820152606001610295565b34801561088b57600080fd5b506009546108a390600160401b900463ffffffff1681565b60405163ffffffff9091168152602001610295565b3480156108c457600080fd5b506002546103f2565b336001600160a01b037f000000000000000000000000000000000000000000000000000000000000000016146109165760405163c6829f8360e01b815260040160405180910390fd5b61092183838361252d565b60405183907f85e1543bf2f84fe80c6badbce3648c8539ad1df4d2b3d822938ca0538be727e690600090a2505050565b6109596126de565b6000828152600c60205260409020600981015483919062010000900460ff1661099d5760405162461bcd60e51b815260040161099490613965565b60405180910390fd5b600981015460ff166109c15760405162461bcd60e51b815260040161099490613994565b6109cb8484612737565b6040516001600160a01b0384169085907fed498030837cb2e17fef08f16b80d1206257306957b6113fa83c6da94a88144490600090a35050610a0d6001600055565b5050565b6000818152600c60205260408120600681015460058201548392918391610a3891906139da565b905080600003610a505750614e209485945092505050565b6000818360050154612710610a6591906139ed565b610a6f9190613a1a565b90506000828460060154612710610a8691906139ed565b610a909190613a1a565b90506000610aa16096612710613a2e565b9050610aaf836127106139ed565b610abd826305f5e1006139ed565b610ac79190613a1a565b9650610ad5826127106139ed565b610ae3826305f5e1006139ed565b610aed9190613a1a565b95505050505050915091565b610b01612a4d565b60003411610b515760405162461bcd60e51b815260206004820152601d60248201527f4d7573742073656e64204d4f4e20746f2066756e6420726573657276650000006044820152606401610994565b3460046000828254610b6391906139da565b90915550506040513481527f1007592a11eeb4aa60e4b25785d069d874a5e0393449da55070633eca253d5ba9060200160405180910390a1565b610ba5612a4d565b60008111610bf55760405162461bcd60e51b815260206004820152601d60248201527f416d6f756e74206d7573742062652067726561746572207468616e20300000006044820152606401610994565b600454811115610c475760405162461bcd60e51b815260206004820152601c60248201527f496e73756666696369656e7420726573657276652062616c616e6365000000006044820152606401610994565b8060046000828254610c599190613a2e565b90915550506001546040516000916001600160a01b03169083908381818185875af1925050503d8060008114610cab576040519150601f19603f3d011682016040523d82523d6000602084013e610cb0565b606091505b5050905080610d015760405162461bcd60e51b815260206004820152601960248201527f52657365727665207769746864726177616c206661696c6564000000000000006044820152606401610994565b6040518281527ffae62d177ddcb96191c434d1f832fdcb17f33c6c75e25049e47ee43dd9b8d717906020015b60405180910390a15050565b428411610d885760405162461bcd60e51b815260206004820181905260248201527f53746172742074696d65206d75737420626520696e20746865206675747572656044820152606401610994565b838311610de15760405162461bcd60e51b815260206004820152602160248201527f456e642074696d65206d7573742062652061667465722073746172742074696d6044820152606560f81b6064820152608401610994565b60008211610e315760405162461bcd60e51b815260206004820152601e60248201527f4d696e20626574206d7573742062652067726561746572207468616e203000006044820152606401610994565b818111610e8c5760405162461bcd60e51b8152602060048201526024808201527f4d617820626574206d7573742062652067726561746572207468616e206d696e6044820152630818995d60e21b6064820152608401610994565b84610ed95760405162461bcd60e51b815260206004820152601860248201527f5175657374696f6e2063616e6e6f7420626520656d70747900000000000000006044820152606401610994565b676f05b59d3b2000006004541015610f335760405162461bcd60e51b815260206004820152601f60248201527f496e73756666696369656e7420706c6174666f726d206c6971756964697479006044820152606401610994565b60028054906000610f4383613a41565b9091555060009050610f5e6002676f05b59d3b200000613a1a565b9050676f05b59d3b20000060046000828254610f7a9190613a2e565b925050819055506040518061018001604052806002548152602001868152602001858152602001848152602001838152602001828152602001828152602001336001600160a01b0316815260200188888080601f01602080910402602001604051908101604052809392919081815260200183838082843760009201829052509385525050506020808301829052604080840183905260016060948501819052600280548552600c845293829020865181559286015190830155840151918101919091559082015160038201556080820151600482015560a0820151600582015560c0820151600682015560e08201516007820180546001600160a01b0319166001600160a01b0390921691909117905561010082015160088201906110a09082613adc565b5061012082015160099091018054610140840151610160909401511515620100000262ff0000199415156101000261ff00199415159490941661ffff199092169190911792909217929092161790556002546040513391907f6b68a2fc85527405d93824f9ea03022f60f50735f43c2bf600582af1824f50069061112f908b908b908b908b908b908b90613b9b565b60405180910390a350505050505050565b6007546001600160a01b031633148061116357506001546001600160a01b031633145b6111a05760405162461bcd60e51b815260206004820152600e60248201526d139bdd08185d5d1a1bdc9a5e995960921b6044820152606401610994565b6000828152600c60205260409020600981015483919062010000900460ff166111db5760405162461bcd60e51b815260040161099490613965565b80600201544210156112265760405162461bcd60e51b815260206004820152601460248201527313585c9ad95d081a185cc81b9bdd08195b99195960621b6044820152606401610994565b6000848152600c60205260409020600981015460ff16156112895760405162461bcd60e51b815260206004820152601760248201527f4d61726b657420616c7265616479207265736f6c7665640000000000000000006044820152606401610994565b6009810180548515156101000261ffff1990911617600117905560405185907f4927fe38919783250023d27e65a3e56b6b5c3e49364e51674a41ef08d62460d9906112d990871515815260200190565b60405180910390a25050505050565b6000858152600c60205260409020600981015486919062010000900460ff166113235760405162461bcd60e51b815260040161099490613965565b806002015442101561136e5760405162461bcd60e51b815260206004820152601460248201527313585c9ad95d081a185cc81b9bdd08195b99195960621b6044820152606401610994565b6000878152600c60205260409020600981015460ff16156113c45760405162461bcd60e51b815260206004820152601060248201526f105b1c9958591e481c995cdbdb1d995960821b6044820152606401610994565b6000888152600b602052604090205460ff16156114175760405162461bcd60e51b8152602060048201526011602482015270105b1c9958591e481c995c5d595cdd1959607a1b6044820152606401610994565b600061142c6002676f05b59d3b200000613a1a565b90508082600501541480156114445750808260060154145b156114d95760008260060154836005015461145f91906139da565b9050806004600082825461147391906139da565b9091555050600060058401819055600684015560098301805460ff191660011790556040518a907f932bcc53fcf504089c21d39fef179e3b2510b8c80e97bf91c4b9b845cb952971906114c99084815260200190565b60405180910390a250505061160c565b61151a6040805160e0810190915280600081526020016000815260200160008152602001606081526020016060815260200160608152602001606081525090565b61155c89898080601f0160208091040260200160405190810160405280939291908181526020018383808284376000920191909152508593925050612aa79050565b85156115765761157661156f8789613be9565b8290612ab4565b60006115a861158483612ade565b6009546008546001600160401b03821691600160401b900463ffffffff1690612db6565b6000818152600a602090815260408083208f90558e8352600b825291829020805460ff1916600117905590518281529192508c917fc92f993487c6d961b60ff2a81386dff5cc620cd4aed9cddabe26500391655e82910160405180910390a2505050505b50505050505050565b61161d612a4d565b6116276000612e88565b565b611631612a4d565b6001600160a01b0381166116785760405162461bcd60e51b815260206004820152600e60248201526d496e76616c6964206f7261636c6560901b6044820152606401610994565b600780546001600160a01b0319166001600160a01b0392909216919091179055565b6116a2612a4d565b6000818152600c6020526040902060090154819062010000900460ff166116db5760405162461bcd60e51b815260040161099490613965565b6000828152600c60205260409020600981015460ff161561173e5760405162461bcd60e51b815260206004820152601d60248201527f43616e6e6f742063616e63656c207265736f6c766564206d61726b65740000006044820152606401610994565b60008160060154826005015461175491906139da565b9050806004600082825461176891906139da565b9091555050600060058301819055600683015560098201805460ff1916600117905560405184907f932bcc53fcf504089c21d39fef179e3b2510b8c80e97bf91c4b9b845cb952971906117be9084815260200190565b60405180910390a250505050565b60006006546005546117de9190613a2e565b905090565b6000828152600e602090815260408083206001600160a01b038516845290915290205460ff165b92915050565b611818612a4d565b6008929092556009805463ffffffff909316600160401b026bffffffffffffffffffffffff199093166001600160401b0390921691909117919091179055565b6000828152600c60205260409020600981015483919062010000900460ff166118935760405162461bcd60e51b815260040161099490613965565b600981015460ff16156118dd5760405162461bcd60e51b815260206004820152601260248201527113585c9ad95d081a5cc81c995cdbdb1d995960721b6044820152606401610994565b806001015442106119305760405162461bcd60e51b815260206004820152601e60248201527f4d61726b65742062657474696e672070686173652068617320656e64656400006044820152606401610994565b6000848152600e6020908152604080832033845290915290205460ff16156119a65760405162461bcd60e51b815260206004820152602360248201527f557365722068617320616c726561647920626574206f6e2074686973206d61726044820152621ad95d60ea1b6064820152608401610994565b6000848152600c602052604090206003810154341015611a085760405162461bcd60e51b815260206004820152601860248201527f42657420616d6f756e742062656c6f77206d696e696d756d00000000000000006044820152606401610994565b8060040154341115611a5c5760405162461bcd60e51b815260206004820152601860248201527f42657420616d6f756e742061626f7665206d6178696d756d00000000000000006044820152606401610994565b6000612710611a6c6096346139ed565b611a769190613a1a565b90506000611a848234613a2e565b90508160036000828254611a9891906139da565b925050819055508160056000828254611ab191906139da565b909155505060408051606081018252828152600060208083018281528a1580158587019081528d8552600d84528685203380875290855287862096518755925160019687018054925115156101000261ff00199215159290921661ffff19909316929092171790558c8452600e83528584209184529152929020805460ff19169091179055611b595780836005016000828254611b4e91906139da565b90915550611b739050565b80836006016000828254611b6d91906139da565b90915550505b604080518281528715156020820152339189917fb1bd10cf5ea9540f12b9b182707734fd82deacc56830e2bd316133deb372bff4910161112f565b6000818152600c6020526040812060090154829062010000900460ff16611be75760405162461bcd60e51b815260040161099490613965565b6000838152600c6020526040812090611c096002676f05b59d3b200000613a1a565b905060008183600501541015611c20576000611c30565b818360050154611c309190613a2e565b905060008284600601541015611c47576000611c57565b828460060154611c579190613a2e565b9050611c6381836139da565b9550505050505b50919050565b611c786126de565b6000818152600c60205260409020600981015482919062010000900460ff16611cb35760405162461bcd60e51b815260040161099490613965565b600981015460ff16611cd75760405162461bcd60e51b815260040161099490613994565b611ce18333612737565b5050611ced6001600055565b50565b600c6020526000908152604090208054600182015460028301546003840154600485015460058601546006870154600788015460088901805498999798969795969495939492936001600160a01b0390921692611d4c90613a5a565b80601f0160208091040260200160405190810160405280929190818152602001828054611d7890613a5a565b8015611dc55780601f10611d9a57610100808354040283529160200191611dc5565b820191906000526020600020905b815481529060010190602001808311611da857829003601f168201915b5050506009909301549192505060ff80821691610100810482169162010000909104168c565b611df3612a4d565b60035480611e395760405162461bcd60e51b81526020600482015260136024820152724e6f206665657320746f20776974686472617760681b6044820152606401610994565b60006003819055508060066000828254611e5391906139da565b90915550506001546040516000916001600160a01b03169083908381818185875af1925050503d8060008114611ea5576040519150601f19603f3d011682016040523d82523d6000602084013e611eaa565b606091505b5050905080611efb5760405162461bcd60e51b815260206004820152601c60248201527f506c6174666f726d20666565207472616e73666572206661696c6564000000006044820152606401610994565b6040518281527f9870c8023baa016ac002ddfa7cdad341155acddddee3032c07d4baa4947ae64390602001610d2d565b611f33612a4d565b4780611f785760405162461bcd60e51b81526020600482015260146024820152734e6f2066756e647320746f20776974686472617760601b6044820152606401610994565b6000611f8c6001546001600160a01b031690565b6001600160a01b03168260405160006040518083038185875af1925050503d8060008114611fd6576040519150601f19603f3d011682016040523d82523d6000602084013e611fdb565b606091505b5050905080610a0d5760405162461bcd60e51b815260206004820152600f60248201526e151c985b9cd9995c8819985a5b1959608a1b6044820152606401610994565b6120266126de565b6000838152600c60205260409020600981015484919062010000900460ff166120615760405162461bcd60e51b815260040161099490613965565b600981015460ff166120855760405162461bcd60e51b815260040161099490613994565b6000858152600c60205260408120600681015460058201549192916120aa91906139da565b6009830154909150600090610100900460ff166120cb5782600601546120d1565b82600501545b9050806000036120e3575050506122f0565b60005b868110156122eb57600088888381811061210257612102613c80565b90506020020160208101906121179190613728565b60008b8152600d602090815260408083206001600160a01b0385168085529083528184208f8552600e84528285209185529252909120549192509060ff1680156121665750600181015460ff16155b801561218e5750600986015460018201546101009182900460ff908116151592909104161515145b801561219a5750805415155b156122e1576000848683600001546121b291906139ed565b6121bc9190613a1a565b905060006127106121ce6096846139ed565b6121d89190613a1a565b905060006121e68284613a2e565b6001858101805460ff1916909117905560038054919250839160009061220d9084906139da565b90915550506040516000906001600160a01b0387169083908381818185875af1925050503d806000811461225d576040519150601f19603f3d011682016040523d82523d6000602084013e612262565b606091505b5050905080156122b557856001600160a01b03168f7f24b5efa61dd1cfc659205a97fb8ed868f3cb8c81922bab2b96423e5de1de2cb7846040516122a891815260200190565b60405180910390a36122dc565b60018501805460ff19169055600380548491906000906122d6908490613a2e565b90915550505b505050505b50506001016120e6565b505050505b50506122fc6001600055565b505050565b6123746040518061018001604052806000815260200160008152602001600081526020016000815260200160008152602001600081526020016000815260200160006001600160a01b03168152602001606081526020016000151581526020016000151581526020016000151581525090565b6000828152600c6020908152604091829020825161018081018452815481526001820154928101929092526002810154928201929092526003820154606082015260048201546080820152600582015460a0820152600682015460c082015260078201546001600160a01b031660e0820152600882018054919291610100840191906123ff90613a5a565b80601f016020809104026020016040519081016040528092919081815260200182805461242b90613a5a565b80156124785780601f1061244d57610100808354040283529160200191612478565b820191906000526020600020905b81548152906001019060200180831161245b57829003601f168201915b50505091835250506009919091015460ff8082161515602084015261010082048116151560408401526201000090910416151560609091015292915050565b6124bf612a4d565b6001600160a01b0381166125245760405162461bcd60e51b815260206004820152602660248201527f4f776e61626c653a206e6577206f776e657220697320746865207a65726f206160448201526564647265737360d01b6064820152608401610994565b611ced81612e88565b80511561256b5760405162461bcd60e51b815260206004820152600c60248201526b27b930b1b6329032b93937b960a11b6044820152606401610994565b6000838152600a6020908152604080832054808452600c9092529091206009015462010000900460ff166125d25760405162461bcd60e51b815260206004820152600e60248201526d125b9d985b1a59081b585c9ad95d60921b6044820152606401610994565b6000838060200190518101906125e89190613c96565b6000838152600c6020526040902060098101549192509060ff16156126425760405162461bcd60e51b815260206004820152601060248201526f105b1c9958591e481c995cdbdb1d995960821b6044820152606401610994565b6009810180548315156101000261ffff1990911617600117905560405186907f850cf3c4ec45efc1d412a1b1cf6c83086a70e9944d5fa4e6f341d72406a38c369061269290851515815260200190565b60405180910390a2827f4927fe38919783250023d27e65a3e56b6b5c3e49364e51674a41ef08d62460d9836040516126ce911515815260200190565b60405180910390a2505050505050565b6002600054036127305760405162461bcd60e51b815260206004820152601f60248201527f5265656e7472616e637947756172643a207265656e7472616e742063616c6c006044820152606401610994565b6002600055565b6000828152600d602090815260408083206001600160a01b038516808552908352818420868552600c8452828520600e85528386209286529190935292205490919060ff166127b75760405162461bcd60e51b815260206004820152600c60248201526b139bc818995d08199bdd5b9960a21b6044820152606401610994565b600182015460ff16156127fe5760405162461bcd60e51b815260206004820152600f60248201526e105b1c9958591e4818db185a5b5959608a1b6044820152606401610994565b600981015460018301546101009182900460ff9081161515929091041615151461285d5760405162461bcd60e51b815260206004820152601060248201526f4e6f742077696e6e696e67207369646560801b6044820152606401610994565b60008160060154826005015461287391906139da565b6009830154909150600090610100900460ff1661289457826006015461289a565b82600501545b9050600081116128e15760405162461bcd60e51b815260206004820152601260248201527157696e6e696e6720706f6f6c20656d70747960701b6044820152606401610994565b6000818386600001546128f491906139ed565b6128fe9190613a1a565b905060006127106129106096846139ed565b61291a9190613a1a565b905060006129288284613a2e565b9050816003600082825461293c91906139da565b92505081905550816005600082825461295591906139da565b90915550506001878101805460ff191690911790556040516000906001600160a01b038a169083908381818185875af1925050503d80600081146129b5576040519150601f19603f3d011682016040523d82523d6000602084013e6129ba565b606091505b50509050806129fd5760405162461bcd60e51b815260206004820152600f60248201526e151c985b9cd9995c8819985a5b1959608a1b6044820152606401610994565b886001600160a01b03168a7f24b5efa61dd1cfc659205a97fb8ed868f3cb8c81922bab2b96423e5de1de2cb784604051612a3991815260200190565b60405180910390a350505050505050505050565b6001546001600160a01b031633146116275760405162461bcd60e51b815260206004820181905260248201527f4f776e61626c653a2063616c6c6572206973206e6f7420746865206f776e65726044820152606401610994565b610a0d8260008084612eda565b8051600003612ad65760405163fe936cb760e01b815260040160405180910390fd5b60a090910152565b60606000612aed610100612f58565b9050612b266040518060400160405280600c81526020016b31b7b232a637b1b0ba34b7b760a11b81525082612f7990919063ffffffff16565b8251612b44906002811115612b3d57612b3d613cb3565b8290612f92565b6040805180820190915260088152676c616e677561676560c01b6020820152612b6e908290612f79565b6040830151612b85908015612b3d57612b3d613cb3565b604080518082019091526006815265736f7572636560d01b6020820152612bad908290612f79565b6060830151612bbd908290612f79565b60a08301515115612c51576040805180820190915260048152636172677360e01b6020820152612bee908290612f79565b612bf781612fcb565b60005b8360a0015151811015612c4757612c378460a001518281518110612c2057612c20613c80565b602002602001015183612f7990919063ffffffff16565b612c4081613a41565b9050612bfa565b50612c5181612fef565b60808301515115612d1557600083602001516002811115612c7457612c74613cb3565b03612c925760405163a80d31f760e01b815260040160405180910390fd5b60408051808201909152600f81526e39b2b1b932ba39a637b1b0ba34b7b760891b6020820152612cc3908290612f79565b612cdc83602001516002811115612b3d57612b3d613cb3565b6040805180820190915260078152667365637265747360c81b6020820152612d05908290612f79565b6080830151612d1590829061300d565b60c08301515115612dae5760408051808201909152600981526862797465734172677360b81b6020820152612d4b908290612f79565b612d5481612fcb565b60005b8360c0015151811015612da457612d948460c001518281518110612d7d57612d7d613c80565b60200260200101518361300d90919063ffffffff16565b612d9d81613a41565b9050612d57565b50612dae81612fef565b515192915050565b6000807f00000000000000000000000000000000000000000000000000000000000000006001600160a01b031663461d27628688600188886040518663ffffffff1660e01b8152600401612e0e959493929190613cc9565b6020604051808303816000875af1158015612e2d573d6000803e3d6000fd5b505050506040513d601f19601f82011682018060405250810190612e519190613d12565b60405190915081907f1131472297a800fee664d1d89cfa8f7676ff07189ecc53f80bbb5f4969099db890600090a295945050505050565b600180546001600160a01b038381166001600160a01b0319831681179093556040519116919082907f8be0079c531659141344cd1fd0a4f28419497f9722a3daafe3b4186f6b6457e090600090a35050565b8051600003612efc576040516322ce3edd60e01b815260040160405180910390fd5b83836002811115612f0f57612f0f613cb3565b90816002811115612f2257612f22613cb3565b90525060408401828015612f3857612f38613cb3565b90818015612f4857612f48613cb3565b9052506060909301929092525050565b612f606133c5565b8051612f6c908361301a565b5060006020820152919050565b612f868260038351613091565b81516122fc90826131b0565b8151612f9f9060c26131d8565b50610a0d8282604051602001612fb791815260200190565b60405160208183030381529060405261300d565b612fd6816004613241565b600181602001818151612fe991906139da565b90525050565b612ffa816007613241565b600181602001818151612fe99190613a2e565b612f868260028351613091565b60408051808201909152606081526000602082015261303a602083613d2b565b156130625761304a602083613d2b565b613055906020613a2e565b61305f90836139da565b91505b60208084018390526040518085526000815290818401018181101561308657600080fd5b604052509192915050565b6017816001600160401b0316116130bd5782516130b79060e0600585901b1683176131d8565b50505050565b60ff816001600160401b0316116130fd5782516130e5906018611fe0600586901b16176131d8565b5082516130b7906001600160401b0383166001613258565b61ffff816001600160401b03161161313e578251613126906019611fe0600586901b16176131d8565b5082516130b7906001600160401b0383166002613258565b63ffffffff816001600160401b03161161318157825161316990601a611fe0600586901b16176131d8565b5082516130b7906001600160401b0383166004613258565b825161319890601b611fe0600586901b16176131d8565b5082516130b7906001600160401b0383166008613258565b6040805180820190915260608152600060208201526131d1838384516132dd565b9392505050565b60408051808201909152606081526000602082015282515160006131fd8260016139da565b90508460200151821061321e5761321e856132198360026139ed565b6133ae565b8451602083820101858153508051821115613237578181525b5093949350505050565b81516122fc90601f611fe0600585901b16176131d8565b604080518082019091526060815260006020820152835151600061327c82856139da565b9050856020015181111561329957613299866132198360026139ed565b600060016132a986610100613e23565b6132b39190613a2e565b905086518281018783198251161781525080518311156132d1578281525b50959695505050505050565b604080518082019091526060815260006020820152825182111561330057600080fd5b835151600061330f84836139da565b9050856020015181111561332c5761332c866132198360026139ed565b855180518382016020019160009180851115613346578482525b505050602086015b6020861061338657805182526133656020836139da565b91506133726020826139da565b905061337f602087613a2e565b955061334e565b51815160001960208890036101000a0190811690199190911617905250849150509392505050565b81516133ba838361301a565b506130b783826131b0565b60405180604001604052806133ed604051806040016040528060608152602001600081525090565b8152602001600081525090565b634e487b7160e01b600052604160045260246000fd5b604051601f8201601f191681016001600160401b0381118282101715613438576134386133fa565b604052919050565b60006001600160401b03831115613459576134596133fa565b61346c601f8401601f1916602001613410565b905082815283838301111561348057600080fd5b828260208301376000602084830101529392505050565b600082601f8301126134a857600080fd5b6131d183833560208501613440565b6000806000606084860312156134cc57600080fd5b8335925060208401356001600160401b03808211156134ea57600080fd5b6134f687838801613497565b9350604086013591508082111561350c57600080fd5b5061351986828701613497565b9150509250925092565b80356001600160a01b038116811461353a57600080fd5b919050565b6000806040838503121561355257600080fd5b8235915061356260208401613523565b90509250929050565b60006020828403121561357d57600080fd5b5035919050565b60008083601f84011261359657600080fd5b5081356001600160401b038111156135ad57600080fd5b6020830191508360208285010111156135c557600080fd5b9250929050565b60008060008060008060a087890312156135e557600080fd5b86356001600160401b038111156135fb57600080fd5b61360789828a01613584565b909a90995060208901359860408101359850606081013597506080013595509350505050565b8015158114611ced57600080fd5b6000806040838503121561364e57600080fd5b8235915060208301356136608161362d565b809150509250929050565b60008083601f84011261367d57600080fd5b5081356001600160401b0381111561369457600080fd5b6020830191508360208260051b85010111156135c557600080fd5b6000806000806000606086880312156136c757600080fd5b8535945060208601356001600160401b03808211156136e557600080fd5b6136f189838a01613584565b9096509450604088013591508082111561370a57600080fd5b506137178882890161366b565b969995985093965092949392505050565b60006020828403121561373a57600080fd5b6131d182613523565b60008060006060848603121561375857600080fd5b8335925060208401356001600160401b038116811461377657600080fd5b9150604084013563ffffffff8116811461378f57600080fd5b809150509250925092565b6000815180845260005b818110156137c0576020818501810151868301820152016137a4565b506000602082860101526020601f19601f83011685010191505092915050565b60006101808e83528d60208401528c60408401528b60608401528a60808401528960a08401528860c084015260018060a01b03881660e08401528061010084015261382d8184018861379a565b95151561012084015250509115156101408301521515610160909101529998505050505050505050565b60008060006040848603121561386c57600080fd5b8335925060208401356001600160401b0381111561388957600080fd5b6138958682870161366b565b9497909650939450505050565b6020815281516020820152602082015160408201526040820151606082015260608201516080820152608082015160a082015260a082015160c082015260c082015160e0820152600060e0830151610100613907818501836001600160a01b03169052565b8085015191505061018061012081818601526139276101a086018461379a565b9086015190925061014061393e8682018315159052565b86015190506101606139538682018315159052565b90950151151593019290925250919050565b60208082526015908201527413585c9ad95d08191bd95cc81b9bdd08195e1a5cdd605a1b604082015260600190565b60208082526016908201527513585c9ad95d081a5cc81b9bdd081c995cdbdb1d995960521b604082015260600190565b634e487b7160e01b600052601160045260246000fd5b8082018082111561180a5761180a6139c4565b808202811582820484141761180a5761180a6139c4565b634e487b7160e01b600052601260045260246000fd5b600082613a2957613a29613a04565b500490565b8181038181111561180a5761180a6139c4565b600060018201613a5357613a536139c4565b5060010190565b600181811c90821680613a6e57607f821691505b602082108103611c6a57634e487b7160e01b600052602260045260246000fd5b601f8211156122fc57600081815260208120601f850160051c81016020861015613ab55750805b601f850160051c820191505b81811015613ad457828155600101613ac1565b505050505050565b81516001600160401b03811115613af557613af56133fa565b613b0981613b038454613a5a565b84613a8e565b602080601f831160018114613b3e5760008415613b265750858301515b600019600386901b1c1916600185901b178555613ad4565b600085815260208120601f198616915b82811015613b6d57888601518255948401946001909101908401613b4e565b5085821015613b8b5787850151600019600388901b60f8161c191681555b5050505050600190811b01905550565b60a081528560a0820152858760c0830137600060c08783010152600060c0601f19601f8901168301019050856020830152846040830152836060830152826080830152979650505050505050565b60006001600160401b0380841115613c0357613c036133fa565b8360051b6020613c14818301613410565b868152918501918181019036841115613c2c57600080fd5b865b84811015613c7457803586811115613c465760008081fd5b880136601f820112613c585760008081fd5b613c66368235878401613440565b845250918301918301613c2e565b50979650505050505050565b634e487b7160e01b600052603260045260246000fd5b600060208284031215613ca857600080fd5b81516131d18161362d565b634e487b7160e01b600052602160045260246000fd5b6001600160401b038616815260a060208201526000613ceb60a083018761379a565b61ffff9590951660408301525063ffffffff92909216606083015260809091015292915050565b600060208284031215613d2457600080fd5b5051919050565b600082613d3a57613d3a613a04565b500690565b600181815b80851115613d7a578160001904821115613d6057613d606139c4565b80851615613d6d57918102915b93841c9390800290613d44565b509250929050565b600082613d915750600161180a565b81613d9e5750600061180a565b8160018114613db45760028114613dbe57613dda565b600191505061180a565b60ff841115613dcf57613dcf6139c4565b50506001821b61180a565b5060208310610133831016604e8410600b8410161715613dfd575081810a61180a565b613e078383613d3f565b8060001904821115613e1b57613e1b6139c4565b029392505050565b60006131d18383613d8256fea2646970667358221220fd91f6c789a50b3185a3aa32c8c48b8187bef0ec39aff94b3d589accf825e80464736f6c63430008130033","opcodes":"PUSH1 0xA0 PUSH1 0x40 MSTORE PUSH1 0x9 DUP1 SLOAD PUSH4 0xFFFFFFFF PUSH1 0x40 SHL NOT AND PUSH11 0x493E00000000000000000 OR SWAP1 SSTORE CALLVALUE DUP1 ISZERO PUSH3 0x2E JUMPI PUSH1 0x0 DUP1 REVERT JUMPDEST POP PUSH1 0x40 MLOAD PUSH3 0x3F81 CODESIZE SUB DUP1 PUSH3 0x3F81 DUP4 CODECOPY DUP2 ADD PUSH1 0x40 DUP2 SWAP1 MSTORE PUSH3 0x51 SWAP2 PUSH3 0xC7 JUMP JUMPDEST PUSH1 0x1 PUSH1 0x1 PUSH1 0xA0 SHL SUB DUP2 AND PUSH1 0x80 MSTORE PUSH1 0x1 PUSH1 0x0 SSTORE PUSH3 0x6E CALLER PUSH3 0x75 JUMP JUMPDEST POP PUSH3 0xF9 JUMP JUMPDEST PUSH1 0x1 DUP1 SLOAD PUSH1 0x1 PUSH1 0x1 PUSH1 0xA0 SHL SUB DUP4 DUP2 AND PUSH1 0x1 PUSH1 0x1 PUSH1 0xA0 SHL SUB NOT DUP4 AND DUP2 OR SWAP1 SWAP4 SSTORE PUSH1 0x40 MLOAD SWAP2 AND SWAP2 SWAP1 DUP3 SWAP1 PUSH32 0x8BE0079C531659141344CD1FD0A4F28419497F9722A3DAAFE3B4186F6B6457E0 SWAP1 PUSH1 0x0 SWAP1 LOG3 POP POP JUMP JUMPDEST PUSH1 0x0 PUSH1 0x20 DUP3 DUP5 SUB SLT ISZERO PUSH3 0xDA JUMPI PUSH1 0x0 DUP1 REVERT JUMPDEST DUP2 MLOAD PUSH1 0x1 PUSH1 0x1 PUSH1 0xA0 SHL SUB DUP2 AND DUP2 EQ PUSH3 0xF2 JUMPI PUSH1 0x0 DUP1 REVERT JUMPDEST SWAP4 SWAP3 POP POP POP JUMP JUMPDEST PUSH1 0x80 MLOAD PUSH2 0x3E65 PUSH3 0x11C PUSH1 0x0 CODECOPY PUSH1 0x0 DUP2 DUP2 PUSH2 0x8D8 ADD MSTORE PUSH2 0x2DBB ADD MSTORE PUSH2 0x3E65 PUSH1 0x0 RETURN INVALID PUSH1 0x80 PUSH1 0x40 MSTORE PUSH1 0x4 CALLDATASIZE LT PUSH2 0x255 JUMPI PUSH1 0x0 CALLDATALOAD PUSH1 0xE0 SHR DUP1 PUSH4 0x8DBE7B9D GT PUSH2 0x139 JUMPI DUP1 PUSH4 0xC3B0C7C5 GT PUSH2 0xB6 JUMPI DUP1 PUSH4 0xEB44FDD3 GT PUSH2 0x7A JUMPI DUP1 PUSH4 0xEB44FDD3 EQ PUSH2 0x7B4 JUMPI DUP1 PUSH4 0xF134AD0A EQ PUSH2 0x7E1 JUMPI DUP1 PUSH4 0xF2FDE38B EQ PUSH2 0x7F7 JUMPI DUP1 PUSH4 0xF644B3BB EQ PUSH2 0x817 JUMPI DUP1 PUSH4 0xF68016B7 EQ PUSH2 0x87F JUMPI DUP1 PUSH4 0xFD69F3C2 EQ PUSH2 0x8B8 JUMPI PUSH1 0x0 DUP1 REVERT JUMPDEST DUP1 PUSH4 0xC3B0C7C5 EQ PUSH2 0x739 JUMPI DUP1 PUSH4 0xD0B7830B EQ PUSH2 0x755 JUMPI DUP1 PUSH4 0xD7785BDB EQ PUSH2 0x76A JUMPI DUP1 PUSH4 0xDB2E21BC EQ PUSH2 0x77F JUMPI DUP1 PUSH4 0xDE9B9C5F EQ PUSH2 0x794 JUMPI PUSH1 0x0 DUP1 REVERT JUMPDEST DUP1 PUSH4 0xA95F028A GT PUSH2 0xFD JUMPI DUP1 PUSH4 0xA95F028A EQ PUSH2 0x5D7 JUMPI DUP1 PUSH4 0xAE062ACD EQ PUSH2 0x5F7 JUMPI DUP1 PUSH4 0xAE169A50 EQ PUSH2 0x632 JUMPI DUP1 PUSH4 0xB1283E77 EQ PUSH2 0x652 JUMPI DUP1 PUSH4 0xC03FB87C EQ PUSH2 0x68A JUMPI PUSH1 0x0 DUP1 REVERT JUMPDEST DUP1 PUSH4 0x8DBE7B9D EQ PUSH2 0x562 JUMPI DUP1 PUSH4 0x936C9525 EQ PUSH2 0x578 JUMPI DUP1 PUSH4 0x96BD072C EQ PUSH2 0x598 JUMPI DUP1 PUSH4 0x9DB491E2 EQ PUSH2 0x5AE JUMPI DUP1 PUSH4 0x9ED9C74D EQ PUSH2 0x5C4 JUMPI PUSH1 0x0 DUP1 REVERT JUMPDEST DUP1 PUSH4 0x4369C6C4 GT PUSH2 0x1D2 JUMPI DUP1 PUSH4 0x7ADBF973 GT PUSH2 0x196 JUMPI DUP1 PUSH4 0x7ADBF973 EQ PUSH2 0x497 JUMPI DUP1 PUSH4 0x7C16CD9E EQ PUSH2 0x4B7 JUMPI DUP1 PUSH4 0x7DC0D1D0 EQ PUSH2 0x4D7 JUMPI DUP1 PUSH4 0x83D430CD EQ PUSH2 0x50F JUMPI DUP1 PUSH4 0x8443B233 EQ PUSH2 0x524 JUMPI DUP1 PUSH4 0x8DA5CB5B EQ PUSH2 0x544 JUMPI PUSH1 0x0 DUP1 REVERT JUMPDEST DUP1 PUSH4 0x4369C6C4 EQ PUSH2 0x400 JUMPI DUP1 PUSH4 0x539AA77F EQ PUSH2 0x42D JUMPI DUP1 PUSH4 0x57BDE446 EQ PUSH2 0x442 JUMPI DUP1 PUSH4 0x59EA1437 EQ PUSH2 0x462 JUMPI DUP1 PUSH4 0x715018A6 EQ PUSH2 0x482 JUMPI PUSH1 0x0 DUP1 REVERT JUMPDEST DUP1 PUSH4 0x1EBBA654 GT PUSH2 0x219 JUMPI DUP1 PUSH4 0x1EBBA654 EQ PUSH2 0x354 JUMPI DUP1 PUSH4 0x3381525A EQ PUSH2 0x35C JUMPI DUP1 PUSH4 0x3A3C7B31 EQ PUSH2 0x37C JUMPI DUP1 PUSH4 0x3AD62988 EQ PUSH2 0x3BC JUMPI DUP1 PUSH4 0x3EB6E623 EQ PUSH2 0x3DC JUMPI PUSH1 0x0 DUP1 REVERT JUMPDEST DUP1 PUSH4 0x9C1BA2E EQ PUSH2 0x261 JUMPI DUP1 PUSH4 0xCA76175 EQ PUSH2 0x29E JUMPI DUP1 PUSH4 0x10EE3F00 EQ PUSH2 0x2C0 JUMPI DUP1 PUSH4 0x126C4166 EQ PUSH2 0x2E0 JUMPI DUP1 PUSH4 0x136D8883 EQ PUSH2 0x315 JUMPI PUSH1 0x0 DUP1 REVERT JUMPDEST CALLDATASIZE PUSH2 0x25C JUMPI STOP JUMPDEST PUSH1 0x0 DUP1 REVERT JUMPDEST CALLVALUE DUP1 ISZERO PUSH2 0x26D JUMPI PUSH1 0x0 DUP1 REVERT JUMPDEST POP PUSH1 0x9 SLOAD PUSH2 0x281 SWAP1 PUSH1 0x1 PUSH1 0x1 PUSH1 0x40 SHL SUB AND DUP2 JUMP JUMPDEST PUSH1 0x40 MLOAD PUSH1 0x1 PUSH1 0x1 PUSH1 0x40 SHL SUB SWAP1 SWAP2 AND DUP2 MSTORE PUSH1 0x20 ADD JUMPDEST PUSH1 0x40 MLOAD DUP1 SWAP2 SUB SWAP1 RETURN JUMPDEST CALLVALUE DUP1 ISZERO PUSH2 0x2AA JUMPI PUSH1 0x0 DUP1 REVERT JUMPDEST POP PUSH2 0x2BE PUSH2 0x2B9 CALLDATASIZE PUSH1 0x4 PUSH2 0x34B7 JUMP JUMPDEST PUSH2 0x8CD JUMP JUMPDEST STOP JUMPDEST CALLVALUE DUP1 ISZERO PUSH2 0x2CC JUMPI PUSH1 0x0 DUP1 REVERT JUMPDEST POP PUSH2 0x2BE PUSH2 0x2DB CALLDATASIZE PUSH1 0x4 PUSH2 0x353F JUMP JUMPDEST PUSH2 0x951 JUMP JUMPDEST CALLVALUE DUP1 ISZERO PUSH2 0x2EC JUMPI PUSH1 0x0 DUP1 REVERT JUMPDEST POP PUSH2 0x300 PUSH2 0x2FB CALLDATASIZE PUSH1 0x4 PUSH2 0x356B JUMP JUMPDEST PUSH2 0xA11 JUMP JUMPDEST PUSH1 0x40 DUP1 MLOAD SWAP3 DUP4 MSTORE PUSH1 0x20 DUP4 ADD SWAP2 SWAP1 SWAP2 MSTORE ADD PUSH2 0x295 JUMP JUMPDEST CALLVALUE DUP1 ISZERO PUSH2 0x321 JUMPI PUSH1 0x0 DUP1 REVERT JUMPDEST POP PUSH1 0x5 SLOAD PUSH1 0x6 SLOAD PUSH1 0x3 SLOAD PUSH1 0x4 SLOAD PUSH1 0x40 DUP1 MLOAD SWAP5 DUP6 MSTORE PUSH1 0x20 DUP6 ADD SWAP4 SWAP1 SWAP4 MSTORE SWAP2 DUP4 ADD MSTORE PUSH1 0x60 DUP3 ADD MSTORE SELFBALANCE PUSH1 0x80 DUP3 ADD MSTORE PUSH1 0xA0 ADD PUSH2 0x295 JUMP JUMPDEST PUSH2 0x2BE PUSH2 0xAF9 JUMP JUMPDEST CALLVALUE DUP1 ISZERO PUSH2 0x368 JUMPI PUSH1 0x0 DUP1 REVERT JUMPDEST POP PUSH2 0x2BE PUSH2 0x377 CALLDATASIZE PUSH1 0x4 PUSH2 0x356B JUMP JUMPDEST PUSH2 0xB9D JUMP JUMPDEST CALLVALUE DUP1 ISZERO PUSH2 0x388 JUMPI PUSH1 0x0 DUP1 REVERT JUMPDEST POP PUSH2 0x3AC PUSH2 0x397 CALLDATASIZE PUSH1 0x4 PUSH2 0x356B JUMP JUMPDEST PUSH1 0xB PUSH1 0x20 MSTORE PUSH1 0x0 SWAP1 DUP2 MSTORE PUSH1 0x40 SWAP1 KECCAK256 SLOAD PUSH1 0xFF AND DUP2 JUMP JUMPDEST PUSH1 0x40 MLOAD SWAP1 ISZERO ISZERO DUP2 MSTORE PUSH1 0x20 ADD PUSH2 0x295 JUMP JUMPDEST CALLVALUE DUP1 ISZERO PUSH2 0x3C8 JUMPI PUSH1 0x0 DUP1 REVERT JUMPDEST POP PUSH2 0x2BE PUSH2 0x3D7 CALLDATASIZE PUSH1 0x4 PUSH2 0x35CC JUMP JUMPDEST PUSH2 0xD39 JUMP JUMPDEST CALLVALUE DUP1 ISZERO PUSH2 0x3E8 JUMPI PUSH1 0x0 DUP1 REVERT JUMPDEST POP PUSH2 0x3F2 PUSH1 0x5 SLOAD DUP2 JUMP JUMPDEST PUSH1 0x40 MLOAD SWAP1 DUP2 MSTORE PUSH1 0x20 ADD PUSH2 0x295 JUMP JUMPDEST CALLVALUE DUP1 ISZERO PUSH2 0x40C JUMPI PUSH1 0x0 DUP1 REVERT JUMPDEST POP PUSH2 0x3F2 PUSH2 0x41B CALLDATASIZE PUSH1 0x4 PUSH2 0x356B JUMP JUMPDEST PUSH1 0xA PUSH1 0x20 MSTORE PUSH1 0x0 SWAP1 DUP2 MSTORE PUSH1 0x40 SWAP1 KECCAK256 SLOAD DUP2 JUMP JUMPDEST CALLVALUE DUP1 ISZERO PUSH2 0x439 JUMPI PUSH1 0x0 DUP1 REVERT JUMPDEST POP PUSH2 0x3F2 PUSH1 0x96 DUP2 JUMP JUMPDEST CALLVALUE DUP1 ISZERO PUSH2 0x44E JUMPI PUSH1 0x0 DUP1 REVERT JUMPDEST POP PUSH2 0x2BE PUSH2 0x45D CALLDATASIZE PUSH1 0x4 PUSH2 0x363B JUMP JUMPDEST PUSH2 0x1140 JUMP JUMPDEST CALLVALUE DUP1 ISZERO PUSH2 0x46E JUMPI PUSH1 0x0 DUP1 REVERT JUMPDEST POP PUSH2 0x2BE PUSH2 0x47D CALLDATASIZE PUSH1 0x4 PUSH2 0x36AF JUMP JUMPDEST PUSH2 0x12E8 JUMP JUMPDEST CALLVALUE DUP1 ISZERO PUSH2 0x48E JUMPI PUSH1 0x0 DUP1 REVERT JUMPDEST POP PUSH2 0x2BE PUSH2 0x1615 JUMP JUMPDEST CALLVALUE DUP1 ISZERO PUSH2 0x4A3 JUMPI PUSH1 0x0 DUP1 REVERT JUMPDEST POP PUSH2 0x2BE PUSH2 0x4B2 CALLDATASIZE PUSH1 0x4 PUSH2 0x3728 JUMP JUMPDEST PUSH2 0x1629 JUMP JUMPDEST CALLVALUE DUP1 ISZERO PUSH2 0x4C3 JUMPI PUSH1 0x0 DUP1 REVERT JUMPDEST POP PUSH2 0x2BE PUSH2 0x4D2 CALLDATASIZE PUSH1 0x4 PUSH2 0x356B JUMP JUMPDEST PUSH2 0x169A JUMP JUMPDEST CALLVALUE DUP1 ISZERO PUSH2 0x4E3 JUMPI PUSH1 0x0 DUP1 REVERT JUMPDEST POP PUSH1 0x7 SLOAD PUSH2 0x4F7 SWAP1 PUSH1 0x1 PUSH1 0x1 PUSH1 0xA0 SHL SUB AND DUP2 JUMP JUMPDEST PUSH1 0x40 MLOAD PUSH1 0x1 PUSH1 0x1 PUSH1 0xA0 SHL SUB SWAP1 SWAP2 AND DUP2 MSTORE PUSH1 0x20 ADD PUSH2 0x295 JUMP JUMPDEST CALLVALUE DUP1 ISZERO PUSH2 0x51B JUMPI PUSH1 0x0 DUP1 REVERT JUMPDEST POP PUSH2 0x3F2 PUSH2 0x17CC JUMP JUMPDEST CALLVALUE DUP1 ISZERO PUSH2 0x530 JUMPI PUSH1 0x0 DUP1 REVERT JUMPDEST POP PUSH2 0x3AC PUSH2 0x53F CALLDATASIZE PUSH1 0x4 PUSH2 0x353F JUMP JUMPDEST PUSH2 0x17E3 JUMP JUMPDEST CALLVALUE DUP1 ISZERO PUSH2 0x550 JUMPI PUSH1 0x0 DUP1 REVERT JUMPDEST POP PUSH1 0x1 SLOAD PUSH1 0x1 PUSH1 0x1 PUSH1 0xA0 SHL SUB AND PUSH2 0x4F7 JUMP JUMPDEST CALLVALUE DUP1 ISZERO PUSH2 0x56E JUMPI PUSH1 0x0 DUP1 REVERT JUMPDEST POP PUSH2 0x3F2 PUSH1 0x8 SLOAD DUP2 JUMP JUMPDEST CALLVALUE DUP1 ISZERO PUSH2 0x584 JUMPI PUSH1 0x0 DUP1 REVERT JUMPDEST POP PUSH2 0x2BE PUSH2 0x593 CALLDATASIZE PUSH1 0x4 PUSH2 0x3743 JUMP JUMPDEST PUSH2 0x1810 JUMP JUMPDEST CALLVALUE DUP1 ISZERO PUSH2 0x5A4 JUMPI PUSH1 0x0 DUP1 REVERT JUMPDEST POP PUSH2 0x3F2 PUSH1 0x3 SLOAD DUP2 JUMP JUMPDEST CALLVALUE DUP1 ISZERO PUSH2 0x5BA JUMPI PUSH1 0x0 DUP1 REVERT JUMPDEST POP PUSH2 0x3F2 PUSH1 0x4 SLOAD DUP2 JUMP JUMPDEST PUSH2 0x2BE PUSH2 0x5D2 CALLDATASIZE PUSH1 0x4 PUSH2 0x363B JUMP JUMPDEST PUSH2 0x1858 JUMP JUMPDEST CALLVALUE DUP1 ISZERO PUSH2 0x5E3 JUMPI PUSH1 0x0 DUP1 REVERT JUMPDEST POP PUSH2 0x3F2 PUSH2 0x5F2 CALLDATASIZE PUSH1 0x4 PUSH2 0x356B JUMP JUMPDEST PUSH2 0x1BAE JUMP JUMPDEST CALLVALUE DUP1 ISZERO PUSH2 0x603 JUMPI PUSH1 0x0 DUP1 REVERT JUMPDEST POP PUSH2 0x3AC PUSH2 0x612 CALLDATASIZE PUSH1 0x4 PUSH2 0x353F JUMP JUMPDEST PUSH1 0xE PUSH1 0x20 SWAP1 DUP2 MSTORE PUSH1 0x0 SWAP3 DUP4 MSTORE PUSH1 0x40 DUP1 DUP5 KECCAK256 SWAP1 SWAP2 MSTORE SWAP1 DUP3 MSTORE SWAP1 KECCAK256 SLOAD PUSH1 0xFF AND DUP2 JUMP JUMPDEST CALLVALUE DUP1 ISZERO PUSH2 0x63E JUMPI PUSH1 0x0 DUP1 REVERT JUMPDEST POP PUSH2 0x2BE PUSH2 0x64D CALLDATASIZE PUSH1 0x4 PUSH2 0x356B JUMP JUMPDEST PUSH2 0x1C70 JUMP JUMPDEST CALLVALUE DUP1 ISZERO PUSH2 0x65E JUMPI PUSH1 0x0 DUP1 REVERT JUMPDEST POP PUSH2 0x672 PUSH2 0x66D CALLDATASIZE PUSH1 0x4 PUSH2 0x356B JUMP JUMPDEST PUSH2 0x1CF0 JUMP JUMPDEST PUSH1 0x40 MLOAD PUSH2 0x295 SWAP13 SWAP12 SWAP11 SWAP10 SWAP9 SWAP8 SWAP7 SWAP6 SWAP5 SWAP4 SWAP3 SWAP2 SWAP1 PUSH2 0x37E0 JUMP JUMPDEST CALLVALUE DUP1 ISZERO PUSH2 0x696 JUMPI PUSH1 0x0 DUP1 REVERT JUMPDEST POP PUSH2 0x713 PUSH2 0x6A5 CALLDATASIZE PUSH1 0x4 PUSH2 0x353F JUMP JUMPDEST PUSH1 0x40 DUP1 MLOAD PUSH1 0x60 DUP1 DUP3 ADD DUP4 MSTORE PUSH1 0x0 DUP1 DUP4 MSTORE PUSH1 0x20 DUP1 DUP5 ADD DUP3 SWAP1 MSTORE SWAP3 DUP5 ADD DUP2 SWAP1 MSTORE SWAP5 DUP6 MSTORE PUSH1 0xD DUP3 MSTORE DUP3 DUP6 KECCAK256 PUSH1 0x1 PUSH1 0x1 PUSH1 0xA0 SHL SUB SWAP5 SWAP1 SWAP5 AND DUP6 MSTORE SWAP3 DUP2 MSTORE SWAP3 DUP2 SWAP1 KECCAK256 DUP2 MLOAD SWAP3 DUP4 ADD DUP3 MSTORE DUP1 SLOAD DUP4 MSTORE PUSH1 0x1 ADD SLOAD PUSH1 0xFF DUP1 DUP3 AND ISZERO ISZERO SWAP5 DUP5 ADD SWAP5 SWAP1 SWAP5 MSTORE PUSH2 0x100 SWAP1 DIV SWAP1 SWAP3 AND ISZERO ISZERO SWAP2 DUP2 ADD SWAP2 SWAP1 SWAP2 MSTORE SWAP1 JUMP JUMPDEST PUSH1 0x40 DUP1 MLOAD DUP3 MLOAD DUP2 MSTORE PUSH1 0x20 DUP1 DUP5 ADD MLOAD ISZERO ISZERO SWAP1 DUP3 ADD MSTORE SWAP2 DUP2 ADD MLOAD ISZERO ISZERO SWAP1 DUP3 ADD MSTORE PUSH1 0x60 ADD PUSH2 0x295 JUMP JUMPDEST CALLVALUE DUP1 ISZERO PUSH2 0x745 JUMPI PUSH1 0x0 DUP1 REVERT JUMPDEST POP PUSH2 0x3F2 PUSH8 0x6F05B59D3B200000 DUP2 JUMP JUMPDEST CALLVALUE DUP1 ISZERO PUSH2 0x761 JUMPI PUSH1 0x0 DUP1 REVERT JUMPDEST POP PUSH2 0x2BE PUSH2 0x1DEB JUMP JUMPDEST CALLVALUE DUP1 ISZERO PUSH2 0x776 JUMPI PUSH1 0x0 DUP1 REVERT JUMPDEST POP PUSH1 0x3 SLOAD PUSH2 0x3F2 JUMP JUMPDEST CALLVALUE DUP1 ISZERO PUSH2 0x78B JUMPI PUSH1 0x0 DUP1 REVERT JUMPDEST POP PUSH2 0x2BE PUSH2 0x1F2B JUMP JUMPDEST CALLVALUE DUP1 ISZERO PUSH2 0x7A0 JUMPI PUSH1 0x0 DUP1 REVERT JUMPDEST POP PUSH2 0x2BE PUSH2 0x7AF CALLDATASIZE PUSH1 0x4 PUSH2 0x3857 JUMP JUMPDEST PUSH2 0x201E JUMP JUMPDEST CALLVALUE DUP1 ISZERO PUSH2 0x7C0 JUMPI PUSH1 0x0 DUP1 REVERT JUMPDEST POP PUSH2 0x7D4 PUSH2 0x7CF CALLDATASIZE PUSH1 0x4 PUSH2 0x356B JUMP JUMPDEST PUSH2 0x2301 JUMP JUMPDEST PUSH1 0x40 MLOAD PUSH2 0x295 SWAP2 SWAP1 PUSH2 0x38A2 JUMP JUMPDEST CALLVALUE DUP1 ISZERO PUSH2 0x7ED JUMPI PUSH1 0x0 DUP1 REVERT JUMPDEST POP PUSH2 0x3F2 PUSH1 0x6 SLOAD DUP2 JUMP JUMPDEST CALLVALUE DUP1 ISZERO PUSH2 0x803 JUMPI PUSH1 0x0 DUP1 REVERT JUMPDEST POP PUSH2 0x2BE PUSH2 0x812 CALLDATASIZE PUSH1 0x4 PUSH2 0x3728 JUMP JUMPDEST PUSH2 0x24B7 JUMP JUMPDEST CALLVALUE DUP1 ISZERO PUSH2 0x823 JUMPI PUSH1 0x0 DUP1 REVERT JUMPDEST POP PUSH2 0x862 PUSH2 0x832 CALLDATASIZE PUSH1 0x4 PUSH2 0x353F JUMP JUMPDEST PUSH1 0xD PUSH1 0x20 SWAP1 DUP2 MSTORE PUSH1 0x0 SWAP3 DUP4 MSTORE PUSH1 0x40 DUP1 DUP5 KECCAK256 SWAP1 SWAP2 MSTORE SWAP1 DUP3 MSTORE SWAP1 KECCAK256 DUP1 SLOAD PUSH1 0x1 SWAP1 SWAP2 ADD SLOAD PUSH1 0xFF DUP1 DUP3 AND SWAP2 PUSH2 0x100 SWAP1 DIV AND DUP4 JUMP JUMPDEST PUSH1 0x40 DUP1 MLOAD SWAP4 DUP5 MSTORE SWAP2 ISZERO ISZERO PUSH1 0x20 DUP5 ADD MSTORE ISZERO ISZERO SWAP1 DUP3 ADD MSTORE PUSH1 0x60 ADD PUSH2 0x295 JUMP JUMPDEST CALLVALUE DUP1 ISZERO PUSH2 0x88B JUMPI PUSH1 0x0 DUP1 REVERT JUMPDEST POP PUSH1 0x9 SLOAD PUSH2 0x8A3 SWAP1 PUSH1 0x1 PUSH1 0x40 SHL SWAP1 DIV PUSH4 0xFFFFFFFF AND DUP2 JUMP JUMPDEST PUSH1 0x40 MLOAD PUSH4 0xFFFFFFFF SWAP1 SWAP2 AND DUP2 MSTORE PUSH1 0x20 ADD PUSH2 0x295 JUMP JUMPDEST CALLVALUE DUP1 ISZERO PUSH2 0x8C4 JUMPI PUSH1 0x0 DUP1 REVERT JUMPDEST POP PUSH1 0x2 SLOAD PUSH2 0x3F2 JUMP JUMPDEST CALLER PUSH1 0x1 PUSH1 0x1 PUSH1 0xA0 SHL SUB PUSH32 0x0 AND EQ PUSH2 0x916 JUMPI PUSH1 0x40 MLOAD PUSH4 0xC6829F83 PUSH1 0xE0 SHL DUP2 MSTORE PUSH1 0x4 ADD PUSH1 0x40 MLOAD DUP1 SWAP2 SUB SWAP1 REVERT JUMPDEST PUSH2 0x921 DUP4 DUP4 DUP4 PUSH2 0x252D JUMP JUMPDEST PUSH1 0x40 MLOAD DUP4 SWAP1 PUSH32 0x85E1543BF2F84FE80C6BADBCE3648C8539AD1DF4D2B3D822938CA0538BE727E6 SWAP1 PUSH1 0x0 SWAP1 LOG2 POP POP POP JUMP JUMPDEST PUSH2 0x959 PUSH2 0x26DE JUMP JUMPDEST PUSH1 0x0 DUP3 DUP2 MSTORE PUSH1 0xC PUSH1 0x20 MSTORE PUSH1 0x40 SWAP1 KECCAK256 PUSH1 0x9 DUP2 ADD SLOAD DUP4 SWAP2 SWAP1 PUSH3 0x10000 SWAP1 DIV PUSH1 0xFF AND PUSH2 0x99D JUMPI PUSH1 0x40 MLOAD PUSH3 0x461BCD PUSH1 0xE5 SHL DUP2 MSTORE PUSH1 0x4 ADD PUSH2 0x994 SWAP1 PUSH2 0x3965 JUMP JUMPDEST PUSH1 0x40 MLOAD DUP1 SWAP2 SUB SWAP1 REVERT JUMPDEST PUSH1 0x9 DUP2 ADD SLOAD PUSH1 0xFF AND PUSH2 0x9C1 JUMPI PUSH1 0x40 MLOAD PUSH3 0x461BCD PUSH1 0xE5 SHL DUP2 MSTORE PUSH1 0x4 ADD PUSH2 0x994 SWAP1 PUSH2 0x3994 JUMP JUMPDEST PUSH2 0x9CB DUP5 DUP5 PUSH2 0x2737 JUMP JUMPDEST PUSH1 0x40 MLOAD PUSH1 0x1 PUSH1 0x1 PUSH1 0xA0 SHL SUB DUP5 AND SWAP1 DUP6 SWAP1 PUSH32 0xED498030837CB2E17FEF08F16B80D1206257306957B6113FA83C6DA94A881444 SWAP1 PUSH1 0x0 SWAP1 LOG3 POP POP PUSH2 0xA0D PUSH1 0x1 PUSH1 0x0 SSTORE JUMP JUMPDEST POP POP JUMP JUMPDEST PUSH1 0x0 DUP2 DUP2 MSTORE PUSH1 0xC PUSH1 0x20 MSTORE PUSH1 0x40 DUP2 KECCAK256 PUSH1 0x6 DUP2 ADD SLOAD PUSH1 0x5 DUP3 ADD SLOAD DUP4 SWAP3 SWAP2 DUP4 SWAP2 PUSH2 0xA38 SWAP2 SWAP1 PUSH2 0x39DA JUMP JUMPDEST SWAP1 POP DUP1 PUSH1 0x0 SUB PUSH2 0xA50 JUMPI POP PUSH2 0x4E20 SWAP5 DUP6 SWAP5 POP SWAP3 POP POP POP JUMP JUMPDEST PUSH1 0x0 DUP2 DUP4 PUSH1 0x5 ADD SLOAD PUSH2 0x2710 PUSH2 0xA65 SWAP2 SWAP1 PUSH2 0x39ED JUMP JUMPDEST PUSH2 0xA6F SWAP2 SWAP1 PUSH2 0x3A1A JUMP JUMPDEST SWAP1 POP PUSH1 0x0 DUP3 DUP5 PUSH1 0x6 ADD SLOAD PUSH2 0x2710 PUSH2 0xA86 SWAP2 SWAP1 PUSH2 0x39ED JUMP JUMPDEST PUSH2 0xA90 SWAP2 SWAP1 PUSH2 0x3A1A JUMP JUMPDEST SWAP1 POP PUSH1 0x0 PUSH2 0xAA1 PUSH1 0x96 PUSH2 0x2710 PUSH2 0x3A2E JUMP JUMPDEST SWAP1 POP PUSH2 0xAAF DUP4 PUSH2 0x2710 PUSH2 0x39ED JUMP JUMPDEST PUSH2 0xABD DUP3 PUSH4 0x5F5E100 PUSH2 0x39ED JUMP JUMPDEST PUSH2 0xAC7 SWAP2 SWAP1 PUSH2 0x3A1A JUMP JUMPDEST SWAP7 POP PUSH2 0xAD5 DUP3 PUSH2 0x2710 PUSH2 0x39ED JUMP JUMPDEST PUSH2 0xAE3 DUP3 PUSH4 0x5F5E100 PUSH2 0x39ED JUMP JUMPDEST PUSH2 0xAED SWAP2 SWAP1 PUSH2 0x3A1A JUMP JUMPDEST SWAP6 POP POP POP POP POP POP SWAP2 POP SWAP2 JUMP JUMPDEST PUSH2 0xB01 PUSH2 0x2A4D JUMP JUMPDEST PUSH1 0x0 CALLVALUE GT PUSH2 0xB51 JUMPI PUSH1 0x40 MLOAD PUSH3 0x461BCD PUSH1 0xE5 SHL DUP2 MSTORE PUSH1 0x20 PUSH1 0x4 DUP3 ADD MSTORE PUSH1 0x1D PUSH1 0x24 DUP3 ADD MSTORE PUSH32 0x4D7573742073656E64204D4F4E20746F2066756E642072657365727665000000 PUSH1 0x44 DUP3 ADD MSTORE PUSH1 0x64 ADD PUSH2 0x994 JUMP JUMPDEST CALLVALUE PUSH1 0x4 PUSH1 0x0 DUP3 DUP3 SLOAD PUSH2 0xB63 SWAP2 SWAP1 PUSH2 0x39DA JUMP JUMPDEST SWAP1 SWAP2 SSTORE POP POP PUSH1 0x40 MLOAD CALLVALUE DUP2 MSTORE PUSH32 0x1007592A11EEB4AA60E4B25785D069D874A5E0393449DA55070633ECA253D5BA SWAP1 PUSH1 0x20 ADD PUSH1 0x40 MLOAD DUP1 SWAP2 SUB SWAP1 LOG1 JUMP JUMPDEST PUSH2 0xBA5 PUSH2 0x2A4D JUMP JUMPDEST PUSH1 0x0 DUP2 GT PUSH2 0xBF5 JUMPI PUSH1 0x40 MLOAD PUSH3 0x461BCD PUSH1 0xE5 SHL DUP2 MSTORE PUSH1 0x20 PUSH1 0x4 DUP3 ADD MSTORE PUSH1 0x1D PUSH1 0x24 DUP3 ADD MSTORE PUSH32 0x416D6F756E74206D7573742062652067726561746572207468616E2030000000 PUSH1 0x44 DUP3 ADD MSTORE PUSH1 0x64 ADD PUSH2 0x994 JUMP JUMPDEST PUSH1 0x4 SLOAD DUP2 GT ISZERO PUSH2 0xC47 JUMPI PUSH1 0x40 MLOAD PUSH3 0x461BCD PUSH1 0xE5 SHL DUP2 MSTORE PUSH1 0x20 PUSH1 0x4 DUP3 ADD MSTORE PUSH1 0x1C PUSH1 0x24 DUP3 ADD MSTORE PUSH32 0x496E73756666696369656E7420726573657276652062616C616E636500000000 PUSH1 0x44 DUP3 ADD MSTORE PUSH1 0x64 ADD PUSH2 0x994 JUMP JUMPDEST DUP1 PUSH1 0x4 PUSH1 0x0 DUP3 DUP3 SLOAD PUSH2 0xC59 SWAP2 SWAP1 PUSH2 0x3A2E JUMP JUMPDEST SWAP1 SWAP2 SSTORE POP POP PUSH1 0x1 SLOAD PUSH1 0x40 MLOAD PUSH1 0x0 SWAP2 PUSH1 0x1 PUSH1 0x1 PUSH1 0xA0 SHL SUB AND SWAP1 DUP4 SWAP1 DUP4 DUP2 DUP2 DUP2 DUP6 DUP8 GAS CALL SWAP3 POP POP POP RETURNDATASIZE DUP1 PUSH1 0x0 DUP2 EQ PUSH2 0xCAB JUMPI PUSH1 0x40 MLOAD SWAP2 POP PUSH1 0x1F NOT PUSH1 0x3F RETURNDATASIZE ADD AND DUP3 ADD PUSH1 0x40 MSTORE RETURNDATASIZE DUP3 MSTORE RETURNDATASIZE PUSH1 0x0 PUSH1 0x20 DUP5 ADD RETURNDATACOPY PUSH2 0xCB0 JUMP JUMPDEST PUSH1 0x60 SWAP2 POP JUMPDEST POP POP SWAP1 POP DUP1 PUSH2 0xD01 JUMPI PUSH1 0x40 MLOAD PUSH3 0x461BCD PUSH1 0xE5 SHL DUP2 MSTORE PUSH1 0x20 PUSH1 0x4 DUP3 ADD MSTORE PUSH1 0x19 PUSH1 0x24 DUP3 ADD MSTORE PUSH32 0x52657365727665207769746864726177616C206661696C656400000000000000 PUSH1 0x44 DUP3 ADD MSTORE PUSH1 0x64 ADD PUSH2 0x994 JUMP JUMPDEST PUSH1 0x40 MLOAD DUP3 DUP2 MSTORE PUSH32 0xFAE62D177DDCB96191C434D1F832FDCB17F33C6C75E25049E47EE43DD9B8D717 SWAP1 PUSH1 0x20 ADD JUMPDEST PUSH1 0x40 MLOAD DUP1 SWAP2 SUB SWAP1 LOG1 POP POP JUMP JUMPDEST TIMESTAMP DUP5 GT PUSH2 0xD88 JUMPI PUSH1 0x40 MLOAD PUSH3 0x461BCD PUSH1 0xE5 SHL DUP2 MSTORE PUSH1 0x20 PUSH1 0x4 DUP3 ADD DUP2 SWAP1 MSTORE PUSH1 0x24 DUP3 ADD MSTORE PUSH32 0x53746172742074696D65206D75737420626520696E2074686520667574757265 PUSH1 0x44 DUP3 ADD MSTORE PUSH1 0x64 ADD PUSH2 0x994 JUMP JUMPDEST DUP4 DUP4 GT PUSH2 0xDE1 JUMPI PUSH1 0x40 MLOAD PUSH3 0x461BCD PUSH1 0xE5 SHL DUP2 MSTORE PUSH1 0x20 PUSH1 0x4 DUP3 ADD MSTORE PUSH1 0x21 PUSH1 0x24 DUP3 ADD MSTORE PUSH32 0x456E642074696D65206D7573742062652061667465722073746172742074696D PUSH1 0x44 DUP3 ADD MSTORE PUSH1 0x65 PUSH1 0xF8 SHL PUSH1 0x64 DUP3 ADD MSTORE PUSH1 0x84 ADD PUSH2 0x994 JUMP JUMPDEST PUSH1 0x0 DUP3 GT PUSH2 0xE31 JUMPI PUSH1 0x40 MLOAD PUSH3 0x461BCD PUSH1 0xE5 SHL DUP2 MSTORE PUSH1 0x20 PUSH1 0x4 DUP3 ADD MSTORE PUSH1 0x1E PUSH1 0x24 DUP3 ADD MSTORE PUSH32 0x4D696E20626574206D7573742062652067726561746572207468616E20300000 PUSH1 0x44 DUP3 ADD MSTORE PUSH1 0x64 ADD PUSH2 0x994 JUMP JUMPDEST DUP2 DUP2 GT PUSH2 0xE8C JUMPI PUSH1 0x40 MLOAD PUSH3 0x461BCD PUSH1 0xE5 SHL DUP2 MSTORE PUSH1 0x20 PUSH1 0x4 DUP3 ADD MSTORE PUSH1 0x24 DUP1 DUP3 ADD MSTORE PUSH32 0x4D617820626574206D7573742062652067726561746572207468616E206D696E PUSH1 0x44 DUP3 ADD MSTORE PUSH4 0x818995D PUSH1 0xE2 SHL PUSH1 0x64 DUP3 ADD MSTORE PUSH1 0x84 ADD PUSH2 0x994 JUMP JUMPDEST DUP5 PUSH2 0xED9 JUMPI PUSH1 0x40 MLOAD PUSH3 0x461BCD PUSH1 0xE5 SHL DUP2 MSTORE PUSH1 0x20 PUSH1 0x4 DUP3 ADD MSTORE PUSH1 0x18 PUSH1 0x24 DUP3 ADD MSTORE PUSH32 0x5175657374696F6E2063616E6E6F7420626520656D7074790000000000000000 PUSH1 0x44 DUP3 ADD MSTORE PUSH1 0x64 ADD PUSH2 0x994 JUMP JUMPDEST PUSH8 0x6F05B59D3B200000 PUSH1 0x4 SLOAD LT ISZERO PUSH2 0xF33 JUMPI PUSH1 0x40 MLOAD PUSH3 0x461BCD PUSH1 0xE5 SHL DUP2 MSTORE PUSH1 0x20 PUSH1 0x4 DUP3 ADD MSTORE PUSH1 0x1F PUSH1 0x24 DUP3 ADD MSTORE PUSH32 0x496E73756666696369656E7420706C6174666F726D206C697175696469747900 PUSH1 0x44 DUP3 ADD MSTORE PUSH1 0x64 ADD PUSH2 0x994 JUMP JUMPDEST PUSH1 0x2 DUP1 SLOAD SWAP1 PUSH1 0x0 PUSH2 0xF43 DUP4 PUSH2 0x3A41 JUMP JUMPDEST SWAP1 SWAP2 SSTORE POP PUSH1 0x0 SWAP1 POP PUSH2 0xF5E PUSH1 0x2 PUSH8 0x6F05B59D3B200000 PUSH2 0x3A1A JUMP JUMPDEST SWAP1 POP PUSH8 0x6F05B59D3B200000 PUSH1 0x4 PUSH1 0x0 DUP3 DUP3 SLOAD PUSH2 0xF7A SWAP2 SWAP1 PUSH2 0x3A2E JUMP JUMPDEST SWAP3 POP POP DUP2 SWAP1 SSTORE POP PUSH1 0x40 MLOAD DUP1 PUSH2 0x180 ADD PUSH1 0x40 MSTORE DUP1 PUSH1 0x2 SLOAD DUP2 MSTORE PUSH1 0x20 ADD DUP7 DUP2 MSTORE PUSH1 0x20 ADD DUP6 DUP2 MSTORE PUSH1 0x20 ADD DUP5 DUP2 MSTORE PUSH1 0x20 ADD DUP4 DUP2 MSTORE PUSH1 0x20 ADD DUP3 DUP2 MSTORE PUSH1 0x20 ADD DUP3 DUP2 MSTORE PUSH1 0x20 ADD CALLER PUSH1 0x1 PUSH1 0x1 PUSH1 0xA0 SHL SUB AND DUP2 MSTORE PUSH1 0x20 ADD DUP9 DUP9 DUP1 DUP1 PUSH1 0x1F ADD PUSH1 0x20 DUP1 SWAP2 DIV MUL PUSH1 0x20 ADD PUSH1 0x40 MLOAD SWAP1 DUP2 ADD PUSH1 0x40 MSTORE DUP1 SWAP4 SWAP3 SWAP2 SWAP1 DUP2 DUP2 MSTORE PUSH1 0x20 ADD DUP4 DUP4 DUP1 DUP3 DUP5 CALLDATACOPY PUSH1 0x0 SWAP3 ADD DUP3 SWAP1 MSTORE POP SWAP4 DUP6 MSTORE POP POP POP PUSH1 0x20 DUP1 DUP4 ADD DUP3 SWAP1 MSTORE PUSH1 0x40 DUP1 DUP5 ADD DUP4 SWAP1 MSTORE PUSH1 0x1 PUSH1 0x60 SWAP5 DUP6 ADD DUP2 SWAP1 MSTORE PUSH1 0x2 DUP1 SLOAD DUP6 MSTORE PUSH1 0xC DUP5 MSTORE SWAP4 DUP3 SWAP1 KECCAK256 DUP7 MLOAD DUP2 SSTORE SWAP3 DUP7 ADD MLOAD SWAP1 DUP4 ADD SSTORE DUP5 ADD MLOAD SWAP2 DUP2 ADD SWAP2 SWAP1 SWAP2 SSTORE SWAP1 DUP3 ADD MLOAD PUSH1 0x3 DUP3 ADD SSTORE PUSH1 0x80 DUP3 ADD MLOAD PUSH1 0x4 DUP3 ADD SSTORE PUSH1 0xA0 DUP3 ADD MLOAD PUSH1 0x5 DUP3 ADD SSTORE PUSH1 0xC0 DUP3 ADD MLOAD PUSH1 0x6 DUP3 ADD SSTORE PUSH1 0xE0 DUP3 ADD MLOAD PUSH1 0x7 DUP3 ADD DUP1 SLOAD PUSH1 0x1 PUSH1 0x1 PUSH1 0xA0 SHL SUB NOT AND PUSH1 0x1 PUSH1 0x1 PUSH1 0xA0 SHL SUB SWAP1 SWAP3 AND SWAP2 SWAP1 SWAP2 OR SWAP1 SSTORE PUSH2 0x100 DUP3 ADD MLOAD PUSH1 0x8 DUP3 ADD SWAP1 PUSH2 0x10A0 SWAP1 DUP3 PUSH2 0x3ADC JUMP JUMPDEST POP PUSH2 0x120 DUP3 ADD MLOAD PUSH1 0x9 SWAP1 SWAP2 ADD DUP1 SLOAD PUSH2 0x140 DUP5 ADD MLOAD PUSH2 0x160 SWAP1 SWAP5 ADD MLOAD ISZERO ISZERO PUSH3 0x10000 MUL PUSH3 0xFF0000 NOT SWAP5 ISZERO ISZERO PUSH2 0x100 MUL PUSH2 0xFF00 NOT SWAP5 ISZERO ISZERO SWAP5 SWAP1 SWAP5 AND PUSH2 0xFFFF NOT SWAP1 SWAP3 AND SWAP2 SWAP1 SWAP2 OR SWAP3 SWAP1 SWAP3 OR SWAP3 SWAP1 SWAP3 AND OR SWAP1 SSTORE PUSH1 0x2 SLOAD PUSH1 0x40 MLOAD CALLER SWAP2 SWAP1 PUSH32 0x6B68A2FC85527405D93824F9EA03022F60F50735F43C2BF600582AF1824F5006 SWAP1 PUSH2 0x112F SWAP1 DUP12 SWAP1 DUP12 SWAP1 DUP12 SWAP1 DUP12 SWAP1 DUP12 SWAP1 DUP12 SWAP1 PUSH2 0x3B9B JUMP JUMPDEST PUSH1 0x40 MLOAD DUP1 SWAP2 SUB SWAP1 LOG3 POP POP POP POP POP POP POP JUMP JUMPDEST PUSH1 0x7 SLOAD PUSH1 0x1 PUSH1 0x1 PUSH1 0xA0 SHL SUB AND CALLER EQ DUP1 PUSH2 0x1163 JUMPI POP PUSH1 0x1 SLOAD PUSH1 0x1 PUSH1 0x1 PUSH1 0xA0 SHL SUB AND CALLER EQ JUMPDEST PUSH2 0x11A0 JUMPI PUSH1 0x40 MLOAD PUSH3 0x461BCD PUSH1 0xE5 SHL DUP2 MSTORE PUSH1 0x20 PUSH1 0x4 DUP3 ADD MSTORE PUSH1 0xE PUSH1 0x24 DUP3 ADD MSTORE PUSH14 0x139BDD08185D5D1A1BDC9A5E9959 PUSH1 0x92 SHL PUSH1 0x44 DUP3 ADD MSTORE PUSH1 0x64 ADD PUSH2 0x994 JUMP JUMPDEST PUSH1 0x0 DUP3 DUP2 MSTORE PUSH1 0xC PUSH1 0x20 MSTORE PUSH1 0x40 SWAP1 KECCAK256 PUSH1 0x9 DUP2 ADD SLOAD DUP4 SWAP2 SWAP1 PUSH3 0x10000 SWAP1 DIV PUSH1 0xFF AND PUSH2 0x11DB JUMPI PUSH1 0x40 MLOAD PUSH3 0x461BCD PUSH1 0xE5 SHL DUP2 MSTORE PUSH1 0x4 ADD PUSH2 0x994 SWAP1 PUSH2 0x3965 JUMP JUMPDEST DUP1 PUSH1 0x2 ADD SLOAD TIMESTAMP LT ISZERO PUSH2 0x1226 JUMPI PUSH1 0x40 MLOAD PUSH3 0x461BCD PUSH1 0xE5 SHL DUP2 MSTORE PUSH1 0x20 PUSH1 0x4 DUP3 ADD MSTORE PUSH1 0x14 PUSH1 0x24 DUP3 ADD MSTORE PUSH20 0x13585C9AD95D081A185CC81B9BDD08195B991959 PUSH1 0x62 SHL PUSH1 0x44 DUP3 ADD MSTORE PUSH1 0x64 ADD PUSH2 0x994 JUMP JUMPDEST PUSH1 0x0 DUP5 DUP2 MSTORE PUSH1 0xC PUSH1 0x20 MSTORE PUSH1 0x40 SWAP1 KECCAK256 PUSH1 0x9 DUP2 ADD SLOAD PUSH1 0xFF AND ISZERO PUSH2 0x1289 JUMPI PUSH1 0x40 MLOAD PUSH3 0x461BCD PUSH1 0xE5 SHL DUP2 MSTORE PUSH1 0x20 PUSH1 0x4 DUP3 ADD MSTORE PUSH1 0x17 PUSH1 0x24 DUP3 ADD MSTORE PUSH32 0x4D61726B657420616C7265616479207265736F6C766564000000000000000000 PUSH1 0x44 DUP3 ADD MSTORE PUSH1 0x64 ADD PUSH2 0x994 JUMP JUMPDEST PUSH1 0x9 DUP2 ADD DUP1 SLOAD DUP6 ISZERO ISZERO PUSH2 0x100 MUL PUSH2 0xFFFF NOT SWAP1 SWAP2 AND OR PUSH1 0x1 OR SWAP1 SSTORE PUSH1 0x40 MLOAD DUP6 SWAP1 PUSH32 0x4927FE38919783250023D27E65A3E56B6B5C3E49364E51674A41EF08D62460D9 SWAP1 PUSH2 0x12D9 SWAP1 DUP8 ISZERO ISZERO DUP2 MSTORE PUSH1 0x20 ADD SWAP1 JUMP JUMPDEST PUSH1 0x40 MLOAD DUP1 SWAP2 SUB SWAP1 LOG2 POP POP POP POP POP JUMP JUMPDEST PUSH1 0x0 DUP6 DUP2 MSTORE PUSH1 0xC PUSH1 0x20 MSTORE PUSH1 0x40 SWAP1 KECCAK256 PUSH1 0x9 DUP2 ADD SLOAD DUP7 SWAP2 SWAP1 PUSH3 0x10000 SWAP1 DIV PUSH1 0xFF AND PUSH2 0x1323 JUMPI PUSH1 0x40 MLOAD PUSH3 0x461BCD PUSH1 0xE5 SHL DUP2 MSTORE PUSH1 0x4 ADD PUSH2 0x994 SWAP1 PUSH2 0x3965 JUMP JUMPDEST DUP1 PUSH1 0x2 ADD SLOAD TIMESTAMP LT ISZERO PUSH2 0x136E JUMPI PUSH1 0x40 MLOAD PUSH3 0x461BCD PUSH1 0xE5 SHL DUP2 MSTORE PUSH1 0x20 PUSH1 0x4 DUP3 ADD MSTORE PUSH1 0x14 PUSH1 0x24 DUP3 ADD MSTORE PUSH20 0x13585C9AD95D081A185CC81B9BDD08195B991959 PUSH1 0x62 SHL PUSH1 0x44 DUP3 ADD MSTORE PUSH1 0x64 ADD PUSH2 0x994 JUMP JUMPDEST PUSH1 0x0 DUP8 DUP2 MSTORE PUSH1 0xC PUSH1 0x20 MSTORE PUSH1 0x40 SWAP1 KECCAK256 PUSH1 0x9 DUP2 ADD SLOAD PUSH1 0xFF AND ISZERO PUSH2 0x13C4 JUMPI PUSH1 0x40 MLOAD PUSH3 0x461BCD PUSH1 0xE5 SHL DUP2 MSTORE PUSH1 0x20 PUSH1 0x4 DUP3 ADD MSTORE PUSH1 0x10 PUSH1 0x24 DUP3 ADD MSTORE PUSH16 0x105B1C9958591E481C995CDBDB1D9959 PUSH1 0x82 SHL PUSH1 0x44 DUP3 ADD MSTORE PUSH1 0x64 ADD PUSH2 0x994 JUMP JUMPDEST PUSH1 0x0 DUP9 DUP2 MSTORE PUSH1 0xB PUSH1 0x20 MSTORE PUSH1 0x40 SWAP1 KECCAK256 SLOAD PUSH1 0xFF AND ISZERO PUSH2 0x1417 JUMPI PUSH1 0x40 MLOAD PUSH3 0x461BCD PUSH1 0xE5 SHL DUP2 MSTORE PUSH1 0x20 PUSH1 0x4 DUP3 ADD MSTORE PUSH1 0x11 PUSH1 0x24 DUP3 ADD MSTORE PUSH17 0x105B1C9958591E481C995C5D595CDD1959 PUSH1 0x7A SHL PUSH1 0x44 DUP3 ADD MSTORE PUSH1 0x64 ADD PUSH2 0x994 JUMP JUMPDEST PUSH1 0x0 PUSH2 0x142C PUSH1 0x2 PUSH8 0x6F05B59D3B200000 PUSH2 0x3A1A JUMP JUMPDEST SWAP1 POP DUP1 DUP3 PUSH1 0x5 ADD SLOAD EQ DUP1 ISZERO PUSH2 0x1444 JUMPI POP DUP1 DUP3 PUSH1 0x6 ADD SLOAD EQ JUMPDEST ISZERO PUSH2 0x14D9 JUMPI PUSH1 0x0 DUP3 PUSH1 0x6 ADD SLOAD DUP4 PUSH1 0x5 ADD SLOAD PUSH2 0x145F SWAP2 SWAP1 PUSH2 0x39DA JUMP JUMPDEST SWAP1 POP DUP1 PUSH1 0x4 PUSH1 0x0 DUP3 DUP3 SLOAD PUSH2 0x1473 SWAP2 SWAP1 PUSH2 0x39DA JUMP JUMPDEST SWAP1 SWAP2 SSTORE POP POP PUSH1 0x0 PUSH1 0x5 DUP5 ADD DUP2 SWAP1 SSTORE PUSH1 0x6 DUP5 ADD SSTORE PUSH1 0x9 DUP4 ADD DUP1 SLOAD PUSH1 0xFF NOT AND PUSH1 0x1 OR SWAP1 SSTORE PUSH1 0x40 MLOAD DUP11 SWAP1 PUSH32 0x932BCC53FCF504089C21D39FEF179E3B2510B8C80E97BF91C4B9B845CB952971 SWAP1 PUSH2 0x14C9 SWAP1 DUP5 DUP2 MSTORE PUSH1 0x20 ADD SWAP1 JUMP JUMPDEST PUSH1 0x40 MLOAD DUP1 SWAP2 SUB SWAP1 LOG2 POP POP POP PUSH2 0x160C JUMP JUMPDEST PUSH2 0x151A PUSH1 0x40 DUP1 MLOAD PUSH1 0xE0 DUP2 ADD SWAP1 SWAP2 MSTORE DUP1 PUSH1 0x0 DUP2 MSTORE PUSH1 0x20 ADD PUSH1 0x0 DUP2 MSTORE PUSH1 0x20 ADD PUSH1 0x0 DUP2 MSTORE PUSH1 0x20 ADD PUSH1 0x60 DUP2 MSTORE PUSH1 0x20 ADD PUSH1 0x60 DUP2 MSTORE PUSH1 0x20 ADD PUSH1 0x60 DUP2 MSTORE PUSH1 0x20 ADD PUSH1 0x60 DUP2 MSTORE POP SWAP1 JUMP JUMPDEST PUSH2 0x155C DUP10 DUP10 DUP1 DUP1 PUSH1 0x1F ADD PUSH1 0x20 DUP1 SWAP2 DIV MUL PUSH1 0x20 ADD PUSH1 0x40 MLOAD SWAP1 DUP2 ADD PUSH1 0x40 MSTORE DUP1 SWAP4 SWAP3 SWAP2 SWAP1 DUP2 DUP2 MSTORE PUSH1 0x20 ADD DUP4 DUP4 DUP1 DUP3 DUP5 CALLDATACOPY PUSH1 0x0 SWAP3 ADD SWAP2 SWAP1 SWAP2 MSTORE POP DUP6 SWAP4 SWAP3 POP POP PUSH2 0x2AA7 SWAP1 POP JUMP JUMPDEST DUP6 ISZERO PUSH2 0x1576 JUMPI PUSH2 0x1576 PUSH2 0x156F DUP8 DUP10 PUSH2 0x3BE9 JUMP JUMPDEST DUP3 SWAP1 PUSH2 0x2AB4 JUMP JUMPDEST PUSH1 0x0 PUSH2 0x15A8 PUSH2 0x1584 DUP4 PUSH2 0x2ADE JUMP JUMPDEST PUSH1 0x9 SLOAD PUSH1 0x8 SLOAD PUSH1 0x1 PUSH1 0x1 PUSH1 0x40 SHL SUB DUP3 AND SWAP2 PUSH1 0x1 PUSH1 0x40 SHL SWAP1 DIV PUSH4 0xFFFFFFFF AND SWAP1 PUSH2 0x2DB6 JUMP JUMPDEST PUSH1 0x0 DUP2 DUP2 MSTORE PUSH1 0xA PUSH1 0x20 SWAP1 DUP2 MSTORE PUSH1 0x40 DUP1 DUP4 KECCAK256 DUP16 SWAP1 SSTORE DUP15 DUP4 MSTORE PUSH1 0xB DUP3 MSTORE SWAP2 DUP3 SWAP1 KECCAK256 DUP1 SLOAD PUSH1 0xFF NOT AND PUSH1 0x1 OR SWAP1 SSTORE SWAP1 MLOAD DUP3 DUP2 MSTORE SWAP2 SWAP3 POP DUP13 SWAP2 PUSH32 0xC92F993487C6D961B60FF2A81386DFF5CC620CD4AED9CDDABE26500391655E82 SWAP2 ADD PUSH1 0x40 MLOAD DUP1 SWAP2 SUB SWAP1 LOG2 POP POP POP POP JUMPDEST POP POP POP POP POP POP POP JUMP JUMPDEST PUSH2 0x161D PUSH2 0x2A4D JUMP JUMPDEST PUSH2 0x1627 PUSH1 0x0 PUSH2 0x2E88 JUMP JUMPDEST JUMP JUMPDEST PUSH2 0x1631 PUSH2 0x2A4D JUMP JUMPDEST PUSH1 0x1 PUSH1 0x1 PUSH1 0xA0 SHL SUB DUP2 AND PUSH2 0x1678 JUMPI PUSH1 0x40 MLOAD PUSH3 0x461BCD PUSH1 0xE5 SHL DUP2 MSTORE PUSH1 0x20 PUSH1 0x4 DUP3 ADD MSTORE PUSH1 0xE PUSH1 0x24 DUP3 ADD MSTORE PUSH14 0x496E76616C6964206F7261636C65 PUSH1 0x90 SHL PUSH1 0x44 DUP3 ADD MSTORE PUSH1 0x64 ADD PUSH2 0x994 JUMP JUMPDEST PUSH1 0x7 DUP1 SLOAD PUSH1 0x1 PUSH1 0x1 PUSH1 0xA0 SHL SUB NOT AND PUSH1 0x1 PUSH1 0x1 PUSH1 0xA0 SHL SUB SWAP3 SWAP1 SWAP3 AND SWAP2 SWAP1 SWAP2 OR SWAP1 SSTORE JUMP JUMPDEST PUSH2 0x16A2 PUSH2 0x2A4D JUMP JUMPDEST PUSH1 0x0 DUP2 DUP2 MSTORE PUSH1 0xC PUSH1 0x20 MSTORE PUSH1 0x40 SWAP1 KECCAK256 PUSH1 0x9 ADD SLOAD DUP2 SWAP1 PUSH3 0x10000 SWAP1 DIV PUSH1 0xFF AND PUSH2 0x16DB JUMPI PUSH1 0x40 MLOAD PUSH3 0x461BCD PUSH1 0xE5 SHL DUP2 MSTORE PUSH1 0x4 ADD PUSH2 0x994 SWAP1 PUSH2 0x3965 JUMP JUMPDEST PUSH1 0x0 DUP3 DUP2 MSTORE PUSH1 0xC PUSH1 0x20 MSTORE PUSH1 0x40 SWAP1 KECCAK256 PUSH1 0x9 DUP2 ADD SLOAD PUSH1 0xFF AND ISZERO PUSH2 0x173E JUMPI PUSH1 0x40 MLOAD PUSH3 0x461BCD PUSH1 0xE5 SHL DUP2 MSTORE PUSH1 0x20 PUSH1 0x4 DUP3 ADD MSTORE PUSH1 0x1D PUSH1 0x24 DUP3 ADD MSTORE PUSH32 0x43616E6E6F742063616E63656C207265736F6C766564206D61726B6574000000 PUSH1 0x44 DUP3 ADD MSTORE PUSH1 0x64 ADD PUSH2 0x994 JUMP JUMPDEST PUSH1 0x0 DUP2 PUSH1 0x6 ADD SLOAD DUP3 PUSH1 0x5 ADD SLOAD PUSH2 0x1754 SWAP2 SWAP1 PUSH2 0x39DA JUMP JUMPDEST SWAP1 POP DUP1 PUSH1 0x4 PUSH1 0x0 DUP3 DUP3 SLOAD PUSH2 0x1768 SWAP2 SWAP1 PUSH2 0x39DA JUMP JUMPDEST SWAP1 SWAP2 SSTORE POP POP PUSH1 0x0 PUSH1 0x5 DUP4 ADD DUP2 SWAP1 SSTORE PUSH1 0x6 DUP4 ADD SSTORE PUSH1 0x9 DUP3 ADD DUP1 SLOAD PUSH1 0xFF NOT AND PUSH1 0x1 OR SWAP1 SSTORE PUSH1 0x40 MLOAD DUP5 SWAP1 PUSH32 0x932BCC53FCF504089C21D39FEF179E3B2510B8C80E97BF91C4B9B845CB952971 SWAP1 PUSH2 0x17BE SWAP1 DUP5 DUP2 MSTORE PUSH1 0x20 ADD SWAP1 JUMP JUMPDEST PUSH1 0x40 MLOAD DUP1 SWAP2 SUB SWAP1 LOG2 POP POP POP POP JUMP JUMPDEST PUSH1 0x0 PUSH1 0x6 SLOAD PUSH1 0x5 SLOAD PUSH2 0x17DE SWAP2 SWAP1 PUSH2 0x3A2E JUMP JUMPDEST SWAP1 POP SWAP1 JUMP JUMPDEST PUSH1 0x0 DUP3 DUP2 MSTORE PUSH1 0xE PUSH1 0x20 SWAP1 DUP2 MSTORE PUSH1 0x40 DUP1 DUP4 KECCAK256 PUSH1 0x1 PUSH1 0x1 PUSH1 0xA0 SHL SUB DUP6 AND DUP5 MSTORE SWAP1 SWAP2 MSTORE SWAP1 KECCAK256 SLOAD PUSH1 0xFF AND JUMPDEST SWAP3 SWAP2 POP POP JUMP JUMPDEST PUSH2 0x1818 PUSH2 0x2A4D JUMP JUMPDEST PUSH1 0x8 SWAP3 SWAP1 SWAP3 SSTORE PUSH1 0x9 DUP1 SLOAD PUSH4 0xFFFFFFFF SWAP1 SWAP4 AND PUSH1 0x1 PUSH1 0x40 SHL MUL PUSH12 0xFFFFFFFFFFFFFFFFFFFFFFFF NOT SWAP1 SWAP4 AND PUSH1 0x1 PUSH1 0x1 PUSH1 0x40 SHL SUB SWAP1 SWAP3 AND SWAP2 SWAP1 SWAP2 OR SWAP2 SWAP1 SWAP2 OR SWAP1 SSTORE JUMP JUMPDEST PUSH1 0x0 DUP3 DUP2 MSTORE PUSH1 0xC PUSH1 0x20 MSTORE PUSH1 0x40 SWAP1 KECCAK256 PUSH1 0x9 DUP2 ADD SLOAD DUP4 SWAP2 SWAP1 PUSH3 0x10000 SWAP1 DIV PUSH1 0xFF AND PUSH2 0x1893 JUMPI PUSH1 0x40 MLOAD PUSH3 0x461BCD PUSH1 0xE5 SHL DUP2 MSTORE PUSH1 0x4 ADD PUSH2 0x994 SWAP1 PUSH2 0x3965 JUMP JUMPDEST PUSH1 0x9 DUP2 ADD SLOAD PUSH1 0xFF AND ISZERO PUSH2 0x18DD JUMPI PUSH1 0x40 MLOAD PUSH3 0x461BCD PUSH1 0xE5 SHL DUP2 MSTORE PUSH1 0x20 PUSH1 0x4 DUP3 ADD MSTORE PUSH1 0x12 PUSH1 0x24 DUP3 ADD MSTORE PUSH18 0x13585C9AD95D081A5CC81C995CDBDB1D9959 PUSH1 0x72 SHL PUSH1 0x44 DUP3 ADD MSTORE PUSH1 0x64 ADD PUSH2 0x994 JUMP JUMPDEST DUP1 PUSH1 0x1 ADD SLOAD TIMESTAMP LT PUSH2 0x1930 JUMPI PUSH1 0x40 MLOAD PUSH3 0x461BCD PUSH1 0xE5 SHL DUP2 MSTORE PUSH1 0x20 PUSH1 0x4 DUP3 ADD MSTORE PUSH1 0x1E PUSH1 0x24 DUP3 ADD MSTORE PUSH32 0x4D61726B65742062657474696E672070686173652068617320656E6465640000 PUSH1 0x44 DUP3 ADD MSTORE PUSH1 0x64 ADD PUSH2 0x994 JUMP JUMPDEST PUSH1 0x0 DUP5 DUP2 MSTORE PUSH1 0xE PUSH1 0x20 SWAP1 DUP2 MSTORE PUSH1 0x40 DUP1 DUP4 KECCAK256 CALLER DUP5 MSTORE SWAP1 SWAP2 MSTORE SWAP1 KECCAK256 SLOAD PUSH1 0xFF AND ISZERO PUSH2 0x19A6 JUMPI PUSH1 0x40 MLOAD PUSH3 0x461BCD PUSH1 0xE5 SHL DUP2 MSTORE PUSH1 0x20 PUSH1 0x4 DUP3 ADD MSTORE PUSH1 0x23 PUSH1 0x24 DUP3 ADD MSTORE PUSH32 0x557365722068617320616C726561647920626574206F6E2074686973206D6172 PUSH1 0x44 DUP3 ADD MSTORE PUSH3 0x1AD95D PUSH1 0xEA SHL PUSH1 0x64 DUP3 ADD MSTORE PUSH1 0x84 ADD PUSH2 0x994 JUMP JUMPDEST PUSH1 0x0 DUP5 DUP2 MSTORE PUSH1 0xC PUSH1 0x20 MSTORE PUSH1 0x40 SWAP1 KECCAK256 PUSH1 0x3 DUP2 ADD SLOAD CALLVALUE LT ISZERO PUSH2 0x1A08 JUMPI PUSH1 0x40 MLOAD PUSH3 0x461BCD PUSH1 0xE5 SHL DUP2 MSTORE PUSH1 0x20 PUSH1 0x4 DUP3 ADD MSTORE PUSH1 0x18 PUSH1 0x24 DUP3 ADD MSTORE PUSH32 0x42657420616D6F756E742062656C6F77206D696E696D756D0000000000000000 PUSH1 0x44 DUP3 ADD MSTORE PUSH1 0x64 ADD PUSH2 0x994 JUMP JUMPDEST DUP1 PUSH1 0x4 ADD SLOAD CALLVALUE GT ISZERO PUSH2 0x1A5C JUMPI PUSH1 0x40 MLOAD PUSH3 0x461BCD PUSH1 0xE5 SHL DUP2 MSTORE PUSH1 0x20 PUSH1 0x4 DUP3 ADD MSTORE PUSH1 0x18 PUSH1 0x24 DUP3 ADD MSTORE PUSH32 0x42657420616D6F756E742061626F7665206D6178696D756D0000000000000000 PUSH1 0x44 DUP3 ADD MSTORE PUSH1 0x64 ADD PUSH2 0x994 JUMP JUMPDEST PUSH1 0x0 PUSH2 0x2710 PUSH2 0x1A6C PUSH1 0x96 CALLVALUE PUSH2 0x39ED JUMP JUMPDEST PUSH2 0x1A76 SWAP2 SWAP1 PUSH2 0x3A1A JUMP JUMPDEST SWAP1 POP PUSH1 0x0 PUSH2 0x1A84 DUP3 CALLVALUE PUSH2 0x3A2E JUMP JUMPDEST SWAP1 POP DUP2 PUSH1 0x3 PUSH1 0x0 DUP3 DUP3 SLOAD PUSH2 0x1A98 SWAP2 SWAP1 PUSH2 0x39DA JUMP JUMPDEST SWAP3 POP POP DUP2 SWAP1 SSTORE POP DUP2 PUSH1 0x5 PUSH1 0x0 DUP3 DUP3 SLOAD PUSH2 0x1AB1 SWAP2 SWAP1 PUSH2 0x39DA JUMP JUMPDEST SWAP1 SWAP2 SSTORE POP POP PUSH1 0x40 DUP1 MLOAD PUSH1 0x60 DUP2 ADD DUP3 MSTORE DUP3 DUP2 MSTORE PUSH1 0x0 PUSH1 0x20 DUP1 DUP4 ADD DUP3 DUP2 MSTORE DUP11 ISZERO DUP1 ISZERO DUP6 DUP8 ADD SWAP1 DUP2 MSTORE DUP14 DUP6 MSTORE PUSH1 0xD DUP5 MSTORE DUP7 DUP6 KECCAK256 CALLER DUP1 DUP8 MSTORE SWAP1 DUP6 MSTORE DUP8 DUP7 KECCAK256 SWAP7 MLOAD DUP8 SSTORE SWAP3 MLOAD PUSH1 0x1 SWAP7 DUP8 ADD DUP1 SLOAD SWAP3 MLOAD ISZERO ISZERO PUSH2 0x100 MUL PUSH2 0xFF00 NOT SWAP3 ISZERO ISZERO SWAP3 SWAP1 SWAP3 AND PUSH2 0xFFFF NOT SWAP1 SWAP4 AND SWAP3 SWAP1 SWAP3 OR OR SWAP1 SSTORE DUP13 DUP5 MSTORE PUSH1 0xE DUP4 MSTORE DUP6 DUP5 KECCAK256 SWAP2 DUP5 MSTORE SWAP2 MSTORE SWAP3 SWAP1 KECCAK256 DUP1 SLOAD PUSH1 0xFF NOT AND SWAP1 SWAP2 OR SWAP1 SSTORE PUSH2 0x1B59 JUMPI DUP1 DUP4 PUSH1 0x5 ADD PUSH1 0x0 DUP3 DUP3 SLOAD PUSH2 0x1B4E SWAP2 SWAP1 PUSH2 0x39DA JUMP JUMPDEST SWAP1 SWAP2 SSTORE POP PUSH2 0x1B73 SWAP1 POP JUMP JUMPDEST DUP1 DUP4 PUSH1 0x6 ADD PUSH1 0x0 DUP3 DUP3 SLOAD PUSH2 0x1B6D SWAP2 SWAP1 PUSH2 0x39DA JUMP JUMPDEST SWAP1 SWAP2 SSTORE POP POP JUMPDEST PUSH1 0x40 DUP1 MLOAD DUP3 DUP2 MSTORE DUP8 ISZERO ISZERO PUSH1 0x20 DUP3 ADD MSTORE CALLER SWAP2 DUP10 SWAP2 PUSH32 0xB1BD10CF5EA9540F12B9B182707734FD82DEACC56830E2BD316133DEB372BFF4 SWAP2 ADD PUSH2 0x112F JUMP JUMPDEST PUSH1 0x0 DUP2 DUP2 MSTORE PUSH1 0xC PUSH1 0x20 MSTORE PUSH1 0x40 DUP2 KECCAK256 PUSH1 0x9 ADD SLOAD DUP3 SWAP1 PUSH3 0x10000 SWAP1 DIV PUSH1 0xFF AND PUSH2 0x1BE7 JUMPI PUSH1 0x40 MLOAD PUSH3 0x461BCD PUSH1 0xE5 SHL DUP2 MSTORE PUSH1 0x4 ADD PUSH2 0x994 SWAP1 PUSH2 0x3965 JUMP JUMPDEST PUSH1 0x0 DUP4 DUP2 MSTORE PUSH1 0xC PUSH1 0x20 MSTORE PUSH1 0x40 DUP2 KECCAK256 SWAP1 PUSH2 0x1C09 PUSH1 0x2 PUSH8 0x6F05B59D3B200000 PUSH2 0x3A1A JUMP JUMPDEST SWAP1 POP PUSH1 0x0 DUP2 DUP4 PUSH1 0x5 ADD SLOAD LT ISZERO PUSH2 0x1C20 JUMPI PUSH1 0x0 PUSH2 0x1C30 JUMP JUMPDEST DUP2 DUP4 PUSH1 0x5 ADD SLOAD PUSH2 0x1C30 SWAP2 SWAP1 PUSH2 0x3A2E JUMP JUMPDEST SWAP1 POP PUSH1 0x0 DUP3 DUP5 PUSH1 0x6 ADD SLOAD LT ISZERO PUSH2 0x1C47 JUMPI PUSH1 0x0 PUSH2 0x1C57 JUMP JUMPDEST DUP3 DUP5 PUSH1 0x6 ADD SLOAD PUSH2 0x1C57 SWAP2 SWAP1 PUSH2 0x3A2E JUMP JUMPDEST SWAP1 POP PUSH2 0x1C63 DUP2 DUP4 PUSH2 0x39DA JUMP JUMPDEST SWAP6 POP POP POP POP POP JUMPDEST POP SWAP2 SWAP1 POP JUMP JUMPDEST PUSH2 0x1C78 PUSH2 0x26DE JUMP JUMPDEST PUSH1 0x0 DUP2 DUP2 MSTORE PUSH1 0xC PUSH1 0x20 MSTORE PUSH1 0x40 SWAP1 KECCAK256 PUSH1 0x9 DUP2 ADD SLOAD DUP3 SWAP2 SWAP1 PUSH3 0x10000 SWAP1 DIV PUSH1 0xFF AND PUSH2 0x1CB3 JUMPI PUSH1 0x40 MLOAD PUSH3 0x461BCD PUSH1 0xE5 SHL DUP2 MSTORE PUSH1 0x4 ADD PUSH2 0x994 SWAP1 PUSH2 0x3965 JUMP JUMPDEST PUSH1 0x9 DUP2 ADD SLOAD PUSH1 0xFF AND PUSH2 0x1CD7 JUMPI PUSH1 0x40 MLOAD PUSH3 0x461BCD PUSH1 0xE5 SHL DUP2 MSTORE PUSH1 0x4 ADD PUSH2 0x994 SWAP1 PUSH2 0x3994 JUMP JUMPDEST PUSH2 0x1CE1 DUP4 CALLER PUSH2 0x2737 JUMP JUMPDEST POP POP PUSH2 0x1CED PUSH1 0x1 PUSH1 0x0 SSTORE JUMP JUMPDEST POP JUMP JUMPDEST PUSH1 0xC PUSH1 0x20 MSTORE PUSH1 0x0 SWAP1 DUP2 MSTORE PUSH1 0x40 SWAP1 KECCAK256 DUP1 SLOAD PUSH1 0x1 DUP3 ADD SLOAD PUSH1 0x2 DUP4 ADD SLOAD PUSH1 0x3 DUP5 ADD SLOAD PUSH1 0x4 DUP6 ADD SLOAD PUSH1 0x5 DUP7 ADD SLOAD PUSH1 0x6 DUP8 ADD SLOAD PUSH1 0x7 DUP9 ADD SLOAD PUSH1 0x8 DUP10 ADD DUP1 SLOAD SWAP9 SWAP10 SWAP8 SWAP9 SWAP7 SWAP8 SWAP6 SWAP7 SWAP5 SWAP6 SWAP4 SWAP5 SWAP3 SWAP4 PUSH1 0x1 PUSH1 0x1 PUSH1 0xA0 SHL SUB SWAP1 SWAP3 AND SWAP3 PUSH2 0x1D4C SWAP1 PUSH2 0x3A5A JUMP JUMPDEST DUP1 PUSH1 0x1F ADD PUSH1 0x20 DUP1 SWAP2 DIV MUL PUSH1 0x20 ADD PUSH1 0x40 MLOAD SWAP1 DUP2 ADD PUSH1 0x40 MSTORE DUP1 SWAP3 SWAP2 SWAP1 DUP2 DUP2 MSTORE PUSH1 0x20 ADD DUP3 DUP1 SLOAD PUSH2 0x1D78 SWAP1 PUSH2 0x3A5A JUMP JUMPDEST DUP1 ISZERO PUSH2 0x1DC5 JUMPI DUP1 PUSH1 0x1F LT PUSH2 0x1D9A JUMPI PUSH2 0x100 DUP1 DUP4 SLOAD DIV MUL DUP4 MSTORE SWAP2 PUSH1 0x20 ADD SWAP2 PUSH2 0x1DC5 JUMP JUMPDEST DUP3 ADD SWAP2 SWAP1 PUSH1 0x0 MSTORE PUSH1 0x20 PUSH1 0x0 KECCAK256 SWAP1 JUMPDEST DUP2 SLOAD DUP2 MSTORE SWAP1 PUSH1 0x1 ADD SWAP1 PUSH1 0x20 ADD DUP1 DUP4 GT PUSH2 0x1DA8 JUMPI DUP3 SWAP1 SUB PUSH1 0x1F AND DUP3 ADD SWAP2 JUMPDEST POP POP POP PUSH1 0x9 SWAP1 SWAP4 ADD SLOAD SWAP2 SWAP3 POP POP PUSH1 0xFF DUP1 DUP3 AND SWAP2 PUSH2 0x100 DUP2 DIV DUP3 AND SWAP2 PUSH3 0x10000 SWAP1 SWAP2 DIV AND DUP13 JUMP JUMPDEST PUSH2 0x1DF3 PUSH2 0x2A4D JUMP JUMPDEST PUSH1 0x3 SLOAD DUP1 PUSH2 0x1E39 JUMPI PUSH1 0x40 MLOAD PUSH3 0x461BCD PUSH1 0xE5 SHL DUP2 MSTORE PUSH1 0x20 PUSH1 0x4 DUP3 ADD MSTORE PUSH1 0x13 PUSH1 0x24 DUP3 ADD MSTORE PUSH19 0x4E6F206665657320746F207769746864726177 PUSH1 0x68 SHL PUSH1 0x44 DUP3 ADD MSTORE PUSH1 0x64 ADD PUSH2 0x994 JUMP JUMPDEST PUSH1 0x0 PUSH1 0x3 DUP2 SWAP1 SSTORE POP DUP1 PUSH1 0x6 PUSH1 0x0 DUP3 DUP3 SLOAD PUSH2 0x1E53 SWAP2 SWAP1 PUSH2 0x39DA JUMP JUMPDEST SWAP1 SWAP2 SSTORE POP POP PUSH1 0x1 SLOAD PUSH1 0x40 MLOAD PUSH1 0x0 SWAP2 PUSH1 0x1 PUSH1 0x1 PUSH1 0xA0 SHL SUB AND SWAP1 DUP4 SWAP1 DUP4 DUP2 DUP2 DUP2 DUP6 DUP8 GAS CALL SWAP3 POP POP POP RETURNDATASIZE DUP1 PUSH1 0x0 DUP2 EQ PUSH2 0x1EA5 JUMPI PUSH1 0x40 MLOAD SWAP2 POP PUSH1 0x1F NOT PUSH1 0x3F RETURNDATASIZE ADD AND DUP3 ADD PUSH1 0x40 MSTORE RETURNDATASIZE DUP3 MSTORE RETURNDATASIZE PUSH1 0x0 PUSH1 0x20 DUP5 ADD RETURNDATACOPY PUSH2 0x1EAA JUMP JUMPDEST PUSH1 0x60 SWAP2 POP JUMPDEST POP POP SWAP1 POP DUP1 PUSH2 0x1EFB JUMPI PUSH1 0x40 MLOAD PUSH3 0x461BCD PUSH1 0xE5 SHL DUP2 MSTORE PUSH1 0x20 PUSH1 0x4 DUP3 ADD MSTORE PUSH1 0x1C PUSH1 0x24 DUP3 ADD MSTORE PUSH32 0x506C6174666F726D20666565207472616E73666572206661696C656400000000 PUSH1 0x44 DUP3 ADD MSTORE PUSH1 0x64 ADD PUSH2 0x994 JUMP JUMPDEST PUSH1 0x40 MLOAD DUP3 DUP2 MSTORE PUSH32 0x9870C8023BAA016AC002DDFA7CDAD341155ACDDDDEE3032C07D4BAA4947AE643 SWAP1 PUSH1 0x20 ADD PUSH2 0xD2D JUMP JUMPDEST PUSH2 0x1F33 PUSH2 0x2A4D JUMP JUMPDEST SELFBALANCE DUP1 PUSH2 0x1F78 JUMPI PUSH1 0x40 MLOAD PUSH3 0x461BCD PUSH1 0xE5 SHL DUP2 MSTORE PUSH1 0x20 PUSH1 0x4 DUP3 ADD MSTORE PUSH1 0x14 PUSH1 0x24 DUP3 ADD MSTORE PUSH20 0x4E6F2066756E647320746F207769746864726177 PUSH1 0x60 SHL PUSH1 0x44 DUP3 ADD MSTORE PUSH1 0x64 ADD PUSH2 0x994 JUMP JUMPDEST PUSH1 0x0 PUSH2 0x1F8C PUSH1 0x1 SLOAD PUSH1 0x1 PUSH1 0x1 PUSH1 0xA0 SHL SUB AND SWAP1 JUMP JUMPDEST PUSH1 0x1 PUSH1 0x1 PUSH1 0xA0 SHL SUB AND DUP3 PUSH1 0x40 MLOAD PUSH1 0x0 PUSH1 0x40 MLOAD DUP1 DUP4 SUB DUP2 DUP6 DUP8 GAS CALL SWAP3 POP POP POP RETURNDATASIZE DUP1 PUSH1 0x0 DUP2 EQ PUSH2 0x1FD6 JUMPI PUSH1 0x40 MLOAD SWAP2 POP PUSH1 0x1F NOT PUSH1 0x3F RETURNDATASIZE ADD AND DUP3 ADD PUSH1 0x40 MSTORE RETURNDATASIZE DUP3 MSTORE RETURNDATASIZE PUSH1 0x0 PUSH1 0x20 DUP5 ADD RETURNDATACOPY PUSH2 0x1FDB JUMP JUMPDEST PUSH1 0x60 SWAP2 POP JUMPDEST POP POP SWAP1 POP DUP1 PUSH2 0xA0D JUMPI PUSH1 0x40 MLOAD PUSH3 0x461BCD PUSH1 0xE5 SHL DUP2 MSTORE PUSH1 0x20 PUSH1 0x4 DUP3 ADD MSTORE PUSH1 0xF PUSH1 0x24 DUP3 ADD MSTORE PUSH15 0x151C985B9CD9995C8819985A5B1959 PUSH1 0x8A SHL PUSH1 0x44 DUP3 ADD MSTORE PUSH1 0x64 ADD PUSH2 0x994 JUMP JUMPDEST PUSH2 0x2026 PUSH2 0x26DE JUMP JUMPDEST PUSH1 0x0 DUP4 DUP2 MSTORE PUSH1 0xC PUSH1 0x20 MSTORE PUSH1 0x40 SWAP1 KECCAK256 PUSH1 0x9 DUP2 ADD SLOAD DUP5 SWAP2 SWAP1 PUSH3 0x10000 SWAP1 DIV PUSH1 0xFF AND PUSH2 0x2061 JUMPI PUSH1 0x40 MLOAD PUSH3 0x461BCD PUSH1 0xE5 SHL DUP2 MSTORE PUSH1 0x4 ADD PUSH2 0x994 SWAP1 PUSH2 0x3965 JUMP JUMPDEST PUSH1 0x9 DUP2 ADD SLOAD PUSH1 0xFF AND PUSH2 0x2085 JUMPI PUSH1 0x40 MLOAD PUSH3 0x461BCD PUSH1 0xE5 SHL DUP2 MSTORE PUSH1 0x4 ADD PUSH2 0x994 SWAP1 PUSH2 0x3994 JUMP JUMPDEST PUSH1 0x0 DUP6 DUP2 MSTORE PUSH1 0xC PUSH1 0x20 MSTORE PUSH1 0x40 DUP2 KECCAK256 PUSH1 0x6 DUP2 ADD SLOAD PUSH1 0x5 DUP3 ADD SLOAD SWAP2 SWAP3 SWAP2 PUSH2 0x20AA SWAP2 SWAP1 PUSH2 0x39DA JUMP JUMPDEST PUSH1 0x9 DUP4 ADD SLOAD SWAP1 SWAP2 POP PUSH1 0x0 SWAP1 PUSH2 0x100 SWAP1 DIV PUSH1 0xFF AND PUSH2 0x20CB JUMPI DUP3 PUSH1 0x6 ADD SLOAD PUSH2 0x20D1 JUMP JUMPDEST DUP3 PUSH1 0x5 ADD SLOAD JUMPDEST SWAP1 POP DUP1 PUSH1 0x0 SUB PUSH2 0x20E3 JUMPI POP POP POP PUSH2 0x22F0 JUMP JUMPDEST PUSH1 0x0 JUMPDEST DUP7 DUP2 LT ISZERO PUSH2 0x22EB JUMPI PUSH1 0x0 DUP9 DUP9 DUP4 DUP2 DUP2 LT PUSH2 0x2102 JUMPI PUSH2 0x2102 PUSH2 0x3C80 JUMP JUMPDEST SWAP1 POP PUSH1 0x20 MUL ADD PUSH1 0x20 DUP2 ADD SWAP1 PUSH2 0x2117 SWAP2 SWAP1 PUSH2 0x3728 JUMP JUMPDEST PUSH1 0x0 DUP12 DUP2 MSTORE PUSH1 0xD PUSH1 0x20 SWAP1 DUP2 MSTORE PUSH1 0x40 DUP1 DUP4 KECCAK256 PUSH1 0x1 PUSH1 0x1 PUSH1 0xA0 SHL SUB DUP6 AND DUP1 DUP6 MSTORE SWAP1 DUP4 MSTORE DUP2 DUP5 KECCAK256 DUP16 DUP6 MSTORE PUSH1 0xE DUP5 MSTORE DUP3 DUP6 KECCAK256 SWAP2 DUP6 MSTORE SWAP3 MSTORE SWAP1 SWAP2 KECCAK256 SLOAD SWAP2 SWAP3 POP SWAP1 PUSH1 0xFF AND DUP1 ISZERO PUSH2 0x2166 JUMPI POP PUSH1 0x1 DUP2 ADD SLOAD PUSH1 0xFF AND ISZERO JUMPDEST DUP1 ISZERO PUSH2 0x218E JUMPI POP PUSH1 0x9 DUP7 ADD SLOAD PUSH1 0x1 DUP3 ADD SLOAD PUSH2 0x100 SWAP2 DUP3 SWAP1 DIV PUSH1 0xFF SWAP1 DUP2 AND ISZERO ISZERO SWAP3 SWAP1 SWAP2 DIV AND ISZERO ISZERO EQ JUMPDEST DUP1 ISZERO PUSH2 0x219A JUMPI POP DUP1 SLOAD ISZERO ISZERO JUMPDEST ISZERO PUSH2 0x22E1 JUMPI PUSH1 0x0 DUP5 DUP7 DUP4 PUSH1 0x0 ADD SLOAD PUSH2 0x21B2 SWAP2 SWAP1 PUSH2 0x39ED JUMP JUMPDEST PUSH2 0x21BC SWAP2 SWAP1 PUSH2 0x3A1A JUMP JUMPDEST SWAP1 POP PUSH1 0x0 PUSH2 0x2710 PUSH2 0x21CE PUSH1 0x96 DUP5 PUSH2 0x39ED JUMP JUMPDEST PUSH2 0x21D8 SWAP2 SWAP1 PUSH2 0x3A1A JUMP JUMPDEST SWAP1 POP PUSH1 0x0 PUSH2 0x21E6 DUP3 DUP5 PUSH2 0x3A2E JUMP JUMPDEST PUSH1 0x1 DUP6 DUP2 ADD DUP1 SLOAD PUSH1 0xFF NOT AND SWAP1 SWAP2 OR SWAP1 SSTORE PUSH1 0x3 DUP1 SLOAD SWAP2 SWAP3 POP DUP4 SWAP2 PUSH1 0x0 SWAP1 PUSH2 0x220D SWAP1 DUP5 SWAP1 PUSH2 0x39DA JUMP JUMPDEST SWAP1 SWAP2 SSTORE POP POP PUSH1 0x40 MLOAD PUSH1 0x0 SWAP1 PUSH1 0x1 PUSH1 0x1 PUSH1 0xA0 SHL SUB DUP8 AND SWAP1 DUP4 SWAP1 DUP4 DUP2 DUP2 DUP2 DUP6 DUP8 GAS CALL SWAP3 POP POP POP RETURNDATASIZE DUP1 PUSH1 0x0 DUP2 EQ PUSH2 0x225D JUMPI PUSH1 0x40 MLOAD SWAP2 POP PUSH1 0x1F NOT PUSH1 0x3F RETURNDATASIZE ADD AND DUP3 ADD PUSH1 0x40 MSTORE RETURNDATASIZE DUP3 MSTORE RETURNDATASIZE PUSH1 0x0 PUSH1 0x20 DUP5 ADD RETURNDATACOPY PUSH2 0x2262 JUMP JUMPDEST PUSH1 0x60 SWAP2 POP JUMPDEST POP POP SWAP1 POP DUP1 ISZERO PUSH2 0x22B5 JUMPI DUP6 PUSH1 0x1 PUSH1 0x1 PUSH1 0xA0 SHL SUB AND DUP16 PUSH32 0x24B5EFA61DD1CFC659205A97FB8ED868F3CB8C81922BAB2B96423E5DE1DE2CB7 DUP5 PUSH1 0x40 MLOAD PUSH2 0x22A8 SWAP2 DUP2 MSTORE PUSH1 0x20 ADD SWAP1 JUMP JUMPDEST PUSH1 0x40 MLOAD DUP1 SWAP2 SUB SWAP1 LOG3 PUSH2 0x22DC JUMP JUMPDEST PUSH1 0x1 DUP6 ADD DUP1 SLOAD PUSH1 0xFF NOT AND SWAP1 SSTORE PUSH1 0x3 DUP1 SLOAD DUP5 SWAP2 SWAP1 PUSH1 0x0 SWAP1 PUSH2 0x22D6 SWAP1 DUP5 SWAP1 PUSH2 0x3A2E JUMP JUMPDEST SWAP1 SWAP2 SSTORE POP POP JUMPDEST POP POP POP POP JUMPDEST POP POP PUSH1 0x1 ADD PUSH2 0x20E6 JUMP JUMPDEST POP POP POP POP JUMPDEST POP POP PUSH2 0x22FC PUSH1 0x1 PUSH1 0x0 SSTORE JUMP JUMPDEST POP POP POP JUMP JUMPDEST PUSH2 0x2374 PUSH1 0x40 MLOAD DUP1 PUSH2 0x180 ADD PUSH1 0x40 MSTORE DUP1 PUSH1 0x0 DUP2 MSTORE PUSH1 0x20 ADD PUSH1 0x0 DUP2 MSTORE PUSH1 0x20 ADD PUSH1 0x0 DUP2 MSTORE PUSH1 0x20 ADD PUSH1 0x0 DUP2 MSTORE PUSH1 0x20 ADD PUSH1 0x0 DUP2 MSTORE PUSH1 0x20 ADD PUSH1 0x0 DUP2 MSTORE PUSH1 0x20 ADD PUSH1 0x0 DUP2 MSTORE PUSH1 0x20 ADD PUSH1 0x0 PUSH1 0x1 PUSH1 0x1 PUSH1 0xA0 SHL SUB AND DUP2 MSTORE PUSH1 0x20 ADD PUSH1 0x60 DUP2 MSTORE PUSH1 0x20 ADD PUSH1 0x0 ISZERO ISZERO DUP2 MSTORE PUSH1 0x20 ADD PUSH1 0x0 ISZERO ISZERO DUP2 MSTORE PUSH1 0x20 ADD PUSH1 0x0 ISZERO ISZERO DUP2 MSTORE POP SWAP1 JUMP JUMPDEST PUSH1 0x0 DUP3 DUP2 MSTORE PUSH1 0xC PUSH1 0x20 SWAP1 DUP2 MSTORE PUSH1 0x40 SWAP2 DUP3 SWAP1 KECCAK256 DUP3 MLOAD PUSH2 0x180 DUP2 ADD DUP5 MSTORE DUP2 SLOAD DUP2 MSTORE PUSH1 0x1 DUP3 ADD SLOAD SWAP3 DUP2 ADD SWAP3 SWAP1 SWAP3 MSTORE PUSH1 0x2 DUP2 ADD SLOAD SWAP3 DUP3 ADD SWAP3 SWAP1 SWAP3 MSTORE PUSH1 0x3 DUP3 ADD SLOAD PUSH1 0x60 DUP3 ADD MSTORE PUSH1 0x4 DUP3 ADD SLOAD PUSH1 0x80 DUP3 ADD MSTORE PUSH1 0x5 DUP3 ADD SLOAD PUSH1 0xA0 DUP3 ADD MSTORE PUSH1 0x6 DUP3 ADD SLOAD PUSH1 0xC0 DUP3 ADD MSTORE PUSH1 0x7 DUP3 ADD SLOAD PUSH1 0x1 PUSH1 0x1 PUSH1 0xA0 SHL SUB AND PUSH1 0xE0 DUP3 ADD MSTORE PUSH1 0x8 DUP3 ADD DUP1 SLOAD SWAP2 SWAP3 SWAP2 PUSH2 0x100 DUP5 ADD SWAP2 SWAP1 PUSH2 0x23FF SWAP1 PUSH2 0x3A5A JUMP JUMPDEST DUP1 PUSH1 0x1F ADD PUSH1 0x20 DUP1 SWAP2 DIV MUL PUSH1 0x20 ADD PUSH1 0x40 MLOAD SWAP1 DUP2 ADD PUSH1 0x40 MSTORE DUP1 SWAP3 SWAP2 SWAP1 DUP2 DUP2 MSTORE PUSH1 0x20 ADD DUP3 DUP1 SLOAD PUSH2 0x242B SWAP1 PUSH2 0x3A5A JUMP JUMPDEST DUP1 ISZERO PUSH2 0x2478 JUMPI DUP1 PUSH1 0x1F LT PUSH2 0x244D JUMPI PUSH2 0x100 DUP1 DUP4 SLOAD DIV MUL DUP4 MSTORE SWAP2 PUSH1 0x20 ADD SWAP2 PUSH2 0x2478 JUMP JUMPDEST DUP3 ADD SWAP2 SWAP1 PUSH1 0x0 MSTORE PUSH1 0x20 PUSH1 0x0 KECCAK256 SWAP1 JUMPDEST DUP2 SLOAD DUP2 MSTORE SWAP1 PUSH1 0x1 ADD SWAP1 PUSH1 0x20 ADD DUP1 DUP4 GT PUSH2 0x245B JUMPI DUP3 SWAP1 SUB PUSH1 0x1F AND DUP3 ADD SWAP2 JUMPDEST POP POP POP SWAP2 DUP4 MSTORE POP POP PUSH1 0x9 SWAP2 SWAP1 SWAP2 ADD SLOAD PUSH1 0xFF DUP1 DUP3 AND ISZERO ISZERO PUSH1 0x20 DUP5 ADD MSTORE PUSH2 0x100 DUP3 DIV DUP2 AND ISZERO ISZERO PUSH1 0x40 DUP5 ADD MSTORE PUSH3 0x10000 SWAP1 SWAP2 DIV AND ISZERO ISZERO PUSH1 0x60 SWAP1 SWAP2 ADD MSTORE SWAP3 SWAP2 POP POP JUMP JUMPDEST PUSH2 0x24BF PUSH2 0x2A4D JUMP JUMPDEST PUSH1 0x1 PUSH1 0x1 PUSH1 0xA0 SHL SUB DUP2 AND PUSH2 0x2524 JUMPI PUSH1 0x40 MLOAD PUSH3 0x461BCD PUSH1 0xE5 SHL DUP2 MSTORE PUSH1 0x20 PUSH1 0x4 DUP3 ADD MSTORE PUSH1 0x26 PUSH1 0x24 DUP3 ADD MSTORE PUSH32 0x4F776E61626C653A206E6577206F776E657220697320746865207A65726F2061 PUSH1 0x44 DUP3 ADD MSTORE PUSH6 0x646472657373 PUSH1 0xD0 SHL PUSH1 0x64 DUP3 ADD MSTORE PUSH1 0x84 ADD PUSH2 0x994 JUMP JUMPDEST PUSH2 0x1CED DUP2 PUSH2 0x2E88 JUMP JUMPDEST DUP1 MLOAD ISZERO PUSH2 0x256B JUMPI PUSH1 0x40 MLOAD PUSH3 0x461BCD PUSH1 0xE5 SHL DUP2 MSTORE PUSH1 0x20 PUSH1 0x4 DUP3 ADD MSTORE PUSH1 0xC PUSH1 0x24 DUP3 ADD MSTORE PUSH12 0x27B930B1B6329032B93937B9 PUSH1 0xA1 SHL PUSH1 0x44 DUP3 ADD MSTORE PUSH1 0x64 ADD PUSH2 0x994 JUMP JUMPDEST PUSH1 0x0 DUP4 DUP2 MSTORE PUSH1 0xA PUSH1 0x20 SWAP1 DUP2 MSTORE PUSH1 0x40 DUP1 DUP4 KECCAK256 SLOAD DUP1 DUP5 MSTORE PUSH1 0xC SWAP1 SWAP3 MSTORE SWAP1 SWAP2 KECCAK256 PUSH1 0x9 ADD SLOAD PUSH3 0x10000 SWAP1 DIV PUSH1 0xFF AND PUSH2 0x25D2 JUMPI PUSH1 0x40 MLOAD PUSH3 0x461BCD PUSH1 0xE5 SHL DUP2 MSTORE PUSH1 0x20 PUSH1 0x4 DUP3 ADD MSTORE PUSH1 0xE PUSH1 0x24 DUP3 ADD MSTORE PUSH14 0x125B9D985B1A59081B585C9AD95D PUSH1 0x92 SHL PUSH1 0x44 DUP3 ADD MSTORE PUSH1 0x64 ADD PUSH2 0x994 JUMP JUMPDEST PUSH1 0x0 DUP4 DUP1 PUSH1 0x20 ADD SWAP1 MLOAD DUP2 ADD SWAP1 PUSH2 0x25E8 SWAP2 SWAP1 PUSH2 0x3C96 JUMP JUMPDEST PUSH1 0x0 DUP4 DUP2 MSTORE PUSH1 0xC PUSH1 0x20 MSTORE PUSH1 0x40 SWAP1 KECCAK256 PUSH1 0x9 DUP2 ADD SLOAD SWAP2 SWAP3 POP SWAP1 PUSH1 0xFF AND ISZERO PUSH2 0x2642 JUMPI PUSH1 0x40 MLOAD PUSH3 0x461BCD PUSH1 0xE5 SHL DUP2 MSTORE PUSH1 0x20 PUSH1 0x4 DUP3 ADD MSTORE PUSH1 0x10 PUSH1 0x24 DUP3 ADD MSTORE PUSH16 0x105B1C9958591E481C995CDBDB1D9959 PUSH1 0x82 SHL PUSH1 0x44 DUP3 ADD MSTORE PUSH1 0x64 ADD PUSH2 0x994 JUMP JUMPDEST PUSH1 0x9 DUP2 ADD DUP1 SLOAD DUP4 ISZERO ISZERO PUSH2 0x100 MUL PUSH2 0xFFFF NOT SWAP1 SWAP2 AND OR PUSH1 0x1 OR SWAP1 SSTORE PUSH1 0x40 MLOAD DUP7 SWAP1 PUSH32 0x850CF3C4EC45EFC1D412A1B1CF6C83086A70E9944D5FA4E6F341D72406A38C36 SWAP1 PUSH2 0x2692 SWAP1 DUP6 ISZERO ISZERO DUP2 MSTORE PUSH1 0x20 ADD SWAP1 JUMP JUMPDEST PUSH1 0x40 MLOAD DUP1 SWAP2 SUB SWAP1 LOG2 DUP3 PUSH32 0x4927FE38919783250023D27E65A3E56B6B5C3E49364E51674A41EF08D62460D9 DUP4 PUSH1 0x40 MLOAD PUSH2 0x26CE SWAP2 ISZERO ISZERO DUP2 MSTORE PUSH1 0x20 ADD SWAP1 JUMP JUMPDEST PUSH1 0x40 MLOAD DUP1 SWAP2 SUB SWAP1 LOG2 POP POP POP POP POP POP JUMP JUMPDEST PUSH1 0x2 PUSH1 0x0 SLOAD SUB PUSH2 0x2730 JUMPI PUSH1 0x40 MLOAD PUSH3 0x461BCD PUSH1 0xE5 SHL DUP2 MSTORE PUSH1 0x20 PUSH1 0x4 DUP3 ADD MSTORE PUSH1 0x1F PUSH1 0x24 DUP3 ADD MSTORE PUSH32 0x5265656E7472616E637947756172643A207265656E7472616E742063616C6C00 PUSH1 0x44 DUP3 ADD MSTORE PUSH1 0x64 ADD PUSH2 0x994 JUMP JUMPDEST PUSH1 0x2 PUSH1 0x0 SSTORE JUMP JUMPDEST PUSH1 0x0 DUP3 DUP2 MSTORE PUSH1 0xD PUSH1 0x20 SWAP1 DUP2 MSTORE PUSH1 0x40 DUP1 DUP4 KECCAK256 PUSH1 0x1 PUSH1 0x1 PUSH1 0xA0 SHL SUB DUP6 AND DUP1 DUP6 MSTORE SWAP1 DUP4 MSTORE DUP2 DUP5 KECCAK256 DUP7 DUP6 MSTORE PUSH1 0xC DUP5 MSTORE DUP3 DUP6 KECCAK256 PUSH1 0xE DUP6 MSTORE DUP4 DUP7 KECCAK256 SWAP3 DUP7 MSTORE SWAP2 SWAP1 SWAP4 MSTORE SWAP3 KECCAK256 SLOAD SWAP1 SWAP2 SWAP1 PUSH1 0xFF AND PUSH2 0x27B7 JUMPI PUSH1 0x40 MLOAD PUSH3 0x461BCD PUSH1 0xE5 SHL DUP2 MSTORE PUSH1 0x20 PUSH1 0x4 DUP3 ADD MSTORE PUSH1 0xC PUSH1 0x24 DUP3 ADD MSTORE PUSH12 0x139BC818995D08199BDD5B99 PUSH1 0xA2 SHL PUSH1 0x44 DUP3 ADD MSTORE PUSH1 0x64 ADD PUSH2 0x994 JUMP JUMPDEST PUSH1 0x1 DUP3 ADD SLOAD PUSH1 0xFF AND ISZERO PUSH2 0x27FE JUMPI PUSH1 0x40 MLOAD PUSH3 0x461BCD PUSH1 0xE5 SHL DUP2 MSTORE PUSH1 0x20 PUSH1 0x4 DUP3 ADD MSTORE PUSH1 0xF PUSH1 0x24 DUP3 ADD MSTORE PUSH15 0x105B1C9958591E4818DB185A5B5959 PUSH1 0x8A SHL PUSH1 0x44 DUP3 ADD MSTORE PUSH1 0x64 ADD PUSH2 0x994 JUMP JUMPDEST PUSH1 0x9 DUP2 ADD SLOAD PUSH1 0x1 DUP4 ADD SLOAD PUSH2 0x100 SWAP2 DUP3 SWAP1 DIV PUSH1 0xFF SWAP1 DUP2 AND ISZERO ISZERO SWAP3 SWAP1 SWAP2 DIV AND ISZERO ISZERO EQ PUSH2 0x285D JUMPI PUSH1 0x40 MLOAD PUSH3 0x461BCD PUSH1 0xE5 SHL DUP2 MSTORE PUSH1 0x20 PUSH1 0x4 DUP3 ADD MSTORE PUSH1 0x10 PUSH1 0x24 DUP3 ADD MSTORE PUSH16 0x4E6F742077696E6E696E672073696465 PUSH1 0x80 SHL PUSH1 0x44 DUP3 ADD MSTORE PUSH1 0x64 ADD PUSH2 0x994 JUMP JUMPDEST PUSH1 0x0 DUP2 PUSH1 0x6 ADD SLOAD DUP3 PUSH1 0x5 ADD SLOAD PUSH2 0x2873 SWAP2 SWAP1 PUSH2 0x39DA JUMP JUMPDEST PUSH1 0x9 DUP4 ADD SLOAD SWAP1 SWAP2 POP PUSH1 0x0 SWAP1 PUSH2 0x100 SWAP1 DIV PUSH1 0xFF AND PUSH2 0x2894 JUMPI DUP3 PUSH1 0x6 ADD SLOAD PUSH2 0x289A JUMP JUMPDEST DUP3 PUSH1 0x5 ADD SLOAD JUMPDEST SWAP1 POP PUSH1 0x0 DUP2 GT PUSH2 0x28E1 JUMPI PUSH1 0x40 MLOAD PUSH3 0x461BCD PUSH1 0xE5 SHL DUP2 MSTORE PUSH1 0x20 PUSH1 0x4 DUP3 ADD MSTORE PUSH1 0x12 PUSH1 0x24 DUP3 ADD MSTORE PUSH18 0x57696E6E696E6720706F6F6C20656D707479 PUSH1 0x70 SHL PUSH1 0x44 DUP3 ADD MSTORE PUSH1 0x64 ADD PUSH2 0x994 JUMP JUMPDEST PUSH1 0x0 DUP2 DUP4 DUP7 PUSH1 0x0 ADD SLOAD PUSH2 0x28F4 SWAP2 SWAP1 PUSH2 0x39ED JUMP JUMPDEST PUSH2 0x28FE SWAP2 SWAP1 PUSH2 0x3A1A JUMP JUMPDEST SWAP1 POP PUSH1 0x0 PUSH2 0x2710 PUSH2 0x2910 PUSH1 0x96 DUP5 PUSH2 0x39ED JUMP JUMPDEST PUSH2 0x291A SWAP2 SWAP1 PUSH2 0x3A1A JUMP JUMPDEST SWAP1 POP PUSH1 0x0 PUSH2 0x2928 DUP3 DUP5 PUSH2 0x3A2E JUMP JUMPDEST SWAP1 POP DUP2 PUSH1 0x3 PUSH1 0x0 DUP3 DUP3 SLOAD PUSH2 0x293C SWAP2 SWAP1 PUSH2 0x39DA JUMP JUMPDEST SWAP3 POP POP DUP2 SWAP1 SSTORE POP DUP2 PUSH1 0x5 PUSH1 0x0 DUP3 DUP3 SLOAD PUSH2 0x2955 SWAP2 SWAP1 PUSH2 0x39DA JUMP JUMPDEST SWAP1 SWAP2 SSTORE POP POP PUSH1 0x1 DUP8 DUP2 ADD DUP1 SLOAD PUSH1 0xFF NOT AND SWAP1 SWAP2 OR SWAP1 SSTORE PUSH1 0x40 MLOAD PUSH1 0x0 SWAP1 PUSH1 0x1 PUSH1 0x1 PUSH1 0xA0 SHL SUB DUP11 AND SWAP1 DUP4 SWAP1 DUP4 DUP2 DUP2 DUP2 DUP6 DUP8 GAS CALL SWAP3 POP POP POP RETURNDATASIZE DUP1 PUSH1 0x0 DUP2 EQ PUSH2 0x29B5 JUMPI PUSH1 0x40 MLOAD SWAP2 POP PUSH1 0x1F NOT PUSH1 0x3F RETURNDATASIZE ADD AND DUP3 ADD PUSH1 0x40 MSTORE RETURNDATASIZE DUP3 MSTORE RETURNDATASIZE PUSH1 0x0 PUSH1 0x20 DUP5 ADD RETURNDATACOPY PUSH2 0x29BA JUMP JUMPDEST PUSH1 0x60 SWAP2 POP JUMPDEST POP POP SWAP1 POP DUP1 PUSH2 0x29FD JUMPI PUSH1 0x40 MLOAD PUSH3 0x461BCD PUSH1 0xE5 SHL DUP2 MSTORE PUSH1 0x20 PUSH1 0x4 DUP3 ADD MSTORE PUSH1 0xF PUSH1 0x24 DUP3 ADD MSTORE PUSH15 0x151C985B9CD9995C8819985A5B1959 PUSH1 0x8A SHL PUSH1 0x44 DUP3 ADD MSTORE PUSH1 0x64 ADD PUSH2 0x994 JUMP JUMPDEST DUP9 PUSH1 0x1 PUSH1 0x1 PUSH1 0xA0 SHL SUB AND DUP11 PUSH32 0x24B5EFA61DD1CFC659205A97FB8ED868F3CB8C81922BAB2B96423E5DE1DE2CB7 DUP5 PUSH1 0x40 MLOAD PUSH2 0x2A39 SWAP2 DUP2 MSTORE PUSH1 0x20 ADD SWAP1 JUMP JUMPDEST PUSH1 0x40 MLOAD DUP1 SWAP2 SUB SWAP1 LOG3 POP POP POP POP POP POP POP POP POP POP JUMP JUMPDEST PUSH1 0x1 SLOAD PUSH1 0x1 PUSH1 0x1 PUSH1 0xA0 SHL SUB AND CALLER EQ PUSH2 0x1627 JUMPI PUSH1 0x40 MLOAD PUSH3 0x461BCD PUSH1 0xE5 SHL DUP2 MSTORE PUSH1 0x20 PUSH1 0x4 DUP3 ADD DUP2 SWAP1 MSTORE PUSH1 0x24 DUP3 ADD MSTORE PUSH32 0x4F776E61626C653A2063616C6C6572206973206E6F7420746865206F776E6572 PUSH1 0x44 DUP3 ADD MSTORE PUSH1 0x64 ADD PUSH2 0x994 JUMP JUMPDEST PUSH2 0xA0D DUP3 PUSH1 0x0 DUP1 DUP5 PUSH2 0x2EDA JUMP JUMPDEST DUP1 MLOAD PUSH1 0x0 SUB PUSH2 0x2AD6 JUMPI PUSH1 0x40 MLOAD PUSH4 0xFE936CB7 PUSH1 0xE0 SHL DUP2 MSTORE PUSH1 0x4 ADD PUSH1 0x40 MLOAD DUP1 SWAP2 SUB SWAP1 REVERT JUMPDEST PUSH1 0xA0 SWAP1 SWAP2 ADD MSTORE JUMP JUMPDEST PUSH1 0x60 PUSH1 0x0 PUSH2 0x2AED PUSH2 0x100 PUSH2 0x2F58 JUMP JUMPDEST SWAP1 POP PUSH2 0x2B26 PUSH1 0x40 MLOAD DUP1 PUSH1 0x40 ADD PUSH1 0x40 MSTORE DUP1 PUSH1 0xC DUP2 MSTORE PUSH1 0x20 ADD PUSH12 0x31B7B232A637B1B0BA34B7B7 PUSH1 0xA1 SHL DUP2 MSTORE POP DUP3 PUSH2 0x2F79 SWAP1 SWAP2 SWAP1 PUSH4 0xFFFFFFFF AND JUMP JUMPDEST DUP3 MLOAD PUSH2 0x2B44 SWAP1 PUSH1 0x2 DUP2 GT ISZERO PUSH2 0x2B3D JUMPI PUSH2 0x2B3D PUSH2 0x3CB3 JUMP JUMPDEST DUP3 SWAP1 PUSH2 0x2F92 JUMP JUMPDEST PUSH1 0x40 DUP1 MLOAD DUP1 DUP3 ADD SWAP1 SWAP2 MSTORE PUSH1 0x8 DUP2 MSTORE PUSH8 0x6C616E6775616765 PUSH1 0xC0 SHL PUSH1 0x20 DUP3 ADD MSTORE PUSH2 0x2B6E SWAP1 DUP3 SWAP1 PUSH2 0x2F79 JUMP JUMPDEST PUSH1 0x40 DUP4 ADD MLOAD PUSH2 0x2B85 SWAP1 DUP1 ISZERO PUSH2 0x2B3D JUMPI PUSH2 0x2B3D PUSH2 0x3CB3 JUMP JUMPDEST PUSH1 0x40 DUP1 MLOAD DUP1 DUP3 ADD SWAP1 SWAP2 MSTORE PUSH1 0x6 DUP2 MSTORE PUSH6 0x736F75726365 PUSH1 0xD0 SHL PUSH1 0x20 DUP3 ADD MSTORE PUSH2 0x2BAD SWAP1 DUP3 SWAP1 PUSH2 0x2F79 JUMP JUMPDEST PUSH1 0x60 DUP4 ADD MLOAD PUSH2 0x2BBD SWAP1 DUP3 SWAP1 PUSH2 0x2F79 JUMP JUMPDEST PUSH1 0xA0 DUP4 ADD MLOAD MLOAD ISZERO PUSH2 0x2C51 JUMPI PUSH1 0x40 DUP1 MLOAD DUP1 DUP3 ADD SWAP1 SWAP2 MSTORE PUSH1 0x4 DUP2 MSTORE PUSH4 0x61726773 PUSH1 0xE0 SHL PUSH1 0x20 DUP3 ADD MSTORE PUSH2 0x2BEE SWAP1 DUP3 SWAP1 PUSH2 0x2F79 JUMP JUMPDEST PUSH2 0x2BF7 DUP2 PUSH2 0x2FCB JUMP JUMPDEST PUSH1 0x0 JUMPDEST DUP4 PUSH1 0xA0 ADD MLOAD MLOAD DUP2 LT ISZERO PUSH2 0x2C47 JUMPI PUSH2 0x2C37 DUP5 PUSH1 0xA0 ADD MLOAD DUP3 DUP2 MLOAD DUP2 LT PUSH2 0x2C20 JUMPI PUSH2 0x2C20 PUSH2 0x3C80 JUMP JUMPDEST PUSH1 0x20 MUL PUSH1 0x20 ADD ADD MLOAD DUP4 PUSH2 0x2F79 SWAP1 SWAP2 SWAP1 PUSH4 0xFFFFFFFF AND JUMP JUMPDEST PUSH2 0x2C40 DUP2 PUSH2 0x3A41 JUMP JUMPDEST SWAP1 POP PUSH2 0x2BFA JUMP JUMPDEST POP PUSH2 0x2C51 DUP2 PUSH2 0x2FEF JUMP JUMPDEST PUSH1 0x80 DUP4 ADD MLOAD MLOAD ISZERO PUSH2 0x2D15 JUMPI PUSH1 0x0 DUP4 PUSH1 0x20 ADD MLOAD PUSH1 0x2 DUP2 GT ISZERO PUSH2 0x2C74 JUMPI PUSH2 0x2C74 PUSH2 0x3CB3 JUMP JUMPDEST SUB PUSH2 0x2C92 JUMPI PUSH1 0x40 MLOAD PUSH4 0xA80D31F7 PUSH1 0xE0 SHL DUP2 MSTORE PUSH1 0x4 ADD PUSH1 0x40 MLOAD DUP1 SWAP2 SUB SWAP1 REVERT JUMPDEST PUSH1 0x40 DUP1 MLOAD DUP1 DUP3 ADD SWAP1 SWAP2 MSTORE PUSH1 0xF DUP2 MSTORE PUSH15 0x39B2B1B932BA39A637B1B0BA34B7B7 PUSH1 0x89 SHL PUSH1 0x20 DUP3 ADD MSTORE PUSH2 0x2CC3 SWAP1 DUP3 SWAP1 PUSH2 0x2F79 JUMP JUMPDEST PUSH2 0x2CDC DUP4 PUSH1 0x20 ADD MLOAD PUSH1 0x2 DUP2 GT ISZERO PUSH2 0x2B3D JUMPI PUSH2 0x2B3D PUSH2 0x3CB3 JUMP JUMPDEST PUSH1 0x40 DUP1 MLOAD DUP1 DUP3 ADD SWAP1 SWAP2 MSTORE PUSH1 0x7 DUP2 MSTORE PUSH7 0x73656372657473 PUSH1 0xC8 SHL PUSH1 0x20 DUP3 ADD MSTORE PUSH2 0x2D05 SWAP1 DUP3 SWAP1 PUSH2 0x2F79 JUMP JUMPDEST PUSH1 0x80 DUP4 ADD MLOAD PUSH2 0x2D15 SWAP1 DUP3 SWAP1 PUSH2 0x300D JUMP JUMPDEST PUSH1 0xC0 DUP4 ADD MLOAD MLOAD ISZERO PUSH2 0x2DAE JUMPI PUSH1 0x40 DUP1 MLOAD DUP1 DUP3 ADD SWAP1 SWAP2 MSTORE PUSH1 0x9 DUP2 MSTORE PUSH9 0x627974657341726773 PUSH1 0xB8 SHL PUSH1 0x20 DUP3 ADD MSTORE PUSH2 0x2D4B SWAP1 DUP3 SWAP1 PUSH2 0x2F79 JUMP JUMPDEST PUSH2 0x2D54 DUP2 PUSH2 0x2FCB JUMP JUMPDEST PUSH1 0x0 JUMPDEST DUP4 PUSH1 0xC0 ADD MLOAD MLOAD DUP2 LT ISZERO PUSH2 0x2DA4 JUMPI PUSH2 0x2D94 DUP5 PUSH1 0xC0 ADD MLOAD DUP3 DUP2 MLOAD DUP2 LT PUSH2 0x2D7D JUMPI PUSH2 0x2D7D PUSH2 0x3C80 JUMP JUMPDEST PUSH1 0x20 MUL PUSH1 0x20 ADD ADD MLOAD DUP4 PUSH2 0x300D SWAP1 SWAP2 SWAP1 PUSH4 0xFFFFFFFF AND JUMP JUMPDEST PUSH2 0x2D9D DUP2 PUSH2 0x3A41 JUMP JUMPDEST SWAP1 POP PUSH2 0x2D57 JUMP JUMPDEST POP PUSH2 0x2DAE DUP2 PUSH2 0x2FEF JUMP JUMPDEST MLOAD MLOAD SWAP3 SWAP2 POP POP JUMP JUMPDEST PUSH1 0x0 DUP1 PUSH32 0x0 PUSH1 0x1 PUSH1 0x1 PUSH1 0xA0 SHL SUB AND PUSH4 0x461D2762 DUP7 DUP9 PUSH1 0x1 DUP9 DUP9 PUSH1 0x40 MLOAD DUP7 PUSH4 0xFFFFFFFF AND PUSH1 0xE0 SHL DUP2 MSTORE PUSH1 0x4 ADD PUSH2 0x2E0E SWAP6 SWAP5 SWAP4 SWAP3 SWAP2 SWAP1 PUSH2 0x3CC9 JUMP JUMPDEST PUSH1 0x20 PUSH1 0x40 MLOAD DUP1 DUP4 SUB DUP2 PUSH1 0x0 DUP8 GAS CALL ISZERO DUP1 ISZERO PUSH2 0x2E2D JUMPI RETURNDATASIZE PUSH1 0x0 DUP1 RETURNDATACOPY RETURNDATASIZE PUSH1 0x0 REVERT JUMPDEST POP POP POP POP PUSH1 0x40 MLOAD RETURNDATASIZE PUSH1 0x1F NOT PUSH1 0x1F DUP3 ADD AND DUP3 ADD DUP1 PUSH1 0x40 MSTORE POP DUP2 ADD SWAP1 PUSH2 0x2E51 SWAP2 SWAP1 PUSH2 0x3D12 JUMP JUMPDEST PUSH1 0x40 MLOAD SWAP1 SWAP2 POP DUP2 SWAP1 PUSH32 0x1131472297A800FEE664D1D89CFA8F7676FF07189ECC53F80BBB5F4969099DB8 SWAP1 PUSH1 0x0 SWAP1 LOG2 SWAP6 SWAP5 POP POP POP POP POP JUMP JUMPDEST PUSH1 0x1 DUP1 SLOAD PUSH1 0x1 PUSH1 0x1 PUSH1 0xA0 SHL SUB DUP4 DUP2 AND PUSH1 0x1 PUSH1 0x1 PUSH1 0xA0 SHL SUB NOT DUP4 AND DUP2 OR SWAP1 SWAP4 SSTORE PUSH1 0x40 MLOAD SWAP2 AND SWAP2 SWAP1 DUP3 SWAP1 PUSH32 0x8BE0079C531659141344CD1FD0A4F28419497F9722A3DAAFE3B4186F6B6457E0 SWAP1 PUSH1 0x0 SWAP1 LOG3 POP POP JUMP JUMPDEST DUP1 MLOAD PUSH1 0x0 SUB PUSH2 0x2EFC JUMPI PUSH1 0x40 MLOAD PUSH4 0x22CE3EDD PUSH1 0xE0 SHL DUP2 MSTORE PUSH1 0x4 ADD PUSH1 0x40 MLOAD DUP1 SWAP2 SUB SWAP1 REVERT JUMPDEST DUP4 DUP4 PUSH1 0x2 DUP2 GT ISZERO PUSH2 0x2F0F JUMPI PUSH2 0x2F0F PUSH2 0x3CB3 JUMP JUMPDEST SWAP1 DUP2 PUSH1 0x2 DUP2 GT ISZERO PUSH2 0x2F22 JUMPI PUSH2 0x2F22 PUSH2 0x3CB3 JUMP JUMPDEST SWAP1 MSTORE POP PUSH1 0x40 DUP5 ADD DUP3 DUP1 ISZERO PUSH2 0x2F38 JUMPI PUSH2 0x2F38 PUSH2 0x3CB3 JUMP JUMPDEST SWAP1 DUP2 DUP1 ISZERO PUSH2 0x2F48 JUMPI PUSH2 0x2F48 PUSH2 0x3CB3 JUMP JUMPDEST SWAP1 MSTORE POP PUSH1 0x60 SWAP1 SWAP4 ADD SWAP3 SWAP1 SWAP3 MSTORE POP POP JUMP JUMPDEST PUSH2 0x2F60 PUSH2 0x33C5 JUMP JUMPDEST DUP1 MLOAD PUSH2 0x2F6C SWAP1 DUP4 PUSH2 0x301A JUMP JUMPDEST POP PUSH1 0x0 PUSH1 0x20 DUP3 ADD MSTORE SWAP2 SWAP1 POP JUMP JUMPDEST PUSH2 0x2F86 DUP3 PUSH1 0x3 DUP4 MLOAD PUSH2 0x3091 JUMP JUMPDEST DUP2 MLOAD PUSH2 0x22FC SWAP1 DUP3 PUSH2 0x31B0 JUMP JUMPDEST DUP2 MLOAD PUSH2 0x2F9F SWAP1 PUSH1 0xC2 PUSH2 0x31D8 JUMP JUMPDEST POP PUSH2 0xA0D DUP3 DUP3 PUSH1 0x40 MLOAD PUSH1 0x20 ADD PUSH2 0x2FB7 SWAP2 DUP2 MSTORE PUSH1 0x20 ADD SWAP1 JUMP JUMPDEST PUSH1 0x40 MLOAD PUSH1 0x20 DUP2 DUP4 SUB SUB DUP2 MSTORE SWAP1 PUSH1 0x40 MSTORE PUSH2 0x300D JUMP JUMPDEST PUSH2 0x2FD6 DUP2 PUSH1 0x4 PUSH2 0x3241 JUMP JUMPDEST PUSH1 0x1 DUP2 PUSH1 0x20 ADD DUP2 DUP2 MLOAD PUSH2 0x2FE9 SWAP2 SWAP1 PUSH2 0x39DA JUMP JUMPDEST SWAP1 MSTORE POP POP JUMP JUMPDEST PUSH2 0x2FFA DUP2 PUSH1 0x7 PUSH2 0x3241 JUMP JUMPDEST PUSH1 0x1 DUP2 PUSH1 0x20 ADD DUP2 DUP2 MLOAD PUSH2 0x2FE9 SWAP2 SWAP1 PUSH2 0x3A2E JUMP JUMPDEST PUSH2 0x2F86 DUP3 PUSH1 0x2 DUP4 MLOAD PUSH2 0x3091 JUMP JUMPDEST PUSH1 0x40 DUP1 MLOAD DUP1 DUP3 ADD SWAP1 SWAP2 MSTORE PUSH1 0x60 DUP2 MSTORE PUSH1 0x0 PUSH1 0x20 DUP3 ADD MSTORE PUSH2 0x303A PUSH1 0x20 DUP4 PUSH2 0x3D2B JUMP JUMPDEST ISZERO PUSH2 0x3062 JUMPI PUSH2 0x304A PUSH1 0x20 DUP4 PUSH2 0x3D2B JUMP JUMPDEST PUSH2 0x3055 SWAP1 PUSH1 0x20 PUSH2 0x3A2E JUMP JUMPDEST PUSH2 0x305F SWAP1 DUP4 PUSH2 0x39DA JUMP JUMPDEST SWAP2 POP JUMPDEST PUSH1 0x20 DUP1 DUP5 ADD DUP4 SWAP1 MSTORE PUSH1 0x40 MLOAD DUP1 DUP6 MSTORE PUSH1 0x0 DUP2 MSTORE SWAP1 DUP2 DUP5 ADD ADD DUP2 DUP2 LT ISZERO PUSH2 0x3086 JUMPI PUSH1 0x0 DUP1 REVERT JUMPDEST PUSH1 0x40 MSTORE POP SWAP2 SWAP3 SWAP2 POP POP JUMP JUMPDEST PUSH1 0x17 DUP2 PUSH1 0x1 PUSH1 0x1 PUSH1 0x40 SHL SUB AND GT PUSH2 0x30BD JUMPI DUP3 MLOAD PUSH2 0x30B7 SWAP1 PUSH1 0xE0 PUSH1 0x5 DUP6 SWAP1 SHL AND DUP4 OR PUSH2 0x31D8 JUMP JUMPDEST POP POP POP POP JUMP JUMPDEST PUSH1 0xFF DUP2 PUSH1 0x1 PUSH1 0x1 PUSH1 0x40 SHL SUB AND GT PUSH2 0x30FD JUMPI DUP3 MLOAD PUSH2 0x30E5 SWAP1 PUSH1 0x18 PUSH2 0x1FE0 PUSH1 0x5 DUP7 SWAP1 SHL AND OR PUSH2 0x31D8 JUMP JUMPDEST POP DUP3 MLOAD PUSH2 0x30B7 SWAP1 PUSH1 0x1 PUSH1 0x1 PUSH1 0x40 SHL SUB DUP4 AND PUSH1 0x1 PUSH2 0x3258 JUMP JUMPDEST PUSH2 0xFFFF DUP2 PUSH1 0x1 PUSH1 0x1 PUSH1 0x40 SHL SUB AND GT PUSH2 0x313E JUMPI DUP3 MLOAD PUSH2 0x3126 SWAP1 PUSH1 0x19 PUSH2 0x1FE0 PUSH1 0x5 DUP7 SWAP1 SHL AND OR PUSH2 0x31D8 JUMP JUMPDEST POP DUP3 MLOAD PUSH2 0x30B7 SWAP1 PUSH1 0x1 PUSH1 0x1 PUSH1 0x40 SHL SUB DUP4 AND PUSH1 0x2 PUSH2 0x3258 JUMP JUMPDEST PUSH4 0xFFFFFFFF DUP2 PUSH1 0x1 PUSH1 0x1 PUSH1 0x40 SHL SUB AND GT PUSH2 0x3181 JUMPI DUP3 MLOAD PUSH2 0x3169 SWAP1 PUSH1 0x1A PUSH2 0x1FE0 PUSH1 0x5 DUP7 SWAP1 SHL AND OR PUSH2 0x31D8 JUMP JUMPDEST POP DUP3 MLOAD PUSH2 0x30B7 SWAP1 PUSH1 0x1 PUSH1 0x1 PUSH1 0x40 SHL SUB DUP4 AND PUSH1 0x4 PUSH2 0x3258 JUMP JUMPDEST DUP3 MLOAD PUSH2 0x3198 SWAP1 PUSH1 0x1B PUSH2 0x1FE0 PUSH1 0x5 DUP7 SWAP1 SHL AND OR PUSH2 0x31D8 JUMP JUMPDEST POP DUP3 MLOAD PUSH2 0x30B7 SWAP1 PUSH1 0x1 PUSH1 0x1 PUSH1 0x40 SHL SUB DUP4 AND PUSH1 0x8 PUSH2 0x3258 JUMP JUMPDEST PUSH1 0x40 DUP1 MLOAD DUP1 DUP3 ADD SWAP1 SWAP2 MSTORE PUSH1 0x60 DUP2 MSTORE PUSH1 0x0 PUSH1 0x20 DUP3 ADD MSTORE PUSH2 0x31D1 DUP4 DUP4 DUP5 MLOAD PUSH2 0x32DD JUMP JUMPDEST SWAP4 SWAP3 POP POP POP JUMP JUMPDEST PUSH1 0x40 DUP1 MLOAD DUP1 DUP3 ADD SWAP1 SWAP2 MSTORE PUSH1 0x60 DUP2 MSTORE PUSH1 0x0 PUSH1 0x20 DUP3 ADD MSTORE DUP3 MLOAD MLOAD PUSH1 0x0 PUSH2 0x31FD DUP3 PUSH1 0x1 PUSH2 0x39DA JUMP JUMPDEST SWAP1 POP DUP5 PUSH1 0x20 ADD MLOAD DUP3 LT PUSH2 0x321E JUMPI PUSH2 0x321E DUP6 PUSH2 0x3219 DUP4 PUSH1 0x2 PUSH2 0x39ED JUMP JUMPDEST PUSH2 0x33AE JUMP JUMPDEST DUP5 MLOAD PUSH1 0x20 DUP4 DUP3 ADD ADD DUP6 DUP2 MSTORE8 POP DUP1 MLOAD DUP3 GT ISZERO PUSH2 0x3237 JUMPI DUP2 DUP2 MSTORE JUMPDEST POP SWAP4 SWAP5 SWAP4 POP POP POP POP JUMP JUMPDEST DUP2 MLOAD PUSH2 0x22FC SWAP1 PUSH1 0x1F PUSH2 0x1FE0 PUSH1 0x5 DUP6 SWAP1 SHL AND OR PUSH2 0x31D8 JUMP JUMPDEST PUSH1 0x40 DUP1 MLOAD DUP1 DUP3 ADD SWAP1 SWAP2 MSTORE PUSH1 0x60 DUP2 MSTORE PUSH1 0x0 PUSH1 0x20 DUP3 ADD MSTORE DUP4 MLOAD MLOAD PUSH1 0x0 PUSH2 0x327C DUP3 DUP6 PUSH2 0x39DA JUMP JUMPDEST SWAP1 POP DUP6 PUSH1 0x20 ADD MLOAD DUP2 GT ISZERO PUSH2 0x3299 JUMPI PUSH2 0x3299 DUP7 PUSH2 0x3219 DUP4 PUSH1 0x2 PUSH2 0x39ED JUMP JUMPDEST PUSH1 0x0 PUSH1 0x1 PUSH2 0x32A9 DUP7 PUSH2 0x100 PUSH2 0x3E23 JUMP JUMPDEST PUSH2 0x32B3 SWAP2 SWAP1 PUSH2 0x3A2E JUMP JUMPDEST SWAP1 POP DUP7 MLOAD DUP3 DUP2 ADD DUP8 DUP4 NOT DUP3 MLOAD AND OR DUP2 MSTORE POP DUP1 MLOAD DUP4 GT ISZERO PUSH2 0x32D1 JUMPI DUP3 DUP2 MSTORE JUMPDEST POP SWAP6 SWAP7 SWAP6 POP POP POP POP POP POP JUMP JUMPDEST PUSH1 0x40 DUP1 MLOAD DUP1 DUP3 ADD SWAP1 SWAP2 MSTORE PUSH1 0x60 DUP2 MSTORE PUSH1 0x0 PUSH1 0x20 DUP3 ADD MSTORE DUP3 MLOAD DUP3 GT ISZERO PUSH2 0x3300 JUMPI PUSH1 0x0 DUP1 REVERT JUMPDEST DUP4 MLOAD MLOAD PUSH1 0x0 PUSH2 0x330F DUP5 DUP4 PUSH2 0x39DA JUMP JUMPDEST SWAP1 POP DUP6 PUSH1 0x20 ADD MLOAD DUP2 GT ISZERO PUSH2 0x332C JUMPI PUSH2 0x332C DUP7 PUSH2 0x3219 DUP4 PUSH1 0x2 PUSH2 0x39ED JUMP JUMPDEST DUP6 MLOAD DUP1 MLOAD DUP4 DUP3 ADD PUSH1 0x20 ADD SWAP2 PUSH1 0x0 SWAP2 DUP1 DUP6 GT ISZERO PUSH2 0x3346 JUMPI DUP5 DUP3 MSTORE JUMPDEST POP POP POP PUSH1 0x20 DUP7 ADD JUMPDEST PUSH1 0x20 DUP7 LT PUSH2 0x3386 JUMPI DUP1 MLOAD DUP3 MSTORE PUSH2 0x3365 PUSH1 0x20 DUP4 PUSH2 0x39DA JUMP JUMPDEST SWAP2 POP PUSH2 0x3372 PUSH1 0x20 DUP3 PUSH2 0x39DA JUMP JUMPDEST SWAP1 POP PUSH2 0x337F PUSH1 0x20 DUP8 PUSH2 0x3A2E JUMP JUMPDEST SWAP6 POP PUSH2 0x334E JUMP JUMPDEST MLOAD DUP2 MLOAD PUSH1 0x0 NOT PUSH1 0x20 DUP9 SWAP1 SUB PUSH2 0x100 EXP ADD SWAP1 DUP2 AND SWAP1 NOT SWAP2 SWAP1 SWAP2 AND OR SWAP1 MSTORE POP DUP5 SWAP2 POP POP SWAP4 SWAP3 POP POP POP JUMP JUMPDEST DUP2 MLOAD PUSH2 0x33BA DUP4 DUP4 PUSH2 0x301A JUMP JUMPDEST POP PUSH2 0x30B7 DUP4 DUP3 PUSH2 0x31B0 JUMP JUMPDEST PUSH1 0x40 MLOAD DUP1 PUSH1 0x40 ADD PUSH1 0x40 MSTORE DUP1 PUSH2 0x33ED PUSH1 0x40 MLOAD DUP1 PUSH1 0x40 ADD PUSH1 0x40 MSTORE DUP1 PUSH1 0x60 DUP2 MSTORE PUSH1 0x20 ADD PUSH1 0x0 DUP2 MSTORE POP SWAP1 JUMP JUMPDEST DUP2 MSTORE PUSH1 0x20 ADD PUSH1 0x0 DUP2 MSTORE POP SWAP1 JUMP JUMPDEST PUSH4 0x4E487B71 PUSH1 0xE0 SHL PUSH1 0x0 MSTORE PUSH1 0x41 PUSH1 0x4 MSTORE PUSH1 0x24 PUSH1 0x0 REVERT JUMPDEST PUSH1 0x40 MLOAD PUSH1 0x1F DUP3 ADD PUSH1 0x1F NOT AND DUP2 ADD PUSH1 0x1 PUSH1 0x1 PUSH1 0x40 SHL SUB DUP2 GT DUP3 DUP3 LT OR ISZERO PUSH2 0x3438 JUMPI PUSH2 0x3438 PUSH2 0x33FA JUMP JUMPDEST PUSH1 0x40 MSTORE SWAP2 SWAP1 POP JUMP JUMPDEST PUSH1 0x0 PUSH1 0x1 PUSH1 0x1 PUSH1 0x40 SHL SUB DUP4 GT ISZERO PUSH2 0x3459 JUMPI PUSH2 0x3459 PUSH2 0x33FA JUMP JUMPDEST PUSH2 0x346C PUSH1 0x1F DUP5 ADD PUSH1 0x1F NOT AND PUSH1 0x20 ADD PUSH2 0x3410 JUMP JUMPDEST SWAP1 POP DUP3 DUP2 MSTORE DUP4 DUP4 DUP4 ADD GT ISZERO PUSH2 0x3480 JUMPI PUSH1 0x0 DUP1 REVERT JUMPDEST DUP3 DUP3 PUSH1 0x20 DUP4 ADD CALLDATACOPY PUSH1 0x0 PUSH1 0x20 DUP5 DUP4 ADD ADD MSTORE SWAP4 SWAP3 POP POP POP JUMP JUMPDEST PUSH1 0x0 DUP3 PUSH1 0x1F DUP4 ADD SLT PUSH2 0x34A8 JUMPI PUSH1 0x0 DUP1 REVERT JUMPDEST PUSH2 0x31D1 DUP4 DUP4 CALLDATALOAD PUSH1 0x20 DUP6 ADD PUSH2 0x3440 JUMP JUMPDEST PUSH1 0x0 DUP1 PUSH1 0x0 PUSH1 0x60 DUP5 DUP7 SUB SLT ISZERO PUSH2 0x34CC JUMPI PUSH1 0x0 DUP1 REVERT JUMPDEST DUP4 CALLDATALOAD SWAP3 POP PUSH1 0x20 DUP5 ADD CALLDATALOAD PUSH1 0x1 PUSH1 0x1 PUSH1 0x40 SHL SUB DUP1 DUP3 GT ISZERO PUSH2 0x34EA JUMPI PUSH1 0x0 DUP1 REVERT JUMPDEST PUSH2 0x34F6 DUP8 DUP4 DUP9 ADD PUSH2 0x3497 JUMP JUMPDEST SWAP4 POP PUSH1 0x40 DUP7 ADD CALLDATALOAD SWAP2 POP DUP1 DUP3 GT ISZERO PUSH2 0x350C JUMPI PUSH1 0x0 DUP1 REVERT JUMPDEST POP PUSH2 0x3519 DUP7 DUP3 DUP8 ADD PUSH2 0x3497 JUMP JUMPDEST SWAP2 POP POP SWAP3 POP SWAP3 POP SWAP3 JUMP JUMPDEST DUP1 CALLDATALOAD PUSH1 0x1 PUSH1 0x1 PUSH1 0xA0 SHL SUB DUP2 AND DUP2 EQ PUSH2 0x353A JUMPI PUSH1 0x0 DUP1 REVERT JUMPDEST SWAP2 SWAP1 POP JUMP JUMPDEST PUSH1 0x0 DUP1 PUSH1 0x40 DUP4 DUP6 SUB SLT ISZERO PUSH2 0x3552 JUMPI PUSH1 0x0 DUP1 REVERT JUMPDEST DUP3 CALLDATALOAD SWAP2 POP PUSH2 0x3562 PUSH1 0x20 DUP5 ADD PUSH2 0x3523 JUMP JUMPDEST SWAP1 POP SWAP3 POP SWAP3 SWAP1 POP JUMP JUMPDEST PUSH1 0x0 PUSH1 0x20 DUP3 DUP5 SUB SLT ISZERO PUSH2 0x357D JUMPI PUSH1 0x0 DUP1 REVERT JUMPDEST POP CALLDATALOAD SWAP2 SWAP1 POP JUMP JUMPDEST PUSH1 0x0 DUP1 DUP4 PUSH1 0x1F DUP5 ADD SLT PUSH2 0x3596 JUMPI PUSH1 0x0 DUP1 REVERT JUMPDEST POP DUP2 CALLDATALOAD PUSH1 0x1 PUSH1 0x1 PUSH1 0x40 SHL SUB DUP2 GT ISZERO PUSH2 0x35AD JUMPI PUSH1 0x0 DUP1 REVERT JUMPDEST PUSH1 0x20 DUP4 ADD SWAP2 POP DUP4 PUSH1 0x20 DUP3 DUP6 ADD ADD GT ISZERO PUSH2 0x35C5 JUMPI PUSH1 0x0 DUP1 REVERT JUMPDEST SWAP3 POP SWAP3 SWAP1 POP JUMP JUMPDEST PUSH1 0x0 DUP1 PUSH1 0x0 DUP1 PUSH1 0x0 DUP1 PUSH1 0xA0 DUP8 DUP10 SUB SLT ISZERO PUSH2 0x35E5 JUMPI PUSH1 0x0 DUP1 REVERT JUMPDEST DUP7 CALLDATALOAD PUSH1 0x1 PUSH1 0x1 PUSH1 0x40 SHL SUB DUP2 GT ISZERO PUSH2 0x35FB JUMPI PUSH1 0x0 DUP1 REVERT JUMPDEST PUSH2 0x3607 DUP10 DUP3 DUP11 ADD PUSH2 0x3584 JUMP JUMPDEST SWAP1 SWAP11 SWAP1 SWAP10 POP PUSH1 0x20 DUP10 ADD CALLDATALOAD SWAP9 PUSH1 0x40 DUP2 ADD CALLDATALOAD SWAP9 POP PUSH1 0x60 DUP2 ADD CALLDATALOAD SWAP8 POP PUSH1 0x80 ADD CALLDATALOAD SWAP6 POP SWAP4 POP POP POP POP JUMP JUMPDEST DUP1 ISZERO ISZERO DUP2 EQ PUSH2 0x1CED JUMPI PUSH1 0x0 DUP1 REVERT JUMPDEST PUSH1 0x0 DUP1 PUSH1 0x40 DUP4 DUP6 SUB SLT ISZERO PUSH2 0x364E JUMPI PUSH1 0x0 DUP1 REVERT JUMPDEST DUP3 CALLDATALOAD SWAP2 POP PUSH1 0x20 DUP4 ADD CALLDATALOAD PUSH2 0x3660 DUP2 PUSH2 0x362D JUMP JUMPDEST DUP1 SWAP2 POP POP SWAP3 POP SWAP3 SWAP1 POP JUMP JUMPDEST PUSH1 0x0 DUP1 DUP4 PUSH1 0x1F DUP5 ADD SLT PUSH2 0x367D JUMPI PUSH1 0x0 DUP1 REVERT JUMPDEST POP DUP2 CALLDATALOAD PUSH1 0x1 PUSH1 0x1 PUSH1 0x40 SHL SUB DUP2 GT ISZERO PUSH2 0x3694 JUMPI PUSH1 0x0 DUP1 REVERT JUMPDEST PUSH1 0x20 DUP4 ADD SWAP2 POP DUP4 PUSH1 0x20 DUP3 PUSH1 0x5 SHL DUP6 ADD ADD GT ISZERO PUSH2 0x35C5 JUMPI PUSH1 0x0 DUP1 REVERT JUMPDEST PUSH1 0x0 DUP1 PUSH1 0x0 DUP1 PUSH1 0x0 PUSH1 0x60 DUP7 DUP9 SUB SLT ISZERO PUSH2 0x36C7 JUMPI PUSH1 0x0 DUP1 REVERT JUMPDEST DUP6 CALLDATALOAD SWAP5 POP PUSH1 0x20 DUP7 ADD CALLDATALOAD PUSH1 0x1 PUSH1 0x1 PUSH1 0x40 SHL SUB DUP1 DUP3 GT ISZERO PUSH2 0x36E5 JUMPI PUSH1 0x0 DUP1 REVERT JUMPDEST PUSH2 0x36F1 DUP10 DUP4 DUP11 ADD PUSH2 0x3584 JUMP JUMPDEST SWAP1 SWAP7 POP SWAP5 POP PUSH1 0x40 DUP9 ADD CALLDATALOAD SWAP2 POP DUP1 DUP3 GT ISZERO PUSH2 0x370A JUMPI PUSH1 0x0 DUP1 REVERT JUMPDEST POP PUSH2 0x3717 DUP9 DUP3 DUP10 ADD PUSH2 0x366B JUMP JUMPDEST SWAP7 SWAP10 SWAP6 SWAP9 POP SWAP4 SWAP7 POP SWAP3 SWAP5 SWAP4 SWAP3 POP POP POP JUMP JUMPDEST PUSH1 0x0 PUSH1 0x20 DUP3 DUP5 SUB SLT ISZERO PUSH2 0x373A JUMPI PUSH1 0x0 DUP1 REVERT JUMPDEST PUSH2 0x31D1 DUP3 PUSH2 0x3523 JUMP JUMPDEST PUSH1 0x0 DUP1 PUSH1 0x0 PUSH1 0x60 DUP5 DUP7 SUB SLT ISZERO PUSH2 0x3758 JUMPI PUSH1 0x0 DUP1 REVERT JUMPDEST DUP4 CALLDATALOAD SWAP3 POP PUSH1 0x20 DUP5 ADD CALLDATALOAD PUSH1 0x1 PUSH1 0x1 PUSH1 0x40 SHL SUB DUP2 AND DUP2 EQ PUSH2 0x3776 JUMPI PUSH1 0x0 DUP1 REVERT JUMPDEST SWAP2 POP PUSH1 0x40 DUP5 ADD CALLDATALOAD PUSH4 0xFFFFFFFF DUP2 AND DUP2 EQ PUSH2 0x378F JUMPI PUSH1 0x0 DUP1 REVERT JUMPDEST DUP1 SWAP2 POP POP SWAP3 POP SWAP3 POP SWAP3 JUMP JUMPDEST PUSH1 0x0 DUP2 MLOAD DUP1 DUP5 MSTORE PUSH1 0x0 JUMPDEST DUP2 DUP2 LT ISZERO PUSH2 0x37C0 JUMPI PUSH1 0x20 DUP2 DUP6 ADD DUP2 ADD MLOAD DUP7 DUP4 ADD DUP3 ADD MSTORE ADD PUSH2 0x37A4 JUMP JUMPDEST POP PUSH1 0x0 PUSH1 0x20 DUP3 DUP7 ADD ADD MSTORE PUSH1 0x20 PUSH1 0x1F NOT PUSH1 0x1F DUP4 ADD AND DUP6 ADD ADD SWAP2 POP POP SWAP3 SWAP2 POP POP JUMP JUMPDEST PUSH1 0x0 PUSH2 0x180 DUP15 DUP4 MSTORE DUP14 PUSH1 0x20 DUP5 ADD MSTORE DUP13 PUSH1 0x40 DUP5 ADD MSTORE DUP12 PUSH1 0x60 DUP5 ADD MSTORE DUP11 PUSH1 0x80 DUP5 ADD MSTORE DUP10 PUSH1 0xA0 DUP5 ADD MSTORE DUP9 PUSH1 0xC0 DUP5 ADD MSTORE PUSH1 0x1 DUP1 PUSH1 0xA0 SHL SUB DUP9 AND PUSH1 0xE0 DUP5 ADD MSTORE DUP1 PUSH2 0x100 DUP5 ADD MSTORE PUSH2 0x382D DUP2 DUP5 ADD DUP9 PUSH2 0x379A JUMP JUMPDEST SWAP6 ISZERO ISZERO PUSH2 0x120 DUP5 ADD MSTORE POP POP SWAP2 ISZERO ISZERO PUSH2 0x140 DUP4 ADD MSTORE ISZERO ISZERO PUSH2 0x160 SWAP1 SWAP2 ADD MSTORE SWAP10 SWAP9 POP POP POP POP POP POP POP POP POP JUMP JUMPDEST PUSH1 0x0 DUP1 PUSH1 0x0 PUSH1 0x40 DUP5 DUP7 SUB SLT ISZERO PUSH2 0x386C JUMPI PUSH1 0x0 DUP1 REVERT JUMPDEST DUP4 CALLDATALOAD SWAP3 POP PUSH1 0x20 DUP5 ADD CALLDATALOAD PUSH1 0x1 PUSH1 0x1 PUSH1 0x40 SHL SUB DUP2 GT ISZERO PUSH2 0x3889 JUMPI PUSH1 0x0 DUP1 REVERT JUMPDEST PUSH2 0x3895 DUP7 DUP3 DUP8 ADD PUSH2 0x366B JUMP JUMPDEST SWAP5 SWAP8 SWAP1 SWAP7 POP SWAP4 SWAP5 POP POP POP POP JUMP JUMPDEST PUSH1 0x20 DUP2 MSTORE DUP2 MLOAD PUSH1 0x20 DUP3 ADD MSTORE PUSH1 0x20 DUP3 ADD MLOAD PUSH1 0x40 DUP3 ADD MSTORE PUSH1 0x40 DUP3 ADD MLOAD PUSH1 0x60 DUP3 ADD MSTORE PUSH1 0x60 DUP3 ADD MLOAD PUSH1 0x80 DUP3 ADD MSTORE PUSH1 0x80 DUP3 ADD MLOAD PUSH1 0xA0 DUP3 ADD MSTORE PUSH1 0xA0 DUP3 ADD MLOAD PUSH1 0xC0 DUP3 ADD MSTORE PUSH1 0xC0 DUP3 ADD MLOAD PUSH1 0xE0 DUP3 ADD MSTORE PUSH1 0x0 PUSH1 0xE0 DUP4 ADD MLOAD PUSH2 0x100 PUSH2 0x3907 DUP2 DUP6 ADD DUP4 PUSH1 0x1 PUSH1 0x1 PUSH1 0xA0 SHL SUB AND SWAP1 MSTORE JUMP JUMPDEST DUP1 DUP6 ADD MLOAD SWAP2 POP POP PUSH2 0x180 PUSH2 0x120 DUP2 DUP2 DUP7 ADD MSTORE PUSH2 0x3927 PUSH2 0x1A0 DUP7 ADD DUP5 PUSH2 0x379A JUMP JUMPDEST SWAP1 DUP7 ADD MLOAD SWAP1 SWAP3 POP PUSH2 0x140 PUSH2 0x393E DUP7 DUP3 ADD DUP4 ISZERO ISZERO SWAP1 MSTORE JUMP JUMPDEST DUP7 ADD MLOAD SWAP1 POP PUSH2 0x160 PUSH2 0x3953 DUP7 DUP3 ADD DUP4 ISZERO ISZERO SWAP1 MSTORE JUMP JUMPDEST SWAP1 SWAP6 ADD MLOAD ISZERO ISZERO SWAP4 ADD SWAP3 SWAP1 SWAP3 MSTORE POP SWAP2 SWAP1 POP JUMP JUMPDEST PUSH1 0x20 DUP1 DUP3 MSTORE PUSH1 0x15 SWAP1 DUP3 ADD MSTORE PUSH21 0x13585C9AD95D08191BD95CC81B9BDD08195E1A5CDD PUSH1 0x5A SHL PUSH1 0x40 DUP3 ADD MSTORE PUSH1 0x60 ADD SWAP1 JUMP JUMPDEST PUSH1 0x20 DUP1 DUP3 MSTORE PUSH1 0x16 SWAP1 DUP3 ADD MSTORE PUSH22 0x13585C9AD95D081A5CC81B9BDD081C995CDBDB1D9959 PUSH1 0x52 SHL PUSH1 0x40 DUP3 ADD MSTORE PUSH1 0x60 ADD SWAP1 JUMP JUMPDEST PUSH4 0x4E487B71 PUSH1 0xE0 SHL PUSH1 0x0 MSTORE PUSH1 0x11 PUSH1 0x4 MSTORE PUSH1 0x24 PUSH1 0x0 REVERT JUMPDEST DUP1 DUP3 ADD DUP1 DUP3 GT ISZERO PUSH2 0x180A JUMPI PUSH2 0x180A PUSH2 0x39C4 JUMP JUMPDEST DUP1 DUP3 MUL DUP2 ISZERO DUP3 DUP3 DIV DUP5 EQ OR PUSH2 0x180A JUMPI PUSH2 0x180A PUSH2 0x39C4 JUMP JUMPDEST PUSH4 0x4E487B71 PUSH1 0xE0 SHL PUSH1 0x0 MSTORE PUSH1 0x12 PUSH1 0x4 MSTORE PUSH1 0x24 PUSH1 0x0 REVERT JUMPDEST PUSH1 0x0 DUP3 PUSH2 0x3A29 JUMPI PUSH2 0x3A29 PUSH2 0x3A04 JUMP JUMPDEST POP DIV SWAP1 JUMP JUMPDEST DUP2 DUP2 SUB DUP2 DUP2 GT ISZERO PUSH2 0x180A JUMPI PUSH2 0x180A PUSH2 0x39C4 JUMP JUMPDEST PUSH1 0x0 PUSH1 0x1 DUP3 ADD PUSH2 0x3A53 JUMPI PUSH2 0x3A53 PUSH2 0x39C4 JUMP JUMPDEST POP PUSH1 0x1 ADD SWAP1 JUMP JUMPDEST PUSH1 0x1 DUP2 DUP2 SHR SWAP1 DUP3 AND DUP1 PUSH2 0x3A6E JUMPI PUSH1 0x7F DUP3 AND SWAP2 POP JUMPDEST PUSH1 0x20 DUP3 LT DUP2 SUB PUSH2 0x1C6A JUMPI PUSH4 0x4E487B71 PUSH1 0xE0 SHL PUSH1 0x0 MSTORE PUSH1 0x22 PUSH1 0x4 MSTORE PUSH1 0x24 PUSH1 0x0 REVERT JUMPDEST PUSH1 0x1F DUP3 GT ISZERO PUSH2 0x22FC JUMPI PUSH1 0x0 DUP2 DUP2 MSTORE PUSH1 0x20 DUP2 KECCAK256 PUSH1 0x1F DUP6 ADD PUSH1 0x5 SHR DUP2 ADD PUSH1 0x20 DUP7 LT ISZERO PUSH2 0x3AB5 JUMPI POP DUP1 JUMPDEST PUSH1 0x1F DUP6 ADD PUSH1 0x5 SHR DUP3 ADD SWAP2 POP JUMPDEST DUP2 DUP2 LT ISZERO PUSH2 0x3AD4 JUMPI DUP3 DUP2 SSTORE PUSH1 0x1 ADD PUSH2 0x3AC1 JUMP JUMPDEST POP POP POP POP POP POP JUMP JUMPDEST DUP2 MLOAD PUSH1 0x1 PUSH1 0x1 PUSH1 0x40 SHL SUB DUP2 GT ISZERO PUSH2 0x3AF5 JUMPI PUSH2 0x3AF5 PUSH2 0x33FA JUMP JUMPDEST PUSH2 0x3B09 DUP2 PUSH2 0x3B03 DUP5 SLOAD PUSH2 0x3A5A JUMP JUMPDEST DUP5 PUSH2 0x3A8E JUMP JUMPDEST PUSH1 0x20 DUP1 PUSH1 0x1F DUP4 GT PUSH1 0x1 DUP2 EQ PUSH2 0x3B3E JUMPI PUSH1 0x0 DUP5 ISZERO PUSH2 0x3B26 JUMPI POP DUP6 DUP4 ADD MLOAD JUMPDEST PUSH1 0x0 NOT PUSH1 0x3 DUP7 SWAP1 SHL SHR NOT AND PUSH1 0x1 DUP6 SWAP1 SHL OR DUP6 SSTORE PUSH2 0x3AD4 JUMP JUMPDEST PUSH1 0x0 DUP6 DUP2 MSTORE PUSH1 0x20 DUP2 KECCAK256 PUSH1 0x1F NOT DUP7 AND SWAP2 JUMPDEST DUP3 DUP2 LT ISZERO PUSH2 0x3B6D JUMPI DUP9 DUP7 ADD MLOAD DUP3 SSTORE SWAP5 DUP5 ADD SWAP5 PUSH1 0x1 SWAP1 SWAP2 ADD SWAP1 DUP5 ADD PUSH2 0x3B4E JUMP JUMPDEST POP DUP6 DUP3 LT ISZERO PUSH2 0x3B8B JUMPI DUP8 DUP6 ADD MLOAD PUSH1 0x0 NOT PUSH1 0x3 DUP9 SWAP1 SHL PUSH1 0xF8 AND SHR NOT AND DUP2 SSTORE JUMPDEST POP POP POP POP POP PUSH1 0x1 SWAP1 DUP2 SHL ADD SWAP1 SSTORE POP JUMP JUMPDEST PUSH1 0xA0 DUP2 MSTORE DUP6 PUSH1 0xA0 DUP3 ADD MSTORE DUP6 DUP8 PUSH1 0xC0 DUP4 ADD CALLDATACOPY PUSH1 0x0 PUSH1 0xC0 DUP8 DUP4 ADD ADD MSTORE PUSH1 0x0 PUSH1 0xC0 PUSH1 0x1F NOT PUSH1 0x1F DUP10 ADD AND DUP4 ADD ADD SWAP1 POP DUP6 PUSH1 0x20 DUP4 ADD MSTORE DUP5 PUSH1 0x40 DUP4 ADD MSTORE DUP4 PUSH1 0x60 DUP4 ADD MSTORE DUP3 PUSH1 0x80 DUP4 ADD MSTORE SWAP8 SWAP7 POP POP POP POP POP POP POP JUMP JUMPDEST PUSH1 0x0 PUSH1 0x1 PUSH1 0x1 PUSH1 0x40 SHL SUB DUP1 DUP5 GT ISZERO PUSH2 0x3C03 JUMPI PUSH2 0x3C03 PUSH2 0x33FA JUMP JUMPDEST DUP4 PUSH1 0x5 SHL PUSH1 0x20 PUSH2 0x3C14 DUP2 DUP4 ADD PUSH2 0x3410 JUMP JUMPDEST DUP7 DUP2 MSTORE SWAP2 DUP6 ADD SWAP2 DUP2 DUP2 ADD SWAP1 CALLDATASIZE DUP5 GT ISZERO PUSH2 0x3C2C JUMPI PUSH1 0x0 DUP1 REVERT JUMPDEST DUP7 JUMPDEST DUP5 DUP2 LT ISZERO PUSH2 0x3C74 JUMPI DUP1 CALLDATALOAD DUP7 DUP2 GT ISZERO PUSH2 0x3C46 JUMPI PUSH1 0x0 DUP1 DUP2 REVERT JUMPDEST DUP9 ADD CALLDATASIZE PUSH1 0x1F DUP3 ADD SLT PUSH2 0x3C58 JUMPI PUSH1 0x0 DUP1 DUP2 REVERT JUMPDEST PUSH2 0x3C66 CALLDATASIZE DUP3 CALLDATALOAD DUP8 DUP5 ADD PUSH2 0x3440 JUMP JUMPDEST DUP5 MSTORE POP SWAP2 DUP4 ADD SWAP2 DUP4 ADD PUSH2 0x3C2E JUMP JUMPDEST POP SWAP8 SWAP7 POP POP POP POP POP POP POP JUMP JUMPDEST PUSH4 0x4E487B71 PUSH1 0xE0 SHL PUSH1 0x0 MSTORE PUSH1 0x32 PUSH1 0x4 MSTORE PUSH1 0x24 PUSH1 0x0 REVERT JUMPDEST PUSH1 0x0 PUSH1 0x20 DUP3 DUP5 SUB SLT ISZERO PUSH2 0x3CA8 JUMPI PUSH1 0x0 DUP1 REVERT JUMPDEST DUP2 MLOAD PUSH2 0x31D1 DUP2 PUSH2 0x362D JUMP JUMPDEST PUSH4 0x4E487B71 PUSH1 0xE0 SHL PUSH1 0x0 MSTORE PUSH1 0x21 PUSH1 0x4 MSTORE PUSH1 0x24 PUSH1 0x0 REVERT JUMPDEST PUSH1 0x1 PUSH1 0x1 PUSH1 0x40 SHL SUB DUP7 AND DUP2 MSTORE PUSH1 0xA0 PUSH1 0x20 DUP3 ADD MSTORE PUSH1 0x0 PUSH2 0x3CEB PUSH1 0xA0 DUP4 ADD DUP8 PUSH2 0x379A JUMP JUMPDEST PUSH2 0xFFFF SWAP6 SWAP1 SWAP6 AND PUSH1 0x40 DUP4 ADD MSTORE POP PUSH4 0xFFFFFFFF SWAP3 SWAP1 SWAP3 AND PUSH1 0x60 DUP4 ADD MSTORE PUSH1 0x80 SWAP1 SWAP2 ADD MSTORE SWAP3 SWAP2 POP POP JUMP JUMPDEST PUSH1 0x0 PUSH1 0x20 DUP3 DUP5 SUB SLT ISZERO PUSH2 0x3D24 JUMPI PUSH1 0x0 DUP1 REVERT JUMPDEST POP MLOAD SWAP2 SWAP1 POP JUMP JUMPDEST PUSH1 0x0 DUP3 PUSH2 0x3D3A JUMPI PUSH2 0x3D3A PUSH2 0x3A04 JUMP JUMPDEST POP MOD SWAP1 JUMP JUMPDEST PUSH1 0x1 DUP2 DUP2 JUMPDEST DUP1 DUP6 GT ISZERO PUSH2 0x3D7A JUMPI DUP2 PUSH1 0x0 NOT DIV DUP3 GT ISZERO PUSH2 0x3D60 JUMPI PUSH2 0x3D60 PUSH2 0x39C4 JUMP JUMPDEST DUP1 DUP6 AND ISZERO PUSH2 0x3D6D JUMPI SWAP2 DUP2 MUL SWAP2 JUMPDEST SWAP4 DUP5 SHR SWAP4 SWAP1 DUP1 MUL SWAP1 PUSH2 0x3D44 JUMP JUMPDEST POP SWAP3 POP SWAP3 SWAP1 POP JUMP JUMPDEST PUSH1 0x0 DUP3 PUSH2 0x3D91 JUMPI POP PUSH1 0x1 PUSH2 0x180A JUMP JUMPDEST DUP2 PUSH2 0x3D9E JUMPI POP PUSH1 0x0 PUSH2 0x180A JUMP JUMPDEST DUP2 PUSH1 0x1 DUP2 EQ PUSH2 0x3DB4 JUMPI PUSH1 0x2 DUP2 EQ PUSH2 0x3DBE JUMPI PUSH2 0x3DDA JUMP JUMPDEST PUSH1 0x1 SWAP2 POP POP PUSH2 0x180A JUMP JUMPDEST PUSH1 0xFF DUP5 GT ISZERO PUSH2 0x3DCF JUMPI PUSH2 0x3DCF PUSH2 0x39C4 JUMP JUMPDEST POP POP PUSH1 0x1 DUP3 SHL PUSH2 0x180A JUMP JUMPDEST POP PUSH1 0x20 DUP4 LT PUSH2 0x133 DUP4 LT AND PUSH1 0x4E DUP5 LT PUSH1 0xB DUP5 LT AND OR ISZERO PUSH2 0x3DFD JUMPI POP DUP2 DUP2 EXP PUSH2 0x180A JUMP JUMPDEST PUSH2 0x3E07 DUP4 DUP4 PUSH2 0x3D3F JUMP JUMPDEST DUP1 PUSH1 0x0 NOT DIV DUP3 GT ISZERO PUSH2 0x3E1B JUMPI PUSH2 0x3E1B PUSH2 0x39C4 JUMP JUMPDEST MUL SWAP4 SWAP3 POP POP POP JUMP JUMPDEST PUSH1 0x0 PUSH2 0x31D1 DUP4 DUP4 PUSH2 0x3D82 JUMP INVALID LOG2 PUSH5 0x6970667358 0x22 SLT KECCAK256 REVERT SWAP2 0xF6 0xC7 DUP10 0xA5 SIGNEXTEND BALANCE DUP6 LOG3 0xAA ORIGIN 0xC8 0xC4 DUP12 DUP2 DUP8 0xBE CREATE 0xEC CODECOPY 0xAF 0xF9 0x4B RETURNDATASIZE PC SWAP11 0xCC 0xF8 0x25 0xE8 DIV PUSH5 0x736F6C6343 STOP ADDMOD SGT STOP CALLER "},"methodIdentifiers":{"MARKET_LIQUIDITY()":"c3b0c7c5","PLATFORM_FEE_BPS()":"539aa77f","batchClaimFor(uint256,address[])":"de9b9c5f","bets(uint256,address)":"f644b3bb","cancelMarket(uint256)":"7c16cd9e","claimFor(uint256,address)":"10ee3f00","claimReward(uint256)":"ae169a50","createMarket(string,uint256,uint256,uint256,uint256)":"3ad62988","donId()":"8dbe7b9d","emergencyWithdraw()":"db2e21bc","fundLiquidityReserve()":"1ebba654","gasLimit()":"f68016b7","getMarket(uint256)":"eb44fdd3","getMarketCount()":"fd69f3c2","getMarketVolume(uint256)":"a95f028a","getOdds(uint256)":"126c4166","getPlatformProfit()":"83d430cd","getPlatformStats()":"136d8883","getUserBet(uint256,address)":"c03fb87c","getWithdrawableFees()":"d7785bdb","handleOracleFulfillment(bytes32,bytes,bytes)":"0ca76175","hasBet(uint256,address)":"ae062acd","hasUserBet(uint256,address)":"8443b233","lifetimeFeesCollected()":"3eb6e623","lifetimeFeesWithdrawn()":"f134ad0a","markets(uint256)":"b1283e77","oracle()":"7dc0d1d0","owner()":"8da5cb5b","placeBet(uint256,bool)":"9ed9c74d","platformLiquidityReserve()":"9db491e2","renounceOwnership()":"715018a6","requestMarketResolution(uint256,string,string[])":"59ea1437","requestToMarket(bytes32)":"4369c6c4","resolutionRequested(uint256)":"3a3c7b31","resolveMarket(uint256,bool)":"57bde446","setChainlinkConfig(bytes32,uint64,uint32)":"936c9525","setOracle(address)":"7adbf973","subscriptionId()":"09c1ba2e","totalCollectedFees()":"96bd072c","transferOwnership(address)":"f2fde38b","withdrawLiquidityReserve(uint256)":"3381525a","withdrawPlatformFees()":"d0b7830b"}}}}}