{"contracts/PredictionMarket.sol":{"PredictionMarket":{"abi":[{"anonymous":false,"inputs":[{"indexed":true,"internalType":"uint256","name":"marketId","type":"uint256"},{"indexed":true,"internalType":"address","name":"user","type":"address"},{"indexed":false,"internalType":"uint256","name":"amount","type":"uint256"},{"indexed":false,"internalType":"bool","name":"side","type":"bool"}],"name":"BetPlaced","type":"event"},{"anonymous":false,"inputs":[{"indexed":false,"internalType":"uint256","name":"amount","type":"uint256"}],"name":"LiquidityReserveFunded","type":"event"},{"anonymous":false,"inputs":[{"indexed":false,"internalType":"uint256","name":"amount","type":"uint256"}],"name":"LiquidityReserveWithdrawn","type":"event"},{"anonymous":false,"inputs":[{"indexed":true,"internalType":"uint256","name":"marketId","type":"uint256"},{"indexed":false,"internalType":"uint256","name":"refundedLiquidity","type":"uint256"}],"name":"MarketCanceled","type":"event"},{"anonymous":false,"inputs":[{"indexed":true,"internalType":"uint256","name":"marketId","type":"uint256"},{"indexed":false,"internalType":"string","name":"question","type":"string"},{"indexed":false,"internalType":"uint256","name":"startTime","type":"uint256"},{"indexed":false,"internalType":"uint256","name":"endTime","type":"uint256"},{"indexed":false,"internalType":"uint256","name":"minBet","type":"uint256"},{"indexed":false,"internalType":"uint256","name":"maxBet","type":"uint256"},{"indexed":true,"internalType":"address","name":"creator","type":"address"}],"name":"MarketCreated","type":"event"},{"anonymous":false,"inputs":[{"indexed":true,"internalType":"uint256","name":"marketId","type":"uint256"},{"indexed":false,"internalType":"bool","name":"outcome","type":"bool"}],"name":"MarketResolved","type":"event"},{"anonymous":false,"inputs":[{"indexed":true,"internalType":"address","name":"previousOwner","type":"address"},{"indexed":true,"internalType":"address","name":"newOwner","type":"address"}],"name":"OwnershipTransferred","type":"event"},{"anonymous":false,"inputs":[{"indexed":false,"internalType":"uint256","name":"amount","type":"uint256"}],"name":"PlatformFeesWithdrawn","type":"event"},{"anonymous":false,"inputs":[{"indexed":true,"internalType":"uint256","name":"marketId","type":"uint256"},{"indexed":true,"internalType":"address","name":"user","type":"address"},{"indexed":false,"internalType":"uint256","name":"amount","type":"uint256"}],"name":"RewardClaimed","type":"event"},{"anonymous":false,"inputs":[{"indexed":true,"internalType":"uint256","name":"marketId","type":"uint256"},{"indexed":true,"internalType":"address","name":"user","type":"address"}],"name":"RewardClaimedFor","type":"event"},{"inputs":[],"name":"MARKET_LIQUIDITY","outputs":[{"internalType":"uint256","name":"","type":"uint256"}],"stateMutability":"view","type":"function"},{"inputs":[],"name":"PLATFORM_FEE_BPS","outputs":[{"internalType":"uint256","name":"","type":"uint256"}],"stateMutability":"view","type":"function"},{"inputs":[{"internalType":"uint256","name":"marketId","type":"uint256"},{"internalType":"address[]","name":"users","type":"address[]"}],"name":"batchClaimFor","outputs":[],"stateMutability":"nonpayable","type":"function"},{"inputs":[{"internalType":"uint256","name":"","type":"uint256"},{"internalType":"address","name":"","type":"address"}],"name":"bets","outputs":[{"internalType":"uint256","name":"amount","type":"uint256"},{"internalType":"bool","name":"claimed","type":"bool"},{"internalType":"bool","name":"side","type":"bool"}],"stateMutability":"view","type":"function"},{"inputs":[{"internalType":"uint256","name":"marketId","type":"uint256"}],"name":"cancelMarket","outputs":[],"stateMutability":"nonpayable","type":"function"},{"inputs":[{"internalType":"uint256","name":"marketId","type":"uint256"},{"internalType":"address","name":"user","type":"address"}],"name":"claimFor","outputs":[],"stateMutability":"nonpayable","type":"function"},{"inputs":[{"internalType":"uint256","name":"marketId","type":"uint256"}],"name":"claimReward","outputs":[],"stateMutability":"nonpayable","type":"function"},{"inputs":[{"internalType":"string","name":"question","type":"string"},{"internalType":"uint256","name":"startTime","type":"uint256"},{"internalType":"uint256","name":"endTime","type":"uint256"},{"internalType":"uint256","name":"minBet","type":"uint256"},{"internalType":"uint256","name":"maxBet","type":"uint256"}],"name":"createMarket","outputs":[],"stateMutability":"nonpayable","type":"function"},{"inputs":[],"name":"emergencyWithdraw","outputs":[],"stateMutability":"nonpayable","type":"function"},{"inputs":[],"name":"fundLiquidityReserve","outputs":[],"stateMutability":"payable","type":"function"},{"inputs":[{"internalType":"uint256","name":"marketId","type":"uint256"}],"name":"getMarket","outputs":[{"components":[{"internalType":"uint256","name":"id","type":"uint256"},{"internalType":"uint256","name":"startTime","type":"uint256"},{"internalType":"uint256","name":"endTime","type":"uint256"},{"internalType":"uint256","name":"minBet","type":"uint256"},{"internalType":"uint256","name":"maxBet","type":"uint256"},{"internalType":"uint256","name":"yesPool","type":"uint256"},{"internalType":"uint256","name":"noPool","type":"uint256"},{"internalType":"address","name":"creator","type":"address"},{"internalType":"string","name":"question","type":"string"},{"internalType":"bool","name":"resolved","type":"bool"},{"internalType":"bool","name":"outcome","type":"bool"},{"internalType":"bool","name":"exists","type":"bool"}],"internalType":"struct PredictionMarket.Market","name":"","type":"tuple"}],"stateMutability":"view","type":"function"},{"inputs":[],"name":"getMarketCount","outputs":[{"internalType":"uint256","name":"","type":"uint256"}],"stateMutability":"view","type":"function"},{"inputs":[{"internalType":"uint256","name":"marketId","type":"uint256"}],"name":"getMarketVolume","outputs":[{"internalType":"uint256","name":"","type":"uint256"}],"stateMutability":"view","type":"function"},{"inputs":[{"internalType":"uint256","name":"marketId","type":"uint256"}],"name":"getOdds","outputs":[{"internalType":"uint256","name":"yesOdds","type":"uint256"},{"internalType":"uint256","name":"noOdds","type":"uint256"}],"stateMutability":"view","type":"function"},{"inputs":[],"name":"getPlatformProfit","outputs":[{"internalType":"uint256","name":"","type":"uint256"}],"stateMutability":"view","type":"function"},{"inputs":[],"name":"getPlatformStats","outputs":[{"internalType":"uint256","name":"lifetimeFees","type":"uint256"},{"internalType":"uint256","name":"withdrawnFees","type":"uint256"},{"internalType":"uint256","name":"withdrawableFees","type":"uint256"},{"internalType":"uint256","name":"liquidityReserve","type":"uint256"},{"internalType":"uint256","name":"contractBalance","type":"uint256"}],"stateMutability":"view","type":"function"},{"inputs":[{"internalType":"uint256","name":"marketId","type":"uint256"},{"internalType":"address","name":"user","type":"address"}],"name":"getUserBet","outputs":[{"components":[{"internalType":"uint256","name":"amount","type":"uint256"},{"internalType":"bool","name":"claimed","type":"bool"},{"internalType":"bool","name":"side","type":"bool"}],"internalType":"struct PredictionMarket.Bet","name":"","type":"tuple"}],"stateMutability":"view","type":"function"},{"inputs":[],"name":"getWithdrawableFees","outputs":[{"internalType":"uint256","name":"","type":"uint256"}],"stateMutability":"view","type":"function"},{"inputs":[{"internalType":"uint256","name":"","type":"uint256"},{"internalType":"address","name":"","type":"address"}],"name":"hasBet","outputs":[{"internalType":"bool","name":"","type":"bool"}],"stateMutability":"view","type":"function"},{"inputs":[{"internalType":"uint256","name":"marketId","type":"uint256"},{"internalType":"address","name":"user","type":"address"}],"name":"hasUserBet","outputs":[{"internalType":"bool","name":"","type":"bool"}],"stateMutability":"view","type":"function"},{"inputs":[],"name":"lifetimeFeesCollected","outputs":[{"internalType":"uint256","name":"","type":"uint256"}],"stateMutability":"view","type":"function"},{"inputs":[],"name":"lifetimeFeesWithdrawn","outputs":[{"internalType":"uint256","name":"","type":"uint256"}],"stateMutability":"view","type":"function"},{"inputs":[{"internalType":"uint256","name":"","type":"uint256"}],"name":"markets","outputs":[{"internalType":"uint256","name":"id","type":"uint256"},{"internalType":"uint256","name":"startTime","type":"uint256"},{"internalType":"uint256","name":"endTime","type":"uint256"},{"internalType":"uint256","name":"minBet","type":"uint256"},{"internalType":"uint256","name":"maxBet","type":"uint256"},{"internalType":"uint256","name":"yesPool","type":"uint256"},{"internalType":"uint256","name":"noPool","type":"uint256"},{"internalType":"address","name":"creator","type":"address"},{"internalType":"string","name":"question","type":"string"},{"internalType":"bool","name":"resolved","type":"bool"},{"internalType":"bool","name":"outcome","type":"bool"},{"internalType":"bool","name":"exists","type":"bool"}],"stateMutability":"view","type":"function"},{"inputs":[],"name":"owner","outputs":[{"internalType":"address","name":"","type":"address"}],"stateMutability":"view","type":"function"},{"inputs":[{"internalType":"uint256","name":"marketId","type":"uint256"},{"internalType":"bool","name":"side","type":"bool"}],"name":"placeBet","outputs":[],"stateMutability":"payable","type":"function"},{"inputs":[],"name":"platformLiquidityReserve","outputs":[{"internalType":"uint256","name":"","type":"uint256"}],"stateMutability":"view","type":"function"},{"inputs":[],"name":"renounceOwnership","outputs":[],"stateMutability":"nonpayable","type":"function"},{"inputs":[{"internalType":"uint256","name":"marketId","type":"uint256"},{"internalType":"bool","name":"outcome","type":"bool"}],"name":"resolveMarket","outputs":[],"stateMutability":"nonpayable","type":"function"},{"inputs":[],"name":"totalCollectedFees","outputs":[{"internalType":"uint256","name":"","type":"uint256"}],"stateMutability":"view","type":"function"},{"inputs":[{"internalType":"address","name":"newOwner","type":"address"}],"name":"transferOwnership","outputs":[],"stateMutability":"nonpayable","type":"function"},{"inputs":[{"internalType":"uint256","name":"amount","type":"uint256"}],"name":"withdrawLiquidityReserve","outputs":[],"stateMutability":"nonpayable","type":"function"},{"inputs":[],"name":"withdrawPlatformFees","outputs":[],"stateMutability":"nonpayable","type":"function"},{"stateMutability":"payable","type":"receive"}],"evm":{"bytecode":{"linkReferences":{},"object":"608060405234801561001057600080fd5b50600160005561001f33610024565b610076565b600180546001600160a01b038381166001600160a01b0319831681179093556040519116919082907f8be0079c531659141344cd1fd0a4f28419497f9722a3daafe3b4186f6b6457e090600090a35050565b6128ad806100856000396000f3fe6080604052600436106101e75760003560e01c80639ed9c74d11610102578063d7785bdb11610095578063f134ad0a11610064578063f134ad0a1461061a578063f2fde38b14610630578063f644b3bb14610650578063fd69f3c2146106b857600080fd5b8063d7785bdb146105a3578063db2e21bc146105b8578063de9b9c5f146105cd578063eb44fdd3146105ed57600080fd5b8063b1283e77116100d1578063b1283e771461048b578063c03fb87c146104c3578063c3b0c7c514610572578063d0b7830b1461058e57600080fd5b80639ed9c74d146103fd578063a95f028a14610410578063ae062acd14610430578063ae169a501461046b57600080fd5b806357bde4461161017a5780638443b233116101495780638443b233146103795780638da5cb5b146103a957806396bd072c146103d15780639db491e2146103e757600080fd5b806357bde4461461030f578063715018a61461032f5780637c16cd9e1461034457806383d430cd1461036457600080fd5b80633381525a116101b65780633381525a146102965780633ad62988146102b65780633eb6e623146102d6578063539aa77f146102fa57600080fd5b806310ee3f00146101f3578063126c416614610215578063136d88831461024f5780631ebba6541461028e57600080fd5b366101ee57005b600080fd5b3480156101ff57600080fd5b5061021361020e3660046122a3565b6106cd565b005b34801561022157600080fd5b506102356102303660046122cf565b61078d565b604080519283526020830191909152015b60405180910390f35b34801561025b57600080fd5b5060055460065460035460045460408051948552602085019390935291830152606082015247608082015260a001610246565b610213610875565b3480156102a257600080fd5b506102136102b13660046122cf565b610919565b3480156102c257600080fd5b506102136102d13660046122e8565b610ab5565b3480156102e257600080fd5b506102ec60055481565b604051908152602001610246565b34801561030657600080fd5b506102ec609681565b34801561031b57600080fd5b5061021361032a366004612378565b610ebd565b34801561033b57600080fd5b5061021361100d565b34801561035057600080fd5b5061021361035f3660046122cf565b611021565b34801561037057600080fd5b506102ec611153565b34801561038557600080fd5b506103996103943660046122a3565b61116a565b6040519015158152602001610246565b3480156103b557600080fd5b506001546040516001600160a01b039091168152602001610246565b3480156103dd57600080fd5b506102ec60035481565b3480156103f357600080fd5b506102ec60045481565b61021361040b366004612378565b611197565b34801561041c57600080fd5b506102ec61042b3660046122cf565b6114ed565b34801561043c57600080fd5b5061039961044b3660046122a3565b600960209081526000928352604080842090915290825290205460ff1681565b34801561047757600080fd5b506102136104863660046122cf565b6115af565b34801561049757600080fd5b506104ab6104a63660046122cf565b61162f565b6040516102469c9b9a999897969594939291906123f3565b3480156104cf57600080fd5b5061054c6104de3660046122a3565b604080516060808201835260008083526020808401829052928401819052948552600882528285206001600160a01b039490941685529281529281902081519283018252805483526001015460ff808216151594840194909452610100900490921615159181019190915290565b604080518251815260208084015115159082015291810151151590820152606001610246565b34801561057e57600080fd5b506102ec676f05b59d3b20000081565b34801561059a57600080fd5b5061021361172b565b3480156105af57600080fd5b506003546102ec565b3480156105c457600080fd5b5061021361186b565b3480156105d957600080fd5b506102136105e836600461246a565b61195e565b3480156105f957600080fd5b5061060d6106083660046122cf565b611c41565b60405161024691906124e9565b34801561062657600080fd5b506102ec60065481565b34801561063c57600080fd5b5061021361064b3660046125ac565b611df6565b34801561065c57600080fd5b5061069b61066b3660046122a3565b60086020908152600092835260408084209091529082529020805460019091015460ff8082169161010090041683565b604080519384529115156020840152151590820152606001610246565b3480156106c457600080fd5b506002546102ec565b6106d5611e6c565b6000828152600760205260409020600981015483919062010000900460ff166107195760405162461bcd60e51b8152600401610710906125ce565b60405180910390fd5b600981015460ff1661073d5760405162461bcd60e51b8152600401610710906125fd565b6107478484611ec5565b6040516001600160a01b0384169085907fed498030837cb2e17fef08f16b80d1206257306957b6113fa83c6da94a88144490600090a350506107896001600055565b5050565b60008181526007602052604081206006810154600582015483929183916107b49190612643565b9050806000036107cc5750614e209485945092505050565b60008183600501546127106107e19190612656565b6107eb919061266d565b905060008284600601546127106108029190612656565b61080c919061266d565b9050600061081d609661271061268f565b905061082b83612710612656565b610839826305f5e100612656565b610843919061266d565b965061085182612710612656565b61085f826305f5e100612656565b610869919061266d565b95505050505050915091565b61087d6121db565b600034116108cd5760405162461bcd60e51b815260206004820152601d60248201527f4d7573742073656e64204d4f4e20746f2066756e6420726573657276650000006044820152606401610710565b34600460008282546108df9190612643565b90915550506040513481527f1007592a11eeb4aa60e4b25785d069d874a5e0393449da55070633eca253d5ba9060200160405180910390a1565b6109216121db565b600081116109715760405162461bcd60e51b815260206004820152601d60248201527f416d6f756e74206d7573742062652067726561746572207468616e20300000006044820152606401610710565b6004548111156109c35760405162461bcd60e51b815260206004820152601c60248201527f496e73756666696369656e7420726573657276652062616c616e6365000000006044820152606401610710565b80600460008282546109d5919061268f565b90915550506001546040516000916001600160a01b03169083908381818185875af1925050503d8060008114610a27576040519150601f19603f3d011682016040523d82523d6000602084013e610a2c565b606091505b5050905080610a7d5760405162461bcd60e51b815260206004820152601960248201527f52657365727665207769746864726177616c206661696c6564000000000000006044820152606401610710565b6040518281527ffae62d177ddcb96191c434d1f832fdcb17f33c6c75e25049e47ee43dd9b8d717906020015b60405180910390a15050565b428411610b045760405162461bcd60e51b815260206004820181905260248201527f53746172742074696d65206d75737420626520696e20746865206675747572656044820152606401610710565b838311610b5d5760405162461bcd60e51b815260206004820152602160248201527f456e642074696d65206d7573742062652061667465722073746172742074696d6044820152606560f81b6064820152608401610710565b60008211610bad5760405162461bcd60e51b815260206004820152601e60248201527f4d696e20626574206d7573742062652067726561746572207468616e203000006044820152606401610710565b818111610c085760405162461bcd60e51b8152602060048201526024808201527f4d617820626574206d7573742062652067726561746572207468616e206d696e6044820152630818995d60e21b6064820152608401610710565b84610c555760405162461bcd60e51b815260206004820152601860248201527f5175657374696f6e2063616e6e6f7420626520656d70747900000000000000006044820152606401610710565b676f05b59d3b2000006004541015610caf5760405162461bcd60e51b815260206004820152601f60248201527f496e73756666696369656e7420706c6174666f726d206c6971756964697479006044820152606401610710565b60028054906000610cbf836126a2565b9091555060009050610cda6002676f05b59d3b20000061266d565b9050676f05b59d3b20000060046000828254610cf6919061268f565b925050819055506040518061018001604052806002548152602001868152602001858152602001848152602001838152602001828152602001828152602001336001600160a01b0316815260200188888080601f0160208091040260200160405190810160405280939291908181526020018383808284376000920182905250938552505050602080830182905260408084018390526001606094850181905260028054855260078085529483902087518155938701519184019190915590850151908201559183015160038301556080830151600483015560a0830151600583015560c0830151600683015560e083015190820180546001600160a01b0319166001600160a01b039092169190911790556101008201516008820190610e1d9082612753565b5061012082015160099091018054610140840151610160909401511515620100000262ff0000199415156101000261ff00199415159490941661ffff199092169190911792909217929092161790556002546040513391907f6b68a2fc85527405d93824f9ea03022f60f50735f43c2bf600582af1824f500690610eac908b908b908b908b908b908b90612813565b60405180910390a350505050505050565b610ec56121db565b6000828152600760205260409020600981015483919062010000900460ff16610f005760405162461bcd60e51b8152600401610710906125ce565b8060020154421015610f4b5760405162461bcd60e51b815260206004820152601460248201527313585c9ad95d081a185cc81b9bdd08195b99195960621b6044820152606401610710565b6000848152600760205260409020600981015460ff1615610fae5760405162461bcd60e51b815260206004820152601760248201527f4d61726b657420616c7265616479207265736f6c7665640000000000000000006044820152606401610710565b6009810180548515156101000261ffff1990911617600117905560405185907f4927fe38919783250023d27e65a3e56b6b5c3e49364e51674a41ef08d62460d990610ffe90871515815260200190565b60405180910390a25050505050565b6110156121db565b61101f6000612235565b565b6110296121db565b600081815260076020526040902060090154819062010000900460ff166110625760405162461bcd60e51b8152600401610710906125ce565b6000828152600760205260409020600981015460ff16156110c55760405162461bcd60e51b815260206004820152601d60248201527f43616e6e6f742063616e63656c207265736f6c766564206d61726b65740000006044820152606401610710565b6000816006015482600501546110db9190612643565b905080600460008282546110ef9190612643565b9091555050600060058301819055600683015560098201805460ff1916600117905560405184907f932bcc53fcf504089c21d39fef179e3b2510b8c80e97bf91c4b9b845cb952971906111459084815260200190565b60405180910390a250505050565b6000600654600554611165919061268f565b905090565b60008281526009602090815260408083206001600160a01b038516845290915290205460ff165b92915050565b6000828152600760205260409020600981015483919062010000900460ff166111d25760405162461bcd60e51b8152600401610710906125ce565b600981015460ff161561121c5760405162461bcd60e51b815260206004820152601260248201527113585c9ad95d081a5cc81c995cdbdb1d995960721b6044820152606401610710565b8060010154421061126f5760405162461bcd60e51b815260206004820152601e60248201527f4d61726b65742062657474696e672070686173652068617320656e64656400006044820152606401610710565b600084815260096020908152604080832033845290915290205460ff16156112e55760405162461bcd60e51b815260206004820152602360248201527f557365722068617320616c726561647920626574206f6e2074686973206d61726044820152621ad95d60ea1b6064820152608401610710565b600084815260076020526040902060038101543410156113475760405162461bcd60e51b815260206004820152601860248201527f42657420616d6f756e742062656c6f77206d696e696d756d00000000000000006044820152606401610710565b806004015434111561139b5760405162461bcd60e51b815260206004820152601860248201527f42657420616d6f756e742061626f7665206d6178696d756d00000000000000006044820152606401610710565b60006127106113ab609634612656565b6113b5919061266d565b905060006113c3823461268f565b905081600360008282546113d79190612643565b9250508190555081600560008282546113f09190612643565b909155505060408051606081018252828152600060208083018281528a1580158587019081528d8552600884528685203380875290855287862096518755925160019687018054925115156101000261ff00199215159290921661ffff19909316929092171790558c8452600983528584209184529152929020805460ff19169091179055611498578083600501600082825461148d9190612643565b909155506114b29050565b808360060160008282546114ac9190612643565b90915550505b604080518281528715156020820152339189917fb1bd10cf5ea9540f12b9b182707734fd82deacc56830e2bd316133deb372bff49101610eac565b600081815260076020526040812060090154829062010000900460ff166115265760405162461bcd60e51b8152600401610710906125ce565b6000838152600760205260408120906115486002676f05b59d3b20000061266d565b90506000818360050154101561155f57600061156f565b81836005015461156f919061268f565b905060008284600601541015611586576000611596565b828460060154611596919061268f565b90506115a28183612643565b9550505050505b50919050565b6115b7611e6c565b6000818152600760205260409020600981015482919062010000900460ff166115f25760405162461bcd60e51b8152600401610710906125ce565b600981015460ff166116165760405162461bcd60e51b8152600401610710906125fd565b6116208333611ec5565b505061162c6001600055565b50565b60076020819052600091825260409091208054600182015460028301546003840154600485015460058601546006870154978701546008880180549799969895979496939592946001600160a01b03909216929161168c906126d1565b80601f01602080910402602001604051908101604052809291908181526020018280546116b8906126d1565b80156117055780601f106116da57610100808354040283529160200191611705565b820191906000526020600020905b8154815290600101906020018083116116e857829003601f168201915b5050506009909301549192505060ff80821691610100810482169162010000909104168c565b6117336121db565b600354806117795760405162461bcd60e51b81526020600482015260136024820152724e6f206665657320746f20776974686472617760681b6044820152606401610710565b600060038190555080600660008282546117939190612643565b90915550506001546040516000916001600160a01b03169083908381818185875af1925050503d80600081146117e5576040519150601f19603f3d011682016040523d82523d6000602084013e6117ea565b606091505b505090508061183b5760405162461bcd60e51b815260206004820152601c60248201527f506c6174666f726d20666565207472616e73666572206661696c6564000000006044820152606401610710565b6040518281527f9870c8023baa016ac002ddfa7cdad341155acddddee3032c07d4baa4947ae64390602001610aa9565b6118736121db565b47806118b85760405162461bcd60e51b81526020600482015260146024820152734e6f2066756e647320746f20776974686472617760601b6044820152606401610710565b60006118cc6001546001600160a01b031690565b6001600160a01b03168260405160006040518083038185875af1925050503d8060008114611916576040519150601f19603f3d011682016040523d82523d6000602084013e61191b565b606091505b50509050806107895760405162461bcd60e51b815260206004820152600f60248201526e151c985b9cd9995c8819985a5b1959608a1b6044820152606401610710565b611966611e6c565b6000838152600760205260409020600981015484919062010000900460ff166119a15760405162461bcd60e51b8152600401610710906125ce565b600981015460ff166119c55760405162461bcd60e51b8152600401610710906125fd565b6000858152600760205260408120600681015460058201549192916119ea9190612643565b6009830154909150600090610100900460ff16611a0b578260060154611a11565b82600501545b905080600003611a2357505050611c30565b60005b86811015611c2b576000888883818110611a4257611a42612861565b9050602002016020810190611a5791906125ac565b60008b81526008602090815260408083206001600160a01b0385168085529083528184208f8552600984528285209185529252909120549192509060ff168015611aa65750600181015460ff16155b8015611ace5750600986015460018201546101009182900460ff908116151592909104161515145b8015611ada5750805415155b15611c2157600084868360000154611af29190612656565b611afc919061266d565b90506000612710611b0e609684612656565b611b18919061266d565b90506000611b26828461268f565b6001858101805460ff19169091179055600380549192508391600090611b4d908490612643565b90915550506040516000906001600160a01b0387169083908381818185875af1925050503d8060008114611b9d576040519150601f19603f3d011682016040523d82523d6000602084013e611ba2565b606091505b505090508015611bf557856001600160a01b03168f7f24b5efa61dd1cfc659205a97fb8ed868f3cb8c81922bab2b96423e5de1de2cb784604051611be891815260200190565b60405180910390a3611c1c565b60018501805460ff1916905560038054849190600090611c1690849061268f565b90915550505b505050505b5050600101611a26565b505050505b5050611c3c6001600055565b505050565b611cb46040518061018001604052806000815260200160008152602001600081526020016000815260200160008152602001600081526020016000815260200160006001600160a01b03168152602001606081526020016000151581526020016000151581526020016000151581525090565b600082815260076020818152604092839020835161018081018552815481526001820154928101929092526002810154938201939093526003830154606082015260048301546080820152600583015460a0820152600683015460c0820152908201546001600160a01b031660e082015260088201805491929161010084019190611d3e906126d1565b80601f0160208091040260200160405190810160405280929190818152602001828054611d6a906126d1565b8015611db75780601f10611d8c57610100808354040283529160200191611db7565b820191906000526020600020905b815481529060010190602001808311611d9a57829003601f168201915b50505091835250506009919091015460ff8082161515602084015261010082048116151560408401526201000090910416151560609091015292915050565b611dfe6121db565b6001600160a01b038116611e635760405162461bcd60e51b815260206004820152602660248201527f4f776e61626c653a206e6577206f776e657220697320746865207a65726f206160448201526564647265737360d01b6064820152608401610710565b61162c81612235565b600260005403611ebe5760405162461bcd60e51b815260206004820152601f60248201527f5265656e7472616e637947756172643a207265656e7472616e742063616c6c006044820152606401610710565b6002600055565b60008281526008602090815260408083206001600160a01b03851680855290835281842086855260078452828520600985528386209286529190935292205490919060ff16611f455760405162461bcd60e51b815260206004820152600c60248201526b139bc818995d08199bdd5b9960a21b6044820152606401610710565b600182015460ff1615611f8c5760405162461bcd60e51b815260206004820152600f60248201526e105b1c9958591e4818db185a5b5959608a1b6044820152606401610710565b600981015460018301546101009182900460ff90811615159290910416151514611feb5760405162461bcd60e51b815260206004820152601060248201526f4e6f742077696e6e696e67207369646560801b6044820152606401610710565b6000816006015482600501546120019190612643565b6009830154909150600090610100900460ff16612022578260060154612028565b82600501545b90506000811161206f5760405162461bcd60e51b815260206004820152601260248201527157696e6e696e6720706f6f6c20656d70747960701b6044820152606401610710565b6000818386600001546120829190612656565b61208c919061266d565b9050600061271061209e609684612656565b6120a8919061266d565b905060006120b6828461268f565b905081600360008282546120ca9190612643565b9250508190555081600560008282546120e39190612643565b90915550506001878101805460ff191690911790556040516000906001600160a01b038a169083908381818185875af1925050503d8060008114612143576040519150601f19603f3d011682016040523d82523d6000602084013e612148565b606091505b505090508061218b5760405162461bcd60e51b815260206004820152600f60248201526e151c985b9cd9995c8819985a5b1959608a1b6044820152606401610710565b886001600160a01b03168a7f24b5efa61dd1cfc659205a97fb8ed868f3cb8c81922bab2b96423e5de1de2cb7846040516121c791815260200190565b60405180910390a350505050505050505050565b6001546001600160a01b0316331461101f5760405162461bcd60e51b815260206004820181905260248201527f4f776e61626c653a2063616c6c6572206973206e6f7420746865206f776e65726044820152606401610710565b600180546001600160a01b038381166001600160a01b0319831681179093556040519116919082907f8be0079c531659141344cd1fd0a4f28419497f9722a3daafe3b4186f6b6457e090600090a35050565b80356001600160a01b038116811461229e57600080fd5b919050565b600080604083850312156122b657600080fd5b823591506122c660208401612287565b90509250929050565b6000602082840312156122e157600080fd5b5035919050565b60008060008060008060a0878903121561230157600080fd5b863567ffffffffffffffff8082111561231957600080fd5b818901915089601f83011261232d57600080fd5b81358181111561233c57600080fd5b8a602082850101111561234e57600080fd5b60209283019b909a5091890135986040810135985060608101359750608001359550909350505050565b6000806040838503121561238b57600080fd5b82359150602083013580151581146123a257600080fd5b809150509250929050565b6000815180845260005b818110156123d3576020818501810151868301820152016123b7565b506000602082860101526020601f19601f83011685010191505092915050565b60006101808e83528d60208401528c60408401528b60608401528a60808401528960a08401528860c084015260018060a01b03881660e084015280610100840152612440818401886123ad565b95151561012084015250509115156101408301521515610160909101529998505050505050505050565b60008060006040848603121561247f57600080fd5b83359250602084013567ffffffffffffffff8082111561249e57600080fd5b818601915086601f8301126124b257600080fd5b8135818111156124c157600080fd5b8760208260051b85010111156124d657600080fd5b6020830194508093505050509250925092565b6020815281516020820152602082015160408201526040820151606082015260608201516080820152608082015160a082015260a082015160c082015260c082015160e0820152600060e083015161010061254e818501836001600160a01b03169052565b80850151915050610180610120818186015261256e6101a08601846123ad565b908601519092506101406125858682018315159052565b860151905061016061259a8682018315159052565b90950151151593019290925250919050565b6000602082840312156125be57600080fd5b6125c782612287565b9392505050565b60208082526015908201527413585c9ad95d08191bd95cc81b9bdd08195e1a5cdd605a1b604082015260600190565b60208082526016908201527513585c9ad95d081a5cc81b9bdd081c995cdbdb1d995960521b604082015260600190565b634e487b7160e01b600052601160045260246000fd5b808201808211156111915761119161262d565b80820281158282048414176111915761119161262d565b60008261268a57634e487b7160e01b600052601260045260246000fd5b500490565b818103818111156111915761119161262d565b6000600182016126b4576126b461262d565b5060010190565b634e487b7160e01b600052604160045260246000fd5b600181811c908216806126e557607f821691505b6020821081036115a957634e487b7160e01b600052602260045260246000fd5b601f821115611c3c57600081815260208120601f850160051c8101602086101561272c5750805b601f850160051c820191505b8181101561274b57828155600101612738565b505050505050565b815167ffffffffffffffff81111561276d5761276d6126bb565b6127818161277b84546126d1565b84612705565b602080601f8311600181146127b6576000841561279e5750858301515b600019600386901b1c1916600185901b17855561274b565b600085815260208120601f198616915b828110156127e5578886015182559484019460019091019084016127c6565b50858210156128035787850151600019600388901b60f8161c191681555b5050505050600190811b01905550565b60a081528560a0820152858760c0830137600060c08783010152600060c0601f19601f8901168301019050856020830152846040830152836060830152826080830152979650505050505050565b634e487b7160e01b600052603260045260246000fdfea26469706673582212200a8b8f8f89e85bc43db387afcffa24fe3a84e45089020f75d17659b131c64acd64736f6c63430008130033","opcodes":"PUSH1 0x80 PUSH1 0x40 MSTORE CALLVALUE DUP1 ISZERO PUSH2 0x10 JUMPI PUSH1 0x0 DUP1 REVERT JUMPDEST POP PUSH1 0x1 PUSH1 0x0 SSTORE PUSH2 0x1F CALLER PUSH2 0x24 JUMP JUMPDEST PUSH2 0x76 JUMP JUMPDEST PUSH1 0x1 DUP1 SLOAD PUSH1 0x1 PUSH1 0x1 PUSH1 0xA0 SHL SUB DUP4 DUP2 AND PUSH1 0x1 PUSH1 0x1 PUSH1 0xA0 SHL SUB NOT DUP4 AND DUP2 OR SWAP1 SWAP4 SSTORE PUSH1 0x40 MLOAD SWAP2 AND SWAP2 SWAP1 DUP3 SWAP1 PUSH32 0x8BE0079C531659141344CD1FD0A4F28419497F9722A3DAAFE3B4186F6B6457E0 SWAP1 PUSH1 0x0 SWAP1 LOG3 POP POP JUMP JUMPDEST PUSH2 0x28AD DUP1 PUSH2 0x85 PUSH1 0x0 CODECOPY PUSH1 0x0 RETURN INVALID PUSH1 0x80 PUSH1 0x40 MSTORE PUSH1 0x4 CALLDATASIZE LT PUSH2 0x1E7 JUMPI PUSH1 0x0 CALLDATALOAD PUSH1 0xE0 SHR DUP1 PUSH4 0x9ED9C74D GT PUSH2 0x102 JUMPI DUP1 PUSH4 0xD7785BDB GT PUSH2 0x95 JUMPI DUP1 PUSH4 0xF134AD0A GT PUSH2 0x64 JUMPI DUP1 PUSH4 0xF134AD0A EQ PUSH2 0x61A JUMPI DUP1 PUSH4 0xF2FDE38B EQ PUSH2 0x630 JUMPI DUP1 PUSH4 0xF644B3BB EQ PUSH2 0x650 JUMPI DUP1 PUSH4 0xFD69F3C2 EQ PUSH2 0x6B8 JUMPI PUSH1 0x0 DUP1 REVERT JUMPDEST DUP1 PUSH4 0xD7785BDB EQ PUSH2 0x5A3 JUMPI DUP1 PUSH4 0xDB2E21BC EQ PUSH2 0x5B8 JUMPI DUP1 PUSH4 0xDE9B9C5F EQ PUSH2 0x5CD JUMPI DUP1 PUSH4 0xEB44FDD3 EQ PUSH2 0x5ED JUMPI PUSH1 0x0 DUP1 REVERT JUMPDEST DUP1 PUSH4 0xB1283E77 GT PUSH2 0xD1 JUMPI DUP1 PUSH4 0xB1283E77 EQ PUSH2 0x48B JUMPI DUP1 PUSH4 0xC03FB87C EQ PUSH2 0x4C3 JUMPI DUP1 PUSH4 0xC3B0C7C5 EQ PUSH2 0x572 JUMPI DUP1 PUSH4 0xD0B7830B EQ PUSH2 0x58E JUMPI PUSH1 0x0 DUP1 REVERT JUMPDEST DUP1 PUSH4 0x9ED9C74D EQ PUSH2 0x3FD JUMPI DUP1 PUSH4 0xA95F028A EQ PUSH2 0x410 JUMPI DUP1 PUSH4 0xAE062ACD EQ PUSH2 0x430 JUMPI DUP1 PUSH4 0xAE169A50 EQ PUSH2 0x46B JUMPI PUSH1 0x0 DUP1 REVERT JUMPDEST DUP1 PUSH4 0x57BDE446 GT PUSH2 0x17A JUMPI DUP1 PUSH4 0x8443B233 GT PUSH2 0x149 JUMPI DUP1 PUSH4 0x8443B233 EQ PUSH2 0x379 JUMPI DUP1 PUSH4 0x8DA5CB5B EQ PUSH2 0x3A9 JUMPI DUP1 PUSH4 0x96BD072C EQ PUSH2 0x3D1 JUMPI DUP1 PUSH4 0x9DB491E2 EQ PUSH2 0x3E7 JUMPI PUSH1 0x0 DUP1 REVERT JUMPDEST DUP1 PUSH4 0x57BDE446 EQ PUSH2 0x30F JUMPI DUP1 PUSH4 0x715018A6 EQ PUSH2 0x32F JUMPI DUP1 PUSH4 0x7C16CD9E EQ PUSH2 0x344 JUMPI DUP1 PUSH4 0x83D430CD EQ PUSH2 0x364 JUMPI PUSH1 0x0 DUP1 REVERT JUMPDEST DUP1 PUSH4 0x3381525A GT PUSH2 0x1B6 JUMPI DUP1 PUSH4 0x3381525A EQ PUSH2 0x296 JUMPI DUP1 PUSH4 0x3AD62988 EQ PUSH2 0x2B6 JUMPI DUP1 PUSH4 0x3EB6E623 EQ PUSH2 0x2D6 JUMPI DUP1 PUSH4 0x539AA77F EQ PUSH2 0x2FA JUMPI PUSH1 0x0 DUP1 REVERT JUMPDEST DUP1 PUSH4 0x10EE3F00 EQ PUSH2 0x1F3 JUMPI DUP1 PUSH4 0x126C4166 EQ PUSH2 0x215 JUMPI DUP1 PUSH4 0x136D8883 EQ PUSH2 0x24F JUMPI DUP1 PUSH4 0x1EBBA654 EQ PUSH2 0x28E JUMPI PUSH1 0x0 DUP1 REVERT JUMPDEST CALLDATASIZE PUSH2 0x1EE JUMPI STOP JUMPDEST PUSH1 0x0 DUP1 REVERT JUMPDEST CALLVALUE DUP1 ISZERO PUSH2 0x1FF JUMPI PUSH1 0x0 DUP1 REVERT JUMPDEST POP PUSH2 0x213 PUSH2 0x20E CALLDATASIZE PUSH1 0x4 PUSH2 0x22A3 JUMP JUMPDEST PUSH2 0x6CD JUMP JUMPDEST STOP JUMPDEST CALLVALUE DUP1 ISZERO PUSH2 0x221 JUMPI PUSH1 0x0 DUP1 REVERT JUMPDEST POP PUSH2 0x235 PUSH2 0x230 CALLDATASIZE PUSH1 0x4 PUSH2 0x22CF JUMP JUMPDEST PUSH2 0x78D JUMP JUMPDEST PUSH1 0x40 DUP1 MLOAD SWAP3 DUP4 MSTORE PUSH1 0x20 DUP4 ADD SWAP2 SWAP1 SWAP2 MSTORE ADD JUMPDEST PUSH1 0x40 MLOAD DUP1 SWAP2 SUB SWAP1 RETURN JUMPDEST CALLVALUE DUP1 ISZERO PUSH2 0x25B JUMPI PUSH1 0x0 DUP1 REVERT JUMPDEST POP PUSH1 0x5 SLOAD PUSH1 0x6 SLOAD PUSH1 0x3 SLOAD PUSH1 0x4 SLOAD PUSH1 0x40 DUP1 MLOAD SWAP5 DUP6 MSTORE PUSH1 0x20 DUP6 ADD SWAP4 SWAP1 SWAP4 MSTORE SWAP2 DUP4 ADD MSTORE PUSH1 0x60 DUP3 ADD MSTORE SELFBALANCE PUSH1 0x80 DUP3 ADD MSTORE PUSH1 0xA0 ADD PUSH2 0x246 JUMP JUMPDEST PUSH2 0x213 PUSH2 0x875 JUMP JUMPDEST CALLVALUE DUP1 ISZERO PUSH2 0x2A2 JUMPI PUSH1 0x0 DUP1 REVERT JUMPDEST POP PUSH2 0x213 PUSH2 0x2B1 CALLDATASIZE PUSH1 0x4 PUSH2 0x22CF JUMP JUMPDEST PUSH2 0x919 JUMP JUMPDEST CALLVALUE DUP1 ISZERO PUSH2 0x2C2 JUMPI PUSH1 0x0 DUP1 REVERT JUMPDEST POP PUSH2 0x213 PUSH2 0x2D1 CALLDATASIZE PUSH1 0x4 PUSH2 0x22E8 JUMP JUMPDEST PUSH2 0xAB5 JUMP JUMPDEST CALLVALUE DUP1 ISZERO PUSH2 0x2E2 JUMPI PUSH1 0x0 DUP1 REVERT JUMPDEST POP PUSH2 0x2EC PUSH1 0x5 SLOAD DUP2 JUMP JUMPDEST PUSH1 0x40 MLOAD SWAP1 DUP2 MSTORE PUSH1 0x20 ADD PUSH2 0x246 JUMP JUMPDEST CALLVALUE DUP1 ISZERO PUSH2 0x306 JUMPI PUSH1 0x0 DUP1 REVERT JUMPDEST POP PUSH2 0x2EC PUSH1 0x96 DUP2 JUMP JUMPDEST CALLVALUE DUP1 ISZERO PUSH2 0x31B JUMPI PUSH1 0x0 DUP1 REVERT JUMPDEST POP PUSH2 0x213 PUSH2 0x32A CALLDATASIZE PUSH1 0x4 PUSH2 0x2378 JUMP JUMPDEST PUSH2 0xEBD JUMP JUMPDEST CALLVALUE DUP1 ISZERO PUSH2 0x33B JUMPI PUSH1 0x0 DUP1 REVERT JUMPDEST POP PUSH2 0x213 PUSH2 0x100D JUMP JUMPDEST CALLVALUE DUP1 ISZERO PUSH2 0x350 JUMPI PUSH1 0x0 DUP1 REVERT JUMPDEST POP PUSH2 0x213 PUSH2 0x35F CALLDATASIZE PUSH1 0x4 PUSH2 0x22CF JUMP JUMPDEST PUSH2 0x1021 JUMP JUMPDEST CALLVALUE DUP1 ISZERO PUSH2 0x370 JUMPI PUSH1 0x0 DUP1 REVERT JUMPDEST POP PUSH2 0x2EC PUSH2 0x1153 JUMP JUMPDEST CALLVALUE DUP1 ISZERO PUSH2 0x385 JUMPI PUSH1 0x0 DUP1 REVERT JUMPDEST POP PUSH2 0x399 PUSH2 0x394 CALLDATASIZE PUSH1 0x4 PUSH2 0x22A3 JUMP JUMPDEST PUSH2 0x116A JUMP JUMPDEST PUSH1 0x40 MLOAD SWAP1 ISZERO ISZERO DUP2 MSTORE PUSH1 0x20 ADD PUSH2 0x246 JUMP JUMPDEST CALLVALUE DUP1 ISZERO PUSH2 0x3B5 JUMPI PUSH1 0x0 DUP1 REVERT JUMPDEST POP PUSH1 0x1 SLOAD PUSH1 0x40 MLOAD PUSH1 0x1 PUSH1 0x1 PUSH1 0xA0 SHL SUB SWAP1 SWAP2 AND DUP2 MSTORE PUSH1 0x20 ADD PUSH2 0x246 JUMP JUMPDEST CALLVALUE DUP1 ISZERO PUSH2 0x3DD JUMPI PUSH1 0x0 DUP1 REVERT JUMPDEST POP PUSH2 0x2EC PUSH1 0x3 SLOAD DUP2 JUMP JUMPDEST CALLVALUE DUP1 ISZERO PUSH2 0x3F3 JUMPI PUSH1 0x0 DUP1 REVERT JUMPDEST POP PUSH2 0x2EC PUSH1 0x4 SLOAD DUP2 JUMP JUMPDEST PUSH2 0x213 PUSH2 0x40B CALLDATASIZE PUSH1 0x4 PUSH2 0x2378 JUMP JUMPDEST PUSH2 0x1197 JUMP JUMPDEST CALLVALUE DUP1 ISZERO PUSH2 0x41C JUMPI PUSH1 0x0 DUP1 REVERT JUMPDEST POP PUSH2 0x2EC PUSH2 0x42B CALLDATASIZE PUSH1 0x4 PUSH2 0x22CF JUMP JUMPDEST PUSH2 0x14ED JUMP JUMPDEST CALLVALUE DUP1 ISZERO PUSH2 0x43C JUMPI PUSH1 0x0 DUP1 REVERT JUMPDEST POP PUSH2 0x399 PUSH2 0x44B CALLDATASIZE PUSH1 0x4 PUSH2 0x22A3 JUMP JUMPDEST PUSH1 0x9 PUSH1 0x20 SWAP1 DUP2 MSTORE PUSH1 0x0 SWAP3 DUP4 MSTORE PUSH1 0x40 DUP1 DUP5 KECCAK256 SWAP1 SWAP2 MSTORE SWAP1 DUP3 MSTORE SWAP1 KECCAK256 SLOAD PUSH1 0xFF AND DUP2 JUMP JUMPDEST CALLVALUE DUP1 ISZERO PUSH2 0x477 JUMPI PUSH1 0x0 DUP1 REVERT JUMPDEST POP PUSH2 0x213 PUSH2 0x486 CALLDATASIZE PUSH1 0x4 PUSH2 0x22CF JUMP JUMPDEST PUSH2 0x15AF JUMP JUMPDEST CALLVALUE DUP1 ISZERO PUSH2 0x497 JUMPI PUSH1 0x0 DUP1 REVERT JUMPDEST POP PUSH2 0x4AB PUSH2 0x4A6 CALLDATASIZE PUSH1 0x4 PUSH2 0x22CF JUMP JUMPDEST PUSH2 0x162F JUMP JUMPDEST PUSH1 0x40 MLOAD PUSH2 0x246 SWAP13 SWAP12 SWAP11 SWAP10 SWAP9 SWAP8 SWAP7 SWAP6 SWAP5 SWAP4 SWAP3 SWAP2 SWAP1 PUSH2 0x23F3 JUMP JUMPDEST CALLVALUE DUP1 ISZERO PUSH2 0x4CF JUMPI PUSH1 0x0 DUP1 REVERT JUMPDEST POP PUSH2 0x54C PUSH2 0x4DE CALLDATASIZE PUSH1 0x4 PUSH2 0x22A3 JUMP JUMPDEST PUSH1 0x40 DUP1 MLOAD PUSH1 0x60 DUP1 DUP3 ADD DUP4 MSTORE PUSH1 0x0 DUP1 DUP4 MSTORE PUSH1 0x20 DUP1 DUP5 ADD DUP3 SWAP1 MSTORE SWAP3 DUP5 ADD DUP2 SWAP1 MSTORE SWAP5 DUP6 MSTORE PUSH1 0x8 DUP3 MSTORE DUP3 DUP6 KECCAK256 PUSH1 0x1 PUSH1 0x1 PUSH1 0xA0 SHL SUB SWAP5 SWAP1 SWAP5 AND DUP6 MSTORE SWAP3 DUP2 MSTORE SWAP3 DUP2 SWAP1 KECCAK256 DUP2 MLOAD SWAP3 DUP4 ADD DUP3 MSTORE DUP1 SLOAD DUP4 MSTORE PUSH1 0x1 ADD SLOAD PUSH1 0xFF DUP1 DUP3 AND ISZERO ISZERO SWAP5 DUP5 ADD SWAP5 SWAP1 SWAP5 MSTORE PUSH2 0x100 SWAP1 DIV SWAP1 SWAP3 AND ISZERO ISZERO SWAP2 DUP2 ADD SWAP2 SWAP1 SWAP2 MSTORE SWAP1 JUMP JUMPDEST PUSH1 0x40 DUP1 MLOAD DUP3 MLOAD DUP2 MSTORE PUSH1 0x20 DUP1 DUP5 ADD MLOAD ISZERO ISZERO SWAP1 DUP3 ADD MSTORE SWAP2 DUP2 ADD MLOAD ISZERO ISZERO SWAP1 DUP3 ADD MSTORE PUSH1 0x60 ADD PUSH2 0x246 JUMP JUMPDEST CALLVALUE DUP1 ISZERO PUSH2 0x57E JUMPI PUSH1 0x0 DUP1 REVERT JUMPDEST POP PUSH2 0x2EC PUSH8 0x6F05B59D3B200000 DUP2 JUMP JUMPDEST CALLVALUE DUP1 ISZERO PUSH2 0x59A JUMPI PUSH1 0x0 DUP1 REVERT JUMPDEST POP PUSH2 0x213 PUSH2 0x172B JUMP JUMPDEST CALLVALUE DUP1 ISZERO PUSH2 0x5AF JUMPI PUSH1 0x0 DUP1 REVERT JUMPDEST POP PUSH1 0x3 SLOAD PUSH2 0x2EC JUMP JUMPDEST CALLVALUE DUP1 ISZERO PUSH2 0x5C4 JUMPI PUSH1 0x0 DUP1 REVERT JUMPDEST POP PUSH2 0x213 PUSH2 0x186B JUMP JUMPDEST CALLVALUE DUP1 ISZERO PUSH2 0x5D9 JUMPI PUSH1 0x0 DUP1 REVERT JUMPDEST POP PUSH2 0x213 PUSH2 0x5E8 CALLDATASIZE PUSH1 0x4 PUSH2 0x246A JUMP JUMPDEST PUSH2 0x195E JUMP JUMPDEST CALLVALUE DUP1 ISZERO PUSH2 0x5F9 JUMPI PUSH1 0x0 DUP1 REVERT JUMPDEST POP PUSH2 0x60D PUSH2 0x608 CALLDATASIZE PUSH1 0x4 PUSH2 0x22CF JUMP JUMPDEST PUSH2 0x1C41 JUMP JUMPDEST PUSH1 0x40 MLOAD PUSH2 0x246 SWAP2 SWAP1 PUSH2 0x24E9 JUMP JUMPDEST CALLVALUE DUP1 ISZERO PUSH2 0x626 JUMPI PUSH1 0x0 DUP1 REVERT JUMPDEST POP PUSH2 0x2EC PUSH1 0x6 SLOAD DUP2 JUMP JUMPDEST CALLVALUE DUP1 ISZERO PUSH2 0x63C JUMPI PUSH1 0x0 DUP1 REVERT JUMPDEST POP PUSH2 0x213 PUSH2 0x64B CALLDATASIZE PUSH1 0x4 PUSH2 0x25AC JUMP JUMPDEST PUSH2 0x1DF6 JUMP JUMPDEST CALLVALUE DUP1 ISZERO PUSH2 0x65C JUMPI PUSH1 0x0 DUP1 REVERT JUMPDEST POP PUSH2 0x69B PUSH2 0x66B CALLDATASIZE PUSH1 0x4 PUSH2 0x22A3 JUMP JUMPDEST PUSH1 0x8 PUSH1 0x20 SWAP1 DUP2 MSTORE PUSH1 0x0 SWAP3 DUP4 MSTORE PUSH1 0x40 DUP1 DUP5 KECCAK256 SWAP1 SWAP2 MSTORE SWAP1 DUP3 MSTORE SWAP1 KECCAK256 DUP1 SLOAD PUSH1 0x1 SWAP1 SWAP2 ADD SLOAD PUSH1 0xFF DUP1 DUP3 AND SWAP2 PUSH2 0x100 SWAP1 DIV AND DUP4 JUMP JUMPDEST PUSH1 0x40 DUP1 MLOAD SWAP4 DUP5 MSTORE SWAP2 ISZERO ISZERO PUSH1 0x20 DUP5 ADD MSTORE ISZERO ISZERO SWAP1 DUP3 ADD MSTORE PUSH1 0x60 ADD PUSH2 0x246 JUMP JUMPDEST CALLVALUE DUP1 ISZERO PUSH2 0x6C4 JUMPI PUSH1 0x0 DUP1 REVERT JUMPDEST POP PUSH1 0x2 SLOAD PUSH2 0x2EC JUMP JUMPDEST PUSH2 0x6D5 PUSH2 0x1E6C JUMP JUMPDEST PUSH1 0x0 DUP3 DUP2 MSTORE PUSH1 0x7 PUSH1 0x20 MSTORE PUSH1 0x40 SWAP1 KECCAK256 PUSH1 0x9 DUP2 ADD SLOAD DUP4 SWAP2 SWAP1 PUSH3 0x10000 SWAP1 DIV PUSH1 0xFF AND PUSH2 0x719 JUMPI PUSH1 0x40 MLOAD PUSH3 0x461BCD PUSH1 0xE5 SHL DUP2 MSTORE PUSH1 0x4 ADD PUSH2 0x710 SWAP1 PUSH2 0x25CE JUMP JUMPDEST PUSH1 0x40 MLOAD DUP1 SWAP2 SUB SWAP1 REVERT JUMPDEST PUSH1 0x9 DUP2 ADD SLOAD PUSH1 0xFF AND PUSH2 0x73D JUMPI PUSH1 0x40 MLOAD PUSH3 0x461BCD PUSH1 0xE5 SHL DUP2 MSTORE PUSH1 0x4 ADD PUSH2 0x710 SWAP1 PUSH2 0x25FD JUMP JUMPDEST PUSH2 0x747 DUP5 DUP5 PUSH2 0x1EC5 JUMP JUMPDEST PUSH1 0x40 MLOAD PUSH1 0x1 PUSH1 0x1 PUSH1 0xA0 SHL SUB DUP5 AND SWAP1 DUP6 SWAP1 PUSH32 0xED498030837CB2E17FEF08F16B80D1206257306957B6113FA83C6DA94A881444 SWAP1 PUSH1 0x0 SWAP1 LOG3 POP POP PUSH2 0x789 PUSH1 0x1 PUSH1 0x0 SSTORE JUMP JUMPDEST POP POP JUMP JUMPDEST PUSH1 0x0 DUP2 DUP2 MSTORE PUSH1 0x7 PUSH1 0x20 MSTORE PUSH1 0x40 DUP2 KECCAK256 PUSH1 0x6 DUP2 ADD SLOAD PUSH1 0x5 DUP3 ADD SLOAD DUP4 SWAP3 SWAP2 DUP4 SWAP2 PUSH2 0x7B4 SWAP2 SWAP1 PUSH2 0x2643 JUMP JUMPDEST SWAP1 POP DUP1 PUSH1 0x0 SUB PUSH2 0x7CC JUMPI POP PUSH2 0x4E20 SWAP5 DUP6 SWAP5 POP SWAP3 POP POP POP JUMP JUMPDEST PUSH1 0x0 DUP2 DUP4 PUSH1 0x5 ADD SLOAD PUSH2 0x2710 PUSH2 0x7E1 SWAP2 SWAP1 PUSH2 0x2656 JUMP JUMPDEST PUSH2 0x7EB SWAP2 SWAP1 PUSH2 0x266D JUMP JUMPDEST SWAP1 POP PUSH1 0x0 DUP3 DUP5 PUSH1 0x6 ADD SLOAD PUSH2 0x2710 PUSH2 0x802 SWAP2 SWAP1 PUSH2 0x2656 JUMP JUMPDEST PUSH2 0x80C SWAP2 SWAP1 PUSH2 0x266D JUMP JUMPDEST SWAP1 POP PUSH1 0x0 PUSH2 0x81D PUSH1 0x96 PUSH2 0x2710 PUSH2 0x268F JUMP JUMPDEST SWAP1 POP PUSH2 0x82B DUP4 PUSH2 0x2710 PUSH2 0x2656 JUMP JUMPDEST PUSH2 0x839 DUP3 PUSH4 0x5F5E100 PUSH2 0x2656 JUMP JUMPDEST PUSH2 0x843 SWAP2 SWAP1 PUSH2 0x266D JUMP JUMPDEST SWAP7 POP PUSH2 0x851 DUP3 PUSH2 0x2710 PUSH2 0x2656 JUMP JUMPDEST PUSH2 0x85F DUP3 PUSH4 0x5F5E100 PUSH2 0x2656 JUMP JUMPDEST PUSH2 0x869 SWAP2 SWAP1 PUSH2 0x266D JUMP JUMPDEST SWAP6 POP POP POP POP POP POP SWAP2 POP SWAP2 JUMP JUMPDEST PUSH2 0x87D PUSH2 0x21DB JUMP JUMPDEST PUSH1 0x0 CALLVALUE GT PUSH2 0x8CD JUMPI PUSH1 0x40 MLOAD PUSH3 0x461BCD PUSH1 0xE5 SHL DUP2 MSTORE PUSH1 0x20 PUSH1 0x4 DUP3 ADD MSTORE PUSH1 0x1D PUSH1 0x24 DUP3 ADD MSTORE PUSH32 0x4D7573742073656E64204D4F4E20746F2066756E642072657365727665000000 PUSH1 0x44 DUP3 ADD MSTORE PUSH1 0x64 ADD PUSH2 0x710 JUMP JUMPDEST CALLVALUE PUSH1 0x4 PUSH1 0x0 DUP3 DUP3 SLOAD PUSH2 0x8DF SWAP2 SWAP1 PUSH2 0x2643 JUMP JUMPDEST SWAP1 SWAP2 SSTORE POP POP PUSH1 0x40 MLOAD CALLVALUE DUP2 MSTORE PUSH32 0x1007592A11EEB4AA60E4B25785D069D874A5E0393449DA55070633ECA253D5BA SWAP1 PUSH1 0x20 ADD PUSH1 0x40 MLOAD DUP1 SWAP2 SUB SWAP1 LOG1 JUMP JUMPDEST PUSH2 0x921 PUSH2 0x21DB JUMP JUMPDEST PUSH1 0x0 DUP2 GT PUSH2 0x971 JUMPI PUSH1 0x40 MLOAD PUSH3 0x461BCD PUSH1 0xE5 SHL DUP2 MSTORE PUSH1 0x20 PUSH1 0x4 DUP3 ADD MSTORE PUSH1 0x1D PUSH1 0x24 DUP3 ADD MSTORE PUSH32 0x416D6F756E74206D7573742062652067726561746572207468616E2030000000 PUSH1 0x44 DUP3 ADD MSTORE PUSH1 0x64 ADD PUSH2 0x710 JUMP JUMPDEST PUSH1 0x4 SLOAD DUP2 GT ISZERO PUSH2 0x9C3 JUMPI PUSH1 0x40 MLOAD PUSH3 0x461BCD PUSH1 0xE5 SHL DUP2 MSTORE PUSH1 0x20 PUSH1 0x4 DUP3 ADD MSTORE PUSH1 0x1C PUSH1 0x24 DUP3 ADD MSTORE PUSH32 0x496E73756666696369656E7420726573657276652062616C616E636500000000 PUSH1 0x44 DUP3 ADD MSTORE PUSH1 0x64 ADD PUSH2 0x710 JUMP JUMPDEST DUP1 PUSH1 0x4 PUSH1 0x0 DUP3 DUP3 SLOAD PUSH2 0x9D5 SWAP2 SWAP1 PUSH2 0x268F JUMP JUMPDEST SWAP1 SWAP2 SSTORE POP POP PUSH1 0x1 SLOAD PUSH1 0x40 MLOAD PUSH1 0x0 SWAP2 PUSH1 0x1 PUSH1 0x1 PUSH1 0xA0 SHL SUB AND SWAP1 DUP4 SWAP1 DUP4 DUP2 DUP2 DUP2 DUP6 DUP8 GAS CALL SWAP3 POP POP POP RETURNDATASIZE DUP1 PUSH1 0x0 DUP2 EQ PUSH2 0xA27 JUMPI PUSH1 0x40 MLOAD SWAP2 POP PUSH1 0x1F NOT PUSH1 0x3F RETURNDATASIZE ADD AND DUP3 ADD PUSH1 0x40 MSTORE RETURNDATASIZE DUP3 MSTORE RETURNDATASIZE PUSH1 0x0 PUSH1 0x20 DUP5 ADD RETURNDATACOPY PUSH2 0xA2C JUMP JUMPDEST PUSH1 0x60 SWAP2 POP JUMPDEST POP POP SWAP1 POP DUP1 PUSH2 0xA7D JUMPI PUSH1 0x40 MLOAD PUSH3 0x461BCD PUSH1 0xE5 SHL DUP2 MSTORE PUSH1 0x20 PUSH1 0x4 DUP3 ADD MSTORE PUSH1 0x19 PUSH1 0x24 DUP3 ADD MSTORE PUSH32 0x52657365727665207769746864726177616C206661696C656400000000000000 PUSH1 0x44 DUP3 ADD MSTORE PUSH1 0x64 ADD PUSH2 0x710 JUMP JUMPDEST PUSH1 0x40 MLOAD DUP3 DUP2 MSTORE PUSH32 0xFAE62D177DDCB96191C434D1F832FDCB17F33C6C75E25049E47EE43DD9B8D717 SWAP1 PUSH1 0x20 ADD JUMPDEST PUSH1 0x40 MLOAD DUP1 SWAP2 SUB SWAP1 LOG1 POP POP JUMP JUMPDEST TIMESTAMP DUP5 GT PUSH2 0xB04 JUMPI PUSH1 0x40 MLOAD PUSH3 0x461BCD PUSH1 0xE5 SHL DUP2 MSTORE PUSH1 0x20 PUSH1 0x4 DUP3 ADD DUP2 SWAP1 MSTORE PUSH1 0x24 DUP3 ADD MSTORE PUSH32 0x53746172742074696D65206D75737420626520696E2074686520667574757265 PUSH1 0x44 DUP3 ADD MSTORE PUSH1 0x64 ADD PUSH2 0x710 JUMP JUMPDEST DUP4 DUP4 GT PUSH2 0xB5D JUMPI PUSH1 0x40 MLOAD PUSH3 0x461BCD PUSH1 0xE5 SHL DUP2 MSTORE PUSH1 0x20 PUSH1 0x4 DUP3 ADD MSTORE PUSH1 0x21 PUSH1 0x24 DUP3 ADD MSTORE PUSH32 0x456E642074696D65206D7573742062652061667465722073746172742074696D PUSH1 0x44 DUP3 ADD MSTORE PUSH1 0x65 PUSH1 0xF8 SHL PUSH1 0x64 DUP3 ADD MSTORE PUSH1 0x84 ADD PUSH2 0x710 JUMP JUMPDEST PUSH1 0x0 DUP3 GT PUSH2 0xBAD JUMPI PUSH1 0x40 MLOAD PUSH3 0x461BCD PUSH1 0xE5 SHL DUP2 MSTORE PUSH1 0x20 PUSH1 0x4 DUP3 ADD MSTORE PUSH1 0x1E PUSH1 0x24 DUP3 ADD MSTORE PUSH32 0x4D696E20626574206D7573742062652067726561746572207468616E20300000 PUSH1 0x44 DUP3 ADD MSTORE PUSH1 0x64 ADD PUSH2 0x710 JUMP JUMPDEST DUP2 DUP2 GT PUSH2 0xC08 JUMPI PUSH1 0x40 MLOAD PUSH3 0x461BCD PUSH1 0xE5 SHL DUP2 MSTORE PUSH1 0x20 PUSH1 0x4 DUP3 ADD MSTORE PUSH1 0x24 DUP1 DUP3 ADD MSTORE PUSH32 0x4D617820626574206D7573742062652067726561746572207468616E206D696E PUSH1 0x44 DUP3 ADD MSTORE PUSH4 0x818995D PUSH1 0xE2 SHL PUSH1 0x64 DUP3 ADD MSTORE PUSH1 0x84 ADD PUSH2 0x710 JUMP JUMPDEST DUP5 PUSH2 0xC55 JUMPI PUSH1 0x40 MLOAD PUSH3 0x461BCD PUSH1 0xE5 SHL DUP2 MSTORE PUSH1 0x20 PUSH1 0x4 DUP3 ADD MSTORE PUSH1 0x18 PUSH1 0x24 DUP3 ADD MSTORE PUSH32 0x5175657374696F6E2063616E6E6F7420626520656D7074790000000000000000 PUSH1 0x44 DUP3 ADD MSTORE PUSH1 0x64 ADD PUSH2 0x710 JUMP JUMPDEST PUSH8 0x6F05B59D3B200000 PUSH1 0x4 SLOAD LT ISZERO PUSH2 0xCAF JUMPI PUSH1 0x40 MLOAD PUSH3 0x461BCD PUSH1 0xE5 SHL DUP2 MSTORE PUSH1 0x20 PUSH1 0x4 DUP3 ADD MSTORE PUSH1 0x1F PUSH1 0x24 DUP3 ADD MSTORE PUSH32 0x496E73756666696369656E7420706C6174666F726D206C697175696469747900 PUSH1 0x44 DUP3 ADD MSTORE PUSH1 0x64 ADD PUSH2 0x710 JUMP JUMPDEST PUSH1 0x2 DUP1 SLOAD SWAP1 PUSH1 0x0 PUSH2 0xCBF DUP4 PUSH2 0x26A2 JUMP JUMPDEST SWAP1 SWAP2 SSTORE POP PUSH1 0x0 SWAP1 POP PUSH2 0xCDA PUSH1 0x2 PUSH8 0x6F05B59D3B200000 PUSH2 0x266D JUMP JUMPDEST SWAP1 POP PUSH8 0x6F05B59D3B200000 PUSH1 0x4 PUSH1 0x0 DUP3 DUP3 SLOAD PUSH2 0xCF6 SWAP2 SWAP1 PUSH2 0x268F JUMP JUMPDEST SWAP3 POP POP DUP2 SWAP1 SSTORE POP PUSH1 0x40 MLOAD DUP1 PUSH2 0x180 ADD PUSH1 0x40 MSTORE DUP1 PUSH1 0x2 SLOAD DUP2 MSTORE PUSH1 0x20 ADD DUP7 DUP2 MSTORE PUSH1 0x20 ADD DUP6 DUP2 MSTORE PUSH1 0x20 ADD DUP5 DUP2 MSTORE PUSH1 0x20 ADD DUP4 DUP2 MSTORE PUSH1 0x20 ADD DUP3 DUP2 MSTORE PUSH1 0x20 ADD DUP3 DUP2 MSTORE PUSH1 0x20 ADD CALLER PUSH1 0x1 PUSH1 0x1 PUSH1 0xA0 SHL SUB AND DUP2 MSTORE PUSH1 0x20 ADD DUP9 DUP9 DUP1 DUP1 PUSH1 0x1F ADD PUSH1 0x20 DUP1 SWAP2 DIV MUL PUSH1 0x20 ADD PUSH1 0x40 MLOAD SWAP1 DUP2 ADD PUSH1 0x40 MSTORE DUP1 SWAP4 SWAP3 SWAP2 SWAP1 DUP2 DUP2 MSTORE PUSH1 0x20 ADD DUP4 DUP4 DUP1 DUP3 DUP5 CALLDATACOPY PUSH1 0x0 SWAP3 ADD DUP3 SWAP1 MSTORE POP SWAP4 DUP6 MSTORE POP POP POP PUSH1 0x20 DUP1 DUP4 ADD DUP3 SWAP1 MSTORE PUSH1 0x40 DUP1 DUP5 ADD DUP4 SWAP1 MSTORE PUSH1 0x1 PUSH1 0x60 SWAP5 DUP6 ADD DUP2 SWAP1 MSTORE PUSH1 0x2 DUP1 SLOAD DUP6 MSTORE PUSH1 0x7 DUP1 DUP6 MSTORE SWAP5 DUP4 SWAP1 KECCAK256 DUP8 MLOAD DUP2 SSTORE SWAP4 DUP8 ADD MLOAD SWAP2 DUP5 ADD SWAP2 SWAP1 SWAP2 SSTORE SWAP1 DUP6 ADD MLOAD SWAP1 DUP3 ADD SSTORE SWAP2 DUP4 ADD MLOAD PUSH1 0x3 DUP4 ADD SSTORE PUSH1 0x80 DUP4 ADD MLOAD PUSH1 0x4 DUP4 ADD SSTORE PUSH1 0xA0 DUP4 ADD MLOAD PUSH1 0x5 DUP4 ADD SSTORE PUSH1 0xC0 DUP4 ADD MLOAD PUSH1 0x6 DUP4 ADD SSTORE PUSH1 0xE0 DUP4 ADD MLOAD SWAP1 DUP3 ADD DUP1 SLOAD PUSH1 0x1 PUSH1 0x1 PUSH1 0xA0 SHL SUB NOT AND PUSH1 0x1 PUSH1 0x1 PUSH1 0xA0 SHL SUB SWAP1 SWAP3 AND SWAP2 SWAP1 SWAP2 OR SWAP1 SSTORE PUSH2 0x100 DUP3 ADD MLOAD PUSH1 0x8 DUP3 ADD SWAP1 PUSH2 0xE1D SWAP1 DUP3 PUSH2 0x2753 JUMP JUMPDEST POP PUSH2 0x120 DUP3 ADD MLOAD PUSH1 0x9 SWAP1 SWAP2 ADD DUP1 SLOAD PUSH2 0x140 DUP5 ADD MLOAD PUSH2 0x160 SWAP1 SWAP5 ADD MLOAD ISZERO ISZERO PUSH3 0x10000 MUL PUSH3 0xFF0000 NOT SWAP5 ISZERO ISZERO PUSH2 0x100 MUL PUSH2 0xFF00 NOT SWAP5 ISZERO ISZERO SWAP5 SWAP1 SWAP5 AND PUSH2 0xFFFF NOT SWAP1 SWAP3 AND SWAP2 SWAP1 SWAP2 OR SWAP3 SWAP1 SWAP3 OR SWAP3 SWAP1 SWAP3 AND OR SWAP1 SSTORE PUSH1 0x2 SLOAD PUSH1 0x40 MLOAD CALLER SWAP2 SWAP1 PUSH32 0x6B68A2FC85527405D93824F9EA03022F60F50735F43C2BF600582AF1824F5006 SWAP1 PUSH2 0xEAC SWAP1 DUP12 SWAP1 DUP12 SWAP1 DUP12 SWAP1 DUP12 SWAP1 DUP12 SWAP1 DUP12 SWAP1 PUSH2 0x2813 JUMP JUMPDEST PUSH1 0x40 MLOAD DUP1 SWAP2 SUB SWAP1 LOG3 POP POP POP POP POP POP POP JUMP JUMPDEST PUSH2 0xEC5 PUSH2 0x21DB JUMP JUMPDEST PUSH1 0x0 DUP3 DUP2 MSTORE PUSH1 0x7 PUSH1 0x20 MSTORE PUSH1 0x40 SWAP1 KECCAK256 PUSH1 0x9 DUP2 ADD SLOAD DUP4 SWAP2 SWAP1 PUSH3 0x10000 SWAP1 DIV PUSH1 0xFF AND PUSH2 0xF00 JUMPI PUSH1 0x40 MLOAD PUSH3 0x461BCD PUSH1 0xE5 SHL DUP2 MSTORE PUSH1 0x4 ADD PUSH2 0x710 SWAP1 PUSH2 0x25CE JUMP JUMPDEST DUP1 PUSH1 0x2 ADD SLOAD TIMESTAMP LT ISZERO PUSH2 0xF4B JUMPI PUSH1 0x40 MLOAD PUSH3 0x461BCD PUSH1 0xE5 SHL DUP2 MSTORE PUSH1 0x20 PUSH1 0x4 DUP3 ADD MSTORE PUSH1 0x14 PUSH1 0x24 DUP3 ADD MSTORE PUSH20 0x13585C9AD95D081A185CC81B9BDD08195B991959 PUSH1 0x62 SHL PUSH1 0x44 DUP3 ADD MSTORE PUSH1 0x64 ADD PUSH2 0x710 JUMP JUMPDEST PUSH1 0x0 DUP5 DUP2 MSTORE PUSH1 0x7 PUSH1 0x20 MSTORE PUSH1 0x40 SWAP1 KECCAK256 PUSH1 0x9 DUP2 ADD SLOAD PUSH1 0xFF AND ISZERO PUSH2 0xFAE JUMPI PUSH1 0x40 MLOAD PUSH3 0x461BCD PUSH1 0xE5 SHL DUP2 MSTORE PUSH1 0x20 PUSH1 0x4 DUP3 ADD MSTORE PUSH1 0x17 PUSH1 0x24 DUP3 ADD MSTORE PUSH32 0x4D61726B657420616C7265616479207265736F6C766564000000000000000000 PUSH1 0x44 DUP3 ADD MSTORE PUSH1 0x64 ADD PUSH2 0x710 JUMP JUMPDEST PUSH1 0x9 DUP2 ADD DUP1 SLOAD DUP6 ISZERO ISZERO PUSH2 0x100 MUL PUSH2 0xFFFF NOT SWAP1 SWAP2 AND OR PUSH1 0x1 OR SWAP1 SSTORE PUSH1 0x40 MLOAD DUP6 SWAP1 PUSH32 0x4927FE38919783250023D27E65A3E56B6B5C3E49364E51674A41EF08D62460D9 SWAP1 PUSH2 0xFFE SWAP1 DUP8 ISZERO ISZERO DUP2 MSTORE PUSH1 0x20 ADD SWAP1 JUMP JUMPDEST PUSH1 0x40 MLOAD DUP1 SWAP2 SUB SWAP1 LOG2 POP POP POP POP POP JUMP JUMPDEST PUSH2 0x1015 PUSH2 0x21DB JUMP JUMPDEST PUSH2 0x101F PUSH1 0x0 PUSH2 0x2235 JUMP JUMPDEST JUMP JUMPDEST PUSH2 0x1029 PUSH2 0x21DB JUMP JUMPDEST PUSH1 0x0 DUP2 DUP2 MSTORE PUSH1 0x7 PUSH1 0x20 MSTORE PUSH1 0x40 SWAP1 KECCAK256 PUSH1 0x9 ADD SLOAD DUP2 SWAP1 PUSH3 0x10000 SWAP1 DIV PUSH1 0xFF AND PUSH2 0x1062 JUMPI PUSH1 0x40 MLOAD PUSH3 0x461BCD PUSH1 0xE5 SHL DUP2 MSTORE PUSH1 0x4 ADD PUSH2 0x710 SWAP1 PUSH2 0x25CE JUMP JUMPDEST PUSH1 0x0 DUP3 DUP2 MSTORE PUSH1 0x7 PUSH1 0x20 MSTORE PUSH1 0x40 SWAP1 KECCAK256 PUSH1 0x9 DUP2 ADD SLOAD PUSH1 0xFF AND ISZERO PUSH2 0x10C5 JUMPI PUSH1 0x40 MLOAD PUSH3 0x461BCD PUSH1 0xE5 SHL DUP2 MSTORE PUSH1 0x20 PUSH1 0x4 DUP3 ADD MSTORE PUSH1 0x1D PUSH1 0x24 DUP3 ADD MSTORE PUSH32 0x43616E6E6F742063616E63656C207265736F6C766564206D61726B6574000000 PUSH1 0x44 DUP3 ADD MSTORE PUSH1 0x64 ADD PUSH2 0x710 JUMP JUMPDEST PUSH1 0x0 DUP2 PUSH1 0x6 ADD SLOAD DUP3 PUSH1 0x5 ADD SLOAD PUSH2 0x10DB SWAP2 SWAP1 PUSH2 0x2643 JUMP JUMPDEST SWAP1 POP DUP1 PUSH1 0x4 PUSH1 0x0 DUP3 DUP3 SLOAD PUSH2 0x10EF SWAP2 SWAP1 PUSH2 0x2643 JUMP JUMPDEST SWAP1 SWAP2 SSTORE POP POP PUSH1 0x0 PUSH1 0x5 DUP4 ADD DUP2 SWAP1 SSTORE PUSH1 0x6 DUP4 ADD SSTORE PUSH1 0x9 DUP3 ADD DUP1 SLOAD PUSH1 0xFF NOT AND PUSH1 0x1 OR SWAP1 SSTORE PUSH1 0x40 MLOAD DUP5 SWAP1 PUSH32 0x932BCC53FCF504089C21D39FEF179E3B2510B8C80E97BF91C4B9B845CB952971 SWAP1 PUSH2 0x1145 SWAP1 DUP5 DUP2 MSTORE PUSH1 0x20 ADD SWAP1 JUMP JUMPDEST PUSH1 0x40 MLOAD DUP1 SWAP2 SUB SWAP1 LOG2 POP POP POP POP JUMP JUMPDEST PUSH1 0x0 PUSH1 0x6 SLOAD PUSH1 0x5 SLOAD PUSH2 0x1165 SWAP2 SWAP1 PUSH2 0x268F JUMP JUMPDEST SWAP1 POP SWAP1 JUMP JUMPDEST PUSH1 0x0 DUP3 DUP2 MSTORE PUSH1 0x9 PUSH1 0x20 SWAP1 DUP2 MSTORE PUSH1 0x40 DUP1 DUP4 KECCAK256 PUSH1 0x1 PUSH1 0x1 PUSH1 0xA0 SHL SUB DUP6 AND DUP5 MSTORE SWAP1 SWAP2 MSTORE SWAP1 KECCAK256 SLOAD PUSH1 0xFF AND JUMPDEST SWAP3 SWAP2 POP POP JUMP JUMPDEST PUSH1 0x0 DUP3 DUP2 MSTORE PUSH1 0x7 PUSH1 0x20 MSTORE PUSH1 0x40 SWAP1 KECCAK256 PUSH1 0x9 DUP2 ADD SLOAD DUP4 SWAP2 SWAP1 PUSH3 0x10000 SWAP1 DIV PUSH1 0xFF AND PUSH2 0x11D2 JUMPI PUSH1 0x40 MLOAD PUSH3 0x461BCD PUSH1 0xE5 SHL DUP2 MSTORE PUSH1 0x4 ADD PUSH2 0x710 SWAP1 PUSH2 0x25CE JUMP JUMPDEST PUSH1 0x9 DUP2 ADD SLOAD PUSH1 0xFF AND ISZERO PUSH2 0x121C JUMPI PUSH1 0x40 MLOAD PUSH3 0x461BCD PUSH1 0xE5 SHL DUP2 MSTORE PUSH1 0x20 PUSH1 0x4 DUP3 ADD MSTORE PUSH1 0x12 PUSH1 0x24 DUP3 ADD MSTORE PUSH18 0x13585C9AD95D081A5CC81C995CDBDB1D9959 PUSH1 0x72 SHL PUSH1 0x44 DUP3 ADD MSTORE PUSH1 0x64 ADD PUSH2 0x710 JUMP JUMPDEST DUP1 PUSH1 0x1 ADD SLOAD TIMESTAMP LT PUSH2 0x126F JUMPI PUSH1 0x40 MLOAD PUSH3 0x461BCD PUSH1 0xE5 SHL DUP2 MSTORE PUSH1 0x20 PUSH1 0x4 DUP3 ADD MSTORE PUSH1 0x1E PUSH1 0x24 DUP3 ADD MSTORE PUSH32 0x4D61726B65742062657474696E672070686173652068617320656E6465640000 PUSH1 0x44 DUP3 ADD MSTORE PUSH1 0x64 ADD PUSH2 0x710 JUMP JUMPDEST PUSH1 0x0 DUP5 DUP2 MSTORE PUSH1 0x9 PUSH1 0x20 SWAP1 DUP2 MSTORE PUSH1 0x40 DUP1 DUP4 KECCAK256 CALLER DUP5 MSTORE SWAP1 SWAP2 MSTORE SWAP1 KECCAK256 SLOAD PUSH1 0xFF AND ISZERO PUSH2 0x12E5 JUMPI PUSH1 0x40 MLOAD PUSH3 0x461BCD PUSH1 0xE5 SHL DUP2 MSTORE PUSH1 0x20 PUSH1 0x4 DUP3 ADD MSTORE PUSH1 0x23 PUSH1 0x24 DUP3 ADD MSTORE PUSH32 0x557365722068617320616C726561647920626574206F6E2074686973206D6172 PUSH1 0x44 DUP3 ADD MSTORE PUSH3 0x1AD95D PUSH1 0xEA SHL PUSH1 0x64 DUP3 ADD MSTORE PUSH1 0x84 ADD PUSH2 0x710 JUMP JUMPDEST PUSH1 0x0 DUP5 DUP2 MSTORE PUSH1 0x7 PUSH1 0x20 MSTORE PUSH1 0x40 SWAP1 KECCAK256 PUSH1 0x3 DUP2 ADD SLOAD CALLVALUE LT ISZERO PUSH2 0x1347 JUMPI PUSH1 0x40 MLOAD PUSH3 0x461BCD PUSH1 0xE5 SHL DUP2 MSTORE PUSH1 0x20 PUSH1 0x4 DUP3 ADD MSTORE PUSH1 0x18 PUSH1 0x24 DUP3 ADD MSTORE PUSH32 0x42657420616D6F756E742062656C6F77206D696E696D756D0000000000000000 PUSH1 0x44 DUP3 ADD MSTORE PUSH1 0x64 ADD PUSH2 0x710 JUMP JUMPDEST DUP1 PUSH1 0x4 ADD SLOAD CALLVALUE GT ISZERO PUSH2 0x139B JUMPI PUSH1 0x40 MLOAD PUSH3 0x461BCD PUSH1 0xE5 SHL DUP2 MSTORE PUSH1 0x20 PUSH1 0x4 DUP3 ADD MSTORE PUSH1 0x18 PUSH1 0x24 DUP3 ADD MSTORE PUSH32 0x42657420616D6F756E742061626F7665206D6178696D756D0000000000000000 PUSH1 0x44 DUP3 ADD MSTORE PUSH1 0x64 ADD PUSH2 0x710 JUMP JUMPDEST PUSH1 0x0 PUSH2 0x2710 PUSH2 0x13AB PUSH1 0x96 CALLVALUE PUSH2 0x2656 JUMP JUMPDEST PUSH2 0x13B5 SWAP2 SWAP1 PUSH2 0x266D JUMP JUMPDEST SWAP1 POP PUSH1 0x0 PUSH2 0x13C3 DUP3 CALLVALUE PUSH2 0x268F JUMP JUMPDEST SWAP1 POP DUP2 PUSH1 0x3 PUSH1 0x0 DUP3 DUP3 SLOAD PUSH2 0x13D7 SWAP2 SWAP1 PUSH2 0x2643 JUMP JUMPDEST SWAP3 POP POP DUP2 SWAP1 SSTORE POP DUP2 PUSH1 0x5 PUSH1 0x0 DUP3 DUP3 SLOAD PUSH2 0x13F0 SWAP2 SWAP1 PUSH2 0x2643 JUMP JUMPDEST SWAP1 SWAP2 SSTORE POP POP PUSH1 0x40 DUP1 MLOAD PUSH1 0x60 DUP2 ADD DUP3 MSTORE DUP3 DUP2 MSTORE PUSH1 0x0 PUSH1 0x20 DUP1 DUP4 ADD DUP3 DUP2 MSTORE DUP11 ISZERO DUP1 ISZERO DUP6 DUP8 ADD SWAP1 DUP2 MSTORE DUP14 DUP6 MSTORE PUSH1 0x8 DUP5 MSTORE DUP7 DUP6 KECCAK256 CALLER DUP1 DUP8 MSTORE SWAP1 DUP6 MSTORE DUP8 DUP7 KECCAK256 SWAP7 MLOAD DUP8 SSTORE SWAP3 MLOAD PUSH1 0x1 SWAP7 DUP8 ADD DUP1 SLOAD SWAP3 MLOAD ISZERO ISZERO PUSH2 0x100 MUL PUSH2 0xFF00 NOT SWAP3 ISZERO ISZERO SWAP3 SWAP1 SWAP3 AND PUSH2 0xFFFF NOT SWAP1 SWAP4 AND SWAP3 SWAP1 SWAP3 OR OR SWAP1 SSTORE DUP13 DUP5 MSTORE PUSH1 0x9 DUP4 MSTORE DUP6 DUP5 KECCAK256 SWAP2 DUP5 MSTORE SWAP2 MSTORE SWAP3 SWAP1 KECCAK256 DUP1 SLOAD PUSH1 0xFF NOT AND SWAP1 SWAP2 OR SWAP1 SSTORE PUSH2 0x1498 JUMPI DUP1 DUP4 PUSH1 0x5 ADD PUSH1 0x0 DUP3 DUP3 SLOAD PUSH2 0x148D SWAP2 SWAP1 PUSH2 0x2643 JUMP JUMPDEST SWAP1 SWAP2 SSTORE POP PUSH2 0x14B2 SWAP1 POP JUMP JUMPDEST DUP1 DUP4 PUSH1 0x6 ADD PUSH1 0x0 DUP3 DUP3 SLOAD PUSH2 0x14AC SWAP2 SWAP1 PUSH2 0x2643 JUMP JUMPDEST SWAP1 SWAP2 SSTORE POP POP JUMPDEST PUSH1 0x40 DUP1 MLOAD DUP3 DUP2 MSTORE DUP8 ISZERO ISZERO PUSH1 0x20 DUP3 ADD MSTORE CALLER SWAP2 DUP10 SWAP2 PUSH32 0xB1BD10CF5EA9540F12B9B182707734FD82DEACC56830E2BD316133DEB372BFF4 SWAP2 ADD PUSH2 0xEAC JUMP JUMPDEST PUSH1 0x0 DUP2 DUP2 MSTORE PUSH1 0x7 PUSH1 0x20 MSTORE PUSH1 0x40 DUP2 KECCAK256 PUSH1 0x9 ADD SLOAD DUP3 SWAP1 PUSH3 0x10000 SWAP1 DIV PUSH1 0xFF AND PUSH2 0x1526 JUMPI PUSH1 0x40 MLOAD PUSH3 0x461BCD PUSH1 0xE5 SHL DUP2 MSTORE PUSH1 0x4 ADD PUSH2 0x710 SWAP1 PUSH2 0x25CE JUMP JUMPDEST PUSH1 0x0 DUP4 DUP2 MSTORE PUSH1 0x7 PUSH1 0x20 MSTORE PUSH1 0x40 DUP2 KECCAK256 SWAP1 PUSH2 0x1548 PUSH1 0x2 PUSH8 0x6F05B59D3B200000 PUSH2 0x266D JUMP JUMPDEST SWAP1 POP PUSH1 0x0 DUP2 DUP4 PUSH1 0x5 ADD SLOAD LT ISZERO PUSH2 0x155F JUMPI PUSH1 0x0 PUSH2 0x156F JUMP JUMPDEST DUP2 DUP4 PUSH1 0x5 ADD SLOAD PUSH2 0x156F SWAP2 SWAP1 PUSH2 0x268F JUMP JUMPDEST SWAP1 POP PUSH1 0x0 DUP3 DUP5 PUSH1 0x6 ADD SLOAD LT ISZERO PUSH2 0x1586 JUMPI PUSH1 0x0 PUSH2 0x1596 JUMP JUMPDEST DUP3 DUP5 PUSH1 0x6 ADD SLOAD PUSH2 0x1596 SWAP2 SWAP1 PUSH2 0x268F JUMP JUMPDEST SWAP1 POP PUSH2 0x15A2 DUP2 DUP4 PUSH2 0x2643 JUMP JUMPDEST SWAP6 POP POP POP POP POP JUMPDEST POP SWAP2 SWAP1 POP JUMP JUMPDEST PUSH2 0x15B7 PUSH2 0x1E6C JUMP JUMPDEST PUSH1 0x0 DUP2 DUP2 MSTORE PUSH1 0x7 PUSH1 0x20 MSTORE PUSH1 0x40 SWAP1 KECCAK256 PUSH1 0x9 DUP2 ADD SLOAD DUP3 SWAP2 SWAP1 PUSH3 0x10000 SWAP1 DIV PUSH1 0xFF AND PUSH2 0x15F2 JUMPI PUSH1 0x40 MLOAD PUSH3 0x461BCD PUSH1 0xE5 SHL DUP2 MSTORE PUSH1 0x4 ADD PUSH2 0x710 SWAP1 PUSH2 0x25CE JUMP JUMPDEST PUSH1 0x9 DUP2 ADD SLOAD PUSH1 0xFF AND PUSH2 0x1616 JUMPI PUSH1 0x40 MLOAD PUSH3 0x461BCD PUSH1 0xE5 SHL DUP2 MSTORE PUSH1 0x4 ADD PUSH2 0x710 SWAP1 PUSH2 0x25FD JUMP JUMPDEST PUSH2 0x1620 DUP4 CALLER PUSH2 0x1EC5 JUMP JUMPDEST POP POP PUSH2 0x162C PUSH1 0x1 PUSH1 0x0 SSTORE JUMP JUMPDEST POP JUMP JUMPDEST PUSH1 0x7 PUSH1 0x20 DUP2 SWAP1 MSTORE PUSH1 0x0 SWAP2 DUP3 MSTORE PUSH1 0x40 SWAP1 SWAP2 KECCAK256 DUP1 SLOAD PUSH1 0x1 DUP3 ADD SLOAD PUSH1 0x2 DUP4 ADD SLOAD PUSH1 0x3 DUP5 ADD SLOAD PUSH1 0x4 DUP6 ADD SLOAD PUSH1 0x5 DUP7 ADD SLOAD PUSH1 0x6 DUP8 ADD SLOAD SWAP8 DUP8 ADD SLOAD PUSH1 0x8 DUP9 ADD DUP1 SLOAD SWAP8 SWAP10 SWAP7 SWAP9 SWAP6 SWAP8 SWAP5 SWAP7 SWAP4 SWAP6 SWAP3 SWAP5 PUSH1 0x1 PUSH1 0x1 PUSH1 0xA0 SHL SUB SWAP1 SWAP3 AND SWAP3 SWAP2 PUSH2 0x168C SWAP1 PUSH2 0x26D1 JUMP JUMPDEST DUP1 PUSH1 0x1F ADD PUSH1 0x20 DUP1 SWAP2 DIV MUL PUSH1 0x20 ADD PUSH1 0x40 MLOAD SWAP1 DUP2 ADD PUSH1 0x40 MSTORE DUP1 SWAP3 SWAP2 SWAP1 DUP2 DUP2 MSTORE PUSH1 0x20 ADD DUP3 DUP1 SLOAD PUSH2 0x16B8 SWAP1 PUSH2 0x26D1 JUMP JUMPDEST DUP1 ISZERO PUSH2 0x1705 JUMPI DUP1 PUSH1 0x1F LT PUSH2 0x16DA JUMPI PUSH2 0x100 DUP1 DUP4 SLOAD DIV MUL DUP4 MSTORE SWAP2 PUSH1 0x20 ADD SWAP2 PUSH2 0x1705 JUMP JUMPDEST DUP3 ADD SWAP2 SWAP1 PUSH1 0x0 MSTORE PUSH1 0x20 PUSH1 0x0 KECCAK256 SWAP1 JUMPDEST DUP2 SLOAD DUP2 MSTORE SWAP1 PUSH1 0x1 ADD SWAP1 PUSH1 0x20 ADD DUP1 DUP4 GT PUSH2 0x16E8 JUMPI DUP3 SWAP1 SUB PUSH1 0x1F AND DUP3 ADD SWAP2 JUMPDEST POP POP POP PUSH1 0x9 SWAP1 SWAP4 ADD SLOAD SWAP2 SWAP3 POP POP PUSH1 0xFF DUP1 DUP3 AND SWAP2 PUSH2 0x100 DUP2 DIV DUP3 AND SWAP2 PUSH3 0x10000 SWAP1 SWAP2 DIV AND DUP13 JUMP JUMPDEST PUSH2 0x1733 PUSH2 0x21DB JUMP JUMPDEST PUSH1 0x3 SLOAD DUP1 PUSH2 0x1779 JUMPI PUSH1 0x40 MLOAD PUSH3 0x461BCD PUSH1 0xE5 SHL DUP2 MSTORE PUSH1 0x20 PUSH1 0x4 DUP3 ADD MSTORE PUSH1 0x13 PUSH1 0x24 DUP3 ADD MSTORE PUSH19 0x4E6F206665657320746F207769746864726177 PUSH1 0x68 SHL PUSH1 0x44 DUP3 ADD MSTORE PUSH1 0x64 ADD PUSH2 0x710 JUMP JUMPDEST PUSH1 0x0 PUSH1 0x3 DUP2 SWAP1 SSTORE POP DUP1 PUSH1 0x6 PUSH1 0x0 DUP3 DUP3 SLOAD PUSH2 0x1793 SWAP2 SWAP1 PUSH2 0x2643 JUMP JUMPDEST SWAP1 SWAP2 SSTORE POP POP PUSH1 0x1 SLOAD PUSH1 0x40 MLOAD PUSH1 0x0 SWAP2 PUSH1 0x1 PUSH1 0x1 PUSH1 0xA0 SHL SUB AND SWAP1 DUP4 SWAP1 DUP4 DUP2 DUP2 DUP2 DUP6 DUP8 GAS CALL SWAP3 POP POP POP RETURNDATASIZE DUP1 PUSH1 0x0 DUP2 EQ PUSH2 0x17E5 JUMPI PUSH1 0x40 MLOAD SWAP2 POP PUSH1 0x1F NOT PUSH1 0x3F RETURNDATASIZE ADD AND DUP3 ADD PUSH1 0x40 MSTORE RETURNDATASIZE DUP3 MSTORE RETURNDATASIZE PUSH1 0x0 PUSH1 0x20 DUP5 ADD RETURNDATACOPY PUSH2 0x17EA JUMP JUMPDEST PUSH1 0x60 SWAP2 POP JUMPDEST POP POP SWAP1 POP DUP1 PUSH2 0x183B JUMPI PUSH1 0x40 MLOAD PUSH3 0x461BCD PUSH1 0xE5 SHL DUP2 MSTORE PUSH1 0x20 PUSH1 0x4 DUP3 ADD MSTORE PUSH1 0x1C PUSH1 0x24 DUP3 ADD MSTORE PUSH32 0x506C6174666F726D20666565207472616E73666572206661696C656400000000 PUSH1 0x44 DUP3 ADD MSTORE PUSH1 0x64 ADD PUSH2 0x710 JUMP JUMPDEST PUSH1 0x40 MLOAD DUP3 DUP2 MSTORE PUSH32 0x9870C8023BAA016AC002DDFA7CDAD341155ACDDDDEE3032C07D4BAA4947AE643 SWAP1 PUSH1 0x20 ADD PUSH2 0xAA9 JUMP JUMPDEST PUSH2 0x1873 PUSH2 0x21DB JUMP JUMPDEST SELFBALANCE DUP1 PUSH2 0x18B8 JUMPI PUSH1 0x40 MLOAD PUSH3 0x461BCD PUSH1 0xE5 SHL DUP2 MSTORE PUSH1 0x20 PUSH1 0x4 DUP3 ADD MSTORE PUSH1 0x14 PUSH1 0x24 DUP3 ADD MSTORE PUSH20 0x4E6F2066756E647320746F207769746864726177 PUSH1 0x60 SHL PUSH1 0x44 DUP3 ADD MSTORE PUSH1 0x64 ADD PUSH2 0x710 JUMP JUMPDEST PUSH1 0x0 PUSH2 0x18CC PUSH1 0x1 SLOAD PUSH1 0x1 PUSH1 0x1 PUSH1 0xA0 SHL SUB AND SWAP1 JUMP JUMPDEST PUSH1 0x1 PUSH1 0x1 PUSH1 0xA0 SHL SUB AND DUP3 PUSH1 0x40 MLOAD PUSH1 0x0 PUSH1 0x40 MLOAD DUP1 DUP4 SUB DUP2 DUP6 DUP8 GAS CALL SWAP3 POP POP POP RETURNDATASIZE DUP1 PUSH1 0x0 DUP2 EQ PUSH2 0x1916 JUMPI PUSH1 0x40 MLOAD SWAP2 POP PUSH1 0x1F NOT PUSH1 0x3F RETURNDATASIZE ADD AND DUP3 ADD PUSH1 0x40 MSTORE RETURNDATASIZE DUP3 MSTORE RETURNDATASIZE PUSH1 0x0 PUSH1 0x20 DUP5 ADD RETURNDATACOPY PUSH2 0x191B JUMP JUMPDEST PUSH1 0x60 SWAP2 POP JUMPDEST POP POP SWAP1 POP DUP1 PUSH2 0x789 JUMPI PUSH1 0x40 MLOAD PUSH3 0x461BCD PUSH1 0xE5 SHL DUP2 MSTORE PUSH1 0x20 PUSH1 0x4 DUP3 ADD MSTORE PUSH1 0xF PUSH1 0x24 DUP3 ADD MSTORE PUSH15 0x151C985B9CD9995C8819985A5B1959 PUSH1 0x8A SHL PUSH1 0x44 DUP3 ADD MSTORE PUSH1 0x64 ADD PUSH2 0x710 JUMP JUMPDEST PUSH2 0x1966 PUSH2 0x1E6C JUMP JUMPDEST PUSH1 0x0 DUP4 DUP2 MSTORE PUSH1 0x7 PUSH1 0x20 MSTORE PUSH1 0x40 SWAP1 KECCAK256 PUSH1 0x9 DUP2 ADD SLOAD DUP5 SWAP2 SWAP1 PUSH3 0x10000 SWAP1 DIV PUSH1 0xFF AND PUSH2 0x19A1 JUMPI PUSH1 0x40 MLOAD PUSH3 0x461BCD PUSH1 0xE5 SHL DUP2 MSTORE PUSH1 0x4 ADD PUSH2 0x710 SWAP1 PUSH2 0x25CE JUMP JUMPDEST PUSH1 0x9 DUP2 ADD SLOAD PUSH1 0xFF AND PUSH2 0x19C5 JUMPI PUSH1 0x40 MLOAD PUSH3 0x461BCD PUSH1 0xE5 SHL DUP2 MSTORE PUSH1 0x4 ADD PUSH2 0x710 SWAP1 PUSH2 0x25FD JUMP JUMPDEST PUSH1 0x0 DUP6 DUP2 MSTORE PUSH1 0x7 PUSH1 0x20 MSTORE PUSH1 0x40 DUP2 KECCAK256 PUSH1 0x6 DUP2 ADD SLOAD PUSH1 0x5 DUP3 ADD SLOAD SWAP2 SWAP3 SWAP2 PUSH2 0x19EA SWAP2 SWAP1 PUSH2 0x2643 JUMP JUMPDEST PUSH1 0x9 DUP4 ADD SLOAD SWAP1 SWAP2 POP PUSH1 0x0 SWAP1 PUSH2 0x100 SWAP1 DIV PUSH1 0xFF AND PUSH2 0x1A0B JUMPI DUP3 PUSH1 0x6 ADD SLOAD PUSH2 0x1A11 JUMP JUMPDEST DUP3 PUSH1 0x5 ADD SLOAD JUMPDEST SWAP1 POP DUP1 PUSH1 0x0 SUB PUSH2 0x1A23 JUMPI POP POP POP PUSH2 0x1C30 JUMP JUMPDEST PUSH1 0x0 JUMPDEST DUP7 DUP2 LT ISZERO PUSH2 0x1C2B JUMPI PUSH1 0x0 DUP9 DUP9 DUP4 DUP2 DUP2 LT PUSH2 0x1A42 JUMPI PUSH2 0x1A42 PUSH2 0x2861 JUMP JUMPDEST SWAP1 POP PUSH1 0x20 MUL ADD PUSH1 0x20 DUP2 ADD SWAP1 PUSH2 0x1A57 SWAP2 SWAP1 PUSH2 0x25AC JUMP JUMPDEST PUSH1 0x0 DUP12 DUP2 MSTORE PUSH1 0x8 PUSH1 0x20 SWAP1 DUP2 MSTORE PUSH1 0x40 DUP1 DUP4 KECCAK256 PUSH1 0x1 PUSH1 0x1 PUSH1 0xA0 SHL SUB DUP6 AND DUP1 DUP6 MSTORE SWAP1 DUP4 MSTORE DUP2 DUP5 KECCAK256 DUP16 DUP6 MSTORE PUSH1 0x9 DUP5 MSTORE DUP3 DUP6 KECCAK256 SWAP2 DUP6 MSTORE SWAP3 MSTORE SWAP1 SWAP2 KECCAK256 SLOAD SWAP2 SWAP3 POP SWAP1 PUSH1 0xFF AND DUP1 ISZERO PUSH2 0x1AA6 JUMPI POP PUSH1 0x1 DUP2 ADD SLOAD PUSH1 0xFF AND ISZERO JUMPDEST DUP1 ISZERO PUSH2 0x1ACE JUMPI POP PUSH1 0x9 DUP7 ADD SLOAD PUSH1 0x1 DUP3 ADD SLOAD PUSH2 0x100 SWAP2 DUP3 SWAP1 DIV PUSH1 0xFF SWAP1 DUP2 AND ISZERO ISZERO SWAP3 SWAP1 SWAP2 DIV AND ISZERO ISZERO EQ JUMPDEST DUP1 ISZERO PUSH2 0x1ADA JUMPI POP DUP1 SLOAD ISZERO ISZERO JUMPDEST ISZERO PUSH2 0x1C21 JUMPI PUSH1 0x0 DUP5 DUP7 DUP4 PUSH1 0x0 ADD SLOAD PUSH2 0x1AF2 SWAP2 SWAP1 PUSH2 0x2656 JUMP JUMPDEST PUSH2 0x1AFC SWAP2 SWAP1 PUSH2 0x266D JUMP JUMPDEST SWAP1 POP PUSH1 0x0 PUSH2 0x2710 PUSH2 0x1B0E PUSH1 0x96 DUP5 PUSH2 0x2656 JUMP JUMPDEST PUSH2 0x1B18 SWAP2 SWAP1 PUSH2 0x266D JUMP JUMPDEST SWAP1 POP PUSH1 0x0 PUSH2 0x1B26 DUP3 DUP5 PUSH2 0x268F JUMP JUMPDEST PUSH1 0x1 DUP6 DUP2 ADD DUP1 SLOAD PUSH1 0xFF NOT AND SWAP1 SWAP2 OR SWAP1 SSTORE PUSH1 0x3 DUP1 SLOAD SWAP2 SWAP3 POP DUP4 SWAP2 PUSH1 0x0 SWAP1 PUSH2 0x1B4D SWAP1 DUP5 SWAP1 PUSH2 0x2643 JUMP JUMPDEST SWAP1 SWAP2 SSTORE POP POP PUSH1 0x40 MLOAD PUSH1 0x0 SWAP1 PUSH1 0x1 PUSH1 0x1 PUSH1 0xA0 SHL SUB DUP8 AND SWAP1 DUP4 SWAP1 DUP4 DUP2 DUP2 DUP2 DUP6 DUP8 GAS CALL SWAP3 POP POP POP RETURNDATASIZE DUP1 PUSH1 0x0 DUP2 EQ PUSH2 0x1B9D JUMPI PUSH1 0x40 MLOAD SWAP2 POP PUSH1 0x1F NOT PUSH1 0x3F RETURNDATASIZE ADD AND DUP3 ADD PUSH1 0x40 MSTORE RETURNDATASIZE DUP3 MSTORE RETURNDATASIZE PUSH1 0x0 PUSH1 0x20 DUP5 ADD RETURNDATACOPY PUSH2 0x1BA2 JUMP JUMPDEST PUSH1 0x60 SWAP2 POP JUMPDEST POP POP SWAP1 POP DUP1 ISZERO PUSH2 0x1BF5 JUMPI DUP6 PUSH1 0x1 PUSH1 0x1 PUSH1 0xA0 SHL SUB AND DUP16 PUSH32 0x24B5EFA61DD1CFC659205A97FB8ED868F3CB8C81922BAB2B96423E5DE1DE2CB7 DUP5 PUSH1 0x40 MLOAD PUSH2 0x1BE8 SWAP2 DUP2 MSTORE PUSH1 0x20 ADD SWAP1 JUMP JUMPDEST PUSH1 0x40 MLOAD DUP1 SWAP2 SUB SWAP1 LOG3 PUSH2 0x1C1C JUMP JUMPDEST PUSH1 0x1 DUP6 ADD DUP1 SLOAD PUSH1 0xFF NOT AND SWAP1 SSTORE PUSH1 0x3 DUP1 SLOAD DUP5 SWAP2 SWAP1 PUSH1 0x0 SWAP1 PUSH2 0x1C16 SWAP1 DUP5 SWAP1 PUSH2 0x268F JUMP JUMPDEST SWAP1 SWAP2 SSTORE POP POP JUMPDEST POP POP POP POP JUMPDEST POP POP PUSH1 0x1 ADD PUSH2 0x1A26 JUMP JUMPDEST POP POP POP POP JUMPDEST POP POP PUSH2 0x1C3C PUSH1 0x1 PUSH1 0x0 SSTORE JUMP JUMPDEST POP POP POP JUMP JUMPDEST PUSH2 0x1CB4 PUSH1 0x40 MLOAD DUP1 PUSH2 0x180 ADD PUSH1 0x40 MSTORE DUP1 PUSH1 0x0 DUP2 MSTORE PUSH1 0x20 ADD PUSH1 0x0 DUP2 MSTORE PUSH1 0x20 ADD PUSH1 0x0 DUP2 MSTORE PUSH1 0x20 ADD PUSH1 0x0 DUP2 MSTORE PUSH1 0x20 ADD PUSH1 0x0 DUP2 MSTORE PUSH1 0x20 ADD PUSH1 0x0 DUP2 MSTORE PUSH1 0x20 ADD PUSH1 0x0 DUP2 MSTORE PUSH1 0x20 ADD PUSH1 0x0 PUSH1 0x1 PUSH1 0x1 PUSH1 0xA0 SHL SUB AND DUP2 MSTORE PUSH1 0x20 ADD PUSH1 0x60 DUP2 MSTORE PUSH1 0x20 ADD PUSH1 0x0 ISZERO ISZERO DUP2 MSTORE PUSH1 0x20 ADD PUSH1 0x0 ISZERO ISZERO DUP2 MSTORE PUSH1 0x20 ADD PUSH1 0x0 ISZERO ISZERO DUP2 MSTORE POP SWAP1 JUMP JUMPDEST PUSH1 0x0 DUP3 DUP2 MSTORE PUSH1 0x7 PUSH1 0x20 DUP2 DUP2 MSTORE PUSH1 0x40 SWAP3 DUP4 SWAP1 KECCAK256 DUP4 MLOAD PUSH2 0x180 DUP2 ADD DUP6 MSTORE DUP2 SLOAD DUP2 MSTORE PUSH1 0x1 DUP3 ADD SLOAD SWAP3 DUP2 ADD SWAP3 SWAP1 SWAP3 MSTORE PUSH1 0x2 DUP2 ADD SLOAD SWAP4 DUP3 ADD SWAP4 SWAP1 SWAP4 MSTORE PUSH1 0x3 DUP4 ADD SLOAD PUSH1 0x60 DUP3 ADD MSTORE PUSH1 0x4 DUP4 ADD SLOAD PUSH1 0x80 DUP3 ADD MSTORE PUSH1 0x5 DUP4 ADD SLOAD PUSH1 0xA0 DUP3 ADD MSTORE PUSH1 0x6 DUP4 ADD SLOAD PUSH1 0xC0 DUP3 ADD MSTORE SWAP1 DUP3 ADD SLOAD PUSH1 0x1 PUSH1 0x1 PUSH1 0xA0 SHL SUB AND PUSH1 0xE0 DUP3 ADD MSTORE PUSH1 0x8 DUP3 ADD DUP1 SLOAD SWAP2 SWAP3 SWAP2 PUSH2 0x100 DUP5 ADD SWAP2 SWAP1 PUSH2 0x1D3E SWAP1 PUSH2 0x26D1 JUMP JUMPDEST DUP1 PUSH1 0x1F ADD PUSH1 0x20 DUP1 SWAP2 DIV MUL PUSH1 0x20 ADD PUSH1 0x40 MLOAD SWAP1 DUP2 ADD PUSH1 0x40 MSTORE DUP1 SWAP3 SWAP2 SWAP1 DUP2 DUP2 MSTORE PUSH1 0x20 ADD DUP3 DUP1 SLOAD PUSH2 0x1D6A SWAP1 PUSH2 0x26D1 JUMP JUMPDEST DUP1 ISZERO PUSH2 0x1DB7 JUMPI DUP1 PUSH1 0x1F LT PUSH2 0x1D8C JUMPI PUSH2 0x100 DUP1 DUP4 SLOAD DIV MUL DUP4 MSTORE SWAP2 PUSH1 0x20 ADD SWAP2 PUSH2 0x1DB7 JUMP JUMPDEST DUP3 ADD SWAP2 SWAP1 PUSH1 0x0 MSTORE PUSH1 0x20 PUSH1 0x0 KECCAK256 SWAP1 JUMPDEST DUP2 SLOAD DUP2 MSTORE SWAP1 PUSH1 0x1 ADD SWAP1 PUSH1 0x20 ADD DUP1 DUP4 GT PUSH2 0x1D9A JUMPI DUP3 SWAP1 SUB PUSH1 0x1F AND DUP3 ADD SWAP2 JUMPDEST POP POP POP SWAP2 DUP4 MSTORE POP POP PUSH1 0x9 SWAP2 SWAP1 SWAP2 ADD SLOAD PUSH1 0xFF DUP1 DUP3 AND ISZERO ISZERO PUSH1 0x20 DUP5 ADD MSTORE PUSH2 0x100 DUP3 DIV DUP2 AND ISZERO ISZERO PUSH1 0x40 DUP5 ADD MSTORE PUSH3 0x10000 SWAP1 SWAP2 DIV AND ISZERO ISZERO PUSH1 0x60 SWAP1 SWAP2 ADD MSTORE SWAP3 SWAP2 POP POP JUMP JUMPDEST PUSH2 0x1DFE PUSH2 0x21DB JUMP JUMPDEST PUSH1 0x1 PUSH1 0x1 PUSH1 0xA0 SHL SUB DUP2 AND PUSH2 0x1E63 JUMPI PUSH1 0x40 MLOAD PUSH3 0x461BCD PUSH1 0xE5 SHL DUP2 MSTORE PUSH1 0x20 PUSH1 0x4 DUP3 ADD MSTORE PUSH1 0x26 PUSH1 0x24 DUP3 ADD MSTORE PUSH32 0x4F776E61626C653A206E6577206F776E657220697320746865207A65726F2061 PUSH1 0x44 DUP3 ADD MSTORE PUSH6 0x646472657373 PUSH1 0xD0 SHL PUSH1 0x64 DUP3 ADD MSTORE PUSH1 0x84 ADD PUSH2 0x710 JUMP JUMPDEST PUSH2 0x162C DUP2 PUSH2 0x2235 JUMP JUMPDEST PUSH1 0x2 PUSH1 0x0 SLOAD SUB PUSH2 0x1EBE JUMPI PUSH1 0x40 MLOAD PUSH3 0x461BCD PUSH1 0xE5 SHL DUP2 MSTORE PUSH1 0x20 PUSH1 0x4 DUP3 ADD MSTORE PUSH1 0x1F PUSH1 0x24 DUP3 ADD MSTORE PUSH32 0x5265656E7472616E637947756172643A207265656E7472616E742063616C6C00 PUSH1 0x44 DUP3 ADD MSTORE PUSH1 0x64 ADD PUSH2 0x710 JUMP JUMPDEST PUSH1 0x2 PUSH1 0x0 SSTORE JUMP JUMPDEST PUSH1 0x0 DUP3 DUP2 MSTORE PUSH1 0x8 PUSH1 0x20 SWAP1 DUP2 MSTORE PUSH1 0x40 DUP1 DUP4 KECCAK256 PUSH1 0x1 PUSH1 0x1 PUSH1 0xA0 SHL SUB DUP6 AND DUP1 DUP6 MSTORE SWAP1 DUP4 MSTORE DUP2 DUP5 KECCAK256 DUP7 DUP6 MSTORE PUSH1 0x7 DUP5 MSTORE DUP3 DUP6 KECCAK256 PUSH1 0x9 DUP6 MSTORE DUP4 DUP7 KECCAK256 SWAP3 DUP7 MSTORE SWAP2 SWAP1 SWAP4 MSTORE SWAP3 KECCAK256 SLOAD SWAP1 SWAP2 SWAP1 PUSH1 0xFF AND PUSH2 0x1F45 JUMPI PUSH1 0x40 MLOAD PUSH3 0x461BCD PUSH1 0xE5 SHL DUP2 MSTORE PUSH1 0x20 PUSH1 0x4 DUP3 ADD MSTORE PUSH1 0xC PUSH1 0x24 DUP3 ADD MSTORE PUSH12 0x139BC818995D08199BDD5B99 PUSH1 0xA2 SHL PUSH1 0x44 DUP3 ADD MSTORE PUSH1 0x64 ADD PUSH2 0x710 JUMP JUMPDEST PUSH1 0x1 DUP3 ADD SLOAD PUSH1 0xFF AND ISZERO PUSH2 0x1F8C JUMPI PUSH1 0x40 MLOAD PUSH3 0x461BCD PUSH1 0xE5 SHL DUP2 MSTORE PUSH1 0x20 PUSH1 0x4 DUP3 ADD MSTORE PUSH1 0xF PUSH1 0x24 DUP3 ADD MSTORE PUSH15 0x105B1C9958591E4818DB185A5B5959 PUSH1 0x8A SHL PUSH1 0x44 DUP3 ADD MSTORE PUSH1 0x64 ADD PUSH2 0x710 JUMP JUMPDEST PUSH1 0x9 DUP2 ADD SLOAD PUSH1 0x1 DUP4 ADD SLOAD PUSH2 0x100 SWAP2 DUP3 SWAP1 DIV PUSH1 0xFF SWAP1 DUP2 AND ISZERO ISZERO SWAP3 SWAP1 SWAP2 DIV AND ISZERO ISZERO EQ PUSH2 0x1FEB JUMPI PUSH1 0x40 MLOAD PUSH3 0x461BCD PUSH1 0xE5 SHL DUP2 MSTORE PUSH1 0x20 PUSH1 0x4 DUP3 ADD MSTORE PUSH1 0x10 PUSH1 0x24 DUP3 ADD MSTORE PUSH16 0x4E6F742077696E6E696E672073696465 PUSH1 0x80 SHL PUSH1 0x44 DUP3 ADD MSTORE PUSH1 0x64 ADD PUSH2 0x710 JUMP JUMPDEST PUSH1 0x0 DUP2 PUSH1 0x6 ADD SLOAD DUP3 PUSH1 0x5 ADD SLOAD PUSH2 0x2001 SWAP2 SWAP1 PUSH2 0x2643 JUMP JUMPDEST PUSH1 0x9 DUP4 ADD SLOAD SWAP1 SWAP2 POP PUSH1 0x0 SWAP1 PUSH2 0x100 SWAP1 DIV PUSH1 0xFF AND PUSH2 0x2022 JUMPI DUP3 PUSH1 0x6 ADD SLOAD PUSH2 0x2028 JUMP JUMPDEST DUP3 PUSH1 0x5 ADD SLOAD JUMPDEST SWAP1 POP PUSH1 0x0 DUP2 GT PUSH2 0x206F JUMPI PUSH1 0x40 MLOAD PUSH3 0x461BCD PUSH1 0xE5 SHL DUP2 MSTORE PUSH1 0x20 PUSH1 0x4 DUP3 ADD MSTORE PUSH1 0x12 PUSH1 0x24 DUP3 ADD MSTORE PUSH18 0x57696E6E696E6720706F6F6C20656D707479 PUSH1 0x70 SHL PUSH1 0x44 DUP3 ADD MSTORE PUSH1 0x64 ADD PUSH2 0x710 JUMP JUMPDEST PUSH1 0x0 DUP2 DUP4 DUP7 PUSH1 0x0 ADD SLOAD PUSH2 0x2082 SWAP2 SWAP1 PUSH2 0x2656 JUMP JUMPDEST PUSH2 0x208C SWAP2 SWAP1 PUSH2 0x266D JUMP JUMPDEST SWAP1 POP PUSH1 0x0 PUSH2 0x2710 PUSH2 0x209E PUSH1 0x96 DUP5 PUSH2 0x2656 JUMP JUMPDEST PUSH2 0x20A8 SWAP2 SWAP1 PUSH2 0x266D JUMP JUMPDEST SWAP1 POP PUSH1 0x0 PUSH2 0x20B6 DUP3 DUP5 PUSH2 0x268F JUMP JUMPDEST SWAP1 POP DUP2 PUSH1 0x3 PUSH1 0x0 DUP3 DUP3 SLOAD PUSH2 0x20CA SWAP2 SWAP1 PUSH2 0x2643 JUMP JUMPDEST SWAP3 POP POP DUP2 SWAP1 SSTORE POP DUP2 PUSH1 0x5 PUSH1 0x0 DUP3 DUP3 SLOAD PUSH2 0x20E3 SWAP2 SWAP1 PUSH2 0x2643 JUMP JUMPDEST SWAP1 SWAP2 SSTORE POP POP PUSH1 0x1 DUP8 DUP2 ADD DUP1 SLOAD PUSH1 0xFF NOT AND SWAP1 SWAP2 OR SWAP1 SSTORE PUSH1 0x40 MLOAD PUSH1 0x0 SWAP1 PUSH1 0x1 PUSH1 0x1 PUSH1 0xA0 SHL SUB DUP11 AND SWAP1 DUP4 SWAP1 DUP4 DUP2 DUP2 DUP2 DUP6 DUP8 GAS CALL SWAP3 POP POP POP RETURNDATASIZE DUP1 PUSH1 0x0 DUP2 EQ PUSH2 0x2143 JUMPI PUSH1 0x40 MLOAD SWAP2 POP PUSH1 0x1F NOT PUSH1 0x3F RETURNDATASIZE ADD AND DUP3 ADD PUSH1 0x40 MSTORE RETURNDATASIZE DUP3 MSTORE RETURNDATASIZE PUSH1 0x0 PUSH1 0x20 DUP5 ADD RETURNDATACOPY PUSH2 0x2148 JUMP JUMPDEST PUSH1 0x60 SWAP2 POP JUMPDEST POP POP SWAP1 POP DUP1 PUSH2 0x218B JUMPI PUSH1 0x40 MLOAD PUSH3 0x461BCD PUSH1 0xE5 SHL DUP2 MSTORE PUSH1 0x20 PUSH1 0x4 DUP3 ADD MSTORE PUSH1 0xF PUSH1 0x24 DUP3 ADD MSTORE PUSH15 0x151C985B9CD9995C8819985A5B1959 PUSH1 0x8A SHL PUSH1 0x44 DUP3 ADD MSTORE PUSH1 0x64 ADD PUSH2 0x710 JUMP JUMPDEST DUP9 PUSH1 0x1 PUSH1 0x1 PUSH1 0xA0 SHL SUB AND DUP11 PUSH32 0x24B5EFA61DD1CFC659205A97FB8ED868F3CB8C81922BAB2B96423E5DE1DE2CB7 DUP5 PUSH1 0x40 MLOAD PUSH2 0x21C7 SWAP2 DUP2 MSTORE PUSH1 0x20 ADD SWAP1 JUMP JUMPDEST PUSH1 0x40 MLOAD DUP1 SWAP2 SUB SWAP1 LOG3 POP POP POP POP POP POP POP POP POP POP JUMP JUMPDEST PUSH1 0x1 SLOAD PUSH1 0x1 PUSH1 0x1 PUSH1 0xA0 SHL SUB AND CALLER EQ PUSH2 0x101F JUMPI PUSH1 0x40 MLOAD PUSH3 0x461BCD PUSH1 0xE5 SHL DUP2 MSTORE PUSH1 0x20 PUSH1 0x4 DUP3 ADD DUP2 SWAP1 MSTORE PUSH1 0x24 DUP3 ADD MSTORE PUSH32 0x4F776E61626C653A2063616C6C6572206973206E6F7420746865206F776E6572 PUSH1 0x44 DUP3 ADD MSTORE PUSH1 0x64 ADD PUSH2 0x710 JUMP JUMPDEST PUSH1 0x1 DUP1 SLOAD PUSH1 0x1 PUSH1 0x1 PUSH1 0xA0 SHL SUB DUP4 DUP2 AND PUSH1 0x1 PUSH1 0x1 PUSH1 0xA0 SHL SUB NOT DUP4 AND DUP2 OR SWAP1 SWAP4 SSTORE PUSH1 0x40 MLOAD SWAP2 AND SWAP2 SWAP1 DUP3 SWAP1 PUSH32 0x8BE0079C531659141344CD1FD0A4F28419497F9722A3DAAFE3B4186F6B6457E0 SWAP1 PUSH1 0x0 SWAP1 LOG3 POP POP JUMP JUMPDEST DUP1 CALLDATALOAD PUSH1 0x1 PUSH1 0x1 PUSH1 0xA0 SHL SUB DUP2 AND DUP2 EQ PUSH2 0x229E JUMPI PUSH1 0x0 DUP1 REVERT JUMPDEST SWAP2 SWAP1 POP JUMP JUMPDEST PUSH1 0x0 DUP1 PUSH1 0x40 DUP4 DUP6 SUB SLT ISZERO PUSH2 0x22B6 JUMPI PUSH1 0x0 DUP1 REVERT JUMPDEST DUP3 CALLDATALOAD SWAP2 POP PUSH2 0x22C6 PUSH1 0x20 DUP5 ADD PUSH2 0x2287 JUMP JUMPDEST SWAP1 POP SWAP3 POP SWAP3 SWAP1 POP JUMP JUMPDEST PUSH1 0x0 PUSH1 0x20 DUP3 DUP5 SUB SLT ISZERO PUSH2 0x22E1 JUMPI PUSH1 0x0 DUP1 REVERT JUMPDEST POP CALLDATALOAD SWAP2 SWAP1 POP JUMP JUMPDEST PUSH1 0x0 DUP1 PUSH1 0x0 DUP1 PUSH1 0x0 DUP1 PUSH1 0xA0 DUP8 DUP10 SUB SLT ISZERO PUSH2 0x2301 JUMPI PUSH1 0x0 DUP1 REVERT JUMPDEST DUP7 CALLDATALOAD PUSH8 0xFFFFFFFFFFFFFFFF DUP1 DUP3 GT ISZERO PUSH2 0x2319 JUMPI PUSH1 0x0 DUP1 REVERT JUMPDEST DUP2 DUP10 ADD SWAP2 POP DUP10 PUSH1 0x1F DUP4 ADD SLT PUSH2 0x232D JUMPI PUSH1 0x0 DUP1 REVERT JUMPDEST DUP2 CALLDATALOAD DUP2 DUP2 GT ISZERO PUSH2 0x233C JUMPI PUSH1 0x0 DUP1 REVERT JUMPDEST DUP11 PUSH1 0x20 DUP3 DUP6 ADD ADD GT ISZERO PUSH2 0x234E JUMPI PUSH1 0x0 DUP1 REVERT JUMPDEST PUSH1 0x20 SWAP3 DUP4 ADD SWAP12 SWAP1 SWAP11 POP SWAP2 DUP10 ADD CALLDATALOAD SWAP9 PUSH1 0x40 DUP2 ADD CALLDATALOAD SWAP9 POP PUSH1 0x60 DUP2 ADD CALLDATALOAD SWAP8 POP PUSH1 0x80 ADD CALLDATALOAD SWAP6 POP SWAP1 SWAP4 POP POP POP POP JUMP JUMPDEST PUSH1 0x0 DUP1 PUSH1 0x40 DUP4 DUP6 SUB SLT ISZERO PUSH2 0x238B JUMPI PUSH1 0x0 DUP1 REVERT JUMPDEST DUP3 CALLDATALOAD SWAP2 POP PUSH1 0x20 DUP4 ADD CALLDATALOAD DUP1 ISZERO ISZERO DUP2 EQ PUSH2 0x23A2 JUMPI PUSH1 0x0 DUP1 REVERT JUMPDEST DUP1 SWAP2 POP POP SWAP3 POP SWAP3 SWAP1 POP JUMP JUMPDEST PUSH1 0x0 DUP2 MLOAD DUP1 DUP5 MSTORE PUSH1 0x0 JUMPDEST DUP2 DUP2 LT ISZERO PUSH2 0x23D3 JUMPI PUSH1 0x20 DUP2 DUP6 ADD DUP2 ADD MLOAD DUP7 DUP4 ADD DUP3 ADD MSTORE ADD PUSH2 0x23B7 JUMP JUMPDEST POP PUSH1 0x0 PUSH1 0x20 DUP3 DUP7 ADD ADD MSTORE PUSH1 0x20 PUSH1 0x1F NOT PUSH1 0x1F DUP4 ADD AND DUP6 ADD ADD SWAP2 POP POP SWAP3 SWAP2 POP POP JUMP JUMPDEST PUSH1 0x0 PUSH2 0x180 DUP15 DUP4 MSTORE DUP14 PUSH1 0x20 DUP5 ADD MSTORE DUP13 PUSH1 0x40 DUP5 ADD MSTORE DUP12 PUSH1 0x60 DUP5 ADD MSTORE DUP11 PUSH1 0x80 DUP5 ADD MSTORE DUP10 PUSH1 0xA0 DUP5 ADD MSTORE DUP9 PUSH1 0xC0 DUP5 ADD MSTORE PUSH1 0x1 DUP1 PUSH1 0xA0 SHL SUB DUP9 AND PUSH1 0xE0 DUP5 ADD MSTORE DUP1 PUSH2 0x100 DUP5 ADD MSTORE PUSH2 0x2440 DUP2 DUP5 ADD DUP9 PUSH2 0x23AD JUMP JUMPDEST SWAP6 ISZERO ISZERO PUSH2 0x120 DUP5 ADD MSTORE POP POP SWAP2 ISZERO ISZERO PUSH2 0x140 DUP4 ADD MSTORE ISZERO ISZERO PUSH2 0x160 SWAP1 SWAP2 ADD MSTORE SWAP10 SWAP9 POP POP POP POP POP POP POP POP POP JUMP JUMPDEST PUSH1 0x0 DUP1 PUSH1 0x0 PUSH1 0x40 DUP5 DUP7 SUB SLT ISZERO PUSH2 0x247F JUMPI PUSH1 0x0 DUP1 REVERT JUMPDEST DUP4 CALLDATALOAD SWAP3 POP PUSH1 0x20 DUP5 ADD CALLDATALOAD PUSH8 0xFFFFFFFFFFFFFFFF DUP1 DUP3 GT ISZERO PUSH2 0x249E JUMPI PUSH1 0x0 DUP1 REVERT JUMPDEST DUP2 DUP7 ADD SWAP2 POP DUP7 PUSH1 0x1F DUP4 ADD SLT PUSH2 0x24B2 JUMPI PUSH1 0x0 DUP1 REVERT JUMPDEST DUP2 CALLDATALOAD DUP2 DUP2 GT ISZERO PUSH2 0x24C1 JUMPI PUSH1 0x0 DUP1 REVERT JUMPDEST DUP8 PUSH1 0x20 DUP3 PUSH1 0x5 SHL DUP6 ADD ADD GT ISZERO PUSH2 0x24D6 JUMPI PUSH1 0x0 DUP1 REVERT JUMPDEST PUSH1 0x20 DUP4 ADD SWAP5 POP DUP1 SWAP4 POP POP POP POP SWAP3 POP SWAP3 POP SWAP3 JUMP JUMPDEST PUSH1 0x20 DUP2 MSTORE DUP2 MLOAD PUSH1 0x20 DUP3 ADD MSTORE PUSH1 0x20 DUP3 ADD MLOAD PUSH1 0x40 DUP3 ADD MSTORE PUSH1 0x40 DUP3 ADD MLOAD PUSH1 0x60 DUP3 ADD MSTORE PUSH1 0x60 DUP3 ADD MLOAD PUSH1 0x80 DUP3 ADD MSTORE PUSH1 0x80 DUP3 ADD MLOAD PUSH1 0xA0 DUP3 ADD MSTORE PUSH1 0xA0 DUP3 ADD MLOAD PUSH1 0xC0 DUP3 ADD MSTORE PUSH1 0xC0 DUP3 ADD MLOAD PUSH1 0xE0 DUP3 ADD MSTORE PUSH1 0x0 PUSH1 0xE0 DUP4 ADD MLOAD PUSH2 0x100 PUSH2 0x254E DUP2 DUP6 ADD DUP4 PUSH1 0x1 PUSH1 0x1 PUSH1 0xA0 SHL SUB AND SWAP1 MSTORE JUMP JUMPDEST DUP1 DUP6 ADD MLOAD SWAP2 POP POP PUSH2 0x180 PUSH2 0x120 DUP2 DUP2 DUP7 ADD MSTORE PUSH2 0x256E PUSH2 0x1A0 DUP7 ADD DUP5 PUSH2 0x23AD JUMP JUMPDEST SWAP1 DUP7 ADD MLOAD SWAP1 SWAP3 POP PUSH2 0x140 PUSH2 0x2585 DUP7 DUP3 ADD DUP4 ISZERO ISZERO SWAP1 MSTORE JUMP JUMPDEST DUP7 ADD MLOAD SWAP1 POP PUSH2 0x160 PUSH2 0x259A DUP7 DUP3 ADD DUP4 ISZERO ISZERO SWAP1 MSTORE JUMP JUMPDEST SWAP1 SWAP6 ADD MLOAD ISZERO ISZERO SWAP4 ADD SWAP3 SWAP1 SWAP3 MSTORE POP SWAP2 SWAP1 POP JUMP JUMPDEST PUSH1 0x0 PUSH1 0x20 DUP3 DUP5 SUB SLT ISZERO PUSH2 0x25BE JUMPI PUSH1 0x0 DUP1 REVERT JUMPDEST PUSH2 0x25C7 DUP3 PUSH2 0x2287 JUMP JUMPDEST SWAP4 SWAP3 POP POP POP JUMP JUMPDEST PUSH1 0x20 DUP1 DUP3 MSTORE PUSH1 0x15 SWAP1 DUP3 ADD MSTORE PUSH21 0x13585C9AD95D08191BD95CC81B9BDD08195E1A5CDD PUSH1 0x5A SHL PUSH1 0x40 DUP3 ADD MSTORE PUSH1 0x60 ADD SWAP1 JUMP JUMPDEST PUSH1 0x20 DUP1 DUP3 MSTORE PUSH1 0x16 SWAP1 DUP3 ADD MSTORE PUSH22 0x13585C9AD95D081A5CC81B9BDD081C995CDBDB1D9959 PUSH1 0x52 SHL PUSH1 0x40 DUP3 ADD MSTORE PUSH1 0x60 ADD SWAP1 JUMP JUMPDEST PUSH4 0x4E487B71 PUSH1 0xE0 SHL PUSH1 0x0 MSTORE PUSH1 0x11 PUSH1 0x4 MSTORE PUSH1 0x24 PUSH1 0x0 REVERT JUMPDEST DUP1 DUP3 ADD DUP1 DUP3 GT ISZERO PUSH2 0x1191 JUMPI PUSH2 0x1191 PUSH2 0x262D JUMP JUMPDEST DUP1 DUP3 MUL DUP2 ISZERO DUP3 DUP3 DIV DUP5 EQ OR PUSH2 0x1191 JUMPI PUSH2 0x1191 PUSH2 0x262D JUMP JUMPDEST PUSH1 0x0 DUP3 PUSH2 0x268A JUMPI PUSH4 0x4E487B71 PUSH1 0xE0 SHL PUSH1 0x0 MSTORE PUSH1 0x12 PUSH1 0x4 MSTORE PUSH1 0x24 PUSH1 0x0 REVERT JUMPDEST POP DIV SWAP1 JUMP JUMPDEST DUP2 DUP2 SUB DUP2 DUP2 GT ISZERO PUSH2 0x1191 JUMPI PUSH2 0x1191 PUSH2 0x262D JUMP JUMPDEST PUSH1 0x0 PUSH1 0x1 DUP3 ADD PUSH2 0x26B4 JUMPI PUSH2 0x26B4 PUSH2 0x262D JUMP JUMPDEST POP PUSH1 0x1 ADD SWAP1 JUMP JUMPDEST PUSH4 0x4E487B71 PUSH1 0xE0 SHL PUSH1 0x0 MSTORE PUSH1 0x41 PUSH1 0x4 MSTORE PUSH1 0x24 PUSH1 0x0 REVERT JUMPDEST PUSH1 0x1 DUP2 DUP2 SHR SWAP1 DUP3 AND DUP1 PUSH2 0x26E5 JUMPI PUSH1 0x7F DUP3 AND SWAP2 POP JUMPDEST PUSH1 0x20 DUP3 LT DUP2 SUB PUSH2 0x15A9 JUMPI PUSH4 0x4E487B71 PUSH1 0xE0 SHL PUSH1 0x0 MSTORE PUSH1 0x22 PUSH1 0x4 MSTORE PUSH1 0x24 PUSH1 0x0 REVERT JUMPDEST PUSH1 0x1F DUP3 GT ISZERO PUSH2 0x1C3C JUMPI PUSH1 0x0 DUP2 DUP2 MSTORE PUSH1 0x20 DUP2 KECCAK256 PUSH1 0x1F DUP6 ADD PUSH1 0x5 SHR DUP2 ADD PUSH1 0x20 DUP7 LT ISZERO PUSH2 0x272C JUMPI POP DUP1 JUMPDEST PUSH1 0x1F DUP6 ADD PUSH1 0x5 SHR DUP3 ADD SWAP2 POP JUMPDEST DUP2 DUP2 LT ISZERO PUSH2 0x274B JUMPI DUP3 DUP2 SSTORE PUSH1 0x1 ADD PUSH2 0x2738 JUMP JUMPDEST POP POP POP POP POP POP JUMP JUMPDEST DUP2 MLOAD PUSH8 0xFFFFFFFFFFFFFFFF DUP2 GT ISZERO PUSH2 0x276D JUMPI PUSH2 0x276D PUSH2 0x26BB JUMP JUMPDEST PUSH2 0x2781 DUP2 PUSH2 0x277B DUP5 SLOAD PUSH2 0x26D1 JUMP JUMPDEST DUP5 PUSH2 0x2705 JUMP JUMPDEST PUSH1 0x20 DUP1 PUSH1 0x1F DUP4 GT PUSH1 0x1 DUP2 EQ PUSH2 0x27B6 JUMPI PUSH1 0x0 DUP5 ISZERO PUSH2 0x279E JUMPI POP DUP6 DUP4 ADD MLOAD JUMPDEST PUSH1 0x0 NOT PUSH1 0x3 DUP7 SWAP1 SHL SHR NOT AND PUSH1 0x1 DUP6 SWAP1 SHL OR DUP6 SSTORE PUSH2 0x274B JUMP JUMPDEST PUSH1 0x0 DUP6 DUP2 MSTORE PUSH1 0x20 DUP2 KECCAK256 PUSH1 0x1F NOT DUP7 AND SWAP2 JUMPDEST DUP3 DUP2 LT ISZERO PUSH2 0x27E5 JUMPI DUP9 DUP7 ADD MLOAD DUP3 SSTORE SWAP5 DUP5 ADD SWAP5 PUSH1 0x1 SWAP1 SWAP2 ADD SWAP1 DUP5 ADD PUSH2 0x27C6 JUMP JUMPDEST POP DUP6 DUP3 LT ISZERO PUSH2 0x2803 JUMPI DUP8 DUP6 ADD MLOAD PUSH1 0x0 NOT PUSH1 0x3 DUP9 SWAP1 SHL PUSH1 0xF8 AND SHR NOT AND DUP2 SSTORE JUMPDEST POP POP POP POP POP PUSH1 0x1 SWAP1 DUP2 SHL ADD SWAP1 SSTORE POP JUMP JUMPDEST PUSH1 0xA0 DUP2 MSTORE DUP6 PUSH1 0xA0 DUP3 ADD MSTORE DUP6 DUP8 PUSH1 0xC0 DUP4 ADD CALLDATACOPY PUSH1 0x0 PUSH1 0xC0 DUP8 DUP4 ADD ADD MSTORE PUSH1 0x0 PUSH1 0xC0 PUSH1 0x1F NOT PUSH1 0x1F DUP10 ADD AND DUP4 ADD ADD SWAP1 POP DUP6 PUSH1 0x20 DUP4 ADD MSTORE DUP5 PUSH1 0x40 DUP4 ADD MSTORE DUP4 PUSH1 0x60 DUP4 ADD MSTORE DUP3 PUSH1 0x80 DUP4 ADD MSTORE SWAP8 SWAP7 POP POP POP POP POP POP POP JUMP JUMPDEST PUSH4 0x4E487B71 PUSH1 0xE0 SHL PUSH1 0x0 MSTORE PUSH1 0x32 PUSH1 0x4 MSTORE PUSH1 0x24 PUSH1 0x0 REVERT INVALID LOG2 PUSH5 0x6970667358 0x22 SLT KECCAK256 EXP DUP12 DUP16 DUP16 DUP10 0xE8 JUMPDEST 0xC4 RETURNDATASIZE 0xB3 DUP8 0xAF 0xCF STATICCALL 0x24 INVALID GASPRICE DUP5 0xE4 POP DUP10 MUL 0xF PUSH22 0xD17659B131C64ACD64736F6C63430008130033000000 "},"methodIdentifiers":{"MARKET_LIQUIDITY()":"c3b0c7c5","PLATFORM_FEE_BPS()":"539aa77f","batchClaimFor(uint256,address[])":"de9b9c5f","bets(uint256,address)":"f644b3bb","cancelMarket(uint256)":"7c16cd9e","claimFor(uint256,address)":"10ee3f00","claimReward(uint256)":"ae169a50","createMarket(string,uint256,uint256,uint256,uint256)":"3ad62988","emergencyWithdraw()":"db2e21bc","fundLiquidityReserve()":"1ebba654","getMarket(uint256)":"eb44fdd3","getMarketCount()":"fd69f3c2","getMarketVolume(uint256)":"a95f028a","getOdds(uint256)":"126c4166","getPlatformProfit()":"83d430cd","getPlatformStats()":"136d8883","getUserBet(uint256,address)":"c03fb87c","getWithdrawableFees()":"d7785bdb","hasBet(uint256,address)":"ae062acd","hasUserBet(uint256,address)":"8443b233","lifetimeFeesCollected()":"3eb6e623","lifetimeFeesWithdrawn()":"f134ad0a","markets(uint256)":"b1283e77","owner()":"8da5cb5b","placeBet(uint256,bool)":"9ed9c74d","platformLiquidityReserve()":"9db491e2","renounceOwnership()":"715018a6","resolveMarket(uint256,bool)":"57bde446","totalCollectedFees()":"96bd072c","transferOwnership(address)":"f2fde38b","withdrawLiquidityReserve(uint256)":"3381525a","withdrawPlatformFees()":"d0b7830b"}}}}}