{
  "_format": "hh-sol-artifact-1",
  "contractName": "PredictionMarket",
  "sourceName": "contracts/PredictionMarket.sol",
  "abi": [
    {
      "inputs": [
        {
          "internalType": "address",
          "name": "_forwarder",
          "type": "address"
        }
      ],
      "stateMutability": "nonpayable",
      "type": "constructor"
    },
    {
      "anonymous": false,
      "inputs": [
        {
          "indexed": true,
          "internalType": "uint256",
          "name": "marketId",
          "type": "uint256"
        },
        {
          "indexed": true,
          "internalType": "address",
          "name": "user",
          "type": "address"
        },
        {
          "indexed": false,
          "internalType": "uint256",
          "name": "amount",
          "type": "uint256"
        },
        {
          "indexed": false,
          "internalType": "bool",
          "name": "side",
          "type": "bool"
        }
      ],
      "name": "BetPlaced",
      "type": "event"
    },
    {
      "anonymous": false,
      "inputs": [
        {
          "indexed": false,
          "internalType": "uint256",
          "name": "amount",
          "type": "uint256"
        }
      ],
      "name": "LiquidityReserveFunded",
      "type": "event"
    },
    {
      "anonymous": false,
      "inputs": [
        {
          "indexed": false,
          "internalType": "uint256",
          "name": "amount",
          "type": "uint256"
        }
      ],
      "name": "LiquidityReserveWithdrawn",
      "type": "event"
    },
    {
      "anonymous": false,
      "inputs": [
        {
          "indexed": true,
          "internalType": "uint256",
          "name": "marketId",
          "type": "uint256"
        },
        {
          "indexed": false,
          "internalType": "uint256",
          "name": "refundedLiquidity",
          "type": "uint256"
        }
      ],
      "name": "MarketCanceled",
      "type": "event"
    },
    {
      "anonymous": false,
      "inputs": [
        {
          "indexed": true,
          "internalType": "uint256",
          "name": "marketId",
          "type": "uint256"
        },
        {
          "indexed": false,
          "internalType": "string",
          "name": "question",
          "type": "string"
        },
        {
          "indexed": false,
          "internalType": "uint256",
          "name": "startTime",
          "type": "uint256"
        },
        {
          "indexed": false,
          "internalType": "uint256",
          "name": "endTime",
          "type": "uint256"
        },
        {
          "indexed": false,
          "internalType": "uint256",
          "name": "minBet",
          "type": "uint256"
        },
        {
          "indexed": false,
          "internalType": "uint256",
          "name": "maxBet",
          "type": "uint256"
        },
        {
          "indexed": true,
          "internalType": "address",
          "name": "creator",
          "type": "address"
        }
      ],
      "name": "MarketCreated",
      "type": "event"
    },
    {
      "anonymous": false,
      "inputs": [
        {
          "indexed": true,
          "internalType": "uint256",
          "name": "marketId",
          "type": "uint256"
        },
        {
          "indexed": false,
          "internalType": "bool",
          "name": "outcome",
          "type": "bool"
        }
      ],
      "name": "MarketResolved",
      "type": "event"
    },
    {
      "anonymous": false,
      "inputs": [
        {
          "indexed": true,
          "internalType": "address",
          "name": "previousOwner",
          "type": "address"
        },
        {
          "indexed": true,
          "internalType": "address",
          "name": "newOwner",
          "type": "address"
        }
      ],
      "name": "OwnershipTransferred",
      "type": "event"
    },
    {
      "anonymous": false,
      "inputs": [
        {
          "indexed": false,
          "internalType": "uint256",
          "name": "amount",
          "type": "uint256"
        }
      ],
      "name": "PlatformFeesWithdrawn",
      "type": "event"
    },
    {
      "anonymous": false,
      "inputs": [
        {
          "indexed": true,
          "internalType": "uint256",
          "name": "marketId",
          "type": "uint256"
        },
        {
          "indexed": true,
          "internalType": "address",
          "name": "user",
          "type": "address"
        },
        {
          "indexed": false,
          "internalType": "uint256",
          "name": "amount",
          "type": "uint256"
        }
      ],
      "name": "RewardClaimed",
      "type": "event"
    },
    {
      "anonymous": false,
      "inputs": [
        {
          "indexed": true,
          "internalType": "uint256",
          "name": "marketId",
          "type": "uint256"
        },
        {
          "indexed": true,
          "internalType": "address",
          "name": "user",
          "type": "address"
        }
      ],
      "name": "RewardClaimedFor",
      "type": "event"
    },
    {
      "inputs": [],
      "name": "MARKET_LIQUIDITY",
      "outputs": [
        {
          "internalType": "uint256",
          "name": "",
          "type": "uint256"
        }
      ],
      "stateMutability": "view",
      "type": "function"
    },
    {
      "inputs": [],
      "name": "MAX_BATCH_SIZE",
      "outputs": [
        {
          "internalType": "uint256",
          "name": "",
          "type": "uint256"
        }
      ],
      "stateMutability": "view",
      "type": "function"
    },
    {
      "inputs": [],
      "name": "PLATFORM_FEE_BPS",
      "outputs": [
        {
          "internalType": "uint256",
          "name": "",
          "type": "uint256"
        }
      ],
      "stateMutability": "view",
      "type": "function"
    },
    {
      "inputs": [],
      "name": "RESOLUTION_BUFFER",
      "outputs": [
        {
          "internalType": "uint256",
          "name": "",
          "type": "uint256"
        }
      ],
      "stateMutability": "view",
      "type": "function"
    },
    {
      "inputs": [
        {
          "internalType": "uint256",
          "name": "marketId",
          "type": "uint256"
        },
        {
          "internalType": "address[]",
          "name": "users",
          "type": "address[]"
        }
      ],
      "name": "batchClaimFor",
      "outputs": [],
      "stateMutability": "nonpayable",
      "type": "function"
    },
    {
      "inputs": [
        {
          "internalType": "uint256",
          "name": "",
          "type": "uint256"
        },
        {
          "internalType": "address",
          "name": "",
          "type": "address"
        }
      ],
      "name": "bets",
      "outputs": [
        {
          "internalType": "uint256",
          "name": "amount",
          "type": "uint256"
        },
        {
          "internalType": "bool",
          "name": "claimed",
          "type": "bool"
        },
        {
          "internalType": "bool",
          "name": "side",
          "type": "bool"
        }
      ],
      "stateMutability": "view",
      "type": "function"
    },
    {
      "inputs": [
        {
          "internalType": "uint256",
          "name": "marketId",
          "type": "uint256"
        }
      ],
      "name": "cancelMarket",
      "outputs": [],
      "stateMutability": "nonpayable",
      "type": "function"
    },
    {
      "inputs": [
        {
          "internalType": "uint256",
          "name": "marketId",
          "type": "uint256"
        },
        {
          "internalType": "address",
          "name": "user",
          "type": "address"
        }
      ],
      "name": "claimFor",
      "outputs": [],
      "stateMutability": "nonpayable",
      "type": "function"
    },
    {
      "inputs": [
        {
          "internalType": "uint256",
          "name": "marketId",
          "type": "uint256"
        }
      ],
      "name": "claimRefund",
      "outputs": [],
      "stateMutability": "nonpayable",
      "type": "function"
    },
    {
      "inputs": [
        {
          "internalType": "uint256",
          "name": "marketId",
          "type": "uint256"
        }
      ],
      "name": "claimReward",
      "outputs": [],
      "stateMutability": "nonpayable",
      "type": "function"
    },
    {
      "inputs": [
        {
          "internalType": "string",
          "name": "question",
          "type": "string"
        },
        {
          "internalType": "uint256",
          "name": "startTime",
          "type": "uint256"
        },
        {
          "internalType": "uint256",
          "name": "endTime",
          "type": "uint256"
        },
        {
          "internalType": "uint256",
          "name": "minBet",
          "type": "uint256"
        },
        {
          "internalType": "uint256",
          "name": "maxBet",
          "type": "uint256"
        }
      ],
      "name": "createMarket",
      "outputs": [],
      "stateMutability": "nonpayable",
      "type": "function"
    },
    {
      "inputs": [],
      "name": "emergencyWithdrawFees",
      "outputs": [],
      "stateMutability": "nonpayable",
      "type": "function"
    },
    {
      "inputs": [],
      "name": "forwarder",
      "outputs": [
        {
          "internalType": "address",
          "name": "",
          "type": "address"
        }
      ],
      "stateMutability": "view",
      "type": "function"
    },
    {
      "inputs": [],
      "name": "fundLiquidityReserve",
      "outputs": [],
      "stateMutability": "payable",
      "type": "function"
    },
    {
      "inputs": [
        {
          "internalType": "uint256",
          "name": "marketId",
          "type": "uint256"
        }
      ],
      "name": "getMarket",
      "outputs": [
        {
          "components": [
            {
              "internalType": "uint256",
              "name": "id",
              "type": "uint256"
            },
            {
              "internalType": "uint256",
              "name": "startTime",
              "type": "uint256"
            },
            {
              "internalType": "uint256",
              "name": "endTime",
              "type": "uint256"
            },
            {
              "internalType": "uint256",
              "name": "minBet",
              "type": "uint256"
            },
            {
              "internalType": "uint256",
              "name": "maxBet",
              "type": "uint256"
            },
            {
              "internalType": "uint256",
              "name": "yesPool",
              "type": "uint256"
            },
            {
              "internalType": "uint256",
              "name": "noPool",
              "type": "uint256"
            },
            {
              "internalType": "address",
              "name": "creator",
              "type": "address"
            },
            {
              "internalType": "string",
              "name": "question",
              "type": "string"
            },
            {
              "internalType": "bool",
              "name": "resolved",
              "type": "bool"
            },
            {
              "internalType": "bool",
              "name": "outcome",
              "type": "bool"
            },
            {
              "internalType": "bool",
              "name": "exists",
              "type": "bool"
            },
            {
              "internalType": "bool",
              "name": "canceled",
              "type": "bool"
            },
            {
              "internalType": "uint256",
              "name": "totalClaimed",
              "type": "uint256"
            }
          ],
          "internalType": "struct PredictionMarket.Market",
          "name": "",
          "type": "tuple"
        }
      ],
      "stateMutability": "view",
      "type": "function"
    },
    {
      "inputs": [],
      "name": "getMarketCount",
      "outputs": [
        {
          "internalType": "uint256",
          "name": "",
          "type": "uint256"
        }
      ],
      "stateMutability": "view",
      "type": "function"
    },
    {
      "inputs": [
        {
          "internalType": "uint256",
          "name": "marketId",
          "type": "uint256"
        }
      ],
      "name": "getMarketVolume",
      "outputs": [
        {
          "internalType": "uint256",
          "name": "",
          "type": "uint256"
        }
      ],
      "stateMutability": "view",
      "type": "function"
    },
    {
      "inputs": [
        {
          "internalType": "uint256",
          "name": "marketId",
          "type": "uint256"
        }
      ],
      "name": "getOdds",
      "outputs": [
        {
          "internalType": "uint256",
          "name": "yesOdds",
          "type": "uint256"
        },
        {
          "internalType": "uint256",
          "name": "noOdds",
          "type": "uint256"
        }
      ],
      "stateMutability": "view",
      "type": "function"
    },
    {
      "inputs": [],
      "name": "getPlatformProfit",
      "outputs": [
        {
          "internalType": "uint256",
          "name": "",
          "type": "uint256"
        }
      ],
      "stateMutability": "view",
      "type": "function"
    },
    {
      "inputs": [],
      "name": "getPlatformStats",
      "outputs": [
        {
          "internalType": "uint256",
          "name": "lifetimeFees",
          "type": "uint256"
        },
        {
          "internalType": "uint256",
          "name": "withdrawnFees",
          "type": "uint256"
        },
        {
          "internalType": "uint256",
          "name": "withdrawableFees",
          "type": "uint256"
        },
        {
          "internalType": "uint256",
          "name": "liquidityReserve",
          "type": "uint256"
        },
        {
          "internalType": "uint256",
          "name": "contractBalance",
          "type": "uint256"
        }
      ],
      "stateMutability": "view",
      "type": "function"
    },
    {
      "inputs": [
        {
          "internalType": "uint256",
          "name": "marketId",
          "type": "uint256"
        },
        {
          "internalType": "address",
          "name": "user",
          "type": "address"
        }
      ],
      "name": "getUserBet",
      "outputs": [
        {
          "components": [
            {
              "internalType": "uint256",
              "name": "amount",
              "type": "uint256"
            },
            {
              "internalType": "bool",
              "name": "claimed",
              "type": "bool"
            },
            {
              "internalType": "bool",
              "name": "side",
              "type": "bool"
            }
          ],
          "internalType": "struct PredictionMarket.Bet",
          "name": "",
          "type": "tuple"
        }
      ],
      "stateMutability": "view",
      "type": "function"
    },
    {
      "inputs": [],
      "name": "getWithdrawableFees",
      "outputs": [
        {
          "internalType": "uint256",
          "name": "",
          "type": "uint256"
        }
      ],
      "stateMutability": "view",
      "type": "function"
    },
    {
      "inputs": [
        {
          "internalType": "uint256",
          "name": "",
          "type": "uint256"
        },
        {
          "internalType": "address",
          "name": "",
          "type": "address"
        }
      ],
      "name": "hasBet",
      "outputs": [
        {
          "internalType": "bool",
          "name": "",
          "type": "bool"
        }
      ],
      "stateMutability": "view",
      "type": "function"
    },
    {
      "inputs": [
        {
          "internalType": "uint256",
          "name": "marketId",
          "type": "uint256"
        },
        {
          "internalType": "address",
          "name": "user",
          "type": "address"
        }
      ],
      "name": "hasUserBet",
      "outputs": [
        {
          "internalType": "bool",
          "name": "",
          "type": "bool"
        }
      ],
      "stateMutability": "view",
      "type": "function"
    },
    {
      "inputs": [],
      "name": "lifetimeFeesCollected",
      "outputs": [
        {
          "internalType": "uint256",
          "name": "",
          "type": "uint256"
        }
      ],
      "stateMutability": "view",
      "type": "function"
    },
    {
      "inputs": [],
      "name": "lifetimeFeesWithdrawn",
      "outputs": [
        {
          "internalType": "uint256",
          "name": "",
          "type": "uint256"
        }
      ],
      "stateMutability": "view",
      "type": "function"
    },
    {
      "inputs": [
        {
          "internalType": "uint256",
          "name": "",
          "type": "uint256"
        }
      ],
      "name": "markets",
      "outputs": [
        {
          "internalType": "uint256",
          "name": "id",
          "type": "uint256"
        },
        {
          "internalType": "uint256",
          "name": "startTime",
          "type": "uint256"
        },
        {
          "internalType": "uint256",
          "name": "endTime",
          "type": "uint256"
        },
        {
          "internalType": "uint256",
          "name": "minBet",
          "type": "uint256"
        },
        {
          "internalType": "uint256",
          "name": "maxBet",
          "type": "uint256"
        },
        {
          "internalType": "uint256",
          "name": "yesPool",
          "type": "uint256"
        },
        {
          "internalType": "uint256",
          "name": "noPool",
          "type": "uint256"
        },
        {
          "internalType": "address",
          "name": "creator",
          "type": "address"
        },
        {
          "internalType": "string",
          "name": "question",
          "type": "string"
        },
        {
          "internalType": "bool",
          "name": "resolved",
          "type": "bool"
        },
        {
          "internalType": "bool",
          "name": "outcome",
          "type": "bool"
        },
        {
          "internalType": "bool",
          "name": "exists",
          "type": "bool"
        },
        {
          "internalType": "bool",
          "name": "canceled",
          "type": "bool"
        },
        {
          "internalType": "uint256",
          "name": "totalClaimed",
          "type": "uint256"
        }
      ],
      "stateMutability": "view",
      "type": "function"
    },
    {
      "inputs": [
        {
          "internalType": "bytes10",
          "name": "",
          "type": "bytes10"
        },
        {
          "internalType": "bytes",
          "name": "report",
          "type": "bytes"
        }
      ],
      "name": "onReport",
      "outputs": [],
      "stateMutability": "nonpayable",
      "type": "function"
    },
    {
      "inputs": [],
      "name": "owner",
      "outputs": [
        {
          "internalType": "address",
          "name": "",
          "type": "address"
        }
      ],
      "stateMutability": "view",
      "type": "function"
    },
    {
      "inputs": [
        {
          "internalType": "uint256",
          "name": "marketId",
          "type": "uint256"
        },
        {
          "internalType": "bool",
          "name": "side",
          "type": "bool"
        }
      ],
      "name": "placeBet",
      "outputs": [],
      "stateMutability": "payable",
      "type": "function"
    },
    {
      "inputs": [],
      "name": "platformLiquidityReserve",
      "outputs": [
        {
          "internalType": "uint256",
          "name": "",
          "type": "uint256"
        }
      ],
      "stateMutability": "view",
      "type": "function"
    },
    {
      "inputs": [],
      "name": "renounceOwnership",
      "outputs": [],
      "stateMutability": "nonpayable",
      "type": "function"
    },
    {
      "inputs": [
        {
          "internalType": "uint256",
          "name": "marketId",
          "type": "uint256"
        },
        {
          "internalType": "bool",
          "name": "outcome",
          "type": "bool"
        }
      ],
      "name": "resolveMarket",
      "outputs": [],
      "stateMutability": "nonpayable",
      "type": "function"
    },
    {
      "inputs": [
        {
          "internalType": "uint256",
          "name": "marketId",
          "type": "uint256"
        }
      ],
      "name": "sweepMarketDust",
      "outputs": [],
      "stateMutability": "nonpayable",
      "type": "function"
    },
    {
      "inputs": [],
      "name": "totalCollectedFees",
      "outputs": [
        {
          "internalType": "uint256",
          "name": "",
          "type": "uint256"
        }
      ],
      "stateMutability": "view",
      "type": "function"
    },
    {
      "inputs": [
        {
          "internalType": "address",
          "name": "newOwner",
          "type": "address"
        }
      ],
      "name": "transferOwnership",
      "outputs": [],
      "stateMutability": "nonpayable",
      "type": "function"
    },
    {
      "inputs": [
        {
          "internalType": "uint256",
          "name": "amount",
          "type": "uint256"
        }
      ],
      "name": "withdrawLiquidityReserve",
      "outputs": [],
      "stateMutability": "nonpayable",
      "type": "function"
    },
    {
      "inputs": [],
      "name": "withdrawPlatformFees",
      "outputs": [],
      "stateMutability": "nonpayable",
      "type": "function"
    },
    {
      "stateMutability": "payable",
      "type": "receive"
    }
  ],
  "bytecode": "0x60a06040523480156200001157600080fd5b50604051620034a6380380620034a68339810160408190526200003491620000f7565b60016000556200004433620000a5565b6001600160a01b038116620000935760405162461bcd60e51b815260206004820152601160248201527024b73b30b634b2103337b93bb0b93232b960791b604482015260640160405180910390fd5b6001600160a01b031660805262000129565b600180546001600160a01b038381166001600160a01b0319831681179093556040519116919082907f8be0079c531659141344cd1fd0a4f28419497f9722a3daafe3b4186f6b6457e090600090a35050565b6000602082840312156200010a57600080fd5b81516001600160a01b03811681146200012257600080fd5b9392505050565b60805161335a6200014c6000396000818161076201526122eb015261335a6000f3fe6080604052600436106102295760003560e01c8063a93cdf5011610123578063d7785bdb116100ab578063f644b3bb1161006f578063f644b3bb146106e8578063f645d4f914610750578063fc1611a014610784578063fd69f3c2146107a4578063fe535b94146107b957600080fd5b8063d7785bdb14610650578063de9b9c5f14610665578063eb44fdd314610685578063f134ad0a146106b2578063f2fde38b146106c857600080fd5b8063b1283e77116100f2578063b1283e7714610522578063c03fb87c1461055c578063c3b0c7c51461060b578063cfdbf25414610626578063d0b7830b1461063b57600080fd5b8063a93cdf5014610492578063a95f028a146104a7578063ae062acd146104c7578063ae169a501461050257600080fd5b80635b7baf64116101b15780638da5cb5b116101755780638da5cb5b1461040b57806396bd072c1461043d5780639db491e2146104535780639ed9c74d14610469578063a028bd581461047c57600080fd5b80635b7baf6414610371578063715018a6146103915780637c16cd9e146103a657806383d430cd146103c65780638443b233146103db57600080fd5b80633381525a116101f85780633381525a146102d85780633ad62988146102f85780633eb6e62314610318578063539aa77f1461033c57806357bde4461461035157600080fd5b806310ee3f0014610235578063126c416614610257578063136d8883146102915780631ebba654146102d057600080fd5b3661023057005b600080fd5b34801561024157600080fd5b50610255610250366004612c52565b6107d9565b005b34801561026357600080fd5b50610277610272366004612c7e565b610899565b604080519283526020830191909152015b60405180910390f35b34801561029d57600080fd5b5060055460065460035460045460408051948552602085019390935291830152606082015247608082015260a001610288565b610255610981565b3480156102e457600080fd5b506102556102f3366004612c7e565b610a25565b34801561030457600080fd5b50610255610313366004612ce0565b610bb5565b34801561032457600080fd5b5061032e60055481565b604051908152602001610288565b34801561034857600080fd5b5061032e609681565b34801561035d57600080fd5b5061025561036c366004612d42565b610fef565b34801561037d57600080fd5b5061025561038c366004612c7e565b61108d565b34801561039d57600080fd5b506102556112e2565b3480156103b257600080fd5b506102556103c1366004612c7e565b6112f6565b3480156103d257600080fd5b5061032e611412565b3480156103e757600080fd5b506103fb6103f6366004612c52565b611429565b6040519015158152602001610288565b34801561041757600080fd5b506001546001600160a01b03165b6040516001600160a01b039091168152602001610288565b34801561044957600080fd5b5061032e60035481565b34801561045f57600080fd5b5061032e60045481565b610255610477366004612d42565b611456565b34801561048857600080fd5b5061032e61012c81565b34801561049e57600080fd5b506102556117a0565b3480156104b357600080fd5b5061032e6104c2366004612c7e565b61187e565b3480156104d357600080fd5b506103fb6104e2366004612c52565b600960209081526000928352604080842090915290825290205460ff1681565b34801561050e57600080fd5b5061025561051d366004612c7e565b61193f565b34801561052e57600080fd5b5061054261053d366004612c7e565b6119bc565b6040516102889e9d9c9b9a99989796959493929190612dbd565b34801561056857600080fd5b506105e5610577366004612c52565b604080516060808201835260008083526020808401829052928401819052948552600882528285206001600160a01b039490941685529281529281902081519283018252805483526001015460ff808216151594840194909452610100900490921615159181019190915290565b604080518251815260208084015115159082015291810151151590820152606001610288565b34801561061757600080fd5b5061032e662386f26fc1000081565b34801561063257600080fd5b5061032e606481565b34801561064757600080fd5b50610255611ac8565b34801561065c57600080fd5b5060035461032e565b34801561067157600080fd5b50610255610680366004612e43565b611bd8565b34801561069157600080fd5b506106a56106a0366004612c7e565b611e34565b6040516102889190612ec2565b3480156106be57600080fd5b5061032e60065481565b3480156106d457600080fd5b506102556106e3366004612fae565b612012565b3480156106f457600080fd5b50610733610703366004612c52565b60086020908152600092835260408084209091529082529020805460019091015460ff8082169161010090041683565b604080519384529115156020840152151590820152606001610288565b34801561075c57600080fd5b506104257f000000000000000000000000000000000000000000000000000000000000000081565b34801561079057600080fd5b5061025561079f366004612c7e565b612088565b3480156107b057600080fd5b5060025461032e565b3480156107c557600080fd5b506102556107d4366004612fd0565b6122e0565b6107e161236d565b6000828152600760205260409020600981015483919062010000900460ff166108255760405162461bcd60e51b815260040161081c90613032565b60405180910390fd5b600981015460ff166108495760405162461bcd60e51b815260040161081c90613061565b61085384846123c6565b6040516001600160a01b0384169085907fed498030837cb2e17fef08f16b80d1206257306957b6113fa83c6da94a88144490600090a350506108956001600055565b5050565b60008181526007602052604081206006810154600582015483929183916108c091906130a7565b9050806000036108d85750614e209485945092505050565b60008183600501546127106108ed91906130ba565b6108f791906130d1565b9050600082846006015461271061090e91906130ba565b61091891906130d1565b9050600061092960966127106130f3565b9050610937836127106130ba565b610945826305f5e1006130ba565b61094f91906130d1565b965061095d826127106130ba565b61096b826305f5e1006130ba565b61097591906130d1565b95505050505050915091565b6109896127c2565b600034116109d95760405162461bcd60e51b815260206004820152601d60248201527f4d7573742073656e642045544820746f2066756e642072657365727665000000604482015260640161081c565b34600460008282546109eb91906130a7565b90915550506040513481527f1007592a11eeb4aa60e4b25785d069d874a5e0393449da55070633eca253d5ba9060200160405180910390a1565b610a2d6127c2565b60008111610a7d5760405162461bcd60e51b815260206004820152601d60248201527f416d6f756e74206d7573742062652067726561746572207468616e2030000000604482015260640161081c565b600454811115610acf5760405162461bcd60e51b815260206004820152601c60248201527f496e73756666696369656e7420726573657276652062616c616e636500000000604482015260640161081c565b8060046000828254610ae191906130f3565b90915550506001546040516000916001600160a01b03169083908381818185875af1925050503d8060008114610b33576040519150601f19603f3d011682016040523d82523d6000602084013e610b38565b606091505b5050905080610b7d5760405162461bcd60e51b815260206004820152601160248201527015da5d1a191c985dd85b0819985a5b1959607a1b604482015260640161081c565b6040518281527ffae62d177ddcb96191c434d1f832fdcb17f33c6c75e25049e47ee43dd9b8d717906020015b60405180910390a15050565b428411610c045760405162461bcd60e51b815260206004820181905260248201527f53746172742074696d65206d75737420626520696e2074686520667574757265604482015260640161081c565b838311610c5d5760405162461bcd60e51b815260206004820152602160248201527f456e642074696d65206d7573742062652061667465722073746172742074696d6044820152606560f81b606482015260840161081c565b60008211610cad5760405162461bcd60e51b815260206004820152601e60248201527f4d696e20626574206d7573742062652067726561746572207468616e20300000604482015260640161081c565b818111610d085760405162461bcd60e51b8152602060048201526024808201527f4d617820626574206d7573742062652067726561746572207468616e206d696e6044820152630818995d60e21b606482015260840161081c565b84610d555760405162461bcd60e51b815260206004820152601860248201527f5175657374696f6e2063616e6e6f7420626520656d7074790000000000000000604482015260640161081c565b662386f26fc100006004541015610dae5760405162461bcd60e51b815260206004820152601f60248201527f496e73756666696369656e7420706c6174666f726d206c697175696469747900604482015260640161081c565b60028054906000610dbe83613106565b9091555060009050610dd86002662386f26fc100006130d1565b9050662386f26fc1000060046000828254610df391906130f3565b92505081905550604051806101c001604052806002548152602001868152602001858152602001848152602001838152602001828152602001828152602001336001600160a01b0316815260200188888080601f01602080910402602001604051908101604052809392919081815260200183838082843760009201829052509385525050506020808301829052604080840183905260016060808601829052608080870186905260a096870186905260028054875260078087529685902089518155958901519386019390935592870151918401919091558501516003830155840151600482015591830151600583015560c0830151600683015560e083015190820180546001600160a01b0319166001600160a01b039092169190911790556101008201516008820190610f2990826131b7565b50610120820151600982018054610140850151610160860151610180870151151563010000000263ff0000001991151562010000029190911663ffff0000199215156101000261ff00199615159690961661ffff19909416939093179490941716179190911790556101a090910151600a909101556002546040513391907f6b68a2fc85527405d93824f9ea03022f60f50735f43c2bf600582af1824f500690610fde908b908b908b908b908b908b90613277565b60405180910390a350505050505050565b610ff76127c2565b6000828152600760205260409020600981015483919062010000900460ff166110325760405162461bcd60e51b815260040161081c90613032565b806002015442101561107d5760405162461bcd60e51b815260206004820152601460248201527313585c9ad95d081a185cc81b9bdd08195b99195960621b604482015260640161081c565b611087848461281c565b50505050565b61109561236d565b6000818152600760205260409020600981015462010000900460ff166110cd5760405162461bcd60e51b815260040161081c90613032565b60098101546301000000900460ff1661111e5760405162461bcd60e51b815260206004820152601360248201527213585c9ad95d081b9bdd0818d85b98d95b1959606a1b604482015260640161081c565b6000828152600860209081526040808320338085529083528184208685526009845282852091855292529091205460ff1661118a5760405162461bcd60e51b815260206004820152600c60248201526b139bc818995d08199bdd5b9960a21b604482015260640161081c565b600181015460ff16156111d15760405162461bcd60e51b815260206004820152600f60248201526e105b1c9958591e4818db185a5b5959608a1b604482015260640161081c565b8054806112145760405162461bcd60e51b8152602060048201526011602482015270139bdd1a1a5b99c81d1bc81c99599d5b99607a1b604482015260640161081c565b6001828101805460ff19169091179055604051600090339083908381818185875af1925050503d8060008114611266576040519150601f19603f3d011682016040523d82523d6000602084013e61126b565b606091505b50509050806112ac5760405162461bcd60e51b815260206004820152600d60248201526c1499599d5b990819985a5b1959609a1b604482015260640161081c565b604051828152339086906000805160206133058339815191529060200160405180910390a3505050506112df6001600055565b50565b6112ea6127c2565b6112f4600061294d565b565b6112fe6127c2565b600081815260076020526040902060090154819062010000900460ff166113375760405162461bcd60e51b815260040161081c90613032565b6000828152600760205260409020600981015460ff161561139a5760405162461bcd60e51b815260206004820152601d60248201527f43616e6e6f742063616e63656c207265736f6c766564206d61726b6574000000604482015260640161081c565b60098101805463ff0000ff1916630100000117905560048054662386f26fc1000091906000906113cb9084906130a7565b9091555050604051662386f26fc10000815283907f932bcc53fcf504089c21d39fef179e3b2510b8c80e97bf91c4b9b845cb952971906020015b60405180910390a2505050565b600060065460055461142491906130f3565b905090565b60008281526009602090815260408083206001600160a01b038516845290915290205460ff165b92915050565b6000828152600760205260409020600981015483919062010000900460ff166114915760405162461bcd60e51b815260040161081c90613032565b600981015460ff16156114db5760405162461bcd60e51b815260206004820152601260248201527113585c9ad95d081a5cc81c995cdbdb1d995960721b604482015260640161081c565b8060010154421061152e5760405162461bcd60e51b815260206004820152601e60248201527f4d61726b65742062657474696e672070686173652068617320656e6465640000604482015260640161081c565b600084815260096020908152604080832033845290915290205460ff16156115985760405162461bcd60e51b815260206004820152601a60248201527f416c726561647920626574206f6e2074686973206d61726b6574000000000000604482015260640161081c565b600084815260076020526040902060038101543410156115fa5760405162461bcd60e51b815260206004820152601860248201527f42657420616d6f756e742062656c6f77206d696e696d756d0000000000000000604482015260640161081c565b806004015434111561164e5760405162461bcd60e51b815260206004820152601860248201527f42657420616d6f756e742061626f7665206d6178696d756d0000000000000000604482015260640161081c565b600061271061165e6096346130ba565b61166891906130d1565b9050600061167682346130f3565b9050816003600082825461168a91906130a7565b9250508190555081600560008282546116a391906130a7565b909155505060408051606081018252828152600060208083018281528a1580158587019081528d8552600884528685203380875290855287862096518755925160019687018054925115156101000261ff00199215159290921661ffff19909316929092171790558c8452600983528584209184529152929020805460ff1916909117905561174b578083600501600082825461174091906130a7565b909155506117659050565b8083600601600082825461175f91906130a7565b90915550505b604080518281528715156020820152339189917fb1bd10cf5ea9540f12b9b182707734fd82deacc56830e2bd316133deb372bff49101610fde565b6117a86127c2565b600354806117ec5760405162461bcd60e51b81526020600482015260116024820152704e6f206665657320617661696c61626c6560781b604482015260640161081c565b6000600381905550806006600082825461180691906130a7565b90915550506001546040516000916001600160a01b03169083908381818185875af1925050503d8060008114611858576040519150601f19603f3d011682016040523d82523d6000602084013e61185d565b606091505b50509050806108955760405162461bcd60e51b815260040161081c906132c5565b600081815260076020526040812060090154829062010000900460ff166118b75760405162461bcd60e51b815260040161081c90613032565b6000838152600760205260408120906118d86002662386f26fc100006130d1565b9050600081836005015410156118ef5760006118ff565b8183600501546118ff91906130f3565b905060008284600601541015611916576000611926565b82846006015461192691906130f3565b905061193281836130a7565b9550505050505b50919050565b61194761236d565b6000818152600760205260409020600981015482919062010000900460ff166119825760405162461bcd60e51b815260040161081c90613032565b600981015460ff166119a65760405162461bcd60e51b815260040161081c90613061565b6119b083336123c6565b50506112df6001600055565b60076020819052600091825260409091208054600182015460028301546003840154600485015460058601546006870154978701546008880180549799969895979496939592946001600160a01b039092169291611a1990613135565b80601f0160208091040260200160405190810160405280929190818152602001828054611a4590613135565b8015611a925780601f10611a6757610100808354040283529160200191611a92565b820191906000526020600020905b815481529060010190602001808311611a7557829003601f168201915b5050506009840154600a90940154929360ff8082169461010083048216945062010000830482169350630100000090920416908e565b611ad06127c2565b60035480611b165760405162461bcd60e51b81526020600482015260136024820152724e6f206665657320746f20776974686472617760681b604482015260640161081c565b60006003819055508060066000828254611b3091906130a7565b90915550506001546040516000916001600160a01b03169083908381818185875af1925050503d8060008114611b82576040519150601f19603f3d011682016040523d82523d6000602084013e611b87565b606091505b5050905080611ba85760405162461bcd60e51b815260040161081c906132c5565b6040518281527f9870c8023baa016ac002ddfa7cdad341155acddddee3032c07d4baa4947ae64390602001610ba9565b611be061236d565b6000838152600760205260409020600981015484919062010000900460ff16611c1b5760405162461bcd60e51b815260040161081c90613032565b600981015460ff16611c3f5760405162461bcd60e51b815260040161081c90613061565b6064831115611c825760405162461bcd60e51b815260206004820152600f60248201526e426174636820746f6f206c6172676560881b604482015260640161081c565b600085815260076020526040902060098101546301000000900460ff1615611cde5760405162461bcd60e51b815260206004820152600f60248201526e13585c9ad95d0818d85b98d95b1959608a1b604482015260640161081c565b6000604051806080016040528083600601548460050154611cff91906130a7565b81526020018360090160019054906101000a900460ff16611d24578360060154611d2a565b83600501545b8152602001600081526020016000815250905060005b85811015611db657600080611d7c8a8a8a86818110611d6157611d616132ee565b9050602002016020810190611d769190612fae565b8661299f565b915091508184604001818151611d9291906130a7565b905250606084018051829190611da99083906130a7565b9052505050600101611d40565b50604081015115611df957806040015160036000828254611dd791906130a7565b9091555050604081015160058054600090611df39084906130a7565b90915550505b606081015115611e2157806060015182600a016000828254611e1b91906130a7565b90915550505b50505050611e2f6001600055565b505050565b611eb7604051806101c001604052806000815260200160008152602001600081526020016000815260200160008152602001600081526020016000815260200160006001600160a01b0316815260200160608152602001600015158152602001600015158152602001600015158152602001600015158152602001600081525090565b60008281526007602081815260409283902083516101c081018552815481526001820154928101929092526002810154938201939093526003830154606082015260048301546080820152600583015460a0820152600683015460c0820152908201546001600160a01b031660e082015260088201805491929161010084019190611f4190613135565b80601f0160208091040260200160405190810160405280929190818152602001828054611f6d90613135565b8015611fba5780601f10611f8f57610100808354040283529160200191611fba565b820191906000526020600020905b815481529060010190602001808311611f9d57829003601f168201915b5050509183525050600982015460ff80821615156020840152610100820481161515604084015262010000820481161515606084015263010000009091041615156080820152600a9091015460a09091015292915050565b61201a6127c2565b6001600160a01b03811661207f5760405162461bcd60e51b815260206004820152602660248201527f4f776e61626c653a206e6577206f776e657220697320746865207a65726f206160448201526564647265737360d01b606482015260840161081c565b6112df8161294d565b6120906127c2565b6000818152600760205260409020600981015460ff166120e15760405162461bcd60e51b815260206004820152600c60248201526b139bdd081c995cdbdb1d995960a21b604482015260640161081c565b60098101546301000000900460ff161561212f5760405162461bcd60e51b815260206004820152600f60248201526e10d85b98d95b1959081b585c9ad95d608a1b604482015260640161081c565b60008160060154826005015461214591906130a7565b6009830154909150600090610100900460ff1661216657826006015461216c565b82600501545b9050600081116121b05760405162461bcd60e51b815260206004820152600f60248201526e139bc81dda5b9b9a5b99c81c1bdbdb608a1b604482015260640161081c565b60006127106121c06096826130f3565b6121ca90856130ba565b6121d491906130d1565b9050600084600a0154826121e891906130f3565b9050600081116122245760405162461bcd60e51b8152602060048201526007602482015266139bc8191d5cdd60ca1b604482015260640161081c565b8085600a01600082825461223891906130a7565b90915550506001546040516000916001600160a01b03169083908381818185875af1925050503d806000811461228a576040519150601f19603f3d011682016040523d82523d6000602084013e61228f565b606091505b50509050806122d75760405162461bcd60e51b8152602060048201526014602482015273111d5cdd081d1c985b9cd9995c8819985a5b195960621b604482015260640161081c565b50505050505050565b336001600160a01b037f000000000000000000000000000000000000000000000000000000000000000016146123495760405162461bcd60e51b815260206004820152600e60248201526d27b7363c903337b93bb0b93232b960911b604482015260640161081c565b60008061235883850185612d42565b91509150612366828261281c565b5050505050565b6002600054036123bf5760405162461bcd60e51b815260206004820152601f60248201527f5265656e7472616e637947756172643a207265656e7472616e742063616c6c00604482015260640161081c565b6002600055565b60008281526008602090815260408083206001600160a01b03851680855290835281842086855260078452828520600985528386209286529190935292205490919060ff166124465760405162461bcd60e51b815260206004820152600c60248201526b139bc818995d08199bdd5b9960a21b604482015260640161081c565b600182015460ff161561248d5760405162461bcd60e51b815260206004820152600f60248201526e105b1c9958591e4818db185a5b5959608a1b604482015260640161081c565b600981015460018301546101009182900460ff908116151592909104161515146124ec5760405162461bcd60e51b815260206004820152601060248201526f4e6f742077696e6e696e67207369646560801b604482015260640161081c565b60098101546301000000900460ff161561253a5760405162461bcd60e51b815260206004820152600f60248201526e13585c9ad95d0818d85b98d95b1959608a1b604482015260640161081c565b60008160060154826005015461255091906130a7565b6009830154909150600090610100900460ff16612571578260060154612577565b82600501545b9050806000036126755783546001808601805460ff191690911790556040516000906001600160a01b0388169083908381818185875af1925050503d80600081146125de576040519150601f19603f3d011682016040523d82523d6000602084013e6125e3565b606091505b50509050806126245760405162461bcd60e51b815260206004820152600d60248201526c1499599d5b990819985a5b1959609a1b604482015260640161081c565b8185600a01600082825461263891906130a7565b90915550506040518281526001600160a01b0388169089906000805160206133058339815191529060200160405180910390a35050505050505050565b60008183866000015461268891906130ba565b61269291906130d1565b905060006127106126a46096846130ba565b6126ae91906130d1565b905060006126bc82846130f3565b905081600360008282546126d091906130a7565b9250508190555081600560008282546126e991906130a7565b90915550506001878101805460ff191690911790556040516000906001600160a01b038a169083908381818185875af1925050503d8060008114612749576040519150601f19603f3d011682016040523d82523d6000602084013e61274e565b606091505b505090508061276f5760405162461bcd60e51b815260040161081c906132c5565b8187600a01600082825461278391906130a7565b90915550506040518281526001600160a01b038a16908b906000805160206133058339815191529060200160405180910390a350505050505050505050565b6001546001600160a01b031633146112f45760405162461bcd60e51b815260206004820181905260248201527f4f776e61626c653a2063616c6c6572206973206e6f7420746865206f776e6572604482015260640161081c565b6000828152600760205260409020600981015462010000900460ff166128545760405162461bcd60e51b815260040161081c90613032565b600981015460ff161561289c5760405162461bcd60e51b815260206004820152601060248201526f105b1c9958591e481c995cdbdb1d995960821b604482015260640161081c565b61012c81600201546128ae91906130a7565b4210156128fd5760405162461bcd60e51b815260206004820152601860248201527f5265736f6c7574696f6e20627566666572206163746976650000000000000000604482015260640161081c565b6009810180548315156101000261ffff1990911617600117905560405183907f4927fe38919783250023d27e65a3e56b6b5c3e49364e51674a41ef08d62460d99061140590851515815260200190565b600180546001600160a01b038381166001600160a01b0319831681179093556040519116919082907f8be0079c531659141344cd1fd0a4f28419497f9722a3daafe3b4186f6b6457e090600090a35050565b60008381526008602090815260408083206001600160a01b03861680855290835281842087855260098452828520918552925282205482919060ff1615806129eb5750600181015460ff165b806129f557508054155b15612a07576000809250925050612c2e565b8360200151600003612ad75780546001808301805460ff191690911790556040516000906001600160a01b0388169083908381818185875af1925050503d8060008114612a70576040519150601f19603f3d011682016040523d82523d6000602084013e612a75565b606091505b505090508015612abf57866001600160a01b03168860008051602061330583398151915284604051612aa991815260200190565b60405180910390a350600093509150612c2e9050565b5050600101805460ff19169055506000905080612c2e565b6000868152600760205260409020600981015460018301546101009182900460ff90811615159290910416151514612b1757600080935093505050612c2e565b60208501518551835460009291612b2d916130ba565b612b3791906130d1565b90506000612710612b496096846130ba565b612b5391906130d1565b90506000612b6182846130f3565b6001868101805460ff191690911790556040519091506000906001600160a01b038b169083908381818185875af1925050503d8060008114612bbf576040519150601f19603f3d011682016040523d82523d6000602084013e612bc4565b606091505b505090508015612c0f57896001600160a01b03168b60008051602061330583398151915284604051612bf891815260200190565b60405180910390a3509095509350612c2e92505050565b5050506001909201805460ff191690555060009250829150612c2e9050565b935093915050565b80356001600160a01b0381168114612c4d57600080fd5b919050565b60008060408385031215612c6557600080fd5b82359150612c7560208401612c36565b90509250929050565b600060208284031215612c9057600080fd5b5035919050565b60008083601f840112612ca957600080fd5b50813567ffffffffffffffff811115612cc157600080fd5b602083019150836020828501011115612cd957600080fd5b9250929050565b60008060008060008060a08789031215612cf957600080fd5b863567ffffffffffffffff811115612d1057600080fd5b612d1c89828a01612c97565b909a90995060208901359860408101359850606081013597506080013595509350505050565b60008060408385031215612d5557600080fd5b8235915060208301358015158114612d6c57600080fd5b809150509250929050565b6000815180845260005b81811015612d9d57602081850181015186830182015201612d81565b506000602082860101526020601f19601f83011685010191505092915050565b8e81528d60208201528c60408201528b60608201528a60808201528960a08201528860c082015260018060a01b03881660e08201526101c06101008201526000612e0b6101c0830189612d77565b9615156101208301525093151561014085015291151561016084015215156101808301526101a0909101529998505050505050505050565b600080600060408486031215612e5857600080fd5b83359250602084013567ffffffffffffffff80821115612e7757600080fd5b818601915086601f830112612e8b57600080fd5b813581811115612e9a57600080fd5b8760208260051b8501011115612eaf57600080fd5b6020830194508093505050509250925092565b6020815281516020820152602082015160408201526040820151606082015260608201516080820152608082015160a082015260a082015160c082015260c082015160e0820152600060e0830151610100612f27818501836001600160a01b03169052565b808501519150506101c06101208181860152612f476101e0860184612d77565b90860151909250610140612f5e8682018315159052565b8601519050610160612f738682018315159052565b8601519050610180612f888682018315159052565b86015190506101a0612f9d8682018315159052565b959095015193019290925250919050565b600060208284031215612fc057600080fd5b612fc982612c36565b9392505050565b600080600060408486031215612fe557600080fd5b83356001600160b01b031981168114612ffd57600080fd5b9250602084013567ffffffffffffffff81111561301957600080fd5b61302586828701612c97565b9497909650939450505050565b60208082526015908201527413585c9ad95d08191bd95cc81b9bdd08195e1a5cdd605a1b604082015260600190565b60208082526016908201527513585c9ad95d081a5cc81b9bdd081c995cdbdb1d995960521b604082015260600190565b634e487b7160e01b600052601160045260246000fd5b8082018082111561145057611450613091565b808202811582820484141761145057611450613091565b6000826130ee57634e487b7160e01b600052601260045260246000fd5b500490565b8181038181111561145057611450613091565b60006001820161311857613118613091565b5060010190565b634e487b7160e01b600052604160045260246000fd5b600181811c9082168061314957607f821691505b60208210810361193957634e487b7160e01b600052602260045260246000fd5b601f821115611e2f57600081815260208120601f850160051c810160208610156131905750805b601f850160051c820191505b818110156131af5782815560010161319c565b505050505050565b815167ffffffffffffffff8111156131d1576131d161311f565b6131e5816131df8454613135565b84613169565b602080601f83116001811461321a57600084156132025750858301515b600019600386901b1c1916600185901b1785556131af565b600085815260208120601f198616915b828110156132495788860151825594840194600190910190840161322a565b50858210156132675787850151600019600388901b60f8161c191681555b5050505050600190811b01905550565b60a081528560a0820152858760c0830137600060c08783010152600060c0601f19601f8901168301019050856020830152846040830152836060830152826080830152979650505050505050565b6020808252600f908201526e151c985b9cd9995c8819985a5b1959608a1b604082015260600190565b634e487b7160e01b600052603260045260246000fdfe24b5efa61dd1cfc659205a97fb8ed868f3cb8c81922bab2b96423e5de1de2cb7a264697066735822122002cfc5fc0547c6e8f67e46165ad50765d7cb074466a562cfb6c9b2112b7f680a64736f6c63430008130033",
  "linkReferences": {},
  "deployedLinkReferences": {}
}