{
  "_format": "hh-sol-artifact-1",
  "contractName": "PredictionMarket",
  "sourceName": "contracts/PredictionMarket.sol",
  "abi": [
    {
      "anonymous": false,
      "inputs": [
        {
          "indexed": true,
          "internalType": "uint256",
          "name": "marketId",
          "type": "uint256"
        },
        {
          "indexed": true,
          "internalType": "address",
          "name": "user",
          "type": "address"
        },
        {
          "indexed": false,
          "internalType": "uint256",
          "name": "amount",
          "type": "uint256"
        },
        {
          "indexed": false,
          "internalType": "bool",
          "name": "side",
          "type": "bool"
        }
      ],
      "name": "BetPlaced",
      "type": "event"
    },
    {
      "anonymous": false,
      "inputs": [
        {
          "indexed": false,
          "internalType": "uint256",
          "name": "amount",
          "type": "uint256"
        }
      ],
      "name": "LiquidityReserveFunded",
      "type": "event"
    },
    {
      "anonymous": false,
      "inputs": [
        {
          "indexed": false,
          "internalType": "uint256",
          "name": "amount",
          "type": "uint256"
        }
      ],
      "name": "LiquidityReserveWithdrawn",
      "type": "event"
    },
    {
      "anonymous": false,
      "inputs": [
        {
          "indexed": true,
          "internalType": "uint256",
          "name": "marketId",
          "type": "uint256"
        },
        {
          "indexed": false,
          "internalType": "uint256",
          "name": "refundedLiquidity",
          "type": "uint256"
        }
      ],
      "name": "MarketCanceled",
      "type": "event"
    },
    {
      "anonymous": false,
      "inputs": [
        {
          "indexed": true,
          "internalType": "uint256",
          "name": "marketId",
          "type": "uint256"
        },
        {
          "indexed": false,
          "internalType": "string",
          "name": "question",
          "type": "string"
        },
        {
          "indexed": false,
          "internalType": "uint256",
          "name": "startTime",
          "type": "uint256"
        },
        {
          "indexed": false,
          "internalType": "uint256",
          "name": "endTime",
          "type": "uint256"
        },
        {
          "indexed": false,
          "internalType": "uint256",
          "name": "minBet",
          "type": "uint256"
        },
        {
          "indexed": false,
          "internalType": "uint256",
          "name": "maxBet",
          "type": "uint256"
        },
        {
          "indexed": true,
          "internalType": "address",
          "name": "creator",
          "type": "address"
        }
      ],
      "name": "MarketCreated",
      "type": "event"
    },
    {
      "anonymous": false,
      "inputs": [
        {
          "indexed": true,
          "internalType": "uint256",
          "name": "marketId",
          "type": "uint256"
        },
        {
          "indexed": false,
          "internalType": "bool",
          "name": "outcome",
          "type": "bool"
        }
      ],
      "name": "MarketResolved",
      "type": "event"
    },
    {
      "anonymous": false,
      "inputs": [
        {
          "indexed": true,
          "internalType": "address",
          "name": "previousOwner",
          "type": "address"
        },
        {
          "indexed": true,
          "internalType": "address",
          "name": "newOwner",
          "type": "address"
        }
      ],
      "name": "OwnershipTransferred",
      "type": "event"
    },
    {
      "anonymous": false,
      "inputs": [
        {
          "indexed": false,
          "internalType": "uint256",
          "name": "amount",
          "type": "uint256"
        }
      ],
      "name": "PlatformFeesWithdrawn",
      "type": "event"
    },
    {
      "anonymous": false,
      "inputs": [
        {
          "indexed": true,
          "internalType": "uint256",
          "name": "marketId",
          "type": "uint256"
        },
        {
          "indexed": true,
          "internalType": "address",
          "name": "user",
          "type": "address"
        },
        {
          "indexed": false,
          "internalType": "uint256",
          "name": "amount",
          "type": "uint256"
        }
      ],
      "name": "RewardClaimed",
      "type": "event"
    },
    {
      "anonymous": false,
      "inputs": [
        {
          "indexed": true,
          "internalType": "uint256",
          "name": "marketId",
          "type": "uint256"
        },
        {
          "indexed": true,
          "internalType": "address",
          "name": "user",
          "type": "address"
        }
      ],
      "name": "RewardClaimedFor",
      "type": "event"
    },
    {
      "inputs": [],
      "name": "MARKET_LIQUIDITY",
      "outputs": [
        {
          "internalType": "uint256",
          "name": "",
          "type": "uint256"
        }
      ],
      "stateMutability": "view",
      "type": "function"
    },
    {
      "inputs": [],
      "name": "PLATFORM_FEE_BPS",
      "outputs": [
        {
          "internalType": "uint256",
          "name": "",
          "type": "uint256"
        }
      ],
      "stateMutability": "view",
      "type": "function"
    },
    {
      "inputs": [
        {
          "internalType": "uint256",
          "name": "marketId",
          "type": "uint256"
        },
        {
          "internalType": "address[]",
          "name": "users",
          "type": "address[]"
        }
      ],
      "name": "batchClaimFor",
      "outputs": [],
      "stateMutability": "nonpayable",
      "type": "function"
    },
    {
      "inputs": [
        {
          "internalType": "uint256",
          "name": "",
          "type": "uint256"
        },
        {
          "internalType": "address",
          "name": "",
          "type": "address"
        }
      ],
      "name": "bets",
      "outputs": [
        {
          "internalType": "uint256",
          "name": "amount",
          "type": "uint256"
        },
        {
          "internalType": "bool",
          "name": "claimed",
          "type": "bool"
        },
        {
          "internalType": "bool",
          "name": "side",
          "type": "bool"
        }
      ],
      "stateMutability": "view",
      "type": "function"
    },
    {
      "inputs": [
        {
          "internalType": "uint256",
          "name": "marketId",
          "type": "uint256"
        }
      ],
      "name": "cancelMarket",
      "outputs": [],
      "stateMutability": "nonpayable",
      "type": "function"
    },
    {
      "inputs": [
        {
          "internalType": "uint256",
          "name": "marketId",
          "type": "uint256"
        },
        {
          "internalType": "address",
          "name": "user",
          "type": "address"
        }
      ],
      "name": "claimFor",
      "outputs": [],
      "stateMutability": "nonpayable",
      "type": "function"
    },
    {
      "inputs": [
        {
          "internalType": "uint256",
          "name": "marketId",
          "type": "uint256"
        }
      ],
      "name": "claimReward",
      "outputs": [],
      "stateMutability": "nonpayable",
      "type": "function"
    },
    {
      "inputs": [
        {
          "internalType": "string",
          "name": "question",
          "type": "string"
        },
        {
          "internalType": "uint256",
          "name": "startTime",
          "type": "uint256"
        },
        {
          "internalType": "uint256",
          "name": "endTime",
          "type": "uint256"
        },
        {
          "internalType": "uint256",
          "name": "minBet",
          "type": "uint256"
        },
        {
          "internalType": "uint256",
          "name": "maxBet",
          "type": "uint256"
        }
      ],
      "name": "createMarket",
      "outputs": [],
      "stateMutability": "nonpayable",
      "type": "function"
    },
    {
      "inputs": [],
      "name": "emergencyWithdraw",
      "outputs": [],
      "stateMutability": "nonpayable",
      "type": "function"
    },
    {
      "inputs": [],
      "name": "fundLiquidityReserve",
      "outputs": [],
      "stateMutability": "payable",
      "type": "function"
    },
    {
      "inputs": [
        {
          "internalType": "uint256",
          "name": "marketId",
          "type": "uint256"
        }
      ],
      "name": "getMarket",
      "outputs": [
        {
          "components": [
            {
              "internalType": "uint256",
              "name": "id",
              "type": "uint256"
            },
            {
              "internalType": "uint256",
              "name": "startTime",
              "type": "uint256"
            },
            {
              "internalType": "uint256",
              "name": "endTime",
              "type": "uint256"
            },
            {
              "internalType": "uint256",
              "name": "minBet",
              "type": "uint256"
            },
            {
              "internalType": "uint256",
              "name": "maxBet",
              "type": "uint256"
            },
            {
              "internalType": "uint256",
              "name": "yesPool",
              "type": "uint256"
            },
            {
              "internalType": "uint256",
              "name": "noPool",
              "type": "uint256"
            },
            {
              "internalType": "address",
              "name": "creator",
              "type": "address"
            },
            {
              "internalType": "string",
              "name": "question",
              "type": "string"
            },
            {
              "internalType": "bool",
              "name": "resolved",
              "type": "bool"
            },
            {
              "internalType": "bool",
              "name": "outcome",
              "type": "bool"
            },
            {
              "internalType": "bool",
              "name": "exists",
              "type": "bool"
            }
          ],
          "internalType": "struct PredictionMarket.Market",
          "name": "",
          "type": "tuple"
        }
      ],
      "stateMutability": "view",
      "type": "function"
    },
    {
      "inputs": [],
      "name": "getMarketCount",
      "outputs": [
        {
          "internalType": "uint256",
          "name": "",
          "type": "uint256"
        }
      ],
      "stateMutability": "view",
      "type": "function"
    },
    {
      "inputs": [
        {
          "internalType": "uint256",
          "name": "marketId",
          "type": "uint256"
        }
      ],
      "name": "getMarketVolume",
      "outputs": [
        {
          "internalType": "uint256",
          "name": "",
          "type": "uint256"
        }
      ],
      "stateMutability": "view",
      "type": "function"
    },
    {
      "inputs": [
        {
          "internalType": "uint256",
          "name": "marketId",
          "type": "uint256"
        }
      ],
      "name": "getOdds",
      "outputs": [
        {
          "internalType": "uint256",
          "name": "yesOdds",
          "type": "uint256"
        },
        {
          "internalType": "uint256",
          "name": "noOdds",
          "type": "uint256"
        }
      ],
      "stateMutability": "view",
      "type": "function"
    },
    {
      "inputs": [],
      "name": "getPlatformProfit",
      "outputs": [
        {
          "internalType": "uint256",
          "name": "",
          "type": "uint256"
        }
      ],
      "stateMutability": "view",
      "type": "function"
    },
    {
      "inputs": [],
      "name": "getPlatformStats",
      "outputs": [
        {
          "internalType": "uint256",
          "name": "lifetimeFees",
          "type": "uint256"
        },
        {
          "internalType": "uint256",
          "name": "withdrawnFees",
          "type": "uint256"
        },
        {
          "internalType": "uint256",
          "name": "withdrawableFees",
          "type": "uint256"
        },
        {
          "internalType": "uint256",
          "name": "liquidityReserve",
          "type": "uint256"
        },
        {
          "internalType": "uint256",
          "name": "contractBalance",
          "type": "uint256"
        }
      ],
      "stateMutability": "view",
      "type": "function"
    },
    {
      "inputs": [
        {
          "internalType": "uint256",
          "name": "marketId",
          "type": "uint256"
        },
        {
          "internalType": "address",
          "name": "user",
          "type": "address"
        }
      ],
      "name": "getUserBet",
      "outputs": [
        {
          "components": [
            {
              "internalType": "uint256",
              "name": "amount",
              "type": "uint256"
            },
            {
              "internalType": "bool",
              "name": "claimed",
              "type": "bool"
            },
            {
              "internalType": "bool",
              "name": "side",
              "type": "bool"
            }
          ],
          "internalType": "struct PredictionMarket.Bet",
          "name": "",
          "type": "tuple"
        }
      ],
      "stateMutability": "view",
      "type": "function"
    },
    {
      "inputs": [],
      "name": "getWithdrawableFees",
      "outputs": [
        {
          "internalType": "uint256",
          "name": "",
          "type": "uint256"
        }
      ],
      "stateMutability": "view",
      "type": "function"
    },
    {
      "inputs": [
        {
          "internalType": "uint256",
          "name": "",
          "type": "uint256"
        },
        {
          "internalType": "address",
          "name": "",
          "type": "address"
        }
      ],
      "name": "hasBet",
      "outputs": [
        {
          "internalType": "bool",
          "name": "",
          "type": "bool"
        }
      ],
      "stateMutability": "view",
      "type": "function"
    },
    {
      "inputs": [
        {
          "internalType": "uint256",
          "name": "marketId",
          "type": "uint256"
        },
        {
          "internalType": "address",
          "name": "user",
          "type": "address"
        }
      ],
      "name": "hasUserBet",
      "outputs": [
        {
          "internalType": "bool",
          "name": "",
          "type": "bool"
        }
      ],
      "stateMutability": "view",
      "type": "function"
    },
    {
      "inputs": [],
      "name": "lifetimeFeesCollected",
      "outputs": [
        {
          "internalType": "uint256",
          "name": "",
          "type": "uint256"
        }
      ],
      "stateMutability": "view",
      "type": "function"
    },
    {
      "inputs": [],
      "name": "lifetimeFeesWithdrawn",
      "outputs": [
        {
          "internalType": "uint256",
          "name": "",
          "type": "uint256"
        }
      ],
      "stateMutability": "view",
      "type": "function"
    },
    {
      "inputs": [
        {
          "internalType": "uint256",
          "name": "",
          "type": "uint256"
        }
      ],
      "name": "markets",
      "outputs": [
        {
          "internalType": "uint256",
          "name": "id",
          "type": "uint256"
        },
        {
          "internalType": "uint256",
          "name": "startTime",
          "type": "uint256"
        },
        {
          "internalType": "uint256",
          "name": "endTime",
          "type": "uint256"
        },
        {
          "internalType": "uint256",
          "name": "minBet",
          "type": "uint256"
        },
        {
          "internalType": "uint256",
          "name": "maxBet",
          "type": "uint256"
        },
        {
          "internalType": "uint256",
          "name": "yesPool",
          "type": "uint256"
        },
        {
          "internalType": "uint256",
          "name": "noPool",
          "type": "uint256"
        },
        {
          "internalType": "address",
          "name": "creator",
          "type": "address"
        },
        {
          "internalType": "string",
          "name": "question",
          "type": "string"
        },
        {
          "internalType": "bool",
          "name": "resolved",
          "type": "bool"
        },
        {
          "internalType": "bool",
          "name": "outcome",
          "type": "bool"
        },
        {
          "internalType": "bool",
          "name": "exists",
          "type": "bool"
        }
      ],
      "stateMutability": "view",
      "type": "function"
    },
    {
      "inputs": [],
      "name": "owner",
      "outputs": [
        {
          "internalType": "address",
          "name": "",
          "type": "address"
        }
      ],
      "stateMutability": "view",
      "type": "function"
    },
    {
      "inputs": [
        {
          "internalType": "uint256",
          "name": "marketId",
          "type": "uint256"
        },
        {
          "internalType": "bool",
          "name": "side",
          "type": "bool"
        }
      ],
      "name": "placeBet",
      "outputs": [],
      "stateMutability": "payable",
      "type": "function"
    },
    {
      "inputs": [],
      "name": "platformLiquidityReserve",
      "outputs": [
        {
          "internalType": "uint256",
          "name": "",
          "type": "uint256"
        }
      ],
      "stateMutability": "view",
      "type": "function"
    },
    {
      "inputs": [],
      "name": "renounceOwnership",
      "outputs": [],
      "stateMutability": "nonpayable",
      "type": "function"
    },
    {
      "inputs": [
        {
          "internalType": "uint256",
          "name": "marketId",
          "type": "uint256"
        },
        {
          "internalType": "bool",
          "name": "outcome",
          "type": "bool"
        }
      ],
      "name": "resolveMarket",
      "outputs": [],
      "stateMutability": "nonpayable",
      "type": "function"
    },
    {
      "inputs": [],
      "name": "totalCollectedFees",
      "outputs": [
        {
          "internalType": "uint256",
          "name": "",
          "type": "uint256"
        }
      ],
      "stateMutability": "view",
      "type": "function"
    },
    {
      "inputs": [
        {
          "internalType": "address",
          "name": "newOwner",
          "type": "address"
        }
      ],
      "name": "transferOwnership",
      "outputs": [],
      "stateMutability": "nonpayable",
      "type": "function"
    },
    {
      "inputs": [
        {
          "internalType": "uint256",
          "name": "amount",
          "type": "uint256"
        }
      ],
      "name": "withdrawLiquidityReserve",
      "outputs": [],
      "stateMutability": "nonpayable",
      "type": "function"
    },
    {
      "inputs": [],
      "name": "withdrawPlatformFees",
      "outputs": [],
      "stateMutability": "nonpayable",
      "type": "function"
    },
    {
      "stateMutability": "payable",
      "type": "receive"
    }
  ],
  "bytecode": "0x608060405234801561001057600080fd5b50600160005561001f33610024565b610076565b600180546001600160a01b038381166001600160a01b0319831681179093556040519116919082907f8be0079c531659141344cd1fd0a4f28419497f9722a3daafe3b4186f6b6457e090600090a35050565b6128ad806100856000396000f3fe6080604052600436106101e75760003560e01c80639ed9c74d11610102578063d7785bdb11610095578063f134ad0a11610064578063f134ad0a1461061a578063f2fde38b14610630578063f644b3bb14610650578063fd69f3c2146106b857600080fd5b8063d7785bdb146105a3578063db2e21bc146105b8578063de9b9c5f146105cd578063eb44fdd3146105ed57600080fd5b8063b1283e77116100d1578063b1283e771461048b578063c03fb87c146104c3578063c3b0c7c514610572578063d0b7830b1461058e57600080fd5b80639ed9c74d146103fd578063a95f028a14610410578063ae062acd14610430578063ae169a501461046b57600080fd5b806357bde4461161017a5780638443b233116101495780638443b233146103795780638da5cb5b146103a957806396bd072c146103d15780639db491e2146103e757600080fd5b806357bde4461461030f578063715018a61461032f5780637c16cd9e1461034457806383d430cd1461036457600080fd5b80633381525a116101b65780633381525a146102965780633ad62988146102b65780633eb6e623146102d6578063539aa77f146102fa57600080fd5b806310ee3f00146101f3578063126c416614610215578063136d88831461024f5780631ebba6541461028e57600080fd5b366101ee57005b600080fd5b3480156101ff57600080fd5b5061021361020e3660046122a3565b6106cd565b005b34801561022157600080fd5b506102356102303660046122cf565b61078d565b604080519283526020830191909152015b60405180910390f35b34801561025b57600080fd5b5060055460065460035460045460408051948552602085019390935291830152606082015247608082015260a001610246565b610213610875565b3480156102a257600080fd5b506102136102b13660046122cf565b610919565b3480156102c257600080fd5b506102136102d13660046122e8565b610ab5565b3480156102e257600080fd5b506102ec60055481565b604051908152602001610246565b34801561030657600080fd5b506102ec609681565b34801561031b57600080fd5b5061021361032a366004612378565b610ebd565b34801561033b57600080fd5b5061021361100d565b34801561035057600080fd5b5061021361035f3660046122cf565b611021565b34801561037057600080fd5b506102ec611153565b34801561038557600080fd5b506103996103943660046122a3565b61116a565b6040519015158152602001610246565b3480156103b557600080fd5b506001546040516001600160a01b039091168152602001610246565b3480156103dd57600080fd5b506102ec60035481565b3480156103f357600080fd5b506102ec60045481565b61021361040b366004612378565b611197565b34801561041c57600080fd5b506102ec61042b3660046122cf565b6114ed565b34801561043c57600080fd5b5061039961044b3660046122a3565b600960209081526000928352604080842090915290825290205460ff1681565b34801561047757600080fd5b506102136104863660046122cf565b6115af565b34801561049757600080fd5b506104ab6104a63660046122cf565b61162f565b6040516102469c9b9a999897969594939291906123f3565b3480156104cf57600080fd5b5061054c6104de3660046122a3565b604080516060808201835260008083526020808401829052928401819052948552600882528285206001600160a01b039490941685529281529281902081519283018252805483526001015460ff808216151594840194909452610100900490921615159181019190915290565b604080518251815260208084015115159082015291810151151590820152606001610246565b34801561057e57600080fd5b506102ec676f05b59d3b20000081565b34801561059a57600080fd5b5061021361172b565b3480156105af57600080fd5b506003546102ec565b3480156105c457600080fd5b5061021361186b565b3480156105d957600080fd5b506102136105e836600461246a565b61195e565b3480156105f957600080fd5b5061060d6106083660046122cf565b611c41565b60405161024691906124e9565b34801561062657600080fd5b506102ec60065481565b34801561063c57600080fd5b5061021361064b3660046125ac565b611df6565b34801561065c57600080fd5b5061069b61066b3660046122a3565b60086020908152600092835260408084209091529082529020805460019091015460ff8082169161010090041683565b604080519384529115156020840152151590820152606001610246565b3480156106c457600080fd5b506002546102ec565b6106d5611e6c565b6000828152600760205260409020600981015483919062010000900460ff166107195760405162461bcd60e51b8152600401610710906125ce565b60405180910390fd5b600981015460ff1661073d5760405162461bcd60e51b8152600401610710906125fd565b6107478484611ec5565b6040516001600160a01b0384169085907fed498030837cb2e17fef08f16b80d1206257306957b6113fa83c6da94a88144490600090a350506107896001600055565b5050565b60008181526007602052604081206006810154600582015483929183916107b49190612643565b9050806000036107cc5750614e209485945092505050565b60008183600501546127106107e19190612656565b6107eb919061266d565b905060008284600601546127106108029190612656565b61080c919061266d565b9050600061081d609661271061268f565b905061082b83612710612656565b610839826305f5e100612656565b610843919061266d565b965061085182612710612656565b61085f826305f5e100612656565b610869919061266d565b95505050505050915091565b61087d6121db565b600034116108cd5760405162461bcd60e51b815260206004820152601d60248201527f4d7573742073656e64204d4f4e20746f2066756e6420726573657276650000006044820152606401610710565b34600460008282546108df9190612643565b90915550506040513481527f1007592a11eeb4aa60e4b25785d069d874a5e0393449da55070633eca253d5ba9060200160405180910390a1565b6109216121db565b600081116109715760405162461bcd60e51b815260206004820152601d60248201527f416d6f756e74206d7573742062652067726561746572207468616e20300000006044820152606401610710565b6004548111156109c35760405162461bcd60e51b815260206004820152601c60248201527f496e73756666696369656e7420726573657276652062616c616e6365000000006044820152606401610710565b80600460008282546109d5919061268f565b90915550506001546040516000916001600160a01b03169083908381818185875af1925050503d8060008114610a27576040519150601f19603f3d011682016040523d82523d6000602084013e610a2c565b606091505b5050905080610a7d5760405162461bcd60e51b815260206004820152601960248201527f52657365727665207769746864726177616c206661696c6564000000000000006044820152606401610710565b6040518281527ffae62d177ddcb96191c434d1f832fdcb17f33c6c75e25049e47ee43dd9b8d717906020015b60405180910390a15050565b428411610b045760405162461bcd60e51b815260206004820181905260248201527f53746172742074696d65206d75737420626520696e20746865206675747572656044820152606401610710565b838311610b5d5760405162461bcd60e51b815260206004820152602160248201527f456e642074696d65206d7573742062652061667465722073746172742074696d6044820152606560f81b6064820152608401610710565b60008211610bad5760405162461bcd60e51b815260206004820152601e60248201527f4d696e20626574206d7573742062652067726561746572207468616e203000006044820152606401610710565b818111610c085760405162461bcd60e51b8152602060048201526024808201527f4d617820626574206d7573742062652067726561746572207468616e206d696e6044820152630818995d60e21b6064820152608401610710565b84610c555760405162461bcd60e51b815260206004820152601860248201527f5175657374696f6e2063616e6e6f7420626520656d70747900000000000000006044820152606401610710565b676f05b59d3b2000006004541015610caf5760405162461bcd60e51b815260206004820152601f60248201527f496e73756666696369656e7420706c6174666f726d206c6971756964697479006044820152606401610710565b60028054906000610cbf836126a2565b9091555060009050610cda6002676f05b59d3b20000061266d565b9050676f05b59d3b20000060046000828254610cf6919061268f565b925050819055506040518061018001604052806002548152602001868152602001858152602001848152602001838152602001828152602001828152602001336001600160a01b0316815260200188888080601f0160208091040260200160405190810160405280939291908181526020018383808284376000920182905250938552505050602080830182905260408084018390526001606094850181905260028054855260078085529483902087518155938701519184019190915590850151908201559183015160038301556080830151600483015560a0830151600583015560c0830151600683015560e083015190820180546001600160a01b0319166001600160a01b039092169190911790556101008201516008820190610e1d9082612753565b5061012082015160099091018054610140840151610160909401511515620100000262ff0000199415156101000261ff00199415159490941661ffff199092169190911792909217929092161790556002546040513391907f6b68a2fc85527405d93824f9ea03022f60f50735f43c2bf600582af1824f500690610eac908b908b908b908b908b908b90612813565b60405180910390a350505050505050565b610ec56121db565b6000828152600760205260409020600981015483919062010000900460ff16610f005760405162461bcd60e51b8152600401610710906125ce565b8060020154421015610f4b5760405162461bcd60e51b815260206004820152601460248201527313585c9ad95d081a185cc81b9bdd08195b99195960621b6044820152606401610710565b6000848152600760205260409020600981015460ff1615610fae5760405162461bcd60e51b815260206004820152601760248201527f4d61726b657420616c7265616479207265736f6c7665640000000000000000006044820152606401610710565b6009810180548515156101000261ffff1990911617600117905560405185907f4927fe38919783250023d27e65a3e56b6b5c3e49364e51674a41ef08d62460d990610ffe90871515815260200190565b60405180910390a25050505050565b6110156121db565b61101f6000612235565b565b6110296121db565b600081815260076020526040902060090154819062010000900460ff166110625760405162461bcd60e51b8152600401610710906125ce565b6000828152600760205260409020600981015460ff16156110c55760405162461bcd60e51b815260206004820152601d60248201527f43616e6e6f742063616e63656c207265736f6c766564206d61726b65740000006044820152606401610710565b6000816006015482600501546110db9190612643565b905080600460008282546110ef9190612643565b9091555050600060058301819055600683015560098201805460ff1916600117905560405184907f932bcc53fcf504089c21d39fef179e3b2510b8c80e97bf91c4b9b845cb952971906111459084815260200190565b60405180910390a250505050565b6000600654600554611165919061268f565b905090565b60008281526009602090815260408083206001600160a01b038516845290915290205460ff165b92915050565b6000828152600760205260409020600981015483919062010000900460ff166111d25760405162461bcd60e51b8152600401610710906125ce565b600981015460ff161561121c5760405162461bcd60e51b815260206004820152601260248201527113585c9ad95d081a5cc81c995cdbdb1d995960721b6044820152606401610710565b8060010154421061126f5760405162461bcd60e51b815260206004820152601e60248201527f4d61726b65742062657474696e672070686173652068617320656e64656400006044820152606401610710565b600084815260096020908152604080832033845290915290205460ff16156112e55760405162461bcd60e51b815260206004820152602360248201527f557365722068617320616c726561647920626574206f6e2074686973206d61726044820152621ad95d60ea1b6064820152608401610710565b600084815260076020526040902060038101543410156113475760405162461bcd60e51b815260206004820152601860248201527f42657420616d6f756e742062656c6f77206d696e696d756d00000000000000006044820152606401610710565b806004015434111561139b5760405162461bcd60e51b815260206004820152601860248201527f42657420616d6f756e742061626f7665206d6178696d756d00000000000000006044820152606401610710565b60006127106113ab609634612656565b6113b5919061266d565b905060006113c3823461268f565b905081600360008282546113d79190612643565b9250508190555081600560008282546113f09190612643565b909155505060408051606081018252828152600060208083018281528a1580158587019081528d8552600884528685203380875290855287862096518755925160019687018054925115156101000261ff00199215159290921661ffff19909316929092171790558c8452600983528584209184529152929020805460ff19169091179055611498578083600501600082825461148d9190612643565b909155506114b29050565b808360060160008282546114ac9190612643565b90915550505b604080518281528715156020820152339189917fb1bd10cf5ea9540f12b9b182707734fd82deacc56830e2bd316133deb372bff49101610eac565b600081815260076020526040812060090154829062010000900460ff166115265760405162461bcd60e51b8152600401610710906125ce565b6000838152600760205260408120906115486002676f05b59d3b20000061266d565b90506000818360050154101561155f57600061156f565b81836005015461156f919061268f565b905060008284600601541015611586576000611596565b828460060154611596919061268f565b90506115a28183612643565b9550505050505b50919050565b6115b7611e6c565b6000818152600760205260409020600981015482919062010000900460ff166115f25760405162461bcd60e51b8152600401610710906125ce565b600981015460ff166116165760405162461bcd60e51b8152600401610710906125fd565b6116208333611ec5565b505061162c6001600055565b50565b60076020819052600091825260409091208054600182015460028301546003840154600485015460058601546006870154978701546008880180549799969895979496939592946001600160a01b03909216929161168c906126d1565b80601f01602080910402602001604051908101604052809291908181526020018280546116b8906126d1565b80156117055780601f106116da57610100808354040283529160200191611705565b820191906000526020600020905b8154815290600101906020018083116116e857829003601f168201915b5050506009909301549192505060ff80821691610100810482169162010000909104168c565b6117336121db565b600354806117795760405162461bcd60e51b81526020600482015260136024820152724e6f206665657320746f20776974686472617760681b6044820152606401610710565b600060038190555080600660008282546117939190612643565b90915550506001546040516000916001600160a01b03169083908381818185875af1925050503d80600081146117e5576040519150601f19603f3d011682016040523d82523d6000602084013e6117ea565b606091505b505090508061183b5760405162461bcd60e51b815260206004820152601c60248201527f506c6174666f726d20666565207472616e73666572206661696c6564000000006044820152606401610710565b6040518281527f9870c8023baa016ac002ddfa7cdad341155acddddee3032c07d4baa4947ae64390602001610aa9565b6118736121db565b47806118b85760405162461bcd60e51b81526020600482015260146024820152734e6f2066756e647320746f20776974686472617760601b6044820152606401610710565b60006118cc6001546001600160a01b031690565b6001600160a01b03168260405160006040518083038185875af1925050503d8060008114611916576040519150601f19603f3d011682016040523d82523d6000602084013e61191b565b606091505b50509050806107895760405162461bcd60e51b815260206004820152600f60248201526e151c985b9cd9995c8819985a5b1959608a1b6044820152606401610710565b611966611e6c565b6000838152600760205260409020600981015484919062010000900460ff166119a15760405162461bcd60e51b8152600401610710906125ce565b600981015460ff166119c55760405162461bcd60e51b8152600401610710906125fd565b6000858152600760205260408120600681015460058201549192916119ea9190612643565b6009830154909150600090610100900460ff16611a0b578260060154611a11565b82600501545b905080600003611a2357505050611c30565b60005b86811015611c2b576000888883818110611a4257611a42612861565b9050602002016020810190611a5791906125ac565b60008b81526008602090815260408083206001600160a01b0385168085529083528184208f8552600984528285209185529252909120549192509060ff168015611aa65750600181015460ff16155b8015611ace5750600986015460018201546101009182900460ff908116151592909104161515145b8015611ada5750805415155b15611c2157600084868360000154611af29190612656565b611afc919061266d565b90506000612710611b0e609684612656565b611b18919061266d565b90506000611b26828461268f565b6001858101805460ff19169091179055600380549192508391600090611b4d908490612643565b90915550506040516000906001600160a01b0387169083908381818185875af1925050503d8060008114611b9d576040519150601f19603f3d011682016040523d82523d6000602084013e611ba2565b606091505b505090508015611bf557856001600160a01b03168f7f24b5efa61dd1cfc659205a97fb8ed868f3cb8c81922bab2b96423e5de1de2cb784604051611be891815260200190565b60405180910390a3611c1c565b60018501805460ff1916905560038054849190600090611c1690849061268f565b90915550505b505050505b5050600101611a26565b505050505b5050611c3c6001600055565b505050565b611cb46040518061018001604052806000815260200160008152602001600081526020016000815260200160008152602001600081526020016000815260200160006001600160a01b03168152602001606081526020016000151581526020016000151581526020016000151581525090565b600082815260076020818152604092839020835161018081018552815481526001820154928101929092526002810154938201939093526003830154606082015260048301546080820152600583015460a0820152600683015460c0820152908201546001600160a01b031660e082015260088201805491929161010084019190611d3e906126d1565b80601f0160208091040260200160405190810160405280929190818152602001828054611d6a906126d1565b8015611db75780601f10611d8c57610100808354040283529160200191611db7565b820191906000526020600020905b815481529060010190602001808311611d9a57829003601f168201915b50505091835250506009919091015460ff8082161515602084015261010082048116151560408401526201000090910416151560609091015292915050565b611dfe6121db565b6001600160a01b038116611e635760405162461bcd60e51b815260206004820152602660248201527f4f776e61626c653a206e6577206f776e657220697320746865207a65726f206160448201526564647265737360d01b6064820152608401610710565b61162c81612235565b600260005403611ebe5760405162461bcd60e51b815260206004820152601f60248201527f5265656e7472616e637947756172643a207265656e7472616e742063616c6c006044820152606401610710565b6002600055565b60008281526008602090815260408083206001600160a01b03851680855290835281842086855260078452828520600985528386209286529190935292205490919060ff16611f455760405162461bcd60e51b815260206004820152600c60248201526b139bc818995d08199bdd5b9960a21b6044820152606401610710565b600182015460ff1615611f8c5760405162461bcd60e51b815260206004820152600f60248201526e105b1c9958591e4818db185a5b5959608a1b6044820152606401610710565b600981015460018301546101009182900460ff90811615159290910416151514611feb5760405162461bcd60e51b815260206004820152601060248201526f4e6f742077696e6e696e67207369646560801b6044820152606401610710565b6000816006015482600501546120019190612643565b6009830154909150600090610100900460ff16612022578260060154612028565b82600501545b90506000811161206f5760405162461bcd60e51b815260206004820152601260248201527157696e6e696e6720706f6f6c20656d70747960701b6044820152606401610710565b6000818386600001546120829190612656565b61208c919061266d565b9050600061271061209e609684612656565b6120a8919061266d565b905060006120b6828461268f565b905081600360008282546120ca9190612643565b9250508190555081600560008282546120e39190612643565b90915550506001878101805460ff191690911790556040516000906001600160a01b038a169083908381818185875af1925050503d8060008114612143576040519150601f19603f3d011682016040523d82523d6000602084013e612148565b606091505b505090508061218b5760405162461bcd60e51b815260206004820152600f60248201526e151c985b9cd9995c8819985a5b1959608a1b6044820152606401610710565b886001600160a01b03168a7f24b5efa61dd1cfc659205a97fb8ed868f3cb8c81922bab2b96423e5de1de2cb7846040516121c791815260200190565b60405180910390a350505050505050505050565b6001546001600160a01b0316331461101f5760405162461bcd60e51b815260206004820181905260248201527f4f776e61626c653a2063616c6c6572206973206e6f7420746865206f776e65726044820152606401610710565b600180546001600160a01b038381166001600160a01b0319831681179093556040519116919082907f8be0079c531659141344cd1fd0a4f28419497f9722a3daafe3b4186f6b6457e090600090a35050565b80356001600160a01b038116811461229e57600080fd5b919050565b600080604083850312156122b657600080fd5b823591506122c660208401612287565b90509250929050565b6000602082840312156122e157600080fd5b5035919050565b60008060008060008060a0878903121561230157600080fd5b863567ffffffffffffffff8082111561231957600080fd5b818901915089601f83011261232d57600080fd5b81358181111561233c57600080fd5b8a602082850101111561234e57600080fd5b60209283019b909a5091890135986040810135985060608101359750608001359550909350505050565b6000806040838503121561238b57600080fd5b82359150602083013580151581146123a257600080fd5b809150509250929050565b6000815180845260005b818110156123d3576020818501810151868301820152016123b7565b506000602082860101526020601f19601f83011685010191505092915050565b60006101808e83528d60208401528c60408401528b60608401528a60808401528960a08401528860c084015260018060a01b03881660e084015280610100840152612440818401886123ad565b95151561012084015250509115156101408301521515610160909101529998505050505050505050565b60008060006040848603121561247f57600080fd5b83359250602084013567ffffffffffffffff8082111561249e57600080fd5b818601915086601f8301126124b257600080fd5b8135818111156124c157600080fd5b8760208260051b85010111156124d657600080fd5b6020830194508093505050509250925092565b6020815281516020820152602082015160408201526040820151606082015260608201516080820152608082015160a082015260a082015160c082015260c082015160e0820152600060e083015161010061254e818501836001600160a01b03169052565b80850151915050610180610120818186015261256e6101a08601846123ad565b908601519092506101406125858682018315159052565b860151905061016061259a8682018315159052565b90950151151593019290925250919050565b6000602082840312156125be57600080fd5b6125c782612287565b9392505050565b60208082526015908201527413585c9ad95d08191bd95cc81b9bdd08195e1a5cdd605a1b604082015260600190565b60208082526016908201527513585c9ad95d081a5cc81b9bdd081c995cdbdb1d995960521b604082015260600190565b634e487b7160e01b600052601160045260246000fd5b808201808211156111915761119161262d565b80820281158282048414176111915761119161262d565b60008261268a57634e487b7160e01b600052601260045260246000fd5b500490565b818103818111156111915761119161262d565b6000600182016126b4576126b461262d565b5060010190565b634e487b7160e01b600052604160045260246000fd5b600181811c908216806126e557607f821691505b6020821081036115a957634e487b7160e01b600052602260045260246000fd5b601f821115611c3c57600081815260208120601f850160051c8101602086101561272c5750805b601f850160051c820191505b8181101561274b57828155600101612738565b505050505050565b815167ffffffffffffffff81111561276d5761276d6126bb565b6127818161277b84546126d1565b84612705565b602080601f8311600181146127b6576000841561279e5750858301515b600019600386901b1c1916600185901b17855561274b565b600085815260208120601f198616915b828110156127e5578886015182559484019460019091019084016127c6565b50858210156128035787850151600019600388901b60f8161c191681555b5050505050600190811b01905550565b60a081528560a0820152858760c0830137600060c08783010152600060c0601f19601f8901168301019050856020830152846040830152836060830152826080830152979650505050505050565b634e487b7160e01b600052603260045260246000fdfea26469706673582212200a8b8f8f89e85bc43db387afcffa24fe3a84e45089020f75d17659b131c64acd64736f6c63430008130033",
  "linkReferences": {},
  "deployedLinkReferences": {}
}