{
  "_format": "hh-sol-artifact-1",
  "contractName": "MockRejectingReceiver",
  "sourceName": "contracts/MockRejectingReceiver.sol",
  "abi": [
    {
      "inputs": [
        {
          "internalType": "address",
          "name": "marketAddress",
          "type": "address"
        },
        {
          "internalType": "uint256",
          "name": "marketId",
          "type": "uint256"
        },
        {
          "internalType": "bool",
          "name": "side",
          "type": "bool"
        }
      ],
      "name": "placeBet",
      "outputs": [],
      "stateMutability": "payable",
      "type": "function"
    }
  ],
  "bytecode": "0x608060405234801561001057600080fd5b506101de806100206000396000f3fe60806040526004361061001e5760003560e01c80639908367914610023575b600080fd5b610036610031366004610126565b610038565b005b6040516024810183905281151560448201526000906001600160a01b03851690349060640160408051601f198184030181529181526020820180516001600160e01b0316639ed9c74d60e01b179052516100929190610179565b60006040518083038185875af1925050503d80600081146100cf576040519150601f19603f3d011682016040523d82523d6000602084013e6100d4565b606091505b50509050806101205760405162461bcd60e51b815260206004820152601460248201527310995d081c1b1858d95b595b9d0819985a5b195960621b604482015260640160405180910390fd5b50505050565b60008060006060848603121561013b57600080fd5b83356001600160a01b038116811461015257600080fd5b9250602084013591506040840135801515811461016e57600080fd5b809150509250925092565b6000825160005b8181101561019a5760208186018101518583015201610180565b50600092019182525091905056fea26469706673582212208aa30af9798e832a0978fb10bc61cbfdc99aaed628e406253894904f1a216dea64736f6c63430008130033",
  "linkReferences": {},
  "deployedLinkReferences": {}
}