{
  "_format": "hh-sol-artifact-1",
  "contractName": "MockFunctionsRouter",
  "sourceName": "contracts/MockFunctionsRouter.sol",
  "abi": [
    {
      "inputs": [
        {
          "internalType": "address",
          "name": "client",
          "type": "address"
        },
        {
          "internalType": "bytes32",
          "name": "requestId",
          "type": "bytes32"
        },
        {
          "internalType": "bytes",
          "name": "response",
          "type": "bytes"
        },
        {
          "internalType": "bytes",
          "name": "err",
          "type": "bytes"
        }
      ],
      "name": "fulfill",
      "outputs": [],
      "stateMutability": "nonpayable",
      "type": "function"
    },
    {
      "inputs": [
        {
          "internalType": "uint64",
          "name": "subscriptionId",
          "type": "uint64"
        },
        {
          "internalType": "bytes",
          "name": "",
          "type": "bytes"
        },
        {
          "internalType": "uint16",
          "name": "",
          "type": "uint16"
        },
        {
          "internalType": "uint32",
          "name": "",
          "type": "uint32"
        },
        {
          "internalType": "bytes32",
          "name": "",
          "type": "bytes32"
        }
      ],
      "name": "sendRequest",
      "outputs": [
        {
          "internalType": "bytes32",
          "name": "",
          "type": "bytes32"
        }
      ],
      "stateMutability": "view",
      "type": "function"
    }
  ],
  "bytecode": "0x608060405234801561001057600080fd5b506103f4806100206000396000f3fe608060405234801561001057600080fd5b50600436106100365760003560e01c80631b7d0a2d1461003b578063461d276214610050575b600080fd5b61004e6100493660046101f7565b610075565b005b61006361005e36600461028f565b610161565b60405190815260200160405180910390f35b6000866001600160a01b0316868686868660405160240161009a959493929190610356565b60408051601f198184030181529181526020820180516001600160e01b0316630ca7617560e01b179052516100cf919061038f565b6000604051808303816000865af19150503d806000811461010c576040519150601f19603f3d011682016040523d82523d6000602084013e610111565b606091505b50509050806101585760405162461bcd60e51b815260206004820152600f60248201526e10d85b1b189858dac819985a5b1959608a1b604482015260640160405180910390fd5b50505050505050565b6000428760405160200161018c92919091825260c01b6001600160c01b031916602082015260280190565b6040516020818303038152906040528051906020012090509695505050505050565b60008083601f8401126101c057600080fd5b50813567ffffffffffffffff8111156101d857600080fd5b6020830191508360208285010111156101f057600080fd5b9250929050565b6000806000806000806080878903121561021057600080fd5b86356001600160a01b038116811461022757600080fd5b955060208701359450604087013567ffffffffffffffff8082111561024b57600080fd5b6102578a838b016101ae565b9096509450606089013591508082111561027057600080fd5b5061027d89828a016101ae565b979a9699509497509295939492505050565b60008060008060008060a087890312156102a857600080fd5b863567ffffffffffffffff80821682146102c157600080fd5b909650602088013590808211156102d757600080fd5b506102e489828a016101ae565b909650945050604087013561ffff811681146102ff57600080fd5b9250606087013563ffffffff8116811461031857600080fd5b80925050608087013590509295509295509295565b81835281816020850137506000828201602090810191909152601f909101601f19169091010190565b85815260606020820152600061037060608301868861032d565b828103604084015261038381858761032d565b98975050505050505050565b6000825160005b818110156103b05760208186018101518583015201610396565b50600092019182525091905056fea26469706673582212206fc2383042a4396d18c7bc3640daf15b20cb282a55417700c505a056f4c0dff264736f6c63430008130033",
  "linkReferences": {},
  "deployedLinkReferences": {}
}